:020000040800F2
:1060000030B9002035620008CB840008C57600084E
:1060100061840008816B000861DD00080000000059
:106020000000000000000000000000007FD0000819
:10603000A971000800000000C76A000891D100089B
:106040004F6200084F6200084F6200080DCB000845
:106050004F6200084F6200084F6200084F6200085C
:106060004F6200084F6200084F6200084F6200084C
:106070004F6200084F6200084F6200084F6200083C
:106080004F6200084F6200084F6200084F6200082C
:106090004F6200084F6200084F6200084F6200081C
:1060A0004F6200084F6200084F6200084F6200080C
:1060B0004F6200084F6200084F6200084F620008FC
:1060C0004F6200084F6200084F6200084F620008EC
:1060D0004F6200080DD200084F6200084F620008AE
:1060E0004F6200084F6200084F6200084F620008CC
:1060F0004F6200084F6200084F6200084F620008BC
:106100004F6200084F6200084F6200084F620008AB
:106110004F6200084F6200084F6200084F6200089B
:106120004F6200084F6200084F6200084F6200088B
:1061300000F002F800F06EF80AA090E8000C82442B
:106140008344AAF10107DA4501D100F063F8AFF208
:10615000090EBAE80F0013F0010F18BFFB1A43F045
:106160000103184780D80000A0D800000A444FF06F
:10617000000C10F8013B13F0070408BF10F8014BA6
:106180001D1108BF10F8015B641E05D010F8016BEB
:10619000641E01F8016BF9D113F0080F1EBF10F84F
:1061A000014BAD1C0C1B09D16D1E58BF01F801CB72
:1061B000FAD505E014F8016B01F8016B6D1EF9D5F5
:1061C0009142D6D37047000000230024002500260A
:1061D000103A28BF78C1FBD8520728BF30C148BF4A
:1061E0000B607047642900F0DF80782900F0188187
:1061F000732900F0B883002070471FB500F0CEFB74
:106200000400002000210CF055FB401C60601FBD05
:1062100010B510BD00F0CEFB1146FFF7EEFF08F001
:10622000F1FF00F0ECFB03B4FFF7F2FF03BC08F052
:106230000EF900000948804709480047FEE7FEE7DD
:10624000FEE7FEE7FEE7FEE7FEE7FEE7FEE7FEE726
:1062500004480549054A064B70470000ADD10008C7
:10626000316100083077002030B9002030790020FB
:106270003079002072B6704762B67047EFF3108035
:1062800072B6704780F31088704730BF704720BFE8
:106290007047B0FA80F0704790FAA0F0B0FA80F042
:1062A000704790FAA0F07047704710B5044600F0B0
:1062B000BFFA0068005DC00602D504F1200010BDE1
:1062C000204610BD0FB4044910B503AA029800F08F
:1062D0004FFB10BC5DF814FB2C0000200FB41CB564
:1062E000084B06AA7B4469460090059800F011FB14
:1062F00004460020694600F01FFB20461CBC5DF8E8
:1063000014FB00005106000070B504468569006862
:10631000C10601D5302600E02026C00707D070BD99
:10632000D4E9012130469047206A401C20626D1E4E
:10633000F6D570BD70B5044685690078C00707D1F1
:1063400070BDD4E9012120209047206A401C2062C2
:106350006D1EF6D570BD70B50C460546012A05D0F8
:106360002878800600D5EA69002302E0012305E0D1
:106370005B1C934202D2E05C0028F9D1A869E618C0
:10638000C01AA861286A184428622846FFF7BCFF93
:1063900004E0D5E9012114F8010B9047B442F8D389
:1063A0002846FFF7C7FF70BD2DE9F04106460024DF
:1063B00010687529314616A510D0AFF3008000286B
:1063C00002DA404213A507E031688A0701D512A519
:1063D00002E0490704D511A5012401E0AFF30080D4
:1063E00000210A2206F1240709E0B0FBF2FCB0FB11
:1063F000F2F302FB1C00303078541846491C002888
:10640000F3D123462A463046BDE8F04100F023BAD6
:10641000000000002D0000002B0000002000000004
:1064200070B504460D4621461068AFF30080218800
:10643000090502D50F4A7A4402E00E4A7A440E3228
:10644000002104F1240305E000F00F060009965D29
:106450005E54491C0028F7D120780023000704D59A
:10646000702D02D009B1022311322046BDE87040E0
:1064700000F0F1B97AD300002DE9F05F89460446B7
:106480004FF0000ADFF824B1FB44C0F820A02046FA
:10649000E168884700287DD0252806D0D4E901216D
:1064A0009047206A401C2062F1E700255F462046A5
:1064B000E16888472028064607DB312E05D2B81947
:1064C00010F8200C08B10543F1E7A80701D525F025
:1064D0000405C4F81CA00027C4F818A02A2E09D06F
:1064E000304607F0ADFF38B304EB8708303EC8F8FC
:1064F000186019E059F8041B204604EB87029161EB
:10650000E1688847012F064618D1E069002820DAA3
:1065100025F020051DE0D8F8180000EB800006EB00
:1065200040003038C8F818002046E1688847064621
:1065300007F086FF0028EED1012F0AD02E2E08D1B9
:106540002046E16888477F1C0646022F45F020055B
:10655000C4DBA069002803DA404245F00105A061D0
:10656000E80701D025F01005A6B1A6F141001928D1
:1065700002D8203645F400654A463146204625605B
:106580004D46FFF72FFE60B1012807D0ED1D25F025
:10659000070000E007E000F1080978E705F10409C9
:1065A00075E730467AE7206ABDE8F09F50D30000D7
:1065B00030B505460B462A4613F8014B12F8010B7D
:1065C00008B1A042F8D01CB1002802D06D1CF1E740
:1065D000284630BD10B5431C02E010F8011B71B114
:1065E0008107FAD14FF0013202C88C1A8C4314EAA9
:1065F000C211F9D0C01A0A0603D0C01E10BDC01ABD
:1066000010BD0A0401D0801E10BD0902FCD0401E3E
:1066100010BD40EA010370B59B072ED14FF0013643
:10662000042A2AD308C810C99D1B9D43121F15EACE
:10663000C61517D0D8B2E1B2401A50EA056110D1A0
:1066400098B2A1B2401A50EA05410AD123F07F4026
:1066500024F07F41401A50EA052102D1180EA0EB28
:10666000146070BDA342DBD018BA21BA884201D9A8
:10667000012070BD4FF0FF3070BD0AB9002070BD21
:1066800010F8013B11F8014B63B1A3420AD1521E2D
:1066900008D010F8013B11F8014B1BB1A34201D106
:1066A000521EEDD1181B70BD032A40F2308010F04D
:1066B000030C00F0158011F8013BBCF1020F62449D
:1066C00098BF11F801CB00F8013B38BF11F8013B2E
:1066D000A2F1040298BF00F801CB38BF00F8013BDB
:1066E00011F0030300F02580083AC0F0088051F84B
:1066F000043B083A51F804CBA0E80810F5E7121D56
:106700005CBF51F8043B40F8043BAFF30080D20774
:1067100024BF11F8013B11F801CB48BF11F8012B40
:1067200024BF00F8013B00F801CB48BF00F8012B63
:10673000704710B5203AC0F00B80B1E81850203AED
:10674000A0E81850B1E81850A0E81850BFF4F5AF11
:106750005FEA027C24BFB1E81850A0E8185044BF9B
:1067600018C918C0BDE810405FEA827C24BF51F808
:10677000043B40F8043B08BF7047D20728BF31F8FC
:10678000023B48BF11F8012B28BF20F8023B48BF4D
:1067900000F8012B70474FF000020429C0F012806E
:1067A00010F0030C00F01B80CCF1040CBCF1020FC4
:1067B00018BF00F8012BA8BF20F8022BA1EB0C0199
:1067C00000F00DB85FEAC17C24BF00F8012B00F88F
:1067D000012B48BF00F8012B70474FF0000200B5B5
:1067E000134694469646203922BFA0E80C50A0E8F4
:1067F0000C50B1F12001BFF4F7AF090728BFA0E8A2
:106800000C5048BF0CC05DF804EB890028BF40F86D
:10681000042B08BF704748BF20F8022B11F0804FAF
:1068200018BF00F8012B70477047704770477047DA
:1068300010B500F0B3F8001D10BD00BF79C0000016
:1068400010B500F0AFF8006810BD10B5044600F0B8
:10685000A9F8046010BD2DE9F0470D46994692460F
:10686000044600F124080168880604D5E06921F097
:106870001001216000E00120A84201DD471B00E07B
:106880000027A1697A1902EB0900081AA061207893
:10689000C00602D42046FFF737FD002608E0D4E901
:1068A00001211AF806009047206A401C761C2062DD
:1068B0004E45F4DB2078C0060AD52046FFF724FDBC
:1068C00006E0D4E9012130209047206A401C206274
:1068D000381EA7F10107F4DC07E0D4E9012118F81C
:1068E00005009047206A401C2062281EA5F1010582
:1068F000F3DC2046FFF71EFD2078000602D50220BB
:10690000BDE8F0870120FBE701694A1C02610878B5
:10691000704700B58FB0CDE90131002105910549DF
:106920007944CDE9031011466846FFF7A5FD0FB085
:1069300000BD0000E5FFFFFF0A6802F8010B0A60D6
:10694000704710B5436913B1AFF3008001E0FFF762
:1069500002FD012010BD127800F124010A7000220E
:106960004A700122EDE711684FF0FF32E9E70000BD
:10697000074B70B50D467B44FFF7CBFF0446284616
:1069800000F014F810B14FF0FF3070BD204670BD1C
:106990005F86000000487047D076002000487047AE
:1069A000F076002000487047D0760020007B00F091
:1069B000800070477546FFF7EDFFAE46050069465B
:1069C000534620F00700854618B020B5FFF740FC7D
:1069D000BDE820404FF000064FF000074FF00008E0
:1069E0004FF0000B21F00701AC46ACE8C009ACE861
:1069F000C009ACE8C009ACE8C0098D46704710B5C5
:106A00000446AFF300802046BDE81040FFF70BBC02
:106A10004FF0013C50F8042B51F8043B9A4221D12D
:106A2000A2EB0C03934313EACC1317D150F8042BB9
:106A300051F8043B9A4215D1A2EB0C03934313EA9D
:106A4000CC130BD150F8042B51F8043B9A4209D1D6
:106A5000A2EB0C03934313EACC13DBD04FF00000FE
:106A6000704700BFD01A01BAB1FA81F101F01801E4
:106A700022FA01F0CB40C1F12001DBB2C0B2C01A52
:106A80002CFA01F3D11A914311EAC311E6D17047F0
:106A90001D484FF6FF710170002080F309881B48E4
:106AA000016881F308881A484FF08051016062B68E
:106AB000FEE717484FF080510160704714484FF0CF
:106AC00080510160704772B6EFF3098028B1203819
:106AD00080E8F00F0F490968086000B50E4880474C
:106AE0005DF804EB0D480E490A78027009480D491B
:106AF0000A680260106890E8F00F203080F309887F
:106B00004EF0040E62B6704722ED00E0CC0100208A
:106B100004ED00E0C4010020F596000852010020B9
:106B200053010020C801002010B5012005F044FEEB
:106B3000002005F041FE10BD08B501460020009080
:106B4000034800900098084400900098008808BD11
:106B5000006C004008B500220092044A0092009A9E
:106B600002440092009A116008BD0000006C0040D1
:106B700000B585B0684605F025FE019805B000BD5A
:106B800000BFFEE710B500F01FF800F019F810BDC7
:106B900010B5002400BF00BFFFF770FB044600BF24
:106BA00000BF1021054801F05DFC00BF00BF20467A
:106BB000FFF768FB00BF00BF10BD000010550020AC
:106BC00010B5FFF7E5FF10BD10B5002002490860C1
:106BD00000F00AF810BD0000F8000020014908602C
:106BE00070470000F800002010B5FFF7C1FF044611
:106BF0000848006840F08070064908600020064997
:106C000048600846006840F0010008602046FFF731
:106C1000E5FF10BDFCED00E0001000E00149486810
:106C200070470000001000E070B504460D460026D5
:106C3000264614E001200B4908602B46002211462D
:106C4000104607F051FF00200749C1F8AC012B4660
:106C500000221146104607F047FF701E46B2002E74
:106C6000E8DC70BDAC81214200802142082823D29B
:106C7000DFE800F004070B0F13161A1E104A11600C
:106C80001BE00F4A121D116017E00D4A0832116017
:106C900013E00B4A0C3211600FE00A4A11600CE05D
:106CA000084A121D116008E0064A0832116004E02B
:106CB000044A0C32116000E000BF00BF70470000C2
:106CC000B08121429801224286B000BF3FE000F02F
:106CD00003FDA0B3072000F0B7FC0446062000F037
:106CE000B3FC0546052000F0AFFC0646042000F08A
:106CF000ABFC0746032000F0A7FC8046022000F012
:106D0000A3FC8146012000F09FFC8246002000F099
:106D10009BFC834653465A460D490E48CDE90098E0
:106D2000CDE90276CDE90454FFF7D8FA094A0A49B9
:106D3000012008F04BFCC8210648FFF72CFD00F0AD
:106D4000C5FA052300221146104607F0CDFEBEE726
:106D50008C380108BE1D00205A1D002010B586B0D9
:106D600041480068414908603F48001D006848608C
:106D70003D4808300068886000203D4908703B4865
:106D80000088000A487039480078887037484068A1
:106D9000000CC87035488088000A087133480079B3
:106DA000487106224FF4106007F0CCF831490220F8
:106DB00000F0BCF8304A314908460AF007F900F003
:106DC00007F9044605E00A2007F0D6FE00F000F9B6
:106DD0000446042CF7D12649012007F091FD04A9AF
:106DE000082007F0B5FD04A925A0FFF76BFA20489D
:106DF000417900791E4AD278CDE9002002911C48E1
:106E000083784278017824A0FFF75CFA1848407A2A
:106E100000901748037AC279817929A0FFF752FAC6
:106E20001348407C00901248037CC27B817B29A0E0
:106E3000FFF748FA0E48407B00900D48037BC27A6A
:106E4000817A29A0FFF73EFA0948407D0090084862
:106E5000037DC27C817C29A0FFF734FA2CA0FFF7C8
:106E600031FA06B010BD0000E8F7FF1FBC2A002071
:106E7000A4220020BB220020CDF6000869F60008FD
:106E80000D0A3D3D3D202573204E455420434F4E75
:106E900046203D3D3D0D0A004D41433A202530320C
:106EA000583A253032583A253032583A253032583F
:106EB0003A253032583A253032580D0A0000000089
:106EC0005349503A2025642E25642E25642E2564CE
:106ED0000D0A00004741523A2025642E25642E25D4
:106EE000642E25640D0A00005355423A2025642E75
:106EF00025642E25642E25640D0A0000444E533A65
:106F00002025642E25642E25642E25640D0A00009C
:106F10003D3D3D3D3D3D3D3D3D3D3D3D3D3D3D3DA1
:106F20003D3D3D3D3D3D0D0A0000000038B50446A5
:106F30000D460020009006221F494FF4106006F015
:106F4000A9FF1D4800781C49497808431A498978E7
:106F500008431949C978084317490979084316496C
:106F60004979084378B9002013490870082048700F
:106F7000DC2088700020C8700871487106224FF428
:106F8000106006F0DFFF0D4804700D4805600D48E5
:106F90000D490860042269464FF4706006F0D2FF84
:106FA00004226946900106F0CDFF0AF071F8002036
:106FB0000649087038BD0000AC00002074000020B5
:106FC000A0000020785634129C0000208D00002084
:106FD00070B569480078062801D1052070BD674961
:106FE00009788900491C4FF4407202EBC10006F099
:106FF0002BFF222806D00023442202215F4800787C
:107000000AF038FE012508F09DFBC4B25A4890F9F9
:107010000000052877D2DFE800F0030F2C4F77003F
:1070200000205749087048708870C8700AF000FA4C
:107030000120514908709CE0022C16D1514800688B
:10704000007C4F4908704F480068407C48704D48AC
:107050000068807C88704B480068C07CC8700AF06B
:1070600023FB02204449087002E007F0FFFA0546BE
:107070007FE0052C14D107F0BDFA40B1424800680A
:1070800080470AF005F803203B49087013E009F037
:10709000FFFF3E48006880470020374908700AE03B
:1070A000062C05D109F0F4FF01203349087002E0F5
:1070B00007F0DCFA05465CE0042535480068401C12
:1070C00000B33448006832490968B0EB510F19D950
:1070D00000242B48007830490870294840784870CF
:1070E0002748807888702648C078C8702B48006888
:1070F000401C2A4908600AF0D7FA09F0C9FF0420A9
:107100001D49087035E033E00425052C24D100200A
:10711000234908702048007819490978884211D11C
:107120001D4840781649497888420BD11A48807822
:1071300013498978884205D11748C0781049C97821
:10714000884203D0032517480068804709F0A0FF54
:107150000320094908700AE0062C05D109F098FFC0
:1071600001200549087002E007F080FA054600E0BA
:1071700000BF00BF284631E78D00002074000020CA
:107180007D000020A0000020B4000020BC000020F2
:107190009000002094000020790000209C00002036
:1071A0008E000020B8000020704700000149C86030
:1071B000704700000020024030B5044604254FF41B
:1071C000302000F06FF80546042D17D10C480069F7
:1071D00040F002000A49086108464461006940F035
:1071E000400008614FF4302000F05CF80546044888
:1071F000006941F6FD71084001490861284630BD2B
:107200000020024004200B49C96801F0010109B1C6
:1072100001200EE00749C96801F0040109B102200C
:1072200007E00449C96801F0100109B1032000E03A
:1072300004207047002002400348006940F08000AD
:1072400001490861704700000020024070B5044603
:107250000D460426F00200F025F80646042E11D152
:107260000948006940F00100074908612580F002E3
:1072700000F018F806460448006941F6FE7108401F
:1072800001490861304670BD0020024002480349B0
:10729000486003484860704723016745002002406A
:1072A000AB89EFCD00B502460423FFF7ABFF0346E1
:1072B00003E0FFF7A7FF0346521E012B01D1002A6E
:1072C000F7D102B90523184600BD00002DE9F041B1
:1072D00000260027002518226749684805F02EFE81
:1072E0000024C4E0C4EBC4006349085C00283ED01D
:1072F000C4EBC400084490F901004FF461614843B5
:10730000C4EBC4015C4A114491F90210C1EB0111B4
:1073100000EB8106C4EBC4001146084490F9030059
:107320004FF461614843C4EBC401114491F9041066
:10733000C1EB011100EB8107514800784FF4616106
:1073400048434F494978C1EB011100EB8105C4EB7B
:10735000C4001146085C012815D1B54208D1E0B23D
:107360000121FFF783FC32210120FFF75DFC7DE066
:10737000BD427BD1E0B20021FFF778FC3221012031
:10738000FFF752FC72E0C4EBC4003B49085C0228E2
:1073900021D1C4EBC40008448079002866D0B542EE
:1073A00008D1E0B20121FFF761FC32210120FFF793
:1073B0003BFC5BE0BD4259D10020C4EBC4012E4A26
:1073C00011448871E0B20021FFF750FC3221012006
:1073D000FFF72AFC4AE0C4EBC4002749085C0328F5
:1073E0001DD12748007A062840D02548007A072872
:1073F0003CD0B54208D1E0B20121FFF737FC322181
:107400000120FFF711FC31E0BD422FD1E0B2002195
:10741000FFF72CFC32210120FFF706FC26E0C4EB2D
:10742000C4001549085C042820D1C4EBC4000844FA
:1074300090F905001249097A491E084100F001003F
:10744000A0B1B54208D1E0B20121FFF70FFC322113
:107450000120FFF7E9FB09E0BD4207D1E0B20021BE
:10746000FFF704FC32210120FFF7DEFB641C082C2F
:10747000FFF638AFBDE8F081D82A002000080308E5
:10748000B82100202DE9F041024600250026002009
:1074900000230024002791F803C00CF00F0591F899
:1074A00003C00CF0100CBCF1000F03D091F802C027
:1074B0004CEA050591F800C0BCF1000F31D014680A
:1074C00000202BE04FF0010C0CFA00F3B1F800C0E3
:1074D0000CEA03069E4220D183004FF00F0C0CFAF9
:1074E00003F7BC4305FA03FC4CEA040491F803C01B
:1074F000BCF1280F06D14FF0010C0CFA00FCC2F8C9
:1075000014C00AE091F803C0BCF1480F05D14FF058
:10751000010C0CFA00FCC2F810C0401C0828D1D3A2
:107520001460B1F800C0BCF1FF0F34DD54680020D6
:107530002EE000F1080C4FF0010808FA0CF3B1F846
:1075400000C00CEA03069E4221D183004FF00F0CCD
:107550000CFA03F7BC4305FA03FC4CEA040491F867
:1075600003C0BCF1280F05D100F1080C08FA0CF893
:10757000C2F8148091F803C0BCF1480F07D100F1A4
:10758000080C4FF0010808FA0CF8C2F81080401CF3
:107590000828CED35460BDE8F0810000F0B50A465B
:1075A000002300240021002500F00046B6F1004F22
:1075B00002D11D4EF16901E01B4E7168C0F3034515
:1075C00083B200F44016B6F5401F08D121F0706177
:1075D000154E766826F07066134F7E6012E000F458
:1075E0008016B6F5801F06D1032606FA05F4A143DE
:1075F00041F0706106E0460D360103FA06F6B1432C
:1076000041F0706122B1460D360103FA06F63143AE
:1076100000F00046B6F1004F02D1034EF16101E0E7
:10762000014E7160F0BD00000000014002460020E4
:10763000D3680B400BB1012000E00020704741618E
:10764000704701617047000010B50446082C33D222
:10765000DFE804F0040A10161C21262C4FF4805198
:107660001648FFF7E3FF10BD4FF400511348FFF732
:10767000DDFFF8E74FF480411048FFF7D7FFF2E74E
:107680004FF400410D48FFF7D1FFECE740210C48D3
:10769000FFF7CCFFE7E780210948FFF7C7FFE2E7E4
:1076A0004FF480710648FFF7C1FFDCE74FF400712B
:1076B0000348FFF7BBFFD6E70020D4E7000C0140EA
:1076C0000010014000BFFEE740F00061014A116078
:1076D0007047000008ED00E010B5494800684949CE
:1076E00008704948D0F8200148704748D0F81C017C
:1076F00088704548D0F81801C8704348D0F8140184
:1077000008714148D0F8100148713F48D0F80C0189
:1077100088713E48D0F80801C871002006E0394958
:10772000095C11B901213A4A1154401C0828F6DBC2
:107730001E2300221146104607F0D6F900245AE015
:107740003348005D012855D12E48005D012851D1F4
:10775000082C44D2DFE804F0040C141C242B333B27
:1077600027488C300068C0432749C1F8B00137E092
:10777000234890300068C0432349C1F8B4012FE08A
:107780001F4894300068C0431F49C1F8B80127E082
:107790001B4898300068C0431B49C1F8BC011FE07A
:1077A0001C480068C0431C49C1F8980118E01948FA
:1077B000001D0068C0431849C1F89C0110E015483D
:1077C00008300068C0431449C1F8A00108E011481E
:1077D0000C300068C0431049C1F8A40100E000BFAC
:1077E00000BF00200A49085532210120FFF71CFA8A
:1077F000012010BD641C082CA2DB0020F9E700006A
:1078000024812142C00000200080214200802242C9
:10781000C8000020980122420000224272B6704740
:107820000146CA1701EB92729210A1EB820292B943
:10783000642091FBF0F200FB121050B94FF4C870B5
:1078400091FBF0F200FB121008B9012070470020F4
:10785000FCE70120FAE70020F8E7000008B5012165
:107860003D2004F089FF01213248FFF797FE4FF4D5
:107870008470ADF8000010208DF8030003208DF80F
:10788000020069462C48FFF7FDFD4FF480712A483D
:10789000FFF7D7FE4FF40060ADF8000069462748B7
:1078A000FFF7F0FD4FF400612448FFF7C8FE4FF4E6
:1078B0007040ADF8000010208DF8030003208DF813
:1078C000020069461D48FFF7DDFD4FF470411B487B
:1078D000FFF7B5FE4FF47070ADF8000010208DF882
:1078E000030003208DF8020069461548FFF7CAFD22
:1078F0004FF470711248FFF7A2FE4FF47E70ADF89E
:10790000000048208DF8030003208DF8020069462E
:107910000A48FFF7B7FD0420ADF8000048208DF8B5
:10792000030003208DF8020069460648FFF7AAFD10
:1079300008BD00000002300000080140000C0140BA
:1079400000100140001401402DE9FF4704460D4698
:107950001646994600200390029600278046009024
:1079600002A809F033F98DF80C000398C0F3031056
:10797000022800D01FE001A9029800F0E9F8804633
:10798000029908440290DDE9011047180298381A5C
:10799000022800DA0FE002A809F018F98DF80000BB
:1079A000009800F00100207002A809F00FF928707B
:1079B0004FF0010800BF404604B0BDE8F0872DE954
:1079C000FF5F06460C4617469846DDE90FABDDF82B
:1079D000389000200390119802900025002001901B
:1079E000009002A809F0F2F88DF80C000398C0F39B
:1079F0000310032800D032E00398C0F3C0003070B9
:107A00000398C0F341002060039800F00100387033
:107A10006946029800F09CF801900299084402908F
:107A20000099029845182A4602A9484609F0E2F84A
:107A300010B10298281A00D511E02068002804DD52
:107A400002A809F0CAF8A8F800000298281ACBF892
:107A500000000298CAF800000120019000BF0198C0
:107A600004B0BDE8F09F2DE9FE4F05460E461446D2
:107A70001F46DDE90C9B00200290CDF80490804663
:107A8000824601A809F0A2F88DF808000298C0F318
:107A90000310092800D02CE06946019800F058F83E
:107AA0008246019908440190DDE9001000EB0108CD
:107AB0000198A8EB0000022800DA1AE001A809F0FA
:107AC0008CF82880002020600DE02068B04202DDA4
:107AD0004FF0FF3A0DE001A809F078F82268511C38
:107AE000216047F8220001984045EED34FF0010A8B
:107AF00000BF5046BDE8FE8F2DE9F84305460C4611
:107B0000012600270020206000BF4FF0FF38781CBE
:107B10000746042801DD00BF17E001216846A84799
:107B20008046B8F1010F00D00FE09DF8001001F081
:107B30007F01206801FB06002060F6019DF800002F
:107B400000F080000028E0D100BF3846BDE8F8838F
:107B500070B504460D460348046029460248FFF705
:107B6000CBFF70BDD401002055E4000830B50246BB
:107B7000002300BF0846CD1701EB5565ED11A1EBC1
:107B8000C515ECB2CD1701EB5565E911002901DDF2
:107B900044F0800418465B1C14540029EADC1846A3
:107BA00030BD0000401C802801DA401C0AE0B0F51E
:107BB000804F01DA801C05E00349884201DAC01CCD
:107BC00000E0001D70470000FFFF1F002DE9FC4191
:107BD00004460F4615464FF0FF380020019000265E
:107BE000009001212046A847012800D01EE0012670
:107BF00069462846FFF780FF601C0099FFF7B6FF33
:107C0000064400983044B84200DD0FE0009830B1DF
:107C1000A0190099A8470099884200D006E0207872
:107C20008DF804000198C0F3031800BF4046BDE87A
:107C3000FC8100002DE9FE4305460E4614460295E0
:107C400000200190009000274FF0FF38204600F000
:107C5000A5F807468146FFF7A5FFB04202DD6FF0A9
:107C600001088FE000208DF80400019820F0F0005A
:107C7000103001909DF8041002A80AF0DEFD39468C
:107C80000298FFF773FF029908440290207A0428B3
:107C900008D13EA102A80AF0BCFD042102A80AF006
:107CA000CCFD07E03BA102A80AF0B3FD032102A826
:107CB0000AF0C3FD00208DF80000A17E009861F35A
:107CC00041000090E07E08B1012100E00021009811
:107CD00061F3820000900098C0F3800058B194F8DE
:107CE0003D10009861F3C400009094F83C10009897
:107CF00061F345100090206C08B9A06C20B1009889
:107D000020F0800080300090E06C08B9606D20B1F8
:107D1000009820F04000403000909DF8001002A82C
:107D20000AF08BFD218B02A80AF08DFD02A8D4E990
:107D30000423E1680AF09FFDE07E58B102A8D4E96F
:107D40000A23616A0AF097FD02A8D4E90D23216B8A
:107D50000AF091FD0098C0F3C01028B102A8D4E940
:107D60001123216C0AF087FD0098C0F3801028B120
:107D700002A8D4E91423E16C0AF07DFD0298A0EB7F
:107D8000050800BF4046BDE8FE8300004D51545435
:107D9000000000004D5149736470000070B5044646
:107DA0000025207A032801D10C2503E0207A04283D
:107DB00000D10A25D4E90412E06800F045FB801CDC
:107DC0000544E07E68B1D4E90A12606A00F03CFB29
:107DD000861CD4E90D12206B00F036FB3044801C69
:107DE0000544206C08B9A06C30B1D4E91112206CA4
:107DF00000F02AFB801C0544E06C08B9606D30B1CE
:107E0000D4E91412E06C00F01FFB801C05442846E6
:107E100070BD70B504460D460C222946204600F080
:107E2000D9F870BD2DE9F04F87B005460F46904652
:107E30001C46DDE915B6DDE9109A0695002005908F
:107E4000049003900096204612A90EC900F042F853
:107E500004900290FFF7A6FEB84203DD6FF0010028
:107E6000039033E0059820F0F0003030059005983D
:107E700068F3C3000590059864F3420005900598E7
:107E800069F3000005909DF8141006A80AF0D5FCCF
:107E900004990698FFF76AFE06990844069006A81A
:107EA00012A90EC90AF0E7FC002C03DD514606A812
:107EB0000AF0C9FC324659460698FEF7F5FB0698CB
:107EC000304406900698401B039000BF039807B00B
:107ED000BDE8F08F7FB50546089E002401A807C8BD
:107EE00000F0B2FA801C30440444002D00DDA41CD4
:107EF000204604B070BD2DE9FF5F05460E461746CB
:107F00009846DDE90E9A03950020029001900090BA
:107F100000245146484600F046F883460190FFF79A
:107F200041FEB04202DDA01E009038E000208DF836
:107F30000800029820F0F00080300290029867F369
:107F4000C3000290029820F00600801C02909DF869
:107F5000081003A80AF071FC01990398FFF706FEC8
:107F6000039908440390414603A80AF06CFC0024DE
:107F70000FE004EB44000AEB800C03A89CE80E0021
:107F80000AF079FC109810F8241003A80AF055FCA8
:107F9000641C4C45EDDB0398401B009000BF00982B
:107FA00004B0BDE8F09F2DE9F04105460E460227DA
:107FB00000240AE004EB440006EB800393E807008A
:107FC00000F042FAC01C0744641CAC42F2DB3846A5
:107FD000BDE8F0812DE9FC4104460D46164600201F
:107FE0000190471E0094022D01DA871E15E0002043
:107FF0008DF80400019866F3071001909DF80410B5
:1080000068460AF01AFC00210098FFF7AFFD0099BE
:10801000084400900098071B00BF3846BDE8FC816B
:1080200086B000BF00250027002400260FF2442858
:108030004FF0140905F096FE914880680090904832
:10804000436890A102689148FEF748F98F4A90A1D1
:108050009848FEF743F98D4A97A1A048FEF73EF9EC
:108060008A4A9FA1A348FEF739F9884AA2A1A748E6
:10807000FEF734F9854AA6A1A948FEF72FF9834AED
:10808000A8A1AD48FEF72AF9804AACA1B348FEF793
:1080900025F908E0B2A0FEF715F9052300221146E4
:1080A000104606F021FDB34A41F28831012006F066
:1080B00029FE0028EED0B0A0FEF704F90AE0B3488C
:1080C0000168B3A0FEF7FEF8052300221146104612
:1080D00006F00AFD0123A74AAC480168184606F0DD
:1080E000A3FE0028EBD0A9480168AEA0FEF7EAF88D
:1080F00008E0B1A0FEF7E6F805230022114610467D
:1081000006F0F2FC02239B4AB1A1012006F08CFE8E
:108110000028EED0B0A0FEF7D5F809E065499CA094
:10812000FEF7D0F8052300221146104606F0DCFCCD
:108130000323904A5F49012006F076FE0028EDD027
:108140005C4998A0FEF7BEF809E0644990A0FEF7EC
:10815000B9F8052300221146104606F0C5FC042399
:10816000844A5E49012006F05FFE0028EDD05B499D
:108170008CA0FEF7A7F809E05E4985A0FEF7A2F8FB
:10818000052300221146104606F0AEFC0523794A6D
:108190005849012006F048FE0028EDD0554981A03D
:1081A000FEF790F809E0594979A0FEF78BF805230E
:1081B00000221146104606F097FC06236D4A5349EB
:1081C000012006F031FE0028EDD0504975A0FEF7E1
:1081D00079F809E052496EA0FEF774F805230022F1
:1081E0001146104606F080FC0723624A4C490120E4
:1081F00006F01AFE0028EDD049496AA0FEF762F8A1
:1082000064210120FEF710FD33E078480068401C2F
:1082100076490860761C0846006864280ED1641C04
:10822000631D224672A17B48FEF758F8794A414601
:10823000012007F0CBF900206C49086042F6E060AD
:10824000864210D10026494601A8FFF7E2FD054607
:108250002A4601A9012009F077FF0746AF4202D064
:108260006DA0FEF72FF8052300221146104606F0F8
:108270003BFCCAE7636861742F68656C6C6F000033
:10828000BC2A00202578257825780000281D0020AC
:108290006465766963652D25732F757064617461FB
:1082A0004669726D776172652F73657665722F63AB
:1082B0006D640000861E00206465766963652D2567
:1082C000732F7570646174614669726D7761726550
:1082D0002F73657665722F6461746100EA1E002059
:1082E0006465766963652D25732F73657454696DB4
:1082F000650000004E1F00206465766963652D25CA
:10830000732F636F6E74726F6C000000B21F0020D9
:108310006465766963652D25732F676574000000B9
:10832000162000206465766963652D25732F6665C8
:1083300065646261636B00005A1D002064657669A4
:1083400063652D25732F7570646174614669726D64
:10835000776172652F636C69656E74007A20002006
:10836000D5FDD4DAC1ACBDD3B7FECEF1C6F7A3A11B
:108370000D0A000059F10008C1ACBDD3B7FECEF123
:10838000C6F7B3C9B9A6A3A10D0A000008000020D2
:10839000D5FDD4DAB6A9D4C42573D6F7CCE2A3A10F
:1083A0000D0A0000B6A9D4C42573D6F7CCE2B3C930
:1083B000B9A60D0A00000000D5FDD4DAB6A9D4C4D0
:1083C000616C61726DD6F7CCE2A3A10D0A000000CA
:1083D000616C61726D000000B6A9D4C4616C6172F9
:1083E0006DD6F7CCE2B3C9B9A60D0A000C00002087
:1083F0007B2274656D7065726174757265223A25B1
:10840000642C2268756D6964697479223A25647DEB
:1084100000000000DE20002050494E4720636F6EB0
:108420006E656374207472616E73706F72745F73C3
:10843000656E645061636B65744275666665722033
:108440006572726F720A0D0037B50024009820B172
:108450000098FEF7BFF8044600E0019C20463EBDB0
:1084600000BFFEE730B505460C46224600212846EF
:1084700000F001F830BD2DE9F04105460B46944669
:108480000027002402E03F021F43641C042CFAD39F
:10849000604605F00306294646B1344603E001F87C
:1084A000013B401E641C08B1042CF8D30A4601E0CD
:1084B00080C2001F0428FBD2114602E001F8013BF4
:1084C000401E0028FAD1BDE8F081704770B5002148
:1084D00000230F22C47804B3154C246804F4E0642C
:1084E000C4F5E064210AC1F10403CA40447804FAE7
:1084F00003F184781440214309010E4C0678A155FC
:10850000047804F01F050124AC4005786D11AD001E
:1085100005F1E025C5F8004109E0047804F01F05E5
:108520000124AC40044D0678761145F8264070BD14
:108530000CED00E000E400E080E100E002490143CE
:10854000024A1160704700000000FA050CED00E0DF
:10855000014601F00F01092903DC01F13000C0B22E
:10856000704701F13700C0B2FAE70000154816481D
:1085700016481748174818481848194819481A48FB
:108580001A481B481B481C481C481D481D481E48CB
:108590001E481F481F48204820482148214822489B
:1085A000224823482348244824482548254826486B
:1085B000264827482748284828482948294800BFEE
:1085C00070470000EC3501084C35010850350108B2
:1085D00054350108583501085C350108603501083B
:1085E00064350108683501086C35010870350108EB
:1085F00074350108783501087C350108803501089B
:1086000084350108883501088C350108903501084A
:1086100094350108983501089C350108A0350108FA
:10862000A4350108A8350108AC350108B0350108AA
:10863000B4350108B8350108BC350108C03501085A
:10864000C4350108C8350108CC350108D03501080A
:10865000D4350108D8350108DC350108E0350108BA
:10866000E4350108E835010810B50348006810B189
:1086700001480068804710BD1001002070B5044615
:1086800000F0C2F80020484908704849087048497D
:1086900008704849086048490860484908704849D6
:1086A00008704849087048490860484908604849C6
:1086B000086048490870484800680A21B0FBF1F09A
:1086C000464908604648006858B14648056845B1C3
:1086D0004348066803E0761E002028602D1D002E0A
:1086E000F9D10020404908604049086040490860CD
:1086F00040490860404908604049086040490860B6
:108700004049087002F02EF902F00EFA204601F0FE
:10871000BDFA208800B170BD204601F09FFE208880
:1087200000B1F8E7204601F0C1FE208800B1F2E771
:10873000204601F08DFF208800B1ECE7204602F0D2
:1087400041F9208800B1E6E7204602F065FB208869
:1087500000B1E0E7204602F087FE208800B1DAE7AA
:10876000204601F0E7FD208800B1D4E7204601F063
:10877000FFFB208800B1CEE7204603F0E5FD20880E
:1087800000B1C8E7204602F0B3FD208800B1C2E77F
:10879000204603F035FE208800B1BCE701F09EF9C9
:1087A000FFF7E4FE00BFB6E724010020250100200A
:1087B0006C010020C4010020C801002052010020EB
:1087C00053010020540100206001002064010020BA
:1087D0006801002074010020AC3501087001002000
:1087E0007C350108783501080401002008010020CB
:1087F0000C010020100100201401002018010020AD
:108800001C010020A20100200A4A1168002002E099
:10881000002204C1401C084A12689042F8D3054A5D
:108820001268054B1B6802EB8302121F034B1A6090
:1088300070470000783501087C350108CC01002024
:1088400008480078012800D0704707480078FA28C7
:1088500000DBF9E704480078401C0349087000BFBA
:10886000F2E70000250100202401002010B50024BB
:108870002E480078012800D010BD00BFFDF7FEFC97
:10888000044600BF2A48007828B900BF2046FDF7FB
:10889000F9FC00BFF0E726480078401E2449087024
:1088A00008460078002805DD00BF2046FDF7EAFCF9
:1088B00000BFE1E71F480078002805DD00BF204623
:1088C000FDF7E0FC00BFD7E702F038F81A4908705E
:1088D0000846007800EB4000184951F8200018497C
:1088E00008600846006817490968884205D100BF3A
:1088F0002046FDF7C7FC00BFBEE711480068D0F86E
:108900009000401C0E490968C1F890000E480068AC
:10891000401C0D4908604FF080500C49086000BFB2
:108920002046FDF7AFFC00BF00BFA5E725010020F2
:10893000240100206C01002053010020446B002022
:10894000C8010020C40100209801002004ED00E0CF
:1089500010B5002420480078002800DD10BD1F4815
:108960000078002800DDF9E700BFFDF787FC04462A
:1089700000BF01F0E3FF1A4908700846007800EBD9
:108980004000184951F8200017490860084600685F
:1089900016490968884205D100BF2046FDF772FCE0
:1089A00000BFDBE710480068D0F89000401C0E497B
:1089B0000968C1F890000E480068401C0C49086026
:1089C0004FF080500B49086000BF2046FDF75AFC6D
:1089D00000BF00BFC2E70000240100206C0100209E
:1089E00053010020446B0020C8010020C401002076
:1089F0009801002004ED00E070B5044600251848F9
:108A00000078002803DD46F66250208070BD1548CE
:108A10000078012803D045F689602080F6E71248E7
:108A20000078FA2803DB45F209202080EEE700BF3A
:108A300000BFFDF723FC054600BF00BF0A480078D1
:108A4000401C0949087002F053F900BF00BF2846D6
:108A5000FDF718FC00BF00BF0020208000BFD5E755
:108A600024010020250100206C0100202DE9F041A7
:108A700005460C461646002700BF00BFFDF7FEFB6B
:108A8000074600BF00BF012D03D000200D4908702C
:108A900002E001200B49087014B10B48046006E0A5
:108AA0000A4800680A21B0FBF1F00749086000BFDE
:108AB00000BF3846FDF7E6FB00BF00BF0020308056
:108AC000BDE8F0817401002070010020AC35010880
:108AD00070B50446002520480078002803DD46F6DE
:108AE0006550208070BD1D480078012803D045F6F0
:108AF00089602080F6E71A48007818B946F6645075
:108B00002080EFE700BF00BFFDF7B8FB054600BFC0
:108B100000BF13480078401E1149087008460078CD
:108B200000280ADD00BF00BF2846FDF7ABFB00BFF1
:108B300000BF46F663502080D4E702F0E7F800BF9C
:108B400000BF2846FDF79EFB00BF00BFFFF700FFF8
:108B50000020208000BFC5E724010020250100205F
:108B60006C01002010B5044612480078E8B901F005
:108B7000E5FE1149087008460078104908700E4853
:108B8000007800EB40000E4951F820000D490860C4
:108B9000084600680C490860012006490870FDF786
:108BA00077FF43F69920208002E045F68A60208016
:108BB00010BD0000250100205301002052010020BB
:108BC000446B0020C8010020C40100202DE9F041C1
:108BD00007464FF0000800BF00BFFDF74FFB80467F
:108BE00000BF00BF00203D4908603D4908803D4965
:108BF00008803D4908603D4908603D4908603D499D
:108C000008603D49088100BF00BF4046FDF73AFBC0
:108C100000BF00BF00BF00BFFDF730FB804600BFB4
:108C200000BF3648046800BF00BF4046FDF72AFB7E
:108C300000BF00BF21E000BF00BFFDF71FFB804663
:108C400000BF00BF00207834E06320602063A06193
:108C5000A082E0826062A062FDF7E0FF2062783CC3
:108C600004F164060020B081D4F8BC4000BF00BF0E
:108C70004046FDF707FB00BF00BF002CDBD100BF63
:108C800000BFFDF7FBFA804600BF00BF1C48056827
:108C900000BF00BF4046FDF7F5FA00BF00BF12E07D
:108CA00000BF00BFFDF7EAFA804600BF00BF05F134
:108CB00020060020B081AD6900BF00BF4046FDF72F
:108CC000E1FA00BF00BF002DEAD103F019FA03F06A
:108CD00093FC00203880BDE8F081000038010020BE
:108CE000320100208201002094010020A801002010
:108CF000B401002064010020386B00209C0100209A
:108D000058010020F8B5044600266946324800F0B4
:108D1000C1FCBDF8000018B1BDF800002080F8BD0E
:108D20006A460021022000F029FDBDF8000018B1BC
:108D3000BDF800002080F2E700BF00BFFDF79EFAFB
:108D4000064600BF00BF00202449086000BF00BFE6
:108D50003046FDF797FA00BF00BF002520480068A5
:108D600020490968884205D91D4800681D490968DD
:108D7000B0FBF1F525B91A4800680A21B0FBF1F5FE
:108D80006A460021284600F0F9FC6946124800F0C6
:108D900063FABDF8000018B1BDF800002080BEE7FE
:108DA00000BF00BFFDF76AFA064600BF00BF002003
:108DB0000D490860094800680C49086001200C4909
:108DC000087000BF00BF3046FDF75CFA00BF00BF6F
:108DD0000020208000BFA2E7CC6F0020840100208B
:108DE000AC35010894350108940100208801002069
:108DF0009001002010B50348006810B101480068D8
:108E0000804710BD140100202DE9FF4F87B00446B4
:108E10009046DDE91BA5DDE91496179F002003901D
:108E200087480078002805DD47F24A1028800BB0FB
:108E3000BDE8F08F1CB947F2AD102880F7E7B8F114
:108E4000000F03D147F24F102880F0E71EB946F615
:108E50002F602880EBE77B480068874203D246F604
:108E600030602880E3E71698B84203D346F63160B5
:108E70002880DCE7B9F1400F03D346F27320288045
:108E8000D5E7B9F1000F06D16F48844203D046F20E
:108E900073202880CBE7B9F13F0F06D16B4884429D
:108EA00003D046F273202880C1E7204602F0ECFA96
:108EB000002028800AF0010090B10AF0020078B189
:108EC00005960020069008E00021059801600598AD
:108ED000001D05900698401C06900698B842F3D3F2
:108EE000169806EB80000490CDE9007A32464046A1
:108EF000049B0A9900F06EFB0590C4F828800A983C
:108F0000E0620898206284F8379005982060049801
:108F1000A06019986065199818B94D480068A06557
:108F200001E01998A0651A9860606662A763A4F8CA
:108F30003CA04FF0000B08E0002104F17C0040F859
:108F40002B100BF1010000F0FF0BBBF1000FF3D071
:108F500004F16400189901F0F5FA204600F082F857
:108F600000BF00BF00BFFDF789F9039000BF00BF3D
:108F700038480078401C3749087000BF00BF03988C
:108F8000FDF780F900BF00BF00BF94F8370001F083
:108F9000F5FC204601F010FE204602F02BFA2E4888
:108FA0000088401C2C4908802C48007801282DD0CE
:108FB00000BF00BF00BFFDF761F9039000BF00BF15
:108FC00024480078401E2349087008460078A0B95C
:108FD00023480088002809DD00BF00BF0398FDF783
:108FE00051F900BF00BF01F055FE0DE000BF00BF0A
:108FF0000398FDF747F900BF06E000BF00BF0398E4
:10900000FDF740F900BF00BF00BF10E700BF00BF81
:1090100000BFFDF733F9039000BF00BF0D48007893
:10902000401E0C49087000BF00BF0398FDF72AF9E5
:1090300000BF00BF00BFFFF78BFC00BFF7E60000DA
:1090400024010020A8350108746A0020B0690020BE
:10905000700100206C010020A001002025010020EB
:109060003001002010B504460348006818B12046BE
:1090700001490968884710BD0401002070B5044605
:109080000D46002667480078002803DD47F24E10A1
:10909000288070BD6448844203D147F24C10288078
:1090A000F7E76248844203D147F24D102880F0E789
:1090B0007CB900BF00BFFDF7E1F8064600BF00BF66
:1090C0005B48046800BF00BF3046FDF7DBF800BF17
:1090D00000BF00BF00BF00BFFDF7D0F8064600BFCD
:1090E00000BF54480078401C5249087000BF00BFC0
:1090F0003046FDF7C7F800BF00BF00BF94F8360048
:1091000008282DD2DFE800F004090E10080A0F111C
:10911000204601F091FD54E053E000BF204602F0EC
:10912000D3FF4EE000BF00BF00BF204602F0CCFFDF
:1091300094F83400082810D2DFE800F0040705088E
:10914000090A0B0600BF00BF08E000BF00BF00BF58
:1091500000BF204601F043FB00E000BF00BF30E04D
:1091600000BF00BF00BFFDF789F8064600BF00BF83
:1091700030480078401E2F49087008460078A0B992
:109180002D480088002809DD00BF00BF3046FDF7EC
:1091900079F800BF00BF01F07DFD0DE000BF00BF0A
:1091A0003046FDF76FF800BF06E000BF00BF304655
:1091B000FDF768F800BF00BF00BF46F62D602880AD
:1091C00067E700BF04F1640001F09AF9204600F05F
:1091D00037F8204602F026F918480088401E174943
:1091E0000880204602F050F9FF2084F8360000BFC6
:1091F00000BF00BFFDF742F8064600BF00BF0D48A4
:109200000078401E0B49087000BF00BF3046FDF7D4
:1092100039F800BF00BF00BF00202880FFF798FB8F
:1092200000BF36E724010020B0690020746A0020E6
:10923000C40100206C01002030010020A0010020AA
:1092400010B504460348006818B120460149096872
:10925000884710BD080100207FB504460D46002652
:1092600000BF00BFFDF70AF8064600BF00BF1CB1F3
:109270001548006884420AD100BF00BF3046FDF7A0
:1092800001F800BF00BF47F2571028807FBD00BF24
:1092900000BF3046FCF7F6FF00BF00BF0B48007868
:1092A00000280BDD00200090019003460246214675
:1092B000CDE90205064800F093FEE7E7294620467F
:1092C00002F05AFA00BFE1E7C401002024010020A7
:1092D0005452455310B504460348006818B120465F
:1092E00001490968884710BD0C0100202DE9F047AD
:1092F00080460E4614461D464FF000097D48007812
:10930000002805DD46F2AE1028800020BDE8F08779
:109310001EB1B6F5004F02D100E000BF04E045F6F3
:10932000256028800020F1E700BF0CB100202060FC
:1093300000BF00BFFCF7A2FF814600BF00BF6E4820
:109340000068406CA8B36C480068406C401E6A49D5
:109350000968486468480068476C1CB16648006842
:10936000006C2060FDF75AFC63490968096C401ADB
:1093700061490968C1F8A4005F480068D0F8A800F6
:109380005D490968D1F8A410884207D25A4800689C
:10939000D0F8A40058490968C1F8A80000BF00BF70
:1093A0004846FCF76FFF00BF00BF0020288038460A
:1093B000ACE7FFE706F4004058B100BF00BF4846E5
:1093C000FCF760FF00BF00BF46F2B010288000200D
:1093D0009CE74A48007800280BDD00BF00BF4846E4
:1093E000FCF750FF00BF00BF46F663502880002006
:1093F0008CE700BF41480078401C4049087000BF1E
:1094000000BF4846FCF73EFF00BF00BF00BF434619
:1094100007220021084601F027F900BF00BF00BF66
:10942000FCF72CFF814600BF00BF34480078401E87
:109430003249087000BF00BF4846FCF723FF00BF59
:1094400000BF00BFFFF784FA00BF00BFFCF716FFA4
:10945000814600BF00BF2848006890F8350020B161
:10946000012826D0032834D12CE0FCB12248006822
:10947000006C2060FDF7D2FB1F490968096C401A97
:109480001D490968C1F8A4001B480068D0F8A8006D
:1094900019490968D1F8A410884207D21648006813
:1094A000D0F8A40014490968C1F8A8000020288059
:1094B00013E01CB110480068006C206046F2A9104F
:1094C00028800AE00CB10020206047F2D9202880D3
:1094D00003E046F62E60288000BF00BF0648006803
:1094E000476C00BF00BF4846FCF7CCFE00BF00BF82
:1094F00038460BE724010020C40100206C01002045
:109500002DE9F04705460E4617461C464FF0000A67
:109510002E480078002804DD47F259102080BDE86D
:10952000F0871EB946F2D5202080F8E71FB946F231
:10953000D5202080F3E700BF00BFFCF79FFE8246E6
:1095400000BF00BF0DB922480568286868B900BF90
:1095500000BF5046FCF796FE00BF00BF0020306001
:10956000386047F252102080D9E795F83C0000F0AF
:10957000010068B900BF00BF5046FCF783FE00BF82
:1095800000BF00203060386047F254102080C6E7EA
:1095900000BF00BF5046FCF775FE00BF00BF4FF094
:1095A0000008D5F8249003E009F1040908F1010846
:1095B000D9F800000028F7D0C6F80080A86BA0EB0F
:1095C000080038600020208000BFA8E724010020A8
:1095D000C4010020F0B50446DDE9055602EB850024
:1095E0004FF0807C071F3846C7F800C0071F384679
:1095F0003C60DFF89CC0071F3846C7F800C04FF03A
:10960000123C071F3846C7F800C04FF0033C071F45
:109610003846C7F800C04FF0023C071F3846C7F86D
:1096200000C0071F38463B60071F384639604FF0BF
:10963000113C071F3846C7F800C04FF0103C071F09
:109640003846C7F800C04FF0093C071F3846C7F836
:1096500000C04FF0083C071F3846C7F800C04FF065
:10966000073C071F3846C7F800C04FF0063C071FED
:109670003846C7F800C04FF0053C071F3846C7F80A
:1096800000C04FF0043C071F3846C7F800C0F0BDCB
:10969000B9B800087FB505460C461248854203D18B
:1096A00047F25B1020807FBD0F48854203D147F20F
:1096B0005C102080F7E70D48007800280BDD0020C3
:1096C00000900190034602462946CDE9020408486D
:1096D00000F086FCE7E72146284602F05BFB00BF6E
:1096E000E1E70000B0690020746A00202401002036
:1096F0005453555310B51D48006810B11B480068FD
:109700008047FDF78BFA0446194800681949096833
:10971000884215D016480068D0F89800201A1449DD
:109720000968C1F8940012480068D0F89C001049FC
:109730000968D1F8941008440D490968C1F89C00E3
:109740000C480068C0F8984009480068D0F8B40098
:1097500009490968884205D2074800680449096830
:10976000C1F8B40000200449086010BD18010020B1
:10977000C4010020C8010020680100202DE9F0414B
:1097800005460E46144600273F480078002804DDB1
:1097900047F275202080BDE8F0813C480078002821
:1097A00003DD46F663502080F5E736B1022E05D082
:1097B000042E0AD0082E09D101E000BF00BF1DB958
:1097C00047F27E202080E6E704E003E045F62560CE
:1097D0002080E0E700BF00BF00BF00BFFCF74EFDE8
:1097E000074600BF00BF29480078401C2749087081
:1097F00000BF00BF3846FCF745FD00BF00BF00BFFB
:1098000001202349096881F836002346324629465B
:109810001F48006802F07AFB2088A8B100BF00BF93
:1098200000BFFCF72BFD074600BF00BF17480078BC
:10983000401E1649087000BF00BF3846FCF722FDE5
:1098400000BF00BF00BFA6E71148006801F0F4F9AF
:1098500000BF00BF00BFFCF711FD074600BF00BFFF
:109860000A480078401E0949087000BF00BF38460A
:10987000FCF708FD00BF00BF00BFFFF769F800203C
:10988000208000BF87E70000240100206C01002039
:10989000C40100202DE9FF5F05460E461746984695
:1098A000DDE90EA40020009072480078002804DD55
:1098B00047F275202080BDE8FF9F6F4800780028A0
:1098C00003DD46F663502080F5E70AF00E0BBBF18E
:1098D000000F09D0BBF1020F07D0BBF1040F10D06D
:1098E000BBF1080F0ED101E000BF00BFB8F1000FBF
:1098F00006D12FB926B91DB947F27E202080DAE7BC
:1099000004E003E045F625602080D4E700BF2AF09C
:109910001E0008B1012000E00020039003980128F8
:1099200003D145F625602080C5E7CAF300100290F8
:109930000298C0B9B8F57A7F03D347F27B20208024
:10994000B9E73B2F03DD47F27A202080B3E73B2EB7
:1099500003DD47F279202080ADE7632D12DD47F269
:1099600078202080A7E742F20F70864203DD47F29D
:10997000792020809FE7B5F57A7F03DB47F27820D6
:10998000208098E73D48D0F800904FF4FA70B0FB83
:10999000F9F0404400FB09F04FF47A71B0FBF1F1AB
:1099A0004FF461606843C6EB061200EB8200384456
:1099B00000FB091001900198002856D000BF00BF9D
:1099C00000BFFCF75BFC009000BF00BF2A48007896
:1099D000401C2949087000BF00BF0098FCF752FCEA
:1099E00000BF00BF00BF01202549096881F836008B
:1099F00023465A4622480199006802F087FA2088D7
:109A0000A8B100BF00BF00BFFCF738FC009000BF4A
:109A100000BF19480078401E1749087000BF00BFFA
:109A20000098FCF72FFC00BF00BF00BF43E71448BD
:109A3000006801F001F900BF00BF00BFFCF71EFC89
:109A4000009000BF00BF0C480078401E0A49087013
:109A500000BF00BF0098FCF715FC00BF00BF00BFAF
:109A6000FEF776FF0020208002E047F27E20208073
:109A700000BF20E7240100206C010020AC35010864
:109A8000C401002010B586B000F01EF8FDF7C6F83E
:109A9000044605A800210091CDE901140390074870
:109AA000007800EB4000064A02EB800100231A46D2
:109AB000044800F095FA06B010BD000052010020E5
:109AC000446B00205449434B10B50348006810B163
:109AD00001480068804710BD1C010020244825482B
:109AE00025482648264827482748284828482948FE
:109AF00029482A482A482B482B482C482C482D48CE
:109B00002D482E482E482F482F483048304831489D
:109B1000314832483248334833483448344835486D
:109B2000354836483648374837483848384839483D
:109B300039483A483A483B483B483C483C483D480D
:109B40003D483E483E483F483F48404840484148DD
:109B500041484248424843484348444844484548AD
:109B60004548464846484748474800BF70470000B8
:109B7000F035010858370108F2350108F3350108BE
:109B8000F4350108F8350108FC350108F9350108FC
:109B90002436010825360108263601082836010832
:109BA0002A3601082C3601082E3601083036010805
:109BB000503601085236010854360108563601085D
:109BC000583601085A3601085C3601088836010803
:109BD000893601088A3601088C3601088E3601085C
:109BE0008F36010890360108923601089436010834
:109BF00096360108983601089A3601089C36010805
:109C0000CC360108CD360108CE360108CF36010822
:109C1000D0360108D2360108D4360108FC360108D6
:109C2000FD360108FE360108FF360108003701083D
:109C3000023701080437010808370108093701080D
:109C40000A3701080B3701080C3701080D370108E6
:109C50000E3701080F3701081037010812370108C5
:109C6000133701081437010816370108183701089F
:109C7000193701081C37010850370108513701080E
:109C80005237010854370108563701080021034AAA
:109C90001160034A11800180704700003C010020E0
:109CA000400100202DE9F04F85B0044689469246D8
:109CB0009B46DDF838800020009000BF00BFFCF715
:109CC000DDFA009000BF00BFBAF1000F0AD0BAF170
:109CD000010F0DD0BAF5004F05D06FF4004050448D
:109CE00060B906E000BF206A40EA0900206214E083
:109CF00000BF206A20EA090020620EE000BF00BF1A
:109D00000098FCF7BFFA00BF00BF45F62560A8F831
:109D10000000002005B0BDE8F08F00BFC4F824B0FB
:109D200004F1080001900198008958B900BF00BFF4
:109D30000098FCF7A7FA00BF00BF0020A8F80000B9
:109D4000206AE7E700BF61480078401C5F4908705F
:109D500000BF00BF0098FCF795FA00BF00BF00BF2E
:109D600001980768BD687FE07868029095F88800E0
:109D700000F00F0003900398012821D002282ED074
:109D8000042802D0082836D10EE0206AD5F88010C9
:109D900000EA0106D5F88000B04204D15A463146A7
:109DA000284600F097F859E0206AD5F8801000EABC
:109DB000010626B15A463146284600F08BF84DE0A0
:109DC000D5F88000216A20EA0106D5F88000B0426B
:109DD00004D15A463146284600F07CF83EE0D5F8DA
:109DE0008000216A20EA010626B15A4631462846FB
:109DF00000F070F832E000BF00BF00BFFCF73EFA91
:109E0000009000BF00BF31480078401E2F49087005
:109E100008460078A0B92E480088002809DD00BF58
:109E200000BF0098FCF72EFA00BF00BF00F032FF21
:109E30000DE000BF00BF0098FCF724FA00BF06E069
:109E400000BF00BF0098FCF71DFA00BF00BF00BFB5
:109E500043F6FF20A8F8000000205BE700BF029F48
:109E60000FB1BD6800E00025002D7FF47DAF00BF7D
:109E700000BF00BFFCF702FA009000BF00BF13480C
:109E80000078401E1149087000BF00BF0098FCF721
:109E9000F9F900BF00BF00BF0AF4004008B9FEF79F
:109EA00057FD00BF00BFFCF7E9F9009000BF00BFFD
:109EB000206A049000BF00BF0098FCF7E3F900BFE0
:109EC00000BF0020A8F80000049823E76C010020E0
:109ED0003001002070B504460E4615463434266520
:109EE000002060702070E560A078343C082816D20D
:109EF000DFE800F0040508090706101100BF00BFE5
:109F000000BF0DE000BF204601F028FC002084F8CF
:109F1000360005E000BF042084F8360000E000BFF2
:109F200000BF204600F05BFC70BD0000002400BFB5
:109F300019E000BF00BFFCF7A1F9044600BF00BF55
:109F400009480068401C0849086008480068401C2F
:109F50000649086000BF00BF2046FCF793F900BF28
:109F600000BFFEF781FBE4E7200100208401002010
:109F700010B58AB0044600200E4908600B2000216D
:109F80000591CDE90704069108460B4909680B4A7B
:109F900012680B4B1B68CDE90132CDE903103F205D
:109FA0000023084A08A100900C48FEF72DFF0AB0D4
:109FB00010BD000020010020543501085035010873
:109FC0004C3501082D9F000875432F4F532D4949EB
:109FD000492049646C65205461736B00B0690020AE
:109FE0002DE9F84F04460D4616461F46DDE90BAB3A
:109FF000DDF82890DDF834800020009000BF00BF1D
:10A00000FCF73CF9009000BF00BF2B4800882B49AB
:10A01000098888423EDA28480088401C2649088082
:10A02000274800880988884203DA234800882449A1
:10A030000880244800680460224800688560214840
:10A040000068C6601F48006807821E480068C0F8A4
:10A0500014901C480068A0F818A01A480068C0F8BE
:10A060001CB018480068406816490860012016496D
:10A070000881164808604860002000F07FFC144802
:10A08000007818B112480078124908700020A8F82A
:10A09000000008E010480088401C0F49088044F286
:10A0A0005360A8F8000000BF00BF0098FCF7EAF872
:10A0B00000BF00BFBDE8F88F300100206035010807
:10A0C0003201002028010020446B0020746A002027
:10A0D0005201002054010020340100203EB55948AF
:10A0E00000680068584A811A904279D00FDC5749BD
:10A0F000084400283ED056490844A8B155490844B0
:10A10000002860D05449084400286AD13FE05348F1
:10A110000844002850D052490844002862D05149D0
:10A1200008440028F1D110E002A8464D00902D68A7
:10A13000EB69444D2D682A8B424D2D686969414D6C
:10A140002D68A868FFF7AEFD7AE002A93D480068D7
:10A15000C0693C4DCDE900012D682B8B394D2D6830
:10A160002A8A384D2D68E968364D2D68A86800F0B8
:10A1700035FC65E0334B1B68DA69324B1B68198B81
:10A18000304B1B68986802AB00F052FE58E002A901
:10A190002C480068C0692B4DCDE900012D682B8B40
:10A1A000284D2D682A8A274D2D68E968254D2D6890
:10A1B000A86801F0CDF943E022490968886802A93E
:10A1C00001F0DAFA3CE01F4B1B68DA691D4B1B6893
:10A1D000198B1C4B1B68986802AB01F079FB2FE0D0
:10A1E00007E02CE017490968886802A901F0D2FD50
:10A1F00026E01D49097801EB41011C4A02EB810070
:10A2000000F0A2FD0F48006802AB0021C2691848A7
:10A2100001F05EFB17480068401E164908600846BA
:10A22000006858B9144800680860FCF7F7FC044659
:10A2300002AB22460021114801F04AFB00E000BFBA
:10A2400000BF3EBD2C0100205449434BADBAB2BE05
:10A250000DF90BFAF2F8F7FF0006F6FF00F7FDF72D
:10A2600000FFEFFF03FE0FFE54010020446B0020AF
:10A27000086F0020C0010020BC010020CC6F00202E
:10A28000002700BF4CE0002648E000BF00BFFBF7FE
:10A29000F5FF074600BF00BF2248008888B90020AC
:10A2A000214908810860486000F07AFB00BF00BFC8
:10A2B0003846FBF7E7FF00BF00BFFEF749FB01266A
:10A2C0002CE000BF00BF3846FBF7DCFF00BF00BF3B
:10A2D000FCF7A4FC0546FFF701FFFCF79FFC441BBD
:10A2E00012480068A04201D21048046000BF00BFBD
:10A2F000FBF7C4FF074600BF00BF0D480068406879
:10A300000B49086007480088401E0649088000BFC6
:10A3100000BF3846FBF7B6FF00BF00BF002EB4D029
:10A32000B1E7000030010020446B0020380100201C
:10A330002C010020F0B589B0054600203149088085
:10A340003148006820B944F25260288009B0F0BD5D
:10A350002E480088022803DA44F254602880F5E78A
:10A3600000202B490860284804682646203600272C
:10A370000CE0284820600020A060E060208260613E
:10A380002083666020342036781C87B21F480088FE
:10A390008742EEDB203C1C48066866601E4806606B
:10A3A0001E48066000201E4908801E4908801E487D
:10A3B000006818B944F255602880C7E71B48006858
:10A3C0001B490968884203D244F256602880BDE7E1
:10A3D000032000210591CDE9070506911348006887
:10A3E000144A1268104B1B68CDE90301CDE9013214
:10A3F00000910B46104A11A11748FEF705FD00BF5A
:10A40000A4E70000340100205C3501086035010834
:10A41000380100204E4F4E45280100202C0100201D
:10A420003001002032010020683501087035010834
:10A43000A83501086C35010881A2000875432F4F2B
:10A44000532D49494920495352205175657565205E
:10A450005461736B00000000746A00200021034AFD
:10A460001160034A11800180704700004401002000
:10A470004801002070B502460B46104611461031C7
:10A480005E1EB5B2002408E0016000264660068129
:10A49000C66010301031661CB4B2AC42F4DB00264A
:10A4A000066046600681C66070BD000010B50446B7
:10A4B0001048006818B945F21E70208010BD0E4883
:10A4C000008818B945F21D702080F7E70A48018816
:10A4D00008480068FFF7CEFF064800680749086093
:10A4E0000548008888800020C8800881208000BF3F
:10A4F000E4E700008C35010884350108386B002042
:10A5000010B5014648894B89002B17DD0A680C4BB2
:10A510001B6813600A4C4B6823602346DB884C8918
:10A520001B1B074CE38023469B884C892344044C27
:10A53000A38000234B818B810B604B6010BD00001A
:10A54000386B0020018100224281828102604260DA
:10A55000704700002DE9F0410D46DDE90674B0F8C2
:10A560000AC0B0F80880C44505DB46F2935CA4F845
:10A5700000C0BDE8F081DFF8D4C0BCF804C0BCF175
:10A58000000F04D145F21D7CA4F800C0F1E7DFF80C
:10A59000BCC0DCF80010DFF8B480D1F800C0C8F807
:10A5A00000C0C446BCF804C0ACF1010CA8F804C05B
:10A5B000C446BCF806C00CF1010CA8F806C0C4469D
:10A5C000BCF808C0B8F80680C44507DADFF87CC0DC
:10A5D000BCF806C0DFF87480A8F808C0B0F80AC05C
:10A5E000BCF1000F06D1016041604FF0010CA0F8F2
:10A5F0000AC017E003F0100CBCF1000F07D1066889
:10A6000031604FF0000CC1F800C0016004E0D0F8E8
:10A6100004C0C1F800C04160B0F80AC00CF1010CE0
:10A62000A0F80AC0B0F80CC0B0F80A80C44503DA3C
:10A63000B0F80AC0A0F80CC04D600A81CF604FF09E
:10A64000000CA4F800C000BF93E70000386B0020A6
:10A650000021034A1160034A118001807047000005
:10A660004C010020500100202DE9F04105460C4628
:10A6700016461F461548006880F8346000201349CC
:10A68000096881F8350039461048006800F096FEE8
:10A690006CB104F10808EC60012229460B480068FF
:10A6A00000F016F82946404600F066F806E0002063
:10A6B00006490968C88705490968086303480168AD
:10A6C000204600F019F8BDE8F0810000C401002028
:10A6D00010B5C287016300230AE000244C600C60BF
:10A6E0000C614C610C83CC61886020315C1CA3B28E
:10A6F0009342F2DB10BD000030B548B14568C1F8A7
:10A70000C05000F10804226893681D6AC56113E017
:10A7100091F83450022D02D0072D08D103E007A58F
:10A72000C1F8C05007E007A5C1F8C05003E008A574
:10A73000C1F8C05000BF00BF30BD00005461736B52
:10A74000205100005461736B2053656D00000000C0
:10A750002000000030B507A5C1F8C05000F1080482
:10A7600022681AB193681D6AC56101E001A5C5613F
:10A7700030BD000020000000F0B58E6896F837501C
:10A7800007893FB90127078100274F600F600160EB
:10A79000416023E007897F1C0781026806E0946816
:10A7A00094F83770AF4200DD02E05268002AF6D11B
:10A7B00000BF32B900274F6043680B6059604160A9
:10A7C0000CE017682FB9116000270F604A60016024
:10A7D00004E013680B604A6059601160F0BD2DE918
:10A7E000F0410446256BE68F0AE0D5F80C8008F1AD
:10A7F00008072946384600F00AF82035701E86B250
:10A80000002EF2DC0020E0872063BDE8F08110B567
:10A810000489012C03D100240460446011E00C6819
:10A8200024B94A680024146002600AE04C6824B924
:10A830000B6800245C60436003E00B684A685A6060
:10A8400013600489641E048100244C600C6010BDF8
:10A850002DE9F84306460C4617469846089D94F89D
:10A860003600082850D2DFE800F004050809060782
:10A870002B2C00BF00BF00BF47E000BF94F834009E
:10A88000032807D143463A4621463046009500F05A
:10A890003FF803E0E765A4F86080256436B1204600
:10A8A000FFF79DFF21463046FFF754FF204600F09A
:10A8B00055FF00203434A070607004F8340924E09F
:10A8C00000BF94F83400032807D143463A46214696
:10A8D0003046009500F01CF803E0E765A4F86080BE
:10A8E0002564204601F0F0FB36B12046FFF777FFE4
:10A8F00021463046FFF72EFF04203434A07000209C
:10A90000607004F8340900E000BF00BFBDE8F883C0
:10A91000F0B50446059E086BCD8F0AE0C768A742D4
:10A9200004D1046142610383C66104E020306F1EDC
:10A93000BDB2002DF2DC00BFF0BD000070B50025F7
:10A94000074C03E005F12000C5B2241D2068002853
:10A95000F8D02068FBF79DFC2844C5B2284670BD9E
:10A96000FC000020002004E00021034A42F82010EF
:10A97000401C0228F8D37047FC00002030B5420983
:10A9800000F01F030121C3F11F04A140034C54F840
:10A9900022400C43014D45F8224030BDFC00002010
:10A9A00030B5420900F01F030121C3F11F04A1408B
:10A9B000034C54F822408C43014D45F8224030BDF1
:10A9C000FC0000200021034A1160034A118001802D
:10A9D00070470000580100205C0100202DE9F04F75
:10A9E00085B007468A4693461C460020029000BF69
:10A9F00000BF00BFFBF742FC029000BF00BF484809
:10AA00000078401C4649087000BF00BF0298FBF761
:10AA100039FC00BF00BF00BF07F1080630890028DD
:10AA200042D104F0100010B94FF0000801E04FF0DF
:10AA30001008DDE90E0143465A46CDE900015146B2
:10AA400007F12000FFF786FD00BF00BF00BFFBF746
:10AA500015FC029000BF00BF31480078401E30490D
:10AA6000087008460078A0B92E480088002809DD43
:10AA700000BF00BF0298FBF705FC00BF00BF00F05D
:10AA800009F90DE000BF00BF0298FBF7FBFB00BF18
:10AA900006E000BF00BF0298FBF7F4FB00BF00BF59
:10AAA00000BF05B0BDE8F08F04F4007008B135892F
:10AAB00000E00125D6F8009011E0D9F808000390D5
:10AAC000D9F8040004900E985B4652460090384630
:10AAD0000399FFF7BDFEDDF81090681E85B2002DCA
:10AAE000EBD100BF00BF00BFFBF7C8FB029000BF67
:10AAF00000BF0B480078401E0949087000BF00BF26
:10AB00000298FBF7BFFB00BF00BF00BF04F400408A
:10AB100008B9FDF71DFF00210F98018000BFC0E7B5
:10AB20006C0100203001002000210AE001EB41020D
:10AB3000054B03EB820000220281026042604A1C46
:10AB4000D1B24029F2D37047446B002010B50446BF
:10AB500094F83700FFF712FF94F837000549097899
:10AB6000884203D1204600F027F802E0204600F09A
:10AB700003F810BD5201002010B590F8373003EBF8
:10AB800043030C4C04EB83010B893BB901230B817C
:10AB90000023C36003610860486009E00B895B1C07
:10ABA0000B810B68C360002303610A6810610860B1
:10ABB00010BD0000446B002010B590F8373003EB57
:10ABC00043030B4C04EB83010B893BB901230B813D
:10ABD0000023C36003610860486008E00B895B1CC8
:10ABE0000B810023C3604A680261D060486010BDD9
:10ABF000446B002010B501460C8924B1012C03D010
:10AC0000022C0CD101E000BF14E008684A68026120
:10AC10000024C4601461D0600A6048600AE00868DB
:10AC20004A68C36800241C61C4600261D0600B6084
:10AC3000486000BF00BF10BD2DE9F041054695F802
:10AC4000370000EB4000124901EB80042F69EE68E9
:10AC500087B946B9002020812060606095F83700F0
:10AC6000FFF79EFE0EE02089401E2081002030610B
:10AC7000266007E02089401E2081FE600EB96760D3
:10AC800000E0376100202861E860BDE8F081000045
:10AC9000446B002010B5002400BFFBF7EFFA044618
:10ACA00000BF00200D4908700D480E490860084695
:10ACB0000068D0F89000401C0968C1F890000A486C
:10ACC0000068401C084908604FF080500749086040
:10ACD00000BF2046FBF7D6FA00BF10BD530100208D
:10ACE000746A0020C80100209801002004ED00E0F3
:10ACF00010B504480078012803D1FBF78FFF024903
:10AD0000086010BD6C0100206001002010B50A48E9
:10AD1000007880B9FBF782FF08490968441A08489F
:10AD20000068A04201D20648046006480068A042BC
:10AD300001D20448046010BD6C01002060010020B5
:10AD4000640100206801002070B5054600262E48E9
:10AD50000078012800D070BD00BF00BFFBF78EFA5D
:10AD6000064600BF00BF2C683CB900BF00BF30469C
:10AD7000FBF788FA00BF00BFEDE72448844207D103
:10AD800000BF00BF3046FBF77DFA00BF00BFE2E71F
:10AD9000A06D10B1A06D401EA065A06D38B100BFC0
:10ADA00000BF3046FBF76EFA00BF00BFD3E728892B
:10ADB000022807DA00BF00BF3046FBF763FA00BF86
:10ADC00000BFC8E712480078002807DD00BF00BFB9
:10ADD0003046FBF757FA00BF00BFBCE72846FFF735
:10ADE00009FF2C68606D18B90A480068A06501E089
:10ADF000606DA06500BF00BF3046FBF743FA00BF9F
:10AE000000BF00BFA7E7000074010020B069002068
:10AE10006C010020700100200021034A1160034AE8
:10AE20001180018070470000780100207C01002023
:10AE30002DE9FF5F0446884691461D46002001909B
:10AE400000BF00BFFBF71AFA019000BF00BF04F17A
:10AE50000807388900284FD10420012804D002288F
:10AE600014D0042834D123E0206AFF280DD100BF7C
:10AE700000BF0198FBF706FA00BF00BF46F6C550B9
:10AE80002880002004B0BDE8F09F22E04FF6FF715B
:10AE9000206A88420BD100BF00BF0198FBF7F2F98E
:10AEA00000BF00BF46F6C55028800020EAE710E04A
:10AEB000206A401C58B900BF00BF0198FBF7E2F9B7
:10AEC00000BF00BF46F6C55028800020DAE700E04A
:10AED00000BF00BF206A401C2062D4F820A0C4F844
:10AEE000249000BF00BF0198FBF7CCF900BF00BF62
:10AEF000002028805046C5E700BF25480078401C48
:10AF00002349087000BF00BF0198FBF7BBF900BFE1
:10AF100000BF00BF08F4007008B13E8900E00126C0
:10AF2000D7F800B011E0DBF808000290DBF804006D
:10AF3000039000231A46CDF8009020460299FFF7AF
:10AF400087FCDDF80CB0701E86B2002EEBD1D4F871
:10AF500020A000BF00BF00BFFBF790F9019000BF29
:10AF600000BF0B480078401E0949087000BF00BFB1
:10AF70000198FBF787F900BF00BF00BF08F400404D
:10AF800008B9FDF7E5FC0020288050467AE700006C
:10AF90006C01002086B00020009000BF06E0C3498D
:10AFA0000968480001AA0021FEF7E8FBC0480078C4
:10AFB0000128F4D101A8FDF709FE0027BD4800686B
:10AFC000BA490968884205D9BA480068B74909688A
:10AFD000B0FBF1F727B9B74800680A21B0FBF1F7D9
:10AFE00062E1FBF71BFE804600BF00BFFBF746F99E
:10AFF000009000BF00BFB0480068B0490860002062
:10B00000AD49086000BF00BF0098FBF73BF900BFE7
:10B0100000BFAB480068A9490968884248D9A848D8
:10B020000068A849884205D242F2107003900120BE
:10B03000029023E0A2480068A349884205D24FF459
:10B040007A7003900A20029018E09D4800689F499A
:10B05000884203D26420039002900FE09848006871
:10B060009B49884205D20A2003904FF47A700290DF
:10B0700004E00120039042F21070029090480168B1
:10B080000298B1FBF0FA8D49039809684843B0FB78
:10B09000FAF042F21071081A8E4908808E48008832
:10B0A0000988884208DA8B4800888B49088003E0C9
:10B0B00042F2107087490880FDF79CFE002500BF12
:10B0C00000BFFBF7DBF8009000BF00BF83480468B7
:10B0D00000BF00BF0098FBF7D5F800BF00BF5AE0E3
:10B0E00000BF00BF00BFFBF7C9F8009000BF00BF62
:10B0F0007B480078401C7A49087000BF00BF009868
:10B10000FBF7C0F800BF00BF00BF54F89C0F6060A1
:10B11000002044F89C0900BF00BF00BFFBF7AEF859
:10B12000009000BF00BF6E480078401E6C49087058
:10B1300008460078A0B96B480088002809DD00BFE8
:10B1400000BF0098FBF79EF800BF00BFFFF7A2FD0D
:10B150000DE000BF00BF0098FBF794F800BF06E0C9
:10B1600000BF00BF0098FBF78DF800BF00BF00BF15
:10B17000D4F8A000054400BF00BFFBF77FF80090A3
:10B1800000BF00BFD4F8BC4000BF00BF0098FBF771
:10B1900079F800BF00BF002CA2D145B349488542D1
:10B1A00005D242F2107005904FF0010B1BE04648AB
:10B1B000854205D24FF47A7005904FF00A0B12E0E9
:10B1C0004248854203D26420059083460BE0404804
:10B1D000854204D20A2005904FF47A7B03E00120D7
:10B1E000059042F2107BB5FBFBF0049003E00020D9
:10B1F00005900120049000BF00BFFBF73FF80090CE
:10B2000000BF00BF3548046800BF00BF0098FBF7CF
:10B2100039F800BF00BF2BE0D4F8A00005994843DF
:10B220000499B0FBF1F086B242F21070864200D968
:10B230000646A4F88C60B4F88E00B04201DAA4F897
:10B240008E6001AB04F1AC02111D2046FEF758F9E7
:10B2500000BF00BFFBF712F8009000BF00BFD4F89A
:10B26000BC4000BF00BF0098FBF70CF800BF00BF58
:10B27000002CD1D11C480078012805D100201A49A2
:10B28000087001A8FDF7A2FCFBF7C8FCA0EB0809B9
:10B2900016480068484502D21448C0F8009001AA38
:10B2A00000213846FEF76AFA9BE600009435010853
:10B2B00090010020AC350108840100208C010020A1
:10B2C00088010020801A060000093D00005A620231
:10B2D0000084D71780010020820100209C010020FB
:10B2E0006C010020300100207E010020940100202C
:10B2F00010B58AB0044600201F4908601F49086045
:10B300001F4908601F4908701F4908701F480068DE
:10B3100020B946F62B6020800AB010BD1C4800689A
:10B320001C490968884203D246F62C602080F3E766
:10B33000194800783F2803D346F62A602080EBE7BF
:10B34000032000210591CDE9070406910846104924
:10B350000968124A12680D4B1B68CDE90132CDE92C
:10B3600003100D48007800230D4A0EA100901248EA
:10B37000FDF74AFD00BFCFE7840100208C010020CB
:10B3800088010020900100207E01002098350108EE
:10B39000A0350108A8350108903501089C35010841
:10B3A00095AF000875432F4F532D494949205374D9
:10B3B0006174205461736B00446E002038B50446FC
:10B3C0000D4685B16B4602222946204600F09EFDBF
:10B3D000BDF8000018B9032084F8360006E002200A
:10B3E00084F8360002E0022084F836002046FFF799
:10B3F00023FC38BD0021C0F8B8100949096819B903
:10B400000021C0F8BC1007E005490968C0F8BC106D
:10B4100003490968C1F8B800014908607047000095
:10B420009C010020D0F8B820D0F8BC104AB90D4BD0
:10B43000196011B10023C1F8B8300023C0F8BC3046
:10B440000FE029B90023C2F8BC30C0F8B83008E0DA
:10B45000C2F8BC10C1F8B8200023C0F8BC30C0F856
:10B46000B83070479C0100200021044A1160044A52
:10B470001180044A11600180704700009C01002087
:10B48000A00100209801002070B504460020206033
:10B49000A0606060E06020616061A061E06129A05F
:10B4A000206200206062A062E0622064E065A4F88F
:10B4B0006000002104F16400FFF744F8002044F824
:10B4C000740F6060E060A0822061743C002506E09B
:10B4D000002104F17C0040F82510681CC5B2002D45
:10B4E000F6D000203434206120676067606084F803
:10B4F0005600E067A06720814FF0004060610020A7
:10B50000A061E06120626062A4F85800A4F85A00CB
:10B51000E0652066FBF782FB064666660020A066B3
:10B52000C4F8800020706070A0704020E07000209F
:10B53000C4F88400C4F8880004A0C4F88C00343C2B
:10B5400070BD00003F5461736B00000020000000DC
:10B550002DE9FC4704460F4690469946DDE90A6509
:10B560004FF0000A00BF00BF00BFFAF787FE824617
:10B5700000BF00BF76480078401C7549087000BFC6
:10B5800000BF5046FAF77EFE00BF00BF00BF0CB9F7
:10B59000704804680020288094F8360008287DD27E
:10B5A000DFE800F004053E3F0607404100BF00BF52
:10B5B00000BF4B464246394604F16400CDE90065C0
:10B5C000FEF7C8FF00BF00BF00BFFAF757FE824674
:10B5D00000BF00BF5E480078401E5D490870084605
:10B5E0000078A0B95C480088002809DD00BF00BFD2
:10B5F0005046FAF747FE00BF00BFFFF74BFB0DE0D8
:10B6000000BF00BF5046FAF73DFE00BF06E000BF96
:10B6100000BF5046FAF736FE00BF00BF00BF93E000
:10B6200000BF00BF00BF94F83400022821D1434678
:10B630003A46214600200096FFF70AF900BF00BFF6
:10B6400000BFFAF71BFE824600BF00BF40480078EB
:10B65000401E3F49087000BF00BF5046FAF712FE77
:10B6600000BF00BF00BF09F4004090BBFDF770F9B8
:10B6700038E04B464246394604F16400CDE90065A6
:10B68000FEF768FF00BF00BF00BFFAF7F7FD824674
:10B6900000BF00BF2E480078401E00E023E02C4988
:10B6A000087008460078A8B92B480088002809DDF2
:10B6B00000BF00BF5046FAF7E5FD00BF00BFFFF72F
:10B6C000E9FA0EE000BF00BF5046FAF7DBFD00BF0D
:10B6D00007E007E000BF00BF5046FAF7D3FD00BF08
:10B6E00000BF00BF30E000BF00BF00BFFAF7C6FDDB
:10B6F000824600BF00BF16480078401E14490870FB
:10B7000008460078A0B914480088002809DD00BF69
:10B7100000BF5046FAF7B6FD00BF00BFFFF7BAFA08
:10B720000DE000BF00BF5046FAF7ACFD00BF06E0D9
:10B7300000BF00BF5046FAF7A5FD00BF00BF00BF25
:10B7400046F62D60288000BF00BFBDE8FC870000E2
:10B750006C010020C40100203001002010B5044617
:10B76000204600F0B1FC94F8360000F0040010B957
:10B770002046FFF7EBF910BD70B504460D460026D4
:10B7800000BF00BFFAF77AFD064600BF00BF0020E9
:10B79000288094F8360008287BD2DFE800F0040502
:10B7A00006071243556700BF00BF00BF00BF00BFC0
:10B7B0003046FAF767FD00BF00BF47F253102880FC
:10B7C00072E000BF3B480078401C3A49087000BF57
:10B7D00000BF3046FAF756FD00BF00BF00BF14F8A7
:10B7E0008A0F401E207014F88A0928B9002084F8B6
:10B7F00036002046FFF7B2FF00BF00BF00BFFAF7D8
:10B800003DFD064600BF00BF2A480078401E29497A
:10B81000087000BF00BF3046FAF734FD00BF00BF1C
:10B8200000BF41E014F88A0F401E207014F88A0906
:10B8300010B9012084F8360000BF00BF3046FAF787
:10B8400021FD00BF00BF2FE014F88A0F401E2070BA
:10B8500014F88A0910B9022084F8360000BF00BF2E
:10B860003046FAF70FFD00BF00BF1DE014F88A0F45
:10B87000401E207014F88A0910B9032084F836009D
:10B8800000BF00BF3046FAF7FDFC00BF00BF0BE071
:10B89000FFE700BF00BF3046FAF7F4FC00BF00BF6F
:10B8A00046F62D60288070BD00BFFDF751F800BF3F
:10B8B000F9E700006C01002008B504480068FDF7B6
:10B8C00009FD69460020FDF7D9FB08BDC401002031
:10B8D0002DE9F8430446884617461D464FF00009F7
:10B8E00000BF00BF00BFFAF7C9FC814600BF00BF20
:10B8F000FE480078401CFD49087000BF00BF484664
:10B90000FAF7C0FC00BF00BF00BF0CB9F8480468DC
:10B9100027640020288094F83600082871D2DFE8D8
:10B9200000F00405EBEC0607EDEE00BF00BF00BF22
:10B930000420012804D0022839D004286FD170E0F7
:10B94000606CFF2832D100BF00BF00BFFAF796FC41
:10B95000814600BF00BFE5480078401EE3490870FB
:10B9600008460078A0B9E3480088002809DD00BF38
:10B9700000BF4846FAF786FC00BF00BFFFF78AF910
:10B980000DE000BF00BF4846FAF77CFC00BF06E0B0
:10B9900000BF00BF4846FAF775FC00BF00BF00BFFC
:10B9A00046F6C55028800020BDE8F88371E04FF6C8
:10B9B000FF71606C884233D100BF00BF00BFFAF74F
:10B9C0005DFC814600BF00BFC8480078401EC749E3
:10B9D000087008460078A8B9C6480088002809DD24
:10B9E00000BF00BF4846FAF74DFC00BF00BFFFF79D
:10B9F00051F90EE000BF00BF4846FAF743FC00BF14
:10BA000007E08DE100BF00BF4846FAF73BFC00BFEE
:10BA100000BF00BF46F6C55028800020C4E737E0CD
:10BA200037E0606C401C88BB00BF00BF00BFFAF766
:10BA300025FC814600BF00BFAC480078401EAB49E2
:10BA4000087008460078A0B9AA480088002809DDD7
:10BA500000BF00BF4846FAF715FC00BF00BFFFF764
:10BA600019F90DE000BF00BF4846FAF70BFC00BF14
:10BA700006E000BF00BF4846FAF704FC00BF00BF65
:10BA800000BF46F6C550288000208DE7FFE700E0A4
:10BA900000BF00BF606C401C6064666C00BF00BFEC
:10BAA00000BFFAF7EBFB814600BF00BF8F4800786C
:10BAB000401E8E49087008460078A0B98D4800885D
:10BAC000002809DD00BF00BF4846FAF7DBFB00BFD6
:10BAD00000BFFFF7DFF80DE000BF00BF4846FAF7F0
:10BAE000D1FB00BF06E000BF00BF4846FAF7CAFB23
:10BAF00000BF00BF00BF45E100BF00BF00BF94F81A
:10BB00003400072823D100231A46214618460097FF
:10BB1000FEF79EFE666C00BF00BF00BFFAF7AEFBEB
:10BB2000814600BF00BF71480078401E6F49087011
:10BB300000BF00BF4846FAF7A5FB00BF00BF00BF2B
:10BB400008F40040002801D1FCF702FFE7E00420E0
:10BB5000012804D0022838D004286ED16EE0606C31
:10BB6000FF2831D100BF00BF00BFFAF787FB814635
:10BB700000BF00BF5D480078401E5C490870084661
:10BB80000078A0B95B480088002809DD00BF00BF2D
:10BB90004846FAF777FB00BF00BFFFF77BF80DE0E0
:10BBA00000BF00BF4846FAF76DFB00BF06E000BFCC
:10BBB00000BF4846FAF766FB00BF00BF00BF46F66D
:10BBC000C55028800020EFE670E04FF6FF71606CF2
:10BBD000884231D100BF00BF00BFFAF74FFB81465A
:10BBE00000BF00BF41480078401E40490870084629
:10BBF0000078A0B93F480088002809DD00BF00BFD9
:10BC00004846FAF73FFB00BF00BFFFF743F80DE0DF
:10BC100000BF00BF4846FAF735FB00BF06E000BF93
:10BC200000BF4846FAF72EFB00BF00BF00BF46F634
:10BC3000C55028800020B7E638E036E0606C401C34
:10BC400088BB00BF00BF00BFFAF718FB814600BFEA
:10BC500000BF26480078401E244908700846007836
:10BC6000A0B924480088002809DD00BF00BF48466D
:10BC7000FAF708FB00BF00BFFFF70CF80DE000BFAC
:10BC800000BF4846FAF7FEFA00BF06E000BF00BF5B
:10BC90004846FAF7F7FA00BF00BF00BF46F6C550A6
:10BCA0002880002080E6FFE700E000BF00BF606C56
:10BCB000401C6064666C00BF00BF00BFFAF7DEFA8C
:10BCC000814600BF00BF09480078401E0749087040
:10BCD00008460078D8B907480088002810DD00BF62
:10BCE00000BF4846FAF7CEFA00BF05E06C0100201D
:10BCF000C40100203001002000BFFEF7CBFF0DE0A3
:10BD000000BF00BF4846FAF7BDFA00BF06E000BF1B
:10BD100000BF4846FAF7B6FA00BF00BF00BF31E0E7
:10BD200000BF00BF00BFFAF7A9FA814600BF00BFFD
:10BD300016480078401E1549087008460078A0B9DA
:10BD400013480088002809DD00BF00BF4846FAF705
:10BD500099FA00BF00BFFEF79DFF0DE000BF00BFD6
:10BD60004846FAF78FFA00BF06E000BF00BF48461A
:10BD7000FAF788FA00BF00BF00BF46F62D602880A2
:10BD8000002600BF00BF30460EE600006C01002018
:10BD90003001002070B504460D46002600BF00BFEC
:10BDA000FAF76CFA064600BF00BF0CB94B480468AE
:10BDB0004A48006884420ED14948007800280ADDCC
:10BDC00000BF00BF3046FAF75DFA00BF00BF46F67D
:10BDD0006350288070BD0020288094F83600082821
:10BDE0006CD2DFE800F004313F4D5B5C5D5E00BF6C
:10BDF0003B480078401C3A49087000BF00BF3046FD
:10BE0000FAF740FA00BF00BF00BF042084F83600F4
:10BE1000012084F88A002046FEF70EFF00BF00BF15
:10BE200000BFFAF72BFA064600BF00BF2C48007887
:10BE3000401E2B49087000BF00BF3046FAF722FAB7
:10BE400000BF00BF00BF44E0052084F83600012099
:10BE500084F88A0000BF00BF3046FAF713FA00BF2B
:10BE600000BF36E0062084F83600012084F88A00FE
:10BE700000BF00BF3046FAF705FA00BF00BF28E058
:10BE8000072084F83600012084F88A0000BF00BF34
:10BE90003046FAF7F7F900BF00BF1AE000BF00BF55
:10BEA00000BF94F88A00401C84F88A0000BF00BFDD
:10BEB0003046FAF7E7F900BF00BF0AE000BF00BF55
:10BEC0003046FAF7DFF900BF00BF46F62D60288044
:10BED00080E700BFFCF73CFD00BF7BE7C40100200A
:10BEE0006C010020002108E0064A02EBC10000229C
:10BEF00002608280C2804A1C91B2034A1288914239
:10BF0000F2DB7047A0660020C43501082DE9F04F30
:10BF10000C4616461D46042E1ED1DFF8A091D9F816
:10BF20000090A4EB0909A9F1010313F5803F0DD995
:10BF30004FF00009C0F84C90C0F85090C0F81C9029
:10BF400047F27E29A5F80090BDE8F08FC46403F1A4
:10BF50000109C0F850903FE084B3082E25D1D0F8F5
:10BF6000489009EB0407DFF85491D9F80090A7EB4B
:10BF70000909A9F10103A34201D2C76406E0DFF871
:10BF80003C91D9F80090A144C0F84C90DFF82CA166
:10BF9000D0F84C90DAF800A0A9EB0A09C0F850904C
:10BFA000D0F84C90C0F8489016E0DFF81091D9F81E
:10BFB0000090A144C0F84C9004650DE0FFE74FF0FD
:10BFC0000009C0F84C90C0F85090C0F81C9047F29F
:10BFD0007E29A5F80090B7E7DFF8E4A0BAF800A042
:10BFE000D0F84C90B9FBFAFB0AFB1B991FFA89F8B1
:10BFF000DFF8D09009EBC802B2F80490B9F1000F55
:10C000000BD14FF00009C0F81490C0F818901060E0
:10C010004FF00109A2F804903EE0116834E0DFF827
:10C020009CA0D1F84C90DAF800A0A9EB0A09C1F85D
:10C030005090D0F85090D1F850A0D1450ED9D1F8F9
:10C040001490B9F1000F01D049691DE04FF00009CB
:10C05000C0F8149081614861002115E0D1F8189072
:10C06000B9F1000F07D14FF00009C0F818904161F5
:10C070008861106007E0D1F818C0C0F818C04161AD
:10C08000CCF81400886100210029C8D1B2F80490CE
:10C0900009F10109A2F80490B2F80690B2F804A0E0
:10C0A000D14503DAB2F80490A2F80690C2614FF0CD
:10C0B0000009A5F8009000BF46E70000A401002099
:10C0C000C4350108A066002010B5C269BAB10024C9
:10C0D00004651468844205D14169116039B10024B6
:10C0E0008C6104E0816943694B6103B1996100246B
:10C0F00044618461C461C4649488641E948010BDEA
:10C10000002006E0054A02EBC0010022CA80421C62
:10C1100090B2034A12889042F4DB7047A066002078
:10C12000C43501082DE9F05F4FF0000B00BF00BFE0
:10C1300000BFFAF7A3F8834600BF00BF714800783C
:10C14000401C7049087000BF00BF5846FAF79AF8C3
:10C1500000BF00BF00BFFAF761FD05466A480068EE
:10C16000401C694908600846006868490988B0FBB6
:10C17000F1F201FB12001FFA80FA654800EBCA08D1
:10C18000D8F80040002782E0002C7FD0D4F814902B
:10C1900094F83600082875D2DFE800F00408051B83
:10C1A000063D075000BF00BF00BF6CE05649E06C81
:10C1B0000968401A20655449E06C0968884206D134
:10C1C000002084F836002046FFF7C8FA00E0012777
:10C1D00059E04D49E06C0968401A20654A49E06C15
:10C1E0000968884215D10020E065A4F86000FAF7DC
:10C1F00015FD20642046FEF7F2FA2046FFF7AEFA5E
:10C2000000203434A07003206070002004F834094A
:10C2100000E0012737E03C49E06C0968401A2065DE
:10C220003949E06C0968884206D1042084F8360058
:10C230002046FFF749FF00E0012724E03249E06C87
:10C240000968401A20653049E06C0968884217D1B6
:10C250000020E065A4F86000FAF7E0FC20642046C6
:10C26000FEF7BDFA2046FFF72FFF04203434A070FC
:10C2700003206070002004F8340902E006E001E0C9
:10C28000012700E000BF00BF4C4600E00127002F5F
:10C290003FF47AAFFAF7C2FC461B1E480068B04272
:10C2A00001D21C48066000BF00BF00BFF9F7E6FFDF
:10C2B000834600BF00BF13480078401E1149087034
:10C2C00008460078A0B914480088002809DD00BF9E
:10C2D00000BF5846F9F7D6FF00BF00BFFEF7DAFCF3
:10C2E0000DE000BF00BF5846F9F7CCFF00BF06E0E5
:10C2F00000BF00BF5846F9F7C5FF00BF00BF00BF31
:10C30000BDE8F09F6C010020A4010020C4350108A5
:10C31000A0660020A8010020300100201CB500BF4D
:10C320000EE001AB6A4600210846FCF7DFFFBDF8CE
:10C33000040028B903480078012801D1FFF7F2FE74
:10C34000EFE700002501002010B58AB00446002068
:10C350001D4908601D490860FFF7C4FD1C480068BE
:10C3600020B947F2122020800AB010BD1948006899
:10C3700019490968884203D247F213202080F3E765
:10C38000164800783F2803D347F211202080EBE7BE
:10C390000B20002105910A46CDE9070406910D48BE
:10C3A00000680F4909680A4B1B68CDE90131CDE9E6
:10C3B00003020A48007800230A4A0BA100900F48A4
:10C3C000FCF722FD00BFCFE7A4010020A801002058
:10C3D000B4350108BC350108A8350108B03501089D
:10C3E000B83501081DC3000875432F4F532D494927
:10C3F00049205469636B205461736B00086F0020FF
:10C4000070B58AB0044600203149086031480068A0
:10C4100040B1314800682F490968B0FBF1F02F495D
:10C42000086006E02C4800680A21B0FBF1F02B49B7
:10C4300008602A4800682A490860002029490860E5
:10C4400029490860002508E0284800EBC5060020BF
:10C45000B080F0803060681C85B225480088854235
:10C46000F2DB2448006820B947F2473020800AB048
:10C4700070BD2148006821490968884203D247F20B
:10C4800048302080F3E71E4800783F2803D347F266
:10C4900046302080EBE70B2000210591CDE9070411
:10C4A0000691084614490968164A1268114B1B6820
:10C4B000CDE90132CDE90310114800780023124A7A
:10C4C00012A100901748FCF79FFC00BFCFE70000C7
:10C4D000AC010020D0350108AC350108BC010020BA
:10C4E000C0010020B8010020B4010020286900200C
:10C4F000E4350108D4350108DC350108A835010808
:10C50000CC350108D83501081DC6000875432F4FEA
:10C51000532D4949492054696D6572205461736BEC
:10C5200000000000CC6F0020F0B50C46022680F819
:10C530002A60012C05D12D4F466A3F683E44866132
:10C540000CE0066A2EB9294F466A3F683E44866170
:10C5500004E0264F066A3F683E448661244F3F88C8
:10C560008669B6FBF7FC07FB1C66B5B2214E06EBED
:10C57000C502166836B900260661466110600126BC
:10C5800096802CE0194F86693F68F61BC6611168DA
:10C5900020E0164F8E693F68F61BCE61C669CF69F1
:10C5A000BE4209D90E690EB1096913E00026066181
:10C5B0004161086100210DE04E692EB900264661F7
:10C5C00001614861106004E04B69436101611861D9
:10C5D000486100210029DCD19688761C9680D68897
:10C5E0009788BE4201DA9688D680F0BDB801002057
:10C5F000E435010828690020002006E0054A02EB26
:10C60000C0010022CA80421C90B2034A12889042A4
:10C61000F4DB704728690020E43501081CB500BF31
:10C6200053E001AB6A4600210846FCF75FFE01A813
:10C63000FCF7E2F9FAF7F2FA064624480068401CD3
:10C64000224908600846006821490988B0FBF1F2D8
:10C6500001FB12001FFA80FA1E4800EBCA08D8F846
:10C6600000404FF0000B21E0F4B1D4F810901749CE
:10C67000A0690968884214D1204600F02FF8208D67
:10C68000022804D101212046FFF74EFF02E00320DB
:10C6900084F82A00A56815B12046E168A8474C46F1
:10C6A00004E04FF0010B01E04FF0010BBBF1000F74
:10C6B000DAD0FAF7B3FA871B01A8FCF709FA0648A3
:10C6C0000068B84201D204480760AAE7B801002018
:10C6D000E435010828690020B4010020F0B5114EAE
:10C6E00036888569B5FBF6F706FB1755ACB20E4DDB
:10C6F00005EBC4021568854205D10169116039B1A5
:10C7000000254D6104E0416903690B6103B1596182
:10C71000012580F82A5000250561456195886D1E28
:10C720009580F0BDE43501082869002001490862C0
:10C730007047000000000E4229B1064AD269024348
:10C74000044BDA6104E0034AD2698243014BDA61A7
:10C75000704700000010024029B1064A12690243E6
:10C76000044B1A6104E0034A12698243014B1A61C7
:10C77000704700000010024029B1064A9269024346
:10C78000044B9A6104E0034A92698243014B9A6127
:10C79000704700000010024029B1064AD2680243E7
:10C7A000044BDA6004E0034AD2688243014BDA604A
:10C7B0007047000000100240014908607047000007
:10C7C0004004424230B500210022002400232D4DB8
:10C7D0006D6805F00C0121B1042905D0082923D189
:10C7E00005E0294D056022E0274D05601FE0254D3D
:10C7F0006D6805F47012234D6D6805F480340225D0
:10C8000005EB92421CB9214D554305600BE01D4DCF
:10C810006D6805F400351DB11C4D5543056002E0FF
:10C82000194D5543056002E0174D056000BF00BF7C
:10C83000144D6D6805F0F0010909154D6B5C056834
:10C84000DD4045600F4D6D6805F4E061090A104D4B
:10C850006B5C4568DD4085600A4D6D6805F460518C
:10C86000C90A0B4D6B5C4568DD40C560054D6D68C0
:10C8700005F44041890B074D6B5CC568B5FBF3F5CA
:10C88000056130BD0010024000127A0000093D0031
:10C89000E4000020F400002010B50146002200232F
:10C8A00000204A11012A02D1094C236806E0022A1D
:10C8B00002D1074C236A01E0054C636A01F01F02B4
:10C8C000012494401C400CB1012000E0002010BD68
:10C8D0000010024000210B4A11700A4A203A82F8E7
:10C8E0002010012802D0042808D103E00121054AC4
:10C8F000117004E00521034A117000E000BF00BF81
:10C900007047000020100240014908607047000095
:10C910003C0442420249096A0143014A11627047DC
:10C9200000100240024909888143014A1180704782
:10C93000042800400348008840F0100001490880A6
:10C940007047000004280040034800884FF6EF714C
:10C9500008400149088070470428004070B500264F
:10C960000024002500F07AF806463848B6FBF0F4BB
:10C9700037480088A0423CD035490C8040F2B2755F
:10C9800010E02846FAF74CFF40B1B4F5B77F02D368
:10C99000A4F5B77404E0681C85B206E0A4F26D1437
:10C9A000681C85B2B4F5B67FEBD800BF29488580F6
:10C9B000002516E027498888FAF732FF30B1012DAB
:10C9C00004D11D2C01D31D3C09E00CE02248405D40
:10C9D000A04203D82048405D241A00E003E0681C10
:10C9E00085B21C2CE6D200BF681C1A498871601CF5
:10C9F000C8711648B6FBF0F100FB11644FF461609A
:10CA0000B4FBF0F0134908704FF46160B4FBF0F12F
:10CA100000FB11403C21B0FBF1F00E4948704FF48F
:10CA20006160B4FBF0F100FB11403C21B0FBF1F27E
:10CA300001FB1200074988700B46DA7999799888CA
:10CA400000F028F803490872002070BD80510100F1
:10CA500024000020B82100202835010800210348C7
:10CA60000188001F008841EA004070471C280040F0
:10CA700001460020064A12880A40D0B2044A121F1A
:10CA800012880A4012B108B1012000E0002070476E
:10CA900004280040F0B503460C461546642093FB7D
:10CAA000F0F0C6B2642093FBF0F700FB1730C1B280
:10CAB000132E02DD01F16400C1B20846CF1701EB6D
:10CAC000977701EBA707BAB2072092FBF0F700FBBC
:10CAD000172082B25719601EDFF82CC01CF8000026
:10CAE000384482B2CF1701EB9777BF10A1EB8707CD
:10CAF0001FB9032C01DA501E82B2072092FBF0F717
:10CB000000FB1720C0B2F0BD1C35010810B5012094
:10CB1000FFF7AEFF08B1FFF721FF0220FFF7A8FFE4
:10CB200028B106A0F9F7CEFB0220FFF7FBFE052097
:10CB3000FFF7F8FE00F034F910BD0000616C61727F
:10CB40006DA3A1A3A10D0A0029B1064A12880243D0
:10CB5000044B1A8004E0034A12888243014B1A8076
:10CB600070470000002800401CB5002401214FF050
:10CB7000C050FFF7E1FD0120FFF7D8FD0420F9F7D1
:10CB8000DBFF45F25001884242D0F9F7CDFF01208A
:10CB9000FFF7A0FE04E0601CC4B20A2001F0ECFF25
:10CBA0004120FFF779FE0028F5D0FA2C01DB0120A7
:10CBB0001CBD4FF48070FFF7ADFE0120FFF7A4FE0F
:10CBC00000F0EEF800F0F6F801210846FFF7BCFF90
:10CBD00001210220FFF7B8FF00F0E2F8FFF7AAFEFC
:10CBE00047F6FF7000F0B8F800F0DAF80020009087
:10CBF0000A230F220521019040F2E37000F02AF889
:10CC0000FFF7A2FE45F250010420F9F7A3FF0BE065
:10CC100000F0D0F801210846FFF796FF012102201D
:10CC2000FFF792FF00F0BCF800F004F8FFF796FE63
:10CC30000020BDE708B503208DF8000000208DF826
:10CC400001008DF8020001208DF803006846FBF713
:10CC50003DFC08BD2DE9F05F06460F46904699461B
:10CC6000DDE90AAB002440F2B270864203DB40F6F5
:10CC70003300864202DD0120BDE8F09F40F2B2752C
:10CC80000AE02846FAF7CCFD10B12148044401E03F
:10CC900020480444681C85B2B542F2DB781EC7B256
:10CCA000002510E01C48405D40F2A321484304EBFE
:10CCB000C0143046FAF7B4FD18B1012D01D1174860
:10CCC0000444681C85B2BD42ECDBA8F1010040F2CF
:10CCD000A321484304EBC014C9EB4910C0EB092061
:10CCE00004EB0014CAEB0A1004EB80045C4401213D
:10CCF0004FF0C050FFF720FD0120FFF717FD204641
:10CD000000F01CF800F04CF8FFF728FE0020B3E715
:10CD10000085E2018033E1012835010880510100DE
:10CD200000B50246FFF706FE100C03490880091DF6
:10CD30000A80FFF709FE00BD2028004000B502462A
:10CD4000FFF7F8FD100C03490880091D0A80FFF762
:10CD5000FBFD00BD1828004000B50246FFF7EAFDC4
:10CD6000C2F3034003490880091D0A80FFF7ECFD68
:10CD700000BD00000828004070B5044601214FF0B6
:10CD8000C050FFF7D9FC0120FFF7D0FC00F008F8F5
:10CD9000FFF764FE05192846FFF7C2FF70BD0000CB
:10CDA00000BF0348008800F020000028F9D0704739
:10CDB00004280040074800884FF6F77108400549ED
:10CDC000088000BF0348008800F008000028F9D060
:10CDD00070470000042800400120014908607047A6
:10CDE00090012142002001490860704790012142D2
:10CDF00008B5012141F20400FFF7BEFCE020ADF8C8
:10CE0000000018208DF8030003208DF80200694609
:10CE10001648FAF737FB1020ADF800008DF8030034
:10CE200003208DF8020069461048FAF72BFBF02129
:10CE30000E48FAF706FC00200D4908804FF4827076
:10CE4000488000208880C88008814FF400704881A5
:10CE500000208881C88107200882064800F050F829
:10CE60000121044800F036F808BD00000008014028
:10CE7000A62100200030014000BF0A48008900F0D0
:10CE800002000028F9D0FF200649888100BF05482C
:10CE9000008900F001000028F9D002488089C0B262
:10CEA000704700000030014000BF0949098901F0C6
:10CEB00002010029F9D00649888100BF0449098987
:10CEC00001F001010029F9D001498989704700006A
:10CED0000030014021B1028842F04002028004E0AB
:10CEE00002884FF6BF731A4002807047012080F31A
:10CEF000108800BF7047002080F3108800BF704783
:10CF000010B50022028802F441520B884C8823435A
:10CF10008C882343CC8823430C8923434C892343A7
:10CF20008C892343CC8923431A430280838B4FF29D
:10CF3000FF74234083830B8A038210BD30B5034600
:10CF40000C461546002207E0184600F008F824F8C1
:10CF500012009B1C501C82B2AA42F5DB30BD014678
:10CF6000088870472DE9F05F80468A461746B8F179
:10CF7000006F02D33648804501D3BDE8F09FFAF731
:10CF800085F93520FAF712F9A8F1006B4FEADB2595
:10CF9000CBF34909C9F58064A74200DC3C4650E068
:10CFA0004FF0006101EBC5204A142A49FFF7C6FF84
:10CFB00000260BE009EB0600264931F810004FF679
:10CFC000FF71884200D003E0701C86B2A642F1DBFC
:10CFD00000BFA6421EDA3520FAF7E8F84FF00061EC
:10CFE00001EBC520FAF7E8F8002608E03AF8160049
:10CFF00006EB0901174A22F81100701C86B2A642FE
:10D00000F4DB4FF0006101EBC5204A14114900F038
:10D0100023F804E022465146404600F01DF8A7429E
:10D0200000D10FE06D1C4FF000090AEB440AA04448
:10D03000381B87B2B7F5806F02DD4FF4806400E0E3
:10D040003C46ADE700BFFAF7F7F800BF95E70000F0
:10D0500000000408104D00202DE9F04105460E4661
:10D060001746002407E036F814102846FAF7EEF8C1
:10D07000AD1C601C84B2BC42F5DBBDE8F08170479A
:10D0800010B500F001F810BD0CB500200190009023
:10D090003348006840F480303149086000BF3048B0
:10D0A000006800F4003000900198401C0190009846
:10D0B00018B90198B0F5A06FF1D12948006800F4C3
:10D0C000003010B10120009001E000200090009895
:10D0D000012843D12348006840F01000214908602E
:10D0E0000846006820F0030008600846006840F029
:10D0F000020008601A4840681949486008464068BC
:10D1000048600846406840F48060486008464068CF
:10D1100020F47C1048600846406840F4E8104860FD
:10D120000846006840F08070086000BF0C48006846
:10D1300000F000700028F9D00948406820F0030092
:10D14000074948600846406840F00200486000BF58
:10D150000348406800F00C000828F9D10CBD00001D
:10D160000010024000200240042808D14FF0E021C6
:10D17000096941F004014FF0E022116107E04FF02E
:10D18000E021096921F004014FF0E02211617047AC
:10D1900010B505480078012805D1FBF751FBFCF7D5
:10D1A00071FCFBF763FB10BD2501002010B513488F
:10D1B000006840F0010011490860084640681049C5
:10D1C00008400E494860084600680E4908400B496F
:10D1D00008600846006820F480200860084640681F
:10D1E00020F4FE0048604FF41F008860FFF748FFFE
:10D1F0004FF000600449086010BD000000100240BC
:10D200000000FFF8FFFFF6FE08ED00E010B5FBF7A9
:10D2100017FB40F225511E4800F09AF810B31C4845
:10D2200000F052F9C4B21B48008800F40040C8B9AD
:10D230001848008800F4804060B10A2C03D0002018
:10D240001449088020E01348008840F40040114948
:10D25000088019E00D2C06D10E48008840F480406B
:10D260000C49088010E00B480088C0F30D000A4903
:10D270000C5408480088401C06490880084600886D
:10D28000C72801DD00200880FBF7F0FA10BD000080
:10D290000038014030000020CC21002021B18289DB
:10D2A00042F40052828104E082894DF6FF731A40F5
:10D2B0008281704710B504462048844209D101217B
:10D2C0008803FFF769FA00214FF48040FFF764FA02
:10D2D00032E01B48844209D101214804FFF73CFA9F
:10D2E00000214FF40030FFF737FA25E0154884425B
:10D2F00009D101218804FFF72FFA00214FF4802083
:10D30000FFF72AFA18E01048844209D10121C80425
:10D31000FFF722FA00214FF40020FFF71DFA0BE07F
:10D320000A48844208D101210805FFF715FA0021B7
:10D330004FF48010FFF710FA10BD000000380140D4
:10D340000044004000480040004C004000500040B5
:10D3500070B50246002400230025002040F66A161E
:10D36000B14200D100BFC1F3421501F01F030126F5
:10D3700006FA03F3012D02D19689334006E0022D0F
:10D3800002D1168A334001E0968A33400C120126FE
:10D3900006FA04F41688344013B10CB1012000E001
:10D3A000002070BDF0B503460024002600250020B3
:10D3B00040F66A17B94200D100BF1846C1F34214C3
:10D3C00001F01F06012707FA06F5012C01D10C30E8
:10D3D00004E0022C01D1103000E014301AB10768CB
:10D3E0002F43076002E00768AF430760F0BD00000D
:10D3F0002DE9F04786B005460E460024A24600BF40
:10D40000A1460027B08900B100BF2F462C8A4CF6F8
:10D41000FF700440F08804432C82AC894EF6F31070
:10D420000440B08831890843718908430443AC81C2
:10D43000AC8A4FF6FF400440B0890443AC8201A897
:10D44000FFF7C0F91F48874202D1DDF810A001E0C4
:10D45000DDF80CA0A88900F4004040B10AEBCA0036
:10D4600000EB0A1031684900B0FBF1F807E00AEB65
:10D47000CA0000EB0A1031688900B0FBF1F86420A3
:10D48000B8FBF0F004012009642101FB1089A88990
:10D4900000F4004040B1322000EBC900B0FBF1F0D5
:10D4A00000F00700044308E0322000EB091064217B
:10D4B000B0FBF1F000F00F0004432C8106B0BDE892
:10D4C000F08700000038014001468888C0F308005A
:10D4D0007047000090B00025FD4E00200F9002F034
:10D4E0000FF800BFF6E3FB49FB480068F9F760F866
:10D4F00000283BD0F94801F01DF804460027002C15
:10D5000033D0F7A1204600F0F5FF0769F7A13846B0
:10D51000F9F74EF830B3F9A1204600F0EBFF0069AF
:10D52000F7490860F7A1204600F0E4FF4069F4499C
:10D530004860F6A1204600F0DDFF4069F0498860B0
:10D54000F4A1204600F0D6FF4069ED49C8600120F3
:10D55000F34908704FF49661E048F9F73EF900206E
:10D56000DD490860204600F089FF00BFEC480078E4
:10D5700000287CD00020EA490870002546E0E048F9
:10D580006B1CE8A10268F248F8F7A8FEF04AF149DE
:10D59000012002F01BF805E0052300221146104689
:10D5A00001F0A2FAEC49CC480068F9F701F800282C
:10D5B000F2D0D3488068401EA84203DD4FF40070CB
:10D5C0000F9011E0CE4AD16801EBD1725210CC4BD2
:10D5D000D86800EBD0735B10A0EB43030BB10123C1
:10D5E00000E000231A440F920F9882B2BB493046E4
:10D5F000FFF7B8FC06F580664FF49661B748F9F777
:10D60000ECF80020B4490860681CC5B2BC488068CA
:10D61000A842B4DC6421CE48F9F7BDF8B848CFA1E0
:10D620000268CB48F8F75AFEC94ACA49012001F0FE
:10D63000CDFF6421C648F9F7AEF80120D54908604E
:10D640004FF4967300221146104601F04DFA002067
:10D65000D149C1F8AC010E900D9055200E90A8480C
:10D66000808880B20D9001220EA9CC4800E00AE02B
:10D67000FFF778FC01220DA9C848801CFFF772FC57
:10D6800004F0EEFC00BFC6A193480068F8F790FFD5
:10D69000002847D0914800F04DFF0446002C40D0B0
:10D6A000C2A1204600F026FF808AC2498880C2A11C
:10D6B000204600F01FFF007DBE498871C0A12046B2
:10D6C00000F018FF007DBB49C871BFA1204600F0E3
:10D6D00011FF007DB7490870BDA1204600F00AFF88
:10D6E000007DB4494870BCA1204600F003FF007DD6
:10D6F000B0498870084680784978AE4FCDE900106F
:10D700003B78FA79B979B888FFF7A4FA204600F097
:10D71000B5FE4FF496617148F9F75FF800206E4945
:10D72000086000BFAEA16C480068F8F741FFC8B1BF
:10D730006A4800F0FFFE04469CB1A9A1204600F013
:10D74000D9FE47693846FFF717FB204600F096FEE2
:10D750004FF496616148F9F740F800205E4908608F
:10D7600000BF00BFA0495C480068F8F721FF00280F
:10D770007DD05A4800F0DEFE0746002F78D09BA1EE
:10D78000384600F0B7FE44699BA1384600F0B2FE6F
:10D790009BA1D0F810804046F8F70AFF30B1012174
:10D7A000601EC0EBC000994A11543AE092A138467D
:10D7B00000F0A0FE96A1D0F810804046F8F7F8FEE1
:10D7C00060B10221601EC0EBC000904A11540121DB
:10D7D000601EC0EBC0001044817122E086A1384673
:10D7E00000F088FE8CA1D0F810804046F8F7E0FEEB
:10D7F00030B10321601EC0EBC000844A115410E018
:10D800007DA1384600F076FE86A1D0F81080404613
:10D81000F8F7CEFE28B10421601EC0EBC0007B4AA1
:10D82000115482A1384600F065FE83A1D0F8108023
:10D830004046F8F7BDFE58BB7CA1384600F05AFEC2
:10D84000D0F81080404602F02FFA642190FBF1F0EE
:10D8500041B2601EC0EBC0006C4A1044417073A11D
:10D86000384600F047FED0F81080404601E03FE126
:10D870003DE102F019FA642190FBF1F201FB120084
:10D8800041B2601EC0EBC000604A104481700BE0E2
:10D89000FF21601EC0EBC0005C4A10444170601E56
:10D8A000C0EBC0001044817065A1384600F022FE34
:10D8B00061A1D0F810804046F8F77AFE38B960A12F
:10D8C000384600F017FED0F810804046BEE0E0E099
:10D8D00000900108861E0020040000207818002017
:10D8E0006D65737361676554797065007570646107
:10D8F00074614669726D7761726500006964000049
:10D90000C82A002073697A65000000007061636BAB
:10D910006167650072656D61696E64657200000023
:10D92000000000207B226964223A25732C226D6559
:10D93000737361676554797065223A226765742252
:10D940002C20227061636B616765223A25647D003B
:10D95000422100207A200020EA1E00207B226964F8
:10D96000223A25732C226D65737361676554797053
:10D9700065223A22666565646261636B222C20220F
:10D9800072657375616C74223A2273756363657393
:10D9900073227D00AC8121420080214200000308F7
:10D9A00054696D6553657276696365005965617286
:10D9B00000000000C22100204D6F75746800000057
:10D9C0006461746500000000686F757200000000FB
:10D9D0006D696E75746500007365636F6E64000039
:10D9E000616C61726D0000004E1F00206D6F6475E8
:10D9F0006C65696400000000726570656174000008
:10DA0000657665727944617900000000D82A0020AB
:10DA10006F6E654461790000776F726B696E674461
:10DA20006179000075736572536574006F70656E7F
:10DA300054696D65000000006E756C6C000000009C
:10DA4000636C6F736554696D6500000002F02CF91A
:10DA5000642190FBF1F041B2601EC0EBC000A64A09
:10DA60001044C170AFF22801384600F043FDD0F8F1
:10DA70001080404602F018F9642190FBF1F201FB9E
:10DA8000120041B2601EC0EBC0009B4A10440171FD
:10DA90000BE0FF21601EC0EBC000974A1044C1702C
:10DAA000601EC0EBC0001044017194A1384600F024
:10DAB00021FD58B191A1384600F01CFD007D41B216
:10DAC000601EC0EBC0008C4A10444171384600F023
:10DAD000D5FC4FF496618B48F8F77FFE00208A4909
:10DAE0000860182284498948FFF73CFA00BF00BF4C
:10DAF000874985480068F8F75BFD00287BD081489E
:10DB000000F018FD0446002700200E90002C74D071
:10DB100080A1204600F0EEFC0746002F5BD0AFF25C
:10DB20002421204600F0E6FC00690D9000213846D3
:10DB300000F0D0FC0E9000200C900B90AFF254112E
:10DB40000E9800F0D7FC007D0C9074A10E9800F0A8
:10DB5000D1FC007D0B900C99491EC8B20B99F9F7C6
:10DB600085F832210120F9F75FF80720F9F76CFDFD
:10DB700080460620F9F768FD81460520F9F764FD27
:10DB800082460420F9F760FD83460320F9F75CFD27
:10DB90000A900220F9F758FD09900120F9F754FD89
:10DBA00008900020F9F750FDCDE903BACDE90598BA
:10DBB0000790DDE908120A98CDE900120290594950
:10DBC0005948079B0D9AF8F789FB574A5749012096
:10DBD00001F0FCFC00BF204600F050FC4FF49661C1
:10DBE0004848F8F7FAFDC8214F48F8F7D4FD00205F
:10DBF0004549086008E008E0FFE700F075FC804652
:10DC000041464BA0F8F75EFB00BF4F493E48006815
:10DC1000F8F7CEFC002866D03A4800F08BFC0446AA
:10DC20000027002C57D049A1204600F063FC07468E
:10DC300049A13869F8F7BCFCE0B3AFF240312046A7
:10DC400000F058FC00690E900720F9F7FDFC8046B3
:10DC50000620F9F7F9FC81460520F9F7F5FC824624
:10DC60000420F9F7F1FC83460320F9F7EDFC0D9051
:10DC70000220F9F7E9FC0C900120F9F7E5FC0B9084
:10DC80000020F9F7E1FCCDE903BACDE905980A9047
:10DC9000DDE90B120D98CDE90012029021492248CE
:10DCA0000A9B0E9AF8F71AFB1F4A2049012001F03F
:10DCB0008DFC00BF204600F0E1FB4FF49661114857
:10DCC000F8F78BFDC8211848F8F765FD00200E49CC
:10DCD000086007E00DE000F007FC8046414614A014
:10DCE000F8F7F0FA00BF052300221146104600F0B5
:10DCF000FBFEFFF7F8BB0000D82A00207765656BB4
:10DD0000000000007818002004000020000803082C
:10DD1000B21F0020646174610000000076616C75C0
:10DD20006500000038390108BE1D00205A1D002082
:10DD30004572726F72206265666F72653A205B256C
:10DD4000735D0A0D00000000162000206D6F6475E1
:10DD50006C655479706500007377697463680000BE
:10DD600000BFFEE700B585B0002004901D4B0FCB2F
:10DD70008DE80F001C491D4803F048F91C491D4857
:10DD800003F058F91C491D4803F068F96946012061
:10DD900000F0DEFD401C50B919A0F8F793FA0523F6
:10DDA00000221146104600F09FFEFFF7DBFF0EE059
:10DDB00004A90F2000F0CCFD401C10B917A0F8F703
:10DDC00081FA052300221146104600F08DFE9DF8D1
:10DDD00010000028ECD018A0F8F774FAF8F7BEFF8E
:10DDE00005B000BD3C350108F7CE0008EDCE0008B7
:10DDF000D9CD0008E5CD0008A9CE000879CE0008ED
:10DE000057495A4348495020496E697469616C69A1
:10DE10007A6564206661696C2E0D0A00556E6B6E22
:10DE20006F776E20504859204C696E6B2073746177
:10DE30007574732E0D0A00000D0A5048592069733D
:10DE4000204C696E6B0D0A0070B504461049886855
:10DE500080470F490869804700BF0D48C169C4F376
:10DE6000074088470A48C169C4F307208847E0B2E1
:10DE7000074AD169884706498869804705460449A9
:10DE8000486980470249C8688047284670BD00003D
:10DE9000400000202DE9F04104460E4617460025BB
:10DEA000A84614498868804712490869804700BF1E
:10DEB0001048C169C4F3074088470E48C169C4F3DC
:10DEC00007208847E0B20B4AD169884700BF06E0C7
:10DED0000849886980477055681C85B200BFBD42FB
:10DEE000F6DB0449486980470249C8688047BDE8B5
:10DEF000F08100004000002070B504460D46104936
:10DF0000886880470E490869804744F004040C483B
:10DF1000C169C4F3074088470948C169C4F30720B1
:10DF20008847E0B2064AD16988470548C169284652
:10DF300088470349486980470149C868804770BDE0
:10DF4000400000202DE9F04104460E46174600250A
:10DF5000A84614498868804712490869804744F0F8
:10DF600004041048C169C4F3074088470D48C169DB
:10DF7000C4F307208847E0B20A4AD169884700BF46
:10DF800006E0705D074AD1698847681C85B200BF0A
:10DF9000BD42F6DB0349486980470249C8688047AB
:10DFA000BDE8F0814000002086B000BF05E00523F9
:10DFB00000221146104600F097FD9548807D00280C
:10DFC000F5D0002301221946184600F08DFD0720E8
:10DFD000F9F73AFB04460620F9F736FB054605201B
:10DFE000F9F732FB06460420F9F72EFB074603201B
:10DFF000F9F72AFB80460220F9F726FB814601202B
:10E00000F9F722FB82460020F9F71EFB83465346B0
:10E010005A4680498048CDE90098CDE90276CDE99D
:10E020000454F8F75BF97C4A7C49012001F0CEFAF0
:10E03000C8217948F8F7AFFBE9E04FF43850FFF713
:10E0400003FF00F0010028B14FF44A70FFF7FCFE17
:10E0500017286FD04FF43850FFF7F6FE00F001009C
:10E0600010B96FA0F8F72EF94FF44A70FFF7ECFEE5
:10E07000172802D06FA0F8F725F9012000F04CFB1B
:10E08000FFF770FE08E071A0F8F71CF905230022E5
:10E090001146104600F028FD714A41F288310120F6
:10E0A00000F030FE0028EED06EA0F8F70BF908E083
:10E0B00071A0F8F707F9052300221146104600F079
:10E0C00013FD0123664A73480168184600F0ACFE50
:10E0D0000028EDD070A0F8F7F5F808E075A0F8F783
:10E0E000F1F8052300221146104600F0FDFC022342
:10E0F0005B4A76A1012000F097FE0028EED075A0C3
:10E10000F8F7E0F809E0784978A0F8F7DBF805239C
:10E1100000221146104600F0E7FC0323504A7249E2
:10E12000012000F081FE0028EDD06F4974A0F8F7BF
:10E13000C9F80AE05EE077496CA0F8F7C3F8052358
:10E1400000221146104600F0CFFC0423444A7149D6
:10E15000012000F069FE0028EDD06E4968A0F8F7B4
:10E16000B1F809E06C4961A0F8F7ACF8052300228A
:10E170001146104600F0B8FC0523394A66490120D3
:10E1800000F052FE0028EDD063495DA0F8F79AF840
:10E1900009E0624955A0F8F795F8052300221146D9
:10E1A000104600F0A1FC06232D4A5C49012000F036
:10E1B0003BFE0028EDD0594951A0F8F783F809E05B
:10E1C00057494AA0F8F77EF8052300221146104669
:10E1D00000F08AFC0723224A5149012000F024FE66
:10E1E0000028EDD04E4946A0F8F76CF83221022005
:10E1F000F8F71AFD1A4A4B49012000F083FE4A49FC
:10E200000860052300221146104600F06DFC14E75B
:10E21000A42200208C380108BE1D00205A1D0020B9
:10E220000D0ACDF8CFDFCEB4B2E5C8EBA3A10D0A3D
:10E23000000000000D0AD3EBB7FECEF1C6F7B6CF53
:10E24000BFAAC1ACBDD3A3A10D0A0000D5FDD4DA8D
:10E25000C1ACBDD3B7FECEF1C6F7A3A10D0A000035
:10E2600059F10008C1ACBDD3B7FECEF1C6F7B3C9B2
:10E27000B9A6A3A10D0A0000D5FDD4DAB6A9D4C46D
:10E2800054696D6553657276696365D6F7CCE2A310
:10E29000A10D0A0008000020B6A9D4C454696D6518
:10E2A00053657276696365D6F7CCE2B3C9B9A60D3A
:10E2B0000A000000D5FDD4DAB6A9D4C4616C61723D
:10E2C0006DD6F7CCE2A3A10D0A000000616C61726B
:10E2D0006D000000B6A9D4C4616C61726DD6F7CC34
:10E2E000E2B3C9B9A60D0A00861E0020D5FDD4DA16
:10E2F000B6A9D4C42573D6F7CCE2A3A10D0A0000B9
:10E30000B6A9D4C42573D6F7CCE2B3C9B9A60D0A11
:10E3100000000000EA1E00204E1F0020B21F002057
:10E32000162000207818002004000020490050EA40
:10E33000C12018BF04204A0D18BF40F0010040F270
:10E34000FF72B2EB515F08BF40F00200012808BF26
:10E35000052070472DE9F0414F1E00EBC701044630
:10E36000D1E9000115461E4637F006020DD02A46B7
:10E37000334604F04BFD7F1E04EBC703D3E90023B3
:10E3800004F0AEFA37F00602F1D1022F25D0042FA7
:10E3900013D0062F18BFBDE8F0812A46334604F09B
:10E3A00035FDD4E90A2304F09BFA2A46334604F0EB
:10E3B0002DFDD4E9082304F093FA2A46334604F0ED
:10E3C00025FDD4E9062304F08BFA2A46334604F0EF
:10E3D0001DFDD4E9042304F083FA2A46334604F0F1
:10E3E00015FDD4E9022304F07BFA2A46334604F0F3
:10E3F0000DFDD4E90023BDE8F04104F071BA00003E
:10E40000002213461046014904F026BB0000F03FED
:10E4100004F066BA002213461046114604F01CBBF5
:10E4200040F2013200204FF0E04105F031B8000029
:10E43000024A0020110705F02BB8000001FDFFFF84
:10E4400030380A2801D2012070470020704700BFF1
:10E450007047000010B50246002309E00648006836
:10E460000078107004480068401C034C20605B1C5E
:10E470008B42F3DB084610BDD401002070B5044682
:10E4800022E02568A08900F4807020B9A06810B14E
:10E49000A068FFF7F3FFA08900F4807028B9206915
:10E4A00018B10B49206909688847A08900F40070F9
:10E4B00028B9206A18B10649206A096888472046A9
:10E4C0000349096888472C46002CDAD170BD00004A
:10E4D0003C0000200246906801E0491E006808B137
:10E4E0000029FADC7047000001480068704700000E
:10E4F0003400002070B505460E46AC6800E0246884
:10E500002CB13146206A00F04FF80028F7D12046A0
:10E5100070BD000010B528200549096888470446E9
:10E520001CB128212046F8F758F9204610BD0000FC
:10E530003800002010B5044600221146204600F0A5
:10E5400001F810BD2DE9F04780460D46164600241F
:10E55000FFF7E0FF07460020124908600FB9BDE849
:10E56000F087404603F07CFB81464946384601F07F
:10E57000E3FD044624B93846FFF780FF0020EEE7AC
:10E5800066B1204603F06CFB0446207830B1384673
:10E59000FFF774FF034804600020E0E705B12C603A
:10E5A0003846DCE73400002070B504460D462CB92F
:10E5B000AC4201D0012070BD0020FCE70DB9012064
:10E5C000F9E705E0207808B90020F4E7641C6D1C29
:10E5D0002078F7F76AFE06462878F7F766FE864247
:10E5E000F0D02078F7F761FE06462878F7F75DFE51
:10E5F000301AE0E738B54FF4D850FFF725FC054650
:10E6000003214FF4D850FFF777FC41F288300F4BCD
:10E6100011220FA100901348007803F039FA044644
:10E6200029464FF4D850FFF767FC04F10D0008B9F4
:10E63000012038BD02F0FCFD0B48046800BF0A4809
:10E640000068001B0228FAD30020F2E77D000020BA
:10E65000434845434B5F49505F434F4E464C494307
:10E6600054000000740000209400002010B5012424
:10E67000254890F90000022829DA24480068244936
:10E68000096888423DD2234890F90000012804D04F
:10E69000022805D0042809D105E002F0C9FE06E0F1
:10E6A00003F002F803E002F0FFFF00E000BF00BF4C
:10E6B000002017490860084600680A3013490860BE
:10E6C00011480078401C40B20F49087019E0114809
:10E6D00090F90000012804D0022807D004280CD1AA
:10E6E00005E000200B490870002407E000BF02F09D
:10E6F0009FFE01200749087000E000BF00BF02F044
:10E70000C7FC204610BD00008E00002098000020AD
:10E71000940000208D00002010B5044600BF082C96
:10E7200002DD4FF0FF3010BD00BFA100491C4FF4C7
:10E73000807202EBC1001021FFF7DEFB00BFA100D9
:10E74000491C4FF4807202EBC100FFF77DFB0028EB
:10E75000F5D1A100491C4FF4007202EBC1001F214A
:10E76000FFF7CAFB0120A0400B49098881430A48F2
:10E7700001800020094921F814000949085500BF0B
:10E78000A100491C4FF4407202EBC100FFF75CFB93
:10E790000028F5D10120C6E76A000020942200205D
:10E7A0006C00002070B504460D46164600BF082CCC
:10E7B00002DD4FF0FF3070BD00BF00BFA100491C5B
:10E7C000002202EBC100FFF73FFB00F00F00012821
:10E7D00002D06FF00400EEE700BF00BFA100491CAB
:10E7E0004FF4407202EBC100FFF72EFB132802D05A
:10E7F0006FF00200DFE700BF2978687861F31F201F
:10E800000146A87861F31F200146287861F31F2094
:10E810000146481C00B111B96FF00B00CBE716B9E7
:10E820006FF00A00C7E7A100491C4FF4406202EBF9
:10E83000C10004222946FFF785FB3112A200521CB9
:10E840004FF4805303EBC200FFF756FBF1B2A20076
:10E85000521C4FF4805303EBC20202F58070FFF7A5
:10E860004BFBA100491C4FF4807202EBC100042154
:10E87000FFF742FB00BFA100491C4FF4807202EB7E
:10E88000C100FFF7E1FA0028F5D10120A0401549A9
:10E890000988084008B100208DE716E0A100491C56
:10E8A0004FF4007202EBC100FFF7CEFA00F008004F
:10E8B00058B1A100491C4FF4007202EBC1000821BD
:10E8C000FFF71AFB6FF00C0075E7A100491C4FF42D
:10E8D000407202EBC100FFF7B7FA1728DED1012022
:10E8E00069E700006800002010B50346002000BF63
:10E8F00002E01C5C0C54401C541E8442F9DA10BD2A
:10E9000070B505460C46062D1CD2DFE805F003075E
:10E910000B0F1317204603F01FFE16E0204603F0EE
:10E920007DFD12E0207803F043FE70BD03F0A4FDEE
:10E9300020700AE0204603F04EFE06E0204603F079
:10E94000A0FD02E04FF0FF30EFE700BF0020ECE752
:10E950002DE9FC4106460C46002500200090019060
:10E96000102E79D2DFE806F0080B1A161E22263286
:10E970003F5154585C5D616C03F043FE6FE01CB185
:10E980000094009808300190DDE9000103F08DFD4E
:10E99000BDE8FC81208803F003FD60E003F014FD76
:10E9A00020805CE0208803F0C8FD58E003F021FDE2
:10E9B000208054E0208801124FF49850FFF79CFA11
:10E9C00021784FF4A050FFF797FA48E04FF4A05099
:10E9D000FFF73AFA07464FF49850FFF735FA07EB7E
:10E9E000002020803BE01F48807820701D48C078C0
:10E9F00060701C480079A0701A484079E07019488E
:10EA0000807920710020607129E003F08AFE26E001
:10EA1000204603F0A0FE22E0204603F02BFE1EE07D
:10EA20001DE0207803F0C3FEB2E703F06CFEC5B230
:10EA300068B2401C10B94FF0FF30A9E725700EE016
:10EA400003F054FEC5B268B2401C18B94FF0FF3055
:10EA50009EE701E0257002E04FF0FF3098E700BF2D
:10EA6000002095E74000002010B5042208494FF42B
:10EA70007060FFF767FA042206494FF4A060FFF7C1
:10EA800061FA042204499001FFF75CFA10BD00000E
:10EA90007D000020850000208100002010B580212D
:10EAA0000020FFF729FA0020FFF7CEF906220349DC
:10EAB0004FF41060FFF746FA10BD0000AC000020D4
:10EAC00010B580210020FFF717FA0020FFF7BCF9EE
:10EAD000FFF7CAFF062203494FF41060FFF732FA2E
:10EAE00010BD0000AC000020FEB504460D461646E1
:10EAF0001F4602A81021B2B2CDE90010A9B2A0B2FF
:10EB00003B46FAF7C7FEFEBD10B56FF00400FEF7F6
:10EB10002BFB144800681449B0FBF1F0134908704E
:10EB2000104800681049B0FBF1F411480068C910A2
:10EB3000B1FBF0F044430E4800684FF47A71B1FB2A
:10EB4000F0F00C4908804FF0E020006940F002002E
:10EB50004FF0E021086108464461006940F001007F
:10EB6000086110BD1000002000127A00260000206D
:10EB7000AC3501082800002070B504460F48007825
:10EB8000A0B10F48007888B90E480088844206DB9F
:10EB90000C48008894FBF0F5284600F01FF809485F
:10EBA000008894FBF0F100FB114084B24FF47A71BD
:10EBB00004FB01F000F01AF870BD000025010020F0
:10EBC000240100202800002008B56846F9F714FF4A
:10EBD00008BD08B56846F9F77BFF08BD38B504469F
:10EBE0006A4608212046FAF7C9FD38BD2DE9F047ED
:10EBF000074600264FF0E020D0F814901148007826
:10EC000007FB00F800BFFFF7DFFF4FF0E02085694A
:10EC100011E04FF0E0208469AC420CD0AC4202D24B
:10EC2000281B064403E0A9EB0400284406442546BB
:10EC3000464500D300E0ECE700BFFFF7CAFFBDE8A0
:10EC4000F08700002600002010B5044600BF082C05
:10EC500002DD4FF0FF3010BD00BF00BFA100491C16
:10EC6000002202EBC100FFF7EFF800F00F000128CF
:10EC700002D06FF00400EEE700BFA100491C4FF482
:10EC8000807202EBC1000821FFF736F900BFA10036
:10EC9000491C4FF4807202EBC100FFF7D5F8002841
:10ECA000F5D10120A040154909888143134801800E
:10ECB0000120A04012490988084008B10020CAE795
:10ECC00010E0A100491C4FF4007202EBC100FFF7F5
:10ECD000BBF800F0080028B12046FFF71DFD6FF0DB
:10ECE0000C00B8E7A100491C4FF4407202EBC100D0
:10ECF000FFF7AAF80028E4D10120ACE76A00002061
:10ED0000680000202DE9F043CBB006460F46904640
:10ED10005822284935A8F7F70CFDC82103A8F7F7B2
:10ED20005CFDC8253946304603F0CCF922A0389066
:10ED30003C20ADF8EC0001208DF8EE001FA04590BE
:10ED400020A0489035AA294603A8F8F773FF044687
:10ED5000224603A9304603F0F7F98146A14502D0C7
:10ED60001BA0F7F7AFFA294603A8F7F736FD42468E
:10ED7000294603A8F8F72AFF022814D12B4603AA34
:10ED800001A902A8F8F7E0FD012802D19DF80400CE
:10ED900028B19DF804101BA0F7F794FA04E00120B5
:10EDA0004BB0BDE8F08300BF304603F077F9002098
:10EDB000F6E700005C370108474B000061646D69AD
:10EDC0006E00000070617373776F72640000000062
:10EDD0007075626C69736820636F6E6E6563742012
:10EDE0007472616E73706F72745F73656E6450617C
:10EDF000636B6574427566666572206572726F72C8
:10EE00000A0D0000556E61626C6520746F20636F9F
:10EE10006E6E6563742C2072657475726E20636FFC
:10EE200064652025640A00002DE9F047BCB08046E7
:10EE30000C4691461D464FF0000AC8210AA8F7F774
:10EE4000CCFCC82600200790089009900690002767
:10EE5000079406A807A90122ABB2CDE900210290D0
:10EE6000002231460AA8F9F746F807463A460AA9A9
:10EE7000404603F069F98246BA4502D010A0F7F780
:10EE800021FA4A4631460AA8F8F7A0FE092814D10B
:10EE90000AA803AB04AA0121CDE9000605A8F8F7EA
:10EEA000E2FD8246039820B110A00399F7F70AFA11
:10EEB00004E001203CB0BDE8F08700BF0020F9E786
:10EEC000636F6E6E656374207472616E73706F72BF
:10EED000745F73656E645061636B657442756666DA
:10EEE0006572206572726F720A0D00006772616E42
:10EEF00074656420716F7320213D20302C202564BF
:10EF00000A0000002DE9F0438FB004460E46174674
:10EF10004FF00008C14600200E900D900C900B9011
:10EF20000A9009904FF4966529461C48F7F733FC80
:10EF3000A100491C4FF4407202EBC100FEF784FFB0
:10EF4000172829D13A4629461448F8F73FFE0328E6
:10EF500022D112480AA909AACDE90305CDE9012168
:10EF600006A80BAB0CAA0DA900900EA8F8F727FD78
:10EF70008146099800900AA0DDE907230A99F7F76E
:10EF8000A1F93146DDE90902FFF7AEFCDDF820808A
:10EF900040460FB0BDE8F0830020FAE72072002061
:10EFA0006D657373616765206C656E677468206951
:10EFB00073203A256420746F706963206973203A66
:10EFC000252E2A73206D6573736167652069732030
:10EFD0003A25730D0A00000000BF054A128802F0AE
:10EFE0004002002AF9D0C2B2014B1B1D1A807047A3
:10EFF0000038014001480068704700009000002080
:10F0000006490978017005494978417003498978B2
:10F0100081700249C978C1707047000089000020E2
:10F020000649097801700549497841700349897892
:10F0300081700249C978C1707047000081000020CA
:10F040000649097801700549497841700349897872
:10F0500081700249C978C170704700007D000020AE
:10F060000649097801700549497841700349897852
:10F0700081700249C978C170704700008500002086
:10F0800070B504460025002600BFA100491C4FF4BE
:10F09000185202EBC100FEF7D7FE0646A100491C3C
:10F0A0004FF4185202EBC10101F58070FEF7CCFE5F
:10F0B00000EB062086B2AEB1A100491C4FF41852F5
:10F0C00002EBC100FEF7C0FE0546A100491C4FF44B
:10F0D000185202EBC10101F58070FEF7B5FE00EB9E
:10F0E000052085B2B542D0D1284670BD70B5044622
:10F0F0000025002600BFA100491C4FF4005202EB7E
:10F10000C100FEF7A1FE0646A100491C4FF40052C3
:10F1100002EBC10101F58070FEF796FE00EB0620C0
:10F1200086B2AEB1A100491C4FF4005202EBC100FF
:10F13000FEF78AFE0546A100491C4FF4005202EB7F
:10F14000C10101F58070FEF77FFE00EB052085B25E
:10F15000B542D0D1284670BD70B504460D46AAB25E
:10F160002146012001F064FD70BD00001FB500BF05
:10F170002BE0164916A0F7F7A5F81848807817492C
:10F180004978164A1278154B1B7ACDE90032CDE941
:10F1900002101248C3798279818811A0F7F792F89A
:10F1A0000020164908604FF4FA73002211461046F9
:10F1B000FFF79AFC01201249C1F88C014FF4FA7351
:10F1C000002211461046FFF78FFCD2E7281D0020D1
:10F1D0004350555F49443A25730D0A00B821002079
:10F1E0000D0A25642D25642D25642D25642D2564A7
:10F1F0002D25642D25640D0A000000008C0121429C
:10F20000000021428AB04FF4C040F8F75DFA0024B4
:10F21000FFF77AFC4FF4A060F9F790F9F8F71EFBBE
:10F220004FF4165002F09AFFFDF7E2FD06E04FF4AE
:10F23000FA73002211461046FFF756FCFDF794FCC6
:10F240000028F4D109A8F9F719FA00BF00BF00BFE0
:10F25000F7F714F8044600BF00BF2B480078401CA5
:10F260002949087000BF00BF2046F7F70BF800BF20
:10F2700000BF00BF09A8032100220592CDE90621A5
:10F28000089010464FF400713322204BCDE9013233
:10F29000CDE90310032000231D4A1EA10090204841
:10F2A000F9F7B2FD00BF00BF00BFF6F7E7FF044665
:10F2B00000BF00BF14480078401E1349087008467C
:10F2C0000078A0B917480088002809DD00BF00BFFA
:10F2D0002046F6F7D7FF00BF00BFFBF7DBFC0DE0D1
:10F2E00000BF00BF2046F6F7CDFF00BF06E000BF1D
:10F2F00000BF2046F6F7C6FF00BF00BF00BF09A849
:10F30000F9F730FC00BFFEE76C0100209C020020F2
:10F31000311E01087374617274207461736B000094
:10F32000D8010020300100207CB5062269464FF448
:10F330001060FEF7AFFD01205C49096808705B4969
:10F3400009684870062059490968887000205749A3
:10F350000968C87055480068051D55480068000ECA
:10F36000287053480068000C687051480088000AF3
:10F37000A8704F480078E87000204C49096808815F
:10F380004A48006800F10A05802028700020687053
:10F39000464909680873002144480068417343489E
:10F3A0000068817341480068C17300203F490968C3
:10F3B000087400213D48006841743C48006881742D
:10F3C0003A480068C174002038490968087500216E
:10F3D00036480068417535480068817533480068D3
:10F3E000C175002031490968087600212F4800685E
:10F3F00041762E48006881762C480068C1762D48F9
:10F4000000782A49096808772A484178274800681F
:10F410004177284881782548006881772548C17858
:10F4200022480068C177234801792048006880F8A5
:10F430002010204841791D48006880F821100624DA
:10F4400006E00021194800681C300155601CC4B258
:10F45000102CF6DB002406E00021144800682C3054
:10F460000155601CC4B2402CF6DB002406E00021EC
:10F470000E4800686C300155601CC4B2802CF6DB6D
:10F4800063200A49096881F8EC0082210748006876
:10F4900080F8ED1053210548006880F8EE106321D4
:10F4A0000248006880F8EF107CBD0000A00000203A
:10F4B0009C000020AC00002070B505460F48007C81
:10F4C00020B90E4908688047012070BDB5F5005F7E
:10F4D00011D269090948C06830F81120002406E0FB
:10F4E0000020064BDB680E1923F81600641C9442BA
:10F4F000F6DB0020E9E70220E7E70000D00000206B
:10F5000000B509494FF40072C868002100F010F9F5
:10F5100005494FF400528868002100F009F90120E4
:10F520000149087400BD0000D00000202DE9F04121
:10F5300006460024A0461A48007C10B918490868FD
:10F5400080471EB94FF0FF30BDE8F081C6F34F157C
:10F5500006F01F0008B1681C85B2FF241AE01048AD
:10F56000C06830F8140020B908F101001FFA80F8D3
:10F5700001E04FF00008A8450BD1002705E008483E
:10F58000C068E11920F811507F1CAF42F7D3600129
:10F59000DAE7641E002CE2DA4FF0FF30D4E7000017
:10F5A000D00000200022002106E00748C06830F8A3
:10F5B000110000B1521C491CFF29F6D964205043A8
:10F5C000C0F3072070470000D00000202DE9F0476D
:10F5D0008AB007460D4614460026B0460020079024
:10F5E000089009902046F6F7F5FF81464FF4C87A57
:10F5F00051461148F7F7CFF80795CDE9054907A817
:10F6000007C802AB07C300200090034602465146DC
:10F6100001900948F8F706FC064632460649384686
:10F6200002F092FD8046B04502D004A0F6F74AFEF3
:10F630000AB0BDE8F087000090700020636F6E6E26
:10F64000656374207472616E73706F72745F73653A
:10F650006E645061636B65744275666665722065A1
:10F6600072726F720A0D000010B50F48FFF7E8FCC8
:10F670000D480830FFF7D4FC0B48001DFFF7F0FCE5
:10F6800009480C30FFF7BCFC02200749891F887528
:10F690000020FFF735F9FFF7ADFC0446214603A033
:10F6A000F6F710FE10BD0000AA2200204448435087
:10F6B000204C45415345442054494D45203A20258E
:10F6C00064205365632E0D0A0000000010B503A0EE
:10F6D000F6F7F8FDFEF746FB10BD0000434F4E461F
:10F6E0004C4943542049502066726F6D2044484372
:10F6F000500D0A0070B5044604B970BD0348806817
:10F70000251A2846FFF7D8FE00BFF6E7D0000020F4
:10F7100070B505462846FFF709FF0446601C08B986
:10F72000002070BD014880682044FAE7D000002026
:10F7300030B5034601E003F8011B141EA2F10102DB
:10F74000F9D130BD2DE9FF414FF000086F48007836
:10F75000FFF796FC071E0BDD01A802AB3A460090AE
:10F760006B4801686948007801F0FCFA87B203E051
:10F77000002004B0BDE8F081BDF80400432872D138
:10F7800063480068007F63490978884224D1604853
:10F790000068407F5F49497888421DD15C48006815
:10F7A000807F5C498978884216D159480068C07FBB
:10F7B0005849C97888420FD15548006890F8200010
:10F7C00054490979884207D15148006890F82100CE
:10F7D00050494979884201D00020CAE74C48046862
:10F7E000F034A7F1F000051989E0207833284ED0D5
:10F7F00007DC70B1012813D0032821D0062878D166
:10F8000032E0352807D0362861D0FF2871D12C4648
:10F8100074E0641C72E0641C641C14F8018B6DE0DD
:10F82000641C641C14F8010B3B49087014F8010BAC
:10F83000487014F8010B887014F8010BC8705DE073
:10F84000641C14F8016B14F8010B3449087014F8A7
:10F85000010B487014F8010B887014F8010BC87084
:10F86000301F04444AE04DE0641C14F8016B14F8A6
:10F87000010B2B49087014F8010B487014F8010BA8
:10F88000887014F8010BC870301F044436E0641C03
:10F8900014F8016B14F8010B2249086014F8011BDD
:10F8A0002048006801EB00201E49086014F8011B85
:10F8B0001C48006801EB00201A49086014F8011B7D
:10F8C0001848006801EB00201649086016E0641C27
:10F8D00014F8016B14F8010B1349087014F8010BAC
:10F8E000487014F8010B887014F8010BC87005E01B
:10F8F000FFE7641C14F8016B344400BF00BFAC4246
:10F90000FFF473AF4FFA88F033E700007400002073
:10F91000A0000020AC000020850000208100002015
:10F920008900002090000020750000202DE9F0479C
:10F9300005460C4620785B2804D026480460002049
:10F94000BDE8F0870520E860601C02F089F90446F4
:10F9500020785D2801D1601CF2E7FEF7DBFD06464A
:10F96000A860A86808B90020EAE7204602F078F904
:10F9700080464146304600F0DFFB074602F070F952
:10F9800004460CB90020DBE717E0FEF7C3FD071EB5
:10F9900000D1D5E737607E603E46601C02F060F91A
:10F9A00081464946304600F0C7FB804602F058F9D0
:10F9B00004460CB90020C3E700BF20782C28E4D00F
:10F9C00020785D2801D1601CBAE70248046000205D
:10F9D000B6E70000340000200146002208783028F5
:10F9E00006DB0878392803DC08783038024415E053
:10F9F0000878412806DB0878462803DC0878373881
:10FA000002440BE00878612806DB0878662803DCEE
:10FA100008785738024401E0002070471201491C61
:10FA20000878302806DB0878392803DC0878303875
:10FA3000024415E00878412806DB0878462803DCF4
:10FA40000878373802440BE00878612806DB08782C
:10FA5000662803DC08785738024401E00020DCE720
:10FA60001201491C0878302806DB0878392803DCA5
:10FA700008783038024415E00878412806DB087819
:10FA8000462803DC0878373802440BE00878612800
:10FA900006DB0878662803DC08785738024401E062
:10FAA0000020BAE71201491C0878302806DB0878E4
:10FAB000392803DC08783038024415E008784128FA
:10FAC00006DB0878462803DC0878373802440BE068
:10FAD0000878612806DB0878662803DC0878573840
:10FAE000024401E0002098E7104696E72DE9F04F28
:10FAF0008BB083468A460020044605460026674FA1
:10FB00000021884689460990012008909AF8000053
:10FB10002D2802D1624F0AF1010A9AF8000030281C
:10FB200001D10AF1010A9AF80000312822DB9AF883
:10FB3000000039281EDC00BF1AF8011BA1F13000BB
:10FB400003F011F90022574BCDE906012046294662
:10FB500003F05CF9CDE90401DDE9062302F0C0FE03
:10FB600004460D469AF80000302803DB9AF800009E
:10FB70003928E1DD9AF800002E2830D19AF80100EA
:10FB800030282CDB9AF80100392828DC0AF1010A18
:10FB900000BF1AF8011BA1F1300003F0E4F80022C5
:10FBA000404BCDE906012046294603F02FF9CDE967
:10FBB0000401DDE9062302F093FE04460D4600220F
:10FBC000364B4046494603F047FB804689469AF843
:10FBD0000000302803DB9AF800003928D9DD9AF8B4
:10FBE0000000652803D09AF80000452823D10AF1C7
:10FBF000010A9AF800002B2802D10AF1010A08E054
:10FC00009AF800002D2804D14FF0FF3008900AF137
:10FC1000010A08E01AF8010B3038099901EB81015B
:10FC200000EB410009909AF80000302803DB9AF8B5
:10FC300000003928EEDDDDE9082101FB02F003F0C8
:10FC400092F842464B46CDE9000102F049FE0246D9
:10FC50000B46CDE902010020124900F0CBFA224602
:10FC60002B46CDE906013046394603F0CFF8CDE901
:10FC70000401DDE9062303F0C9F804460D46CBE98B
:10FC800006452046294603F03FF8CBF81400032030
:10FC9000CBF80C0050460BB0BDE8F08F0000F03FF1
:10FCA0000000F0BF000024402DE9F04F89B08246EB
:10FCB00000210C460D460026644F884689468B4637
:10FCC000012008909AF800002D2802D1604F0AF117
:10FCD000010A9AF80000302801D10AF1010A9AF8C5
:10FCE0000000302828DB9AF800003A2824DC00BF06
:10FCF0009AF800003A2801D10AF1010A1AF8011B0A
:10FD0000A1F1300003F02FF80022524BCDE906019B
:10FD10002046294603F07AF8CDE90401DDE90623FF
:10FD200002F0DEFD04460D469AF80000302803DBA1
:10FD30009AF800003A28DBDD9AF800002E2830D12E
:10FD40009AF8010030282CDB9AF80100392828DCC9
:10FD50000AF1010A00BF1AF8011BA1F1300003F0FB
:10FD600002F800223B4BCDE906012046294603F06C
:10FD70004DF8CDE90401DDE9062302F0B1FD0446AA
:10FD80000D460022314B4046494603F065FA804655
:10FD900089469AF80000302803DB9AF800003928D9
:10FDA000D9DD9AF80000652803D09AF800004528AC
:10FDB00021D10AF1010A9AF800002B2802D10AF198
:10FDC000010A08E09AF800002D2804D14FF0FF3016
:10FDD00008900AF1010A06E01AF8010B30380BEB23
:10FDE0008B0100EB410B9AF80000302803DB9AF8F6
:10FDF00000003928F0DD08990BFB01F002F0B3FF99
:10FE000042464B46CDE9000102F06AFD02460B4630
:10FE1000CDE9020100200F4900F0ECF922462B4603
:10FE2000CDE906013046394602F0F0FFCDE9040184
:10FE3000DDE9062302F0EAFF04460D462046294686
:10FE400002F062FF09B0BDE8F08F00000000F03F53
:10FE50000000F0BF000024402DE9F04706460C46A4
:10FE600020787B2804D0404804600020BDE8F0875B
:10FE70000620F060601C01F0F3FE044620787D2827
:10FE800001D1601CF2E7FEF745FB0546B060B068A3
:10FE900008B90020EAE7204601F0E2FE804641462C
:10FEA000284600F063F8074601F0DAFE04460CB974
:10FEB0000020DBE7286928620020286120783A28A2
:10FEC00003D0294804600020D0E7601C01F0C8FE80
:10FED00080464146284600F02FF9074601F0C0FE53
:10FEE00004460CB90020C1E731E0FEF713FB071E02
:10FEF00000D1BBE72F607D603D46601C01F0B0FE85
:10FF000081464946284600F031F8804601F0A8FEB7
:10FF100004460CB90020A9E728692862002028615E
:10FF200020783A2803D01048046000209EE7601C27
:10FF300001F096FE81464946284600F0FDF88046CD
:10FF400001F08EFE04460CB900208FE700BF207838
:10FF50002C28CAD020787D2801D1601C86E7024871
:10FF60000460002082E70000340000202DE9F05FEB
:10FF70008346884608F10104002798F800002228EB
:10FF800005D06A48C0F800800020BDE8F09F04E07A
:10FF900014F8011B5C2900D1641C2078222804D0AD
:10FFA000207810B1781C071EF2D1781C60490968CE
:10FFB00088478146B9F1000F01D10020E5E708F13B
:10FFC00001044D469EE020785C2804D014F8010B13
:10FFD00005F8010B96E0641C2078722818D006DC26
:10FFE000622809D066280BD06E287DD10CE07428D9
:10FFF00012D07528F9D113E0082005F8010B7FE035
:020000040801F1
:100000000C2005F8010B7BE00A2005F8010B77E0D6
:100010000D2005F8010B73E0092005F8010B6FE0D6
:10002000601CFFF7D9FC0646241DB6F55C4F02D3D1
:10003000B6F5604F00D306B962E0B6F5584F1CD351
:10004000B6F55C4F19D260785C2802D1A07875288B
:1000500000D055E0E01CFFF7BFFC8246A41DBAF5B6
:100060005C4F02D3BAF5604F00D349E0C6F30901F3
:10007000504661F39F2000F580360427802E01D280
:10008000012708E0B6F5006F01D2022703E0B6F5BC
:10009000803F00D203273D44012F20D0022F15D0EE
:1000A000032F0AD0042F24D106F0BF0040F08001B6
:1000B000681E05460170B60900BF06F0BF0040F09B
:1000C0008001681E05460170B60900BF06F0BF003A
:1000D00040F08001681E05460170B60900BF154852
:1000E000C05D3043C1B200E006E0681E0546017005
:1000F00000BF00BF3D4403E0207805F8010B00BFBE
:1001000000BF641C2078222803D0207800287FF4C8
:100110005AAF002028702078222800D1641CCBF828
:1001200010900420CBF80C0020462EE7340000206D
:10013000380000203435010870B505460C460CB96E
:10014000002070BD042224A12046F6F762FA18B9F7
:100150000220E860201DF4E7052221A12046F6F7E1
:1001600058FA18B90020E860601DEAE704221EA1D1
:100170002046F6F74EFA20B90120E8606861201D9C
:10018000DFE72078222804D121462846FFF7EEFE3B
:10019000D7E720782D2805D02078302807DB207875
:1001A000392804DC21462846FFF7A0FCC9E720785F
:1001B0005B2804D121462846FFF7B8FBC1E7207829
:1001C0007B2804D121462846FFF746FEB9E70848B8
:1001D00004600020B5E700006E756C6C0000000044
:1001E00066616C7365000000747275650000000044
:1001F000340000202DE9F04D1D460C4698B01746FE
:1002000021F0004123F00043002814BF4FF0010CFF
:100210004FF0000C0CEB440CFE4A0CEB02064FEACC
:10022000620C66452BD33E0018BF012606EB45063F
:100230001644F94A964222D3F84A53EA070C02D0F0
:10024000944205D148B918B000201146BDE8F08DA0
:10025000002808BF4FF0000C01D04FF0010C0CEB50
:10026000440212F5001F0AD8002F14BF4FF0010CF2
:100270004FF0000C0CEB450212F5001F07D918B027
:100280003A462B462146BDE8F04DFEF7C1B80022A4
:10029000DFF88CA3002CB8BF534526DADFF884C3FF
:1002A0006345A8BF022220DADFF870C39C451CDC3E
:1002B000DFF874C30CEB235CBCF1140F08DDCCF148
:1002C000340627FA06FC0CFA06F6BE420DD108E009
:1002D0005FB9CCF1140623FA06FC0CFA06F69E422E
:1002E00003D10CF00102C2F1020251EA000C19D153
:1002F000002D17DA002C18BF022A01D0012A07D0DE
:100300000220F6F7A2FA18B0BDE8F04DFEF778B873
:100310000220F6F79AFAFEF773F818B081F0004160
:10032000BDE8F08DB7F1000C6CD1534525D104F137
:10033000804212F5801201BF00280020B74918B092
:1003400008BFBDE8F08DB548884207DC002DA1BF8D
:100350006046294618B0BDE8F08D07E0281E05DA92
:1003600080F0004118B06046BDE8F08DAF49794497
:10037000D1E9000118B0BDE8F08DDFF8A0C26345F7
:1003800025D1002D1FDA19B1514512D1D8B909E094
:10039000002840F0EC82A24A214618B062F31E0108
:1003A000BDE8F08D0020214618B060F31E01BDE8C5
:1003B000F08D08DA18B02346BDE8F04D0246002063
:1003C000614602F049BB18B02146BDE8F08D5145A9
:1003D00018DAB5F1804F0DD0A5F1005CBCF1FF5CDF
:1003E00010D1B4F1000C0DDB18B06146BDE8F04D42
:1003F00001F0F8BC234618B00246BDE8F04D19469E
:1004000002F004BD060024F0004C3BD1D9B15145A7
:1004100033D1002C06DD002DA1BF0020514618B0BD
:10042000BDE8F08D002C01DD002D1BDB002C13DA64
:10043000002D11DB012A4FF0000014BF78497C49E0
:1004400018B0BDE8F08D022A18BF002C0AD0012A8E
:1004500008D1002C06DA0AE0002CB8BF002D11DA12
:10046000012A04D0002018B00146BDE8F08D18B074
:1004700000204FF00041BDE8F08DA1F14050B0F1F7
:100480007F601AD0012000EBE47050EA020421D012
:10049000624C521E4FF0000B104304BF4FF0000B94
:1004A000644C654883427CDD644A654893421FDDA5
:1004B000884217DB002D25DB37E0002C00DA4AB13B
:1004C000022A0CBF01204FF0FF3018B0BDE8F04DFC
:1004D00002F049BC0120F6F7B8F918B0BDE8F04DBC
:1004E000FDF798BF4D4A8A4202DC002D0ADC1CE071
:1004F000814202DA002D18DA04E0484B994220DDEF
:10050000002D12DD0220F6F7A0F9FDF789FF054660
:100510000E46002253465846214602F077FC18B09A
:1005200066F31E012846BDE8F08D0220F6F78DF92E
:10053000FDF77EFF0A46214618B062F31E01BDE8B2
:10054000F08D00223046614602F086FE80460E465F
:100550006FF0010202F09CFF4FF05532394B02F070
:1005600089FD4246334602F051FC0022364B02F030
:1005700081FD82464246334604911046194602F0F8
:1005800045FC5246049B02F041FC8A4600904FF025
:10059000C0422E4B4046314602F038FC2C4A2B4BD1
:1005A00000E027E0CDE906015146009802F02EFC5C
:1005B00082460191274A284B4046314602F026FCEC
:1005C0005246019B02F048FE82460B4602460591C8
:1005D000DDE9060102F084F9DDE9062300268846FC
:1005E000304602F039FE5246059B02F043FD0246BA
:1005F00000F07EB90020B1F5801F07DA35223046C1
:10060000614602F045FF06466FF0340000EB2150D2
:1006100024E00000FFFF1F00FFFF0F000000F03F7D
:100620000000F07F0000404301FCFFFF06350000A2
:100630000000F0FF0000F0BF0000E0410000F043C8
:10064000FFFFEF3F5555D53F0000E03F4715F73F0F
:10065000FE822B6544DF5DF80BAE543EA0F2FF3006
:100660000190C1F3130040F07F6141F040510291CD
:10067000FE498842D8BF002004DDFD498142C8BF41
:10068000012001DD0D9008E000200D900198401C34
:1006900001900298A0F5801002900299F5487844E4
:1006A0000B910D9900EBC100D0E900230F93304668
:1006B0000A920B9902F0D0FDCDE90601DDE90A218D
:1006C00030460F9B02F00CF902460B460020EA4927
:1006D00002F0C2F9059102460B460090DDE90601E1
:1006E00002F094FB1490E5488A464FF000087844E5
:1006F0000299006812904FF0005040EA61010D9895
:100700000F9B01EB804000F5002109910A9A129895
:1007100002F0A2FD32460B9B02F0ACFC424653466F
:1007200002F074FB0646029140465146099B129A1C
:1007300002F06CFBDDE9062302F09CFC3246029BD2
:1007400002F08AFD059B009A02F060FB0091149A6A
:10075000049053461046194602F058FB06460246DE
:10076000C7480B46029106217844FDF7F3FDCDE919
:100770000510029B32461046194602F047FBDDE9A0
:10078000053202F043FB05910646534640461946A2
:10079000149A02F0A5F8009B049A02F037FB324647
:1007A000059B02F09DF8CDE90510424653461046E0
:1007B000194602F02BFB0022B24B02910A9002F084
:1007C0008FF8DDE9053202F08BF80E464246AD4B5C
:1007D000404602F041FD029B0A9A02F03DFDDDE930
:1007E000053202F047FC424602910A903346104619
:1007F000514602F00BFBCDE906015346149A0299CB
:100800000A9802F003FB8A4602903346424600995A
:10081000049802F0FBFA5346029A02F061F882460D
:100820000B4602460591DDE9060102F059F8DDE9C3
:10083000062300208846064602F00EFD5246059B20
:1008400002F018FC824609914FF060428E4B304610
:10085000414602F0DBFA049006918C4A8A4B5046DE
:10086000099902F0D3FA82460291894A894B3046AF
:10087000414602F0CBFA5246029B02F031F8864B19
:100880007B440D9A03EBC203D3E9002302F028F85E
:100890000E900791019802F066FA0591DDE90613C2
:1008A00082460E9A049802F01BF87C4A7A440D9B0B
:1008B00002EBC303D3E900230093029202F010F885
:1008C0005246059B02F00CF80026884652463046F8
:1008D000059B02F0C1FC009B029A02F0BDFC069B46
:1008E000049A02F0B9FC079B0E9A02F0C3FB024681
:1008F00000200B4602903846294602F087FA8246CD
:1009000001912B4638461946029A02F0A5FC324660
:10091000434602F07BFA5246019B01F0E1FF074695
:100920008A46324643462946029802F06FFA054647
:100930000E463A46534601F0D3FF594A8846914243
:1009400021DBA8EB020353EA000210D12A4633460A
:1009500002F082FCCDE90401524A534B384651461D
:1009600001F0BEFFDDE9042302F04EFB21D202209C
:10097000F5F76BFFFDF754FD0A46214618B062F308
:100980001E01BDE8F08D494B28F000429A4210D379
:10099000474A08EB020353EA00027FF4C6AD2A4639
:1009A000334602F059FC3A46534602F02DFB7FF6DF
:1009B000BCAD0022019228F000403E493E4A01EBC6
:1009C0002051824223DA481C4FF4801121FA00F0B2
:1009D00040443A4AC0F30A517A44394BA1F2FF31FC
:1009E000CB4020EA0303C0F3130040F48010C1F1B0
:1009F0001401C84012680190B8F1000FBCBF40421A
:100A000001902846314602F027FC05460E462A464C
:100A100033463846514601F063FF4FF00008424626
:100A2000284B4046059102F0F1F9CDE90601264A2E
:100A3000264B4046059902F0E9F9009102902A46BA
:100A400033464046059902F007FC3A46534602F009
:100A500011FB1F4A1F4B02F0D9F9009B029A01F0CB
:100A60003FFF0746884602460B4635E08E98030056
:100A70007AB60B004E3100000000F03F86310000D6
:100A8000B43000000000084009C7EE3FFD033ADC27
:100A9000F5015B14E02F3EBE8C2F0000502F0000AC
:100AA00000009040FE822B654715973C00CC90409B
:100AB00000346F3F01FCFFFF0000E03F9C2E000070
:100AC000FFFF0F00432EE63F396CA80C615C20BE8F
:100AD000EF39FAFE422EE63FDDE9060101F000FFA4
:100AE000DDE9062305460E4602F0B6FB3A464346CC
:100AF00002F0C0FA0F462A463346009010461946C7
:100B000002F084F9824602462E4888460B460521AB
:100B10007844FDF71FFC5246434602F077F92A4617
:100B2000334602F0A7FA80468A463B4628463146BD
:100B3000009A02F06BF93B46009A01F0D1FE069153
:100B4000009000224FF080434046514602F084FB63
:100B50000F460C90424653462846314602F056F95D
:100B60003B460C9A01F078FF069B009A02F074FB5A
:100B70002A46334602F070FB0022134B02F07AFA49
:100B8000054601980E4601EB00510815002810DCBF
:100B900028463146019A02F07BFCFDF7C7FB04288A
:100BA00008BFFDF745FC28463146019A02F070FC6B
:100BB00005460B4618B02A4658462146BDE8F04D7A
:100BC00002F024B93C2D00000000F03F01460A6805
:100BD00010780A68521C0A60704730B501460A68EE
:100BE000537814784FF4807505FB04300B689B1C18
:100BF0000B6030BDF0B505460C4616460027206850
:100C0000301A01280FDD2046FFF7E7FF68602068F3
:100C100069680844B04206D82168A96020686968FC
:100C2000084420600127002028603846F0BD0000FD
:100C30002DE9F0470446894616460027B8460025A8
:100C400000BF082C02DD681EBDE8F08700BF00BFB2
:100C5000A100491C002202EBC100FDF7F5F800F0ED
:100C60000F00012802D06FF00400EDE700BF00BFC5
:100C700016B96FF00D00E7E700BFA100491C4FF463
:100C8000F05202EBC100FDF7DFF84FF6FF7101EA09
:100C90008025B54200DA2E4641E02046FEF7F0F905
:100CA0000546A100491C4FF4407202EBC100FDF75C
:100CB000CBF880467F1C4FF6E850874201D10027D1
:100CC0002EE0B8F1170F1FD0B8F11C0F16D105B1E7
:100CD00026E02046FEF70AFA8246A100491C4FF49E
:100CE000F85202EBC100FDF7AFF8BAEB802F0BD141
:100CF0002046FDF711FD6FF00600A5E72046FDF741
:100D00000BFD6FF006009FE70120A0401449098801
:100D1000084010B10DB9002096E705B100E0BCE72E
:100D200000BFB54200DA2E4632464946204601F061
:100D30007BFAA100491C4FF4807202EBC1004021F4
:100D4000FDF7DAF800BFA100491C4FF4807202EBF6
:100D5000C100FDF779F80028F5D1304674E70000AE
:100D6000680000202DE9FC4704468A4616461F46C7
:100D7000DDF82880002500BF082C02DD681EBDE8D4
:100D8000FC8700BFA100491C002202EBC100FDF757
:100D90005BF8814600F00F00022802D0042802D13F
:100DA00000E000BF02E06FF00400E8E700BF00BF12
:100DB00016B96FF00D00E2E700BF814830F814006B
:100DC000E8B91AE02046FEF75BF90546A100491C88
:100DD0004FF4407202EBC100FDF736F810B96FF026
:100DE0000300CCE70120A04076490988084010B1F3
:100DF0000DB90020C3E705B100E0E3E700BF002024
:100E00007149085509F00700022802D004287DD155
:100E100057E06B4830F81400E8BB082269462046CA
:100E200001F002FAA100491C4FF4807202EBC100EC
:100E30004021FDF761F800BFA100491C4FF480720A
:100E400002EBC100FDF700F80028F5D19DF8000085
:100E500038709DF8010078709DF80200B8709DF818
:100E60000300F8709DF80400A8F800009DF8050044
:100E700098F8001000EB0120A8F800009DF806008B
:100E80004F4921F814009DF8070011F8141000EBE9
:100E900001204B4900E004E021F8140080204A4979
:100EA0000855474830F81400B04201DD354602E0ED
:100EB000434830F814502A465146204601F0B4F910
:100EC00055E03F4830F81400A8BB0222694620468E
:100ED00001F0AAF9A100491C4FF4807202EBC10095
:100EE0004021FDF709F800BFA100491C4FF48072B2
:100EF00002EBC100FCF7A8FF0028F5D19DF8000027
:100F00002F4921F814009DF8010000E027E011F8B6
:100F1000141000EB01202A4921F81400084630F88B
:100F2000140040F2EA51884206DD2046FDF7F4FB4A
:100F30006FF47A7023E702E08020234908552048A7
:100F400030F81400B04201DD354602E01C4830F8AC
:100F500014502A465146204601F066F907E029461A
:100F6000204601F0A3F9164820F8145000BF00BF36
:100F7000A100491C4FF4807202EBC1004021FCF734
:100F8000BBFF00BFA100491C4FF4807202EBC100FF
:100F9000FCF75AFF0028F5D1094830F81400401B2F
:100FA000074921F81400084630F8140028B1064813
:100FB000005D40F00100044908552846DFE60000C6
:100FC00094220020680000206C00002010B5094B1E
:100FD000094C2360094B0A4C23600A4B0A4C2360DE
:100FE00008B1054B186009B1054B19600AB1064BF1
:100FF0001A6010BD69EA0008B4000020C1EA0008C8
:10100000B80000209DEA0008BC00002000B131B902
:10101000054A064B9A60064B044AD36002E0034A35
:101020009060D16070470000C1230108400000209B
:10103000C323010800B131B9054A064B1A61064BBA
:10104000044A536102E0034A106151617047000095
:10105000C723010840000020C523010800BF094A3A
:10106000128802F40072002AF9D000B131B9064AA0
:10107000044B9A61054B034AD36102E0014A906137
:10108000D161704740000020FD25010801260108BC
:101090000020044908600A20034908600020034931
:1010A0000870704794000020980000208E000020F7
:1010B0002DE9F0410446884615460026002700BF6A
:1010C000082C02DD701EBDE8F08100BF00BFA1004A
:1010D000491C002202EBC100FCF7B6FE00F00F0035
:1010E000012802D06FF00400EDE700BF00BF15B982
:1010F0006FF00D00E7E700BFA100491C4FF44072FC
:1011000002EBC100FCF7A0FE0646172E04D01C2EF1
:1011100002D06FF00600D6E70120A04042490988BE
:10112000084040B3A100491C4FF4007202EBC1001B
:10113000FCF78AFE00F01F0606F0100080B1A10047
:10114000491C4FF4007202EBC1001021FCF7D4FEE1
:101150000120A040344909888143334801800AE0D6
:1011600006F0080028B12046FDF7D6FA6FF00C0013
:10117000A9E70020A7E7A100491C4FF4F85202EBB1
:10118000C100FCF761FE4FF6FF7101EA8027BD4206
:1011900000DD3D4623E02046FDF7A8FF0746A100FD
:1011A000491C4FF4407202EBC100FCF74DFE0646AD
:1011B000172E07D01C2E05D02046FDF7ADFA6FF094
:1011C000060080E70120A04018490988084018B1AE
:1011D000BD4201DD002076E7BD4200DC00E0DAE739
:1011E00000BF2A464146204601F093F8A100491C61
:1011F0004FF4807202EBC1002021FCF77DFE00BF9E
:10120000A100491C4FF4807202EBC100FCF71CFEE8
:101210000028F5D10120A04003490988084302496C
:10122000088028464FE700006A0000206800002080
:101230007CB50024FEF778F804240020774909687B
:101240008872002175480068C17235222146641CED
:1012500072480068EC30425401222146641C6F48F9
:101260000068EC30425404222146641C6B4800683C
:10127000EC3042543D222146641C68480068EC3042
:10128000425407222146641C64480068EC304254F2
:1012900001222146641C61480068EC3042546048D9
:1012A00002782146641C5D480068EC3042545C487A
:1012B00042782146641C59480068EC304254584832
:1012C00082782146641C55480068EC3042545448EA
:1012D000C2782146641C51480068EC3042545048A2
:1012E00002792146641C4D480068EC3042544C4859
:1012F00042792146641C49480068EC30425432224D
:101300002146641C45480068EC30425404222046C3
:10131000611C8CB241490968EC310A544148027899
:101320002046611C8CB23D490968EC310A543D48A5
:1013300042782046611C8CB238490968EC310A5465
:10134000384882782046611C8CB234490968EC31F7
:101350000A543448C2782046611C8CB22F4909686F
:10136000EC310A5436222046611C8CB22B490968A4
:10137000EC310A5404222046611C8CB227490968CA
:10138000EC310A54284802782046611C8CB223496B
:101390000968EC310A54244842782046611C8CB21A
:1013A0001E490968EC310A541F4882782046611CA6
:1013B0008CB21A490968EC310A541B48C27820469D
:1013C000611C8CB215490968EC310A54FF22204691
:1013D000611C8CB211490968EC310A54254605E0BC
:1013E00000210E480068EC3041556D1CB5F59C7F1E
:1013F000F6DBFF208DF804008DF805008DF806005F
:101400008DF80700432001AB4FF4097200900348A8
:1014100001680648007800F03BFB7CBDA00000207E
:10142000AC0000207D00002075000020740000202A
:101430007CB50024FDF778FF042435222146641C86
:1014400095480068EC30425401222146641C9248C1
:101450000068EC3042542146641C8F480068EC3030
:1014600042543D222146641C8B480068EC304254B3
:1014700007222146641C88480068EC30425401224F
:101480002146641C84480068EC304254834802784A
:101490002146641C80480068EC3042547F48427802
:1014A0002146641C7C480068EC3042547B488278BA
:1014B0002146641C78480068EC3042547748C27872
:1014C0002146641C74480068EC3042547348027929
:1014D0002146641C70480068EC3042546F484279E1
:1014E0002146641C6C480068EC3042540C222146B2
:1014F000641C69480068EC30425400222046611C9C
:101500008CB265490968EC310A5400250AE0644848
:10151000425D2046611C8CB25F490968EC310A5477
:10152000681C85B25E48405D0028F0D15B49C978EF
:101530000811F7F70DF82146621C94B2564A12685A
:10154000EC3250545549C878F7F702F82146621C2E
:1015500094B2514A1268EC3250545049097908113A
:10156000F6F7F6FF2146621C94B24B4A1268EC3241
:1015700050544A490879F6F7EBFF2146621C94B2B1
:10158000454A1268EC325054444949790811F6F73B
:10159000DFFF2146621C94B23F4A1268EC3250547D
:1015A0003E494879F6F7D4FF2146621C94B23A4A84
:1015B0001268EC325054A81DC1B2E81D221A3648F8
:1015C0000068EC30815437222046611C8CB23249CD
:1015D0000968EC310A5406222046611C8CB22E495F
:1015E0000968EC310A5401222046611C8CB22A4958
:1015F0000968EC310A5403222046611C8CB226494A
:101600000968EC310A5406222046611C8CB222493A
:101610000968EC310A540F222046611C8CB21E4925
:101620000968EC310A543A222046611C8CB21A49EE
:101630000968EC310A543B222046611C8CB21649E1
:101640000968EC310A54FF222046611C8CB2124911
:101650000968EC310A54254606E000210E4800686E
:10166000EC304155681C85B2B5F59C7FF5DBFF2059
:101670008DF804008DF805008DF806008DF8070040
:10168000432001AB4FF409720090034801680548FC
:10169000007800F0FDF97CBDA0000020AC00002027
:1016A000A4000020740000207CB50024FDF73CFE5F
:1016B000F0480078032803D0EE48007804282CD1A5
:1016C0000020ED49096888720021EB480068C1726A
:1016D000EA480078E84909680873E8484178E6482C
:1016E00000684173E5488178E34800688173E34806
:1016F000C178E1480068C173E14800788DF80400C2
:10170000DF4840788DF80500DD4880788DF80600C8
:10171000DB48C0788DF8070008E0FF208DF8040052
:101720008DF805008DF806008DF807000424352299
:101730002146641CD0480068EC3042540122214606
:10174000641CCD480068EC30425403222146641CDE
:10175000C9480068EC3042543D222146641CC6480A
:101760000068EC30425407222146641CC2480068DD
:10177000EC30425401222146641CBF480068EC3022
:101780004254C04802782146641CBB480068EC30D3
:101790004254BC4842782146641CB7480068EC308B
:1017A0004254B84882782146641CB3480068EC3043
:1017B0004254B448C2782146641CAF480068EC30FB
:1017C0004254B04802792146641CAB480068EC30B2
:1017D0004254AC4842792146641CA7480068EC306A
:1017E00042549DF80700FF2867D132222146601C31
:1017F00084B2A1480068EC30425404222146601CA7
:1018000084B29D480068EC3042549C4802782046DF
:10181000611C8CB298490968EC310A5497484278A7
:101820002046611C8CB294490968EC310A549348F3
:1018300082782046611C8CB28F490968EC310A54C9
:101840008E48C2782046611C8CB28B490968EC3105
:101850000A5436222146601C84B287480068EC3066
:10186000425404222046611C8CB283490968EC3141
:101870000A54834802782146601C84B27E4800687E
:10188000EC3042547E4842782046611C8CB27A4942
:101890000968EC310A547A4882782046611C8CB27F
:1018A00075490968EC310A547548C2782046611CB4
:1018B0008CB271490968EC310A540C222046611C33
:1018C0008CB26D490968EC310A5400222046611C33
:1018D0008CB269490968EC310A54002509E06A486C
:1018E000425D2046611C8CB263490968EC310A54A0
:1018F0006D1C6548405D0028F1D16249C978081126
:10190000F6F726FE2146621C94B25B4A1268EC325E
:1019100050545C49C878F6F71BFE2146621C94B20D
:10192000554A1268EC325054564909790811F6F7B5
:101930000FFE2146621C94B24F4A1268EC3250549A
:1019400050490879F6F704FE2146621C94B24A4ACF
:101950001268EC3250544B4949790811F6F7F8FDFA
:101960002146621C94B2444A1268EC3250544549F4
:101970004879F6F7EDFD2146621C94B23E4A1268A2
:10198000EC325054A81DC1B2E81D221A3A48006832
:10199000EC30815437222046611C8CB236490968EC
:1019A000EC310A5408222046611C8CB23249096885
:1019B000EC310A5401222046611C8CB22E49096880
:1019C000EC310A5403222046611C8CB22A49096872
:1019D000EC310A5406222046611C8CB22649096863
:1019E000EC310A540F222046611C8CB2224909684E
:1019F000EC310A543A222046611C8CB21E49096817
:101A0000EC310A543B222046611C8CB21A49096809
:101A1000EC310A541F222046611C8CB21649096819
:101A2000EC310A5421222046611C8CB2124909680B
:101A3000EC310A54FF222046611C8CB20E49096821
:101A4000EC310A54254605E000210B480068EC30D3
:101A500041556D1CB5F59C7FF6DB432001AB4FF47F
:101A600009720090044801680848007800F010F8F6
:101A70007CBD00008D000020A00000207D00002023
:101A800075000020AC000020A4000020740000209D
:101A90002DE9F04704468A4616461D46DDF820909B
:101AA0000027B84600BF082C02DD781EBDE8F0878D
:101AB00000BFA100491C002202EBC100FCF7C4F9E1
:101AC00000F00F00022802D0042802D100E000BF7D
:101AD00002E06FF00400E9E700BF00BF16B96FF045
:101AE0000D00E3E700BF2878697860F31F210846FE
:101AF000A97860F31F210846E97860F31F210846A2
:101B0000286810B96FF00B00D0E7B9F1000F02D1CF
:101B10006FF00A00CAE7A100491C4FF4407202EBC3
:101B2000C100FCF791F90746422F04D0222F02D0C2
:101B30006FF00600BAE7A100491C4FF4406202EBC7
:101B4000C10004222946FCF7FDF94FEA2921A20031
:101B5000521C4FF4805303EBC200FCF7CDF909F09F
:101B6000FF01A200521C4FF4805303EBC20202F5A6
:101B70008070FCF7C1F9A100491C4FF4F85202EB48
:101B8000C100FCF761F94FF6FF7101EA8028464574
:101B900000DD46461CE02046FDF7A8FA8046A1007D
:101BA000491C4FF4407202EBC100FCF74DF910B92B
:101BB0006FF003007AE70120A04028490988084017
:101BC00018B1464501DD002070E7464500DC00E025
:101BD000E1E700BF32465146204600F09AFBA100E3
:101BE000491C4FF4807202EBC1002021FCF784F9FC
:101BF00000BFA100491C4FF4807202EBC100FCF74A
:101C000023F90028F5D125E0A100491C4FF400720A
:101C100002EBC100FCF718F900F01F0707F01000F5
:101C200048B1A100491C4FF4007202EBC100102121
:101C3000FCF762F90FE007F0080058B1A100491C59
:101C40004FF4007202EBC1000821FCF755F96FF068
:101C50000C002BE7D8E700BF304627E768000020DC
:101C600000E0401C20B1017811B101782029F8DD95
:101C7000704700002DE9F04104460E4617461D4608
:101C800000BF082C03DD4FF0FF30BDE8F08100BF3E
:101C9000012E04D0022E03D0042E03D101E000BF98
:101CA00000BF02E06FF00400EFE700BF05F00600A0
:101CB00010B16FF00500E8E705B3012E02D0022E47
:101CC0001AD106E005F0210010B96FF00500DCE73D
:101CD00013E005F0200028B105F0800010B96FF086
:101CE0000500D2E705F0100028B105F0800010B91A
:101CF0006FF00500C9E700E000BF00BF2046FCF719
:101D00000BFD05F0F00242EA0601A200521C00237E
:101D100003EBC200FCF7F0F87FB92D480788008874
:101D2000401C2B490880084600884FF6F071884215
:101D300003D14FF44040264908803912A200521CBA
:101D40004FF4806303EBC200FCF7D6F8F9B2A200AF
:101D5000521C4FF4806303EBC20202F58070FCF763
:101D6000CBF8A100491C4FF4807202EBC1000121A5
:101D7000FCF7C2F800BFA100491C4FF4807202EBCF
:101D8000C100FCF761F80028F5D105F00100A04082
:101D90001049098808430F4908800120A0400E49D6
:101DA000098881430C48018000200C4921F8140067
:101DB0000B49085500BFA100491C4FF4407202EBCB
:101DC000C100FCF741F80028F5D060B25DE70000E3
:101DD00066000020680000206A0000209422002095
:101DE0006C0000202DE9F04106460F4601F04EF947
:101DF000041E0D4618BF0120284320F00040C0F10A
:101E00007F6000F1E040C00F0ED0301C18BF0120F1
:101E1000384320F00040C0F17F6000F1E040C00F87
:101E200004BF0120F4F711FD20462946BDE8F081EA
:101E300030B58BB00446002500BFF4F7A3FE0AA816
:101E4000F6F760FF0AAA01210846F6F70FFE00BF69
:101E500000BF00BFF4F712FA054600BF00BF5948A3
:101E60000078401C5749087000BF00BF2846F4F7AF
:101E700009FA00BF00BF00BF0AA803210022059293
:101E8000CDE906210890104680210C224E4BCDE969
:101E90000132CDE90310042000234C4A4CA10090EC
:101EA0004E48F6F7B1FF0AA8032100220592CDE9BA
:101EB00006210890104680210C22494BCDE90132C1
:101EC000CDE9031008200023464A47A100904A4864
:101ED000F6F79AFF0AA8032100220592CDE9062110
:101EE0000890104680210C22444BCDE90132CDE907
:101EF000031005200023424A42A100904648F6F70D
:101F000083FF0AA8032100220592CDE9062108904B
:101F1000104680210C22414BCDE90132CDE903105E
:101F2000062000233E4A3FA100904248F6F76CFF8E
:101F30000AA8032100220592CDE906210890104647
:101F400080210C223C4BCDE90132CDE90310072062
:101F500000233A4A3AA100903E48F6F755FF0AA9F5
:101F60003D48F9F717FF00BF00BF00BFF4F786F93F
:101F7000054600BF00BF13480078401E1149087095
:101F800008460078A0B935480088002809DD00BF60
:101F900000BF2846F4F776F900BF00BFF8F77AFED5
:101FA0000DE000BF00BF2846F4F76CF900BF06E063
:101FB00000BF00BF2846F4F765F900BF00BF00BFAF
:101FC0000BB030BD6C010020600B00206DF10008EB
:101FD0006C656430207461736B0000009C0A002003
:101FE00078160020A9DF00085761697444617461A4
:101FF000207461736B000000B4150020280E0020CF
:10200000D5D4000855704772616465207465737497
:10201000207461736B000000600D0020F010002040
:10202000218000084D5154542074657374207461EC
:10203000736B000028100020B4130020C96C000846
:10204000436F6E74726F6C20746573742074617367
:102050006B000000F0120020D801002030010020A9
:102060004FF6FF7400E000BF201EA4F10104FAD176
:10207000F5F7D4FB00BF0748006800F4E0600649AC
:102080000843001D03490860BFF34F8F00BF00BF26
:10209000FEE700000CED00E00000FA0510B5044674
:1020A0002046FCF7D1FD02E00520FCF765FDA1000C
:1020B000491C4FF4407202EBC100FBF7C5FE00283B
:1020C000F2D110BD70B504460D46AAB220230121FD
:1020D0002046FFF7CFFD0646A64203D0214609A0C1
:1020E000F4F7F0F84FF2AD020D492046FCF75AFB29
:1020F0000646012E03D021460AA0F4F7E3F800209B
:1021000070BD0000736F636B65746E756D25643A06
:10211000536F636B6574204572726F720D0A000015
:10212000D0010020736F636B657425643A736F632D
:102130006B65746E756D20436F6E6E6563742045BC
:1021400072726F720D0A000070B505460E46144695
:10215000A2B231462846FEF7ABFF70BD10B586B07F
:102160000446012144F20400FAF706FB2C48FBF771
:10217000A1F84FF40070ADF8140003208DF816009C
:1021800018208DF8170005A92648F5F77BF94FF4BC
:102190008060ADF8140004208DF8170005A92148CF
:1021A000F5F770F94FF48070ADF8140003208DF846
:1021B000160010208DF8170005A91A48F5F762F9E6
:1021C0004FF480711748F5F73CFA25208DF8000090
:1021D00003208DF801008DF8020001208DF8030026
:1021E0006846F6F773F901940020ADF80800ADF8E1
:1021F0000A00ADF80C00ADF810000C20ADF80E0090
:1022000001A90748FBF7F4F8012240F225510448E0
:10221000FBF7C8F801210248FBF740F806B010BDF3
:1022200000380140000801402DE9F04704460F4600
:1022300016460025A8460EB9BDE8F087A100491C46
:102240004FF4205202EBC10101F58070FBF7FCFD59
:102250008146A100491C4FF4205202EBC100FBF75C
:10226000F3FD09EB002085B22902A000C01C01EBA0
:10227000C008324639464046FBF70CFEA81985B225
:102280002912A200521C4FF4205303EBC200FBF7AB
:1022900033FEE9B2A200521C4FF4205303EBC202FA
:1022A00002F58070FBF728FE00BFC5E72DE9F0417D
:1022B00004460E460025A100491C4FF4205202EBB3
:1022C000C10101F58070FBF7BFFD0746A100491C65
:1022D0004FF4205202EBC100FBF7B6FD07EB0020E4
:1022E00085B2A81985B22912A200521C4FF42053BE
:1022F00003EBC200FBF700FEE9B2A200521C4FF450
:10230000205303EBC20202F58070FBF7F5FDBDE838
:10231000F0812DE9F04704460F4616460025A846F1
:102320000EB9BDE8F087A100491C4FF4105202EB32
:10233000C10101F58070FBF787FD8146A100491CB2
:102340004FF4105202EBC100FBF77EFD09EB0020B9
:1023500085B22902A000801C01EBC0083246394634
:102360004046FBF7EFFDA81985B22912A200521CC6
:102370004FF4105303EBC200FBF7BEFDE9B2A2001D
:10238000521C4FF4105303EBC20202F58070FBF7AE
:10239000B3FD00BFC5E7014608787047017070477C
:1023A00070B50446E5B2261205F0F0014FF4A850CE
:1023B000FBF7A2FD31464FF4B850FBF79DFD70BD11
:1023C000704770477047704770B50026002400259D
:1023D0004FF4A850FBF738FD00F0F0064FF4B8506A
:1023E000FBF732FD0446254606EB052085B228465C
:1023F00070BD70B50026002400254FF4B050FBF7E7
:1024000023FD06464FF4C050FBF71EFD044625464B
:1024100006EB052085B2284670BD000010B50446C5
:10242000062221464FF41060FBF734FD042204F12C
:102430000E019001FBF72EFD042204F10A014FF476
:10244000A060FBF727FD0422A11D4FF47060FBF78D
:1024500021FD07480078A07405484178E17481782F
:102460002175C178617503480078A07510BD000022
:10247000600000206400002010B50020FBF7E4FCA1
:1024800010BD70B504464FF4D850FBF7DDFC20704A
:102490004FF4D050FBF7D8FC05464FF4C850FBF77B
:1024A000D3FC05EB0020608070BD2DE9F0410546AE
:1024B0000E46002700F0A5F8F5B100BF002404E0A7
:1024C000285D384447B2601C44B2082CF8DB102F5A
:1024D00003DD4FF0FF30BDE8F08100240AE0295D04
:1024E000A200521C4FF4F85303EBC200FBF704FDAB
:1024F000601C44B2082CF2DBEEB10027002404E09B
:10250000305D384447B2601C44B2082CF8DB102F11
:1025100002DD4FF0FF30DEE700240AE0315DA2006B
:10252000521C4FF4F05303EBC200FBF7E5FC601CB8
:1025300044B2082CF2DB0020CDE770B50446E5B2CA
:10254000261229464FF4B050FBF7D6FC31464FF423
:10255000C050FBF7D1FC70BD10B5044606222146E1
:102560004FF41060FBF7EEFC042204F10E01900121
:10257000FBF7E8FC042204F10A014FF4A060FBF72A
:10258000E1FC0422A11D4FF47060FBF7DBFCA07C92
:1025900005490870E07C4870207D8870607DC870B7
:1025A000A07D0249087010BD60000020640000207A
:1025B00070B50446002524F03A0008B1681E70BDCD
:1025C0000020FBF741FC0546254329460020FBF788
:1025D00093FC0020F3E710B5044621784FF4D8505F
:1025E000FBF78AFC608801124FF4C850FBF784FCAB
:1025F000A1784FF4D050FBF77FFC10BD002070474E
:10260000704700B585B0062269464FF41060FBF7AD
:1026100041FC042204A99001FBF73CFC042203A91D
:102620004FF4A060FBF736FC042202A94FF470605F
:10263000FBF730FC80210020FBF75EFC0020FBF75D
:1026400003FC062269464FF41060FBF77BFC042272
:1026500004A99001FBF776FC042203A94FF4A060C3
:10266000FBF770FC042202A94FF47060FBF76AFCD0
:1026700005B000BD70B5044600254FF43850FBF797
:10268000E3FB0546C5F38010207005F038002028D4
:1026900002D0382803D100BF0120607002E0002082
:1026A000607000BF00BF05F03800102805D0182862
:1026B00002D0202804D100BF00BF0120A07002E09A
:1026C0000020A07000BF00BF05F03800082805D02A
:1026D000182802D0202804D100BF00BF0120E070DC
:1026E00002E00020E07000BF00BF70BD10B54FF4E5
:1026F0003850FBF7A9FB00F0010008B1012400E00D
:102700000024204610BD10B500244FF43850FBF7CC
:102710009BFB00F0300008B1012400E000242046BB
:1027200010BD10B54FF43850FBF78EFB044624F073
:10273000800421464FF43850FBF7DEFB4FF438504D
:10274000FBF782FB044644F0800421464FF43850E6
:10275000FBF7D2FB10BD70B5054600242878012890
:1027600002D144F0400401E024F0400468780128DC
:1027700002D144F0380412E0E878012808D1A878A2
:10278000012802D144F0180409E044F0080406E0EE
:10279000A878012802D144F0100400E000BF2146CF
:1027A0004FF43850FBF7A8FBFFF7BBFF70BD70B5C7
:1027B000054600244FF43850FBF746FB044604F06E
:1027C000400010B94FF0FF3070BD24F03804012DE7
:1027D00002D144F0300401E044F0380421464FF4C3
:1027E0003850FBF789FBFFF79CFF4FF43850FBF79D
:1027F0002BFB0446012D04D104F0300030B1002041
:10280000E2E704F0380008B10020DDE74FF0FF30C8
:10281000DAE770B504460E463046F3F7DBFE0546B0
:102820002946204600F00FF82A4631462068F3F783
:102830003BFF20682844206070BD02681170026868
:10284000521C0260704710B50A46CB1701EB1363A8
:102850001B0A046823700268521C02600A46CB17E8
:1028600001EB13631B12A1EB0323046823700268BE
:10287000521C026010BD1FB50446029800280DDDF1
:1028800020460299FFF7DFFFDDE902212068F3F718
:102890000BFF20680299084420600AE0019820B1EB
:1028A00020460199FFF7B5FF03E000212046FFF71E
:1028B000CAFF1FBD10B500290AD00878002807D02C
:1028C00005487844F4F7A4F8002801D0002010BD92
:1028D0000248784410BD0000421100003A11000087
:1028E00010B591EA030F48BF83F0004300F1BC84A8
:1028F000841A71EB030C05D2121943EB0C03001B75
:1029000061EB0C01DFF824E14FEA1154A4EB135CF6
:102910001EEA430F18BF9EEA445F73D023EA0E03FA
:10292000DCF1200E21EA045143F4801332D322FA61
:102930000CFE10EB0E0023FA0CFE41EB0E01CCF165
:10294000200E03FA0EFE10EB0E0051F10001B1F55E
:10295000801FCCF1200E32D201EB045112FA0EF29C
:10296000BDE8104058BF7047401C38BF5FEA4202C4
:1029700018BF7047002814BF20F0010041F100018A
:102980004FEA410313F5001F38BF7047A1F1C04162
:1029900000F034BB012A43EB0302ACF1200CDCF164
:1029A0001F0E32BF4FF0000E23FA0CF310EB0300A2
:1029B00041EB0451B4EB115FD0D0A1EB045101F510
:1029C000801149085FEA300001EB04510ED350F149
:1029D000000038BF12FA0EFE08D1BDE81040C9E76A
:1029E000401C38BF5FEA4202CAD1C3E7BDE81040CD
:1029F0004FEA410313F5001F38BF7047A1F1C041F2
:102A000000F0FCBA9EEA445F08D011EA5E0FBDE810
:102A1000104004BF01F0004100207047BDE81040A5
:102A200070B500F09DFA00BF64FBBE3E0000E0FF01
:102A300002494FF0000000F0F9BC00BF0000F87F31
:102A4000491058BFC1F140415B1058BFC3F140432A
:102A50008B42EFF3008070472DE9C04130B4DFF8BE
:102A6000A0C23CEA111418BF3CEA131400F0EC8039
:102A700081EA03051CEA111444EAD57418BF1CEA64
:102A8000131500F0C780A4EB05044FF0004545EA9C
:102A9000C12145EAC32341EA505143EA525304F1AC
:102AA0007F74994204F500344FEAC0204FEAC222F5
:102AB00008BF904200F09C804FEA13650FF2401669
:102AC000765D4FEA134506FB05F7C7F1807706FBF5
:102AD00007F74FEAD737A7FB03687642C8F5803877
:102AE000A7FB06CE38BFA8F1010807FB08E64FF0A8
:102AF000000EA6FB028CE6FB03CEDCF1000CCEF14F
:102B0000004E38BFAEF1010EA6FB0C584FF0000787
:102B10004FF00005E6FB0E87A1FB08C6A0FB07CE21
:102B200016EB0E0645F10005E1FB076515F1E04ED9
:102B30007EBFA4F580345FEA46066D4116F180073A
:102B400045F100054FEA17274FEA066647EA056791
:102B5000A6F1DE46B6F1805F4FEA15251FD938464B
:102B600024F0010C05EBC471BCF1FE6F01EB0C11FC
:102B700002D8F0BCBDE8008124425CBF01F5801E94
:102B80009EEAC47F02D4F0BCBDE80081244238D460
:102B9000F0BCA1F1C041BDE8004100F02FBA4FEAFE
:102BA000D22242EA43524FEAD323A7FB02864FEADE
:102BB000D02040EA415007FB03661EEA0E0F4FEAA1
:102BC000D12105FB026658BFA6EB0056B6EB0056B6
:102BD0004FEA520E4EEAC37E18EB0E0E56EB530E22
:102BE000BDD518EB02085E417F1C55F10005B6E724
:102BF0004FF480154FF000074FF000064FF000082B
:102C0000ADE7F0BC4FF0000001F1C04101F0004120
:102C1000BDE8008111EA0C1F0CEA131500D00CE08E
:102C200013EA0C1F00F025804FF00000F0BC81EA91
:102C3000030101F00041BDE80081F0BCBDE80041A6
:102C400081EA030100F0DAB9F0BCBDE8004170B5DB
:102C500000F086F9097EFC3E00F007B881EA030126
:102C60004FF0000001F00041704781EA030100F0DD
:102C7000C5B9F0BCBDE800414FF0000021497047E4
:102C8000FFFDFBF9F7F5F4F2F0EEEDEBE9E8E6E431
:102C9000E3E1E0DEDDDBDAD8D7D5D4D3D1D0CFCDB8
:102CA000CCCBCAC8C7C6C5C4C2C1C0BFBEBDBCBBF1
:102CB000BAB9B8B7B6B5B4B3B2B1B0AFAEADACABEC
:102CC000AAA9A8A8A7A6A5A4A3A3A2A1A09F9F9EC6
:102CD0009D9C9C9B9A999998979796959594939378
:102CE000929191908F8F8E8E8D8C8C8B8B8A89890F
:102CF0008888878786858584848383828281818092
:102D00000000FF070000F87F4FEA41034FEA5353EA
:102D1000A3F58063D3F11E03C8BFD3F1210C0CDDF2
:102D20004FF0004242EAC12242EA505232FA03FC1A
:102D30008CEAE17CACEBE1707047102BC4BF002043
:102D4000704703F5787CBCF1FF3F04D06FF0004280
:102D500082EA2100704770B500F002F949922480A0
:102D600000207047F2E710F0004248BF4042B0FA3E
:102D700080F310FA03F10AD0C3F11D0303F5806359
:102D80004FEA415002EB035202EBD12170474FF062
:102D90000000704751EA030C17D41CF5801F58BF80
:102DA000BCF5801F00F10680994218BF704708BF2C
:102DB0009042704707D711F5801F58BF13F5801F49
:102DC00019D499427047894270471CF5801F08D575
:102DD000BCF5801FF7D58B4218BF704708BF8242F1
:102DE00070474FF4001C1CEB410F38BF1CEB430F26
:102DF00001D28B42704770B500F0B2F892244900BE
:102E00004FF000514FF08053FFF71ABEDFF848C172
:102E100070B51CEA111E1EBF1CEA13159EEA0C0FAA
:102E200095EA0C0F00F06F8081EA030423EA4C134B
:102E30004EEAD47E21EA4C1141F4801143F4801310
:102E4000AE44A1FB024CA0FB0365AEF17F7E3619B8
:102E500055EB0C05A1FB034C4CF10003A0FB021C3D
:102E600016EB0C06654153F10003094218BF46F00A
:102E7000010613F4007F0BD14FEA03314FEA05300E
:102E8000340341EA155140EA16506FF003020AE09C
:102E90004FEAC3214FEAC520F40241EA555140EA06
:102EA00056506FF0020202EB2E4201EB025585EA0A
:102EB000CE710AD05FEA440C18BF24F0004450F1F0
:102EC000000041F1000120EAD47040F2FE7C62452E
:102ED00000D270BDA84214BF4FF080444FF0404470
:102EE000002E08BF0024BEF1806FA8BFA1F1C04131
:102EF000BDE8704080F282804FF0000001F1C041D7
:102F000001F0004170479EEA0C0F0CEA131518BF40
:102F100095EA0C0F06D04FF0000081EA030E0EF088
:102F2000004170BD00F01CF88900013E00F007B8B8
:102F300000F009B84FEA430C5FEA5C5C08D081EA14
:102F4000030100F05BB84FEA410C5FEA5C5CF6D12C
:102F50004FF00000014970470000FF070000F87FB4
:102F60000EF1020E2EF0030E5EF8046B364205D40D
:102F7000012A43EB030515F5001F12D8012841EB88
:102F8000010C1CF5001F0CD80ED14FEAD17C15F5B1
:102F9000001F0CEB4C0C0CF1020C08BF4CEBD37C6B
:102FA00004E04FF0080C01E04FEAD37C0CEB4C0539
:102FB00026FA05F606F00706B6F1040C06D20EEB6B
:102FC000860CBDE870404CF0010C6047DFE80CF067
:102FD000090B02024FF000414FF00000A1F5002163
:102FE00070BD19461046012851EB010418BFD4F5F5
:102FF000001484BF002001F0004170BD0808A0F556
:1030000000114FEA3101704753EA010C17D41CF547
:10301000801F58BFBCF5801F00F106808B4218BF8F
:10302000704708BF8242704707D713F5801F58BF0B
:1030300011F5801F19D48B4270479B4270471CF5D5
:10304000801F08D5BCF5801FF7D5994218BF70477F
:1030500008BF904270474FF4001C1CEB430F38BF71
:103060001CEB410F01D2994270470FB40CBC03BC5A
:10307000FFF7C1BE91EA030F10B581F000413FF5A3
:1030800037AC83F0004300F0EFB800002DE9F041C9
:1030900001F5801CBCF5001FC0F2C3804FEA115C33
:1030A00021EA0C510CF1FD0C41F480115FEA5C0C3B
:1030B0000CF5C07C01D3400049413DA4890241EA9E
:1030C000905187028E0E0A0CA45D04FB04F602FBED
:1030D00006F6C6F14046A4FB0662F60D46EA422615
:1030E00006FB06F4A4FB01235242C3F1404338BF60
:1030F0005B1EA6FB02420024E6FB0324D20B42EA3D
:103100004446A6FB0623A1FB02E2A3FB07E4A418A6
:103110004FF0000252F10002E3FB01426442C2F1AF
:10312000404E38BFAEF1010EA6FB04234FF0000263
:10313000E6FB0E32A2FB03464FF00004B61954F131
:103140000004E2FB0264A1FB06E6A4FB07E816EB21
:1031500008064FF0000858F10008E4FB01687642C9
:10316000C8F1405838BFA8F10108A2FB06E4A3FB50
:1031700008E52D194FF0000454F10004E2FB085457
:10318000A1FB05E6A7FB04E818EB06084FF00006D4
:1031900056F10006E1FB048618F1200556F1000601
:1031A000A809A8F11B08B10908F03F08B8F10A0FF7
:1031B00040EA86601CD901EB0C51BDE8F08100BFEC
:1031C000FCF5EEE8E2DDD8D3CFCBC7C3C0BDB9B6BE
:1031D000B4B1AEACA9A7A5A3A19F9D9B9A989695C3
:1031E0009392908F8D8C8B8988878685848382814A
:1031F000A0FB006800FB01F208EB4208B8EB87284F
:1032000007D5341858EB0104D5D5401C51F1000105
:10321000D1E7341A78EB0104CDD4401E71F10001DE
:10322000C9E75FEA4C0C5FEA9C5C0DD105D34FF017
:10323000000001F00041BDE8F081BDE8F04170B54B
:10324000FFF78EFE6DDBFFBEBDE8F0414FF00000E2
:10325000004970470000F87F10B591EA030F48BF9E
:1032600083F000433FF544AB841A71EB030C07D2A3
:1032700012198CF0004C43EB0C03001B61EB0C01AA
:10328000DFF8A4E14FEA1154A4EB135C1EEA430FEC
:1032900018BF9EEA445F00F0B08023EA6E035242FA
:1032A00021EA0451C3EB6E0338BF5B1EDCF1200E34
:1032B00025D322FA0CFE10EB0E0043FA0CFE41EB74
:1032C0000E01CCF1200E03FA0EFE10EB0E0051F1B0
:1032D0000001CCF1200E29D412FA0EF201EB0451B8
:1032E000BDE8104058BF7047401C1CBFB2F1004FF2
:1032F000704700280CBF491C20F00100704712EBFA
:10330000020E43EB030218BF4FF0010E4EEA4202D9
:10331000ACF1200CDCF11E0E54D943FA0CFE10EB7C
:103320000E0051F1FF31CCF11E0ED5D50EF1010E7C
:1033300012FA0EFE404141EB010101EB445C5FEAF1
:103340005C5C10D910EBDE7001EB045138BFBEF1AC
:10335000004FBDE8104018BF704700280CBF491C43
:1033600020F00100704730D24FEAD42C11F5001143
:1033700024F400641BD0B1FA81F20B3AA41AA41E03
:10338000D2F12003914030FA03F31943904001EB4E
:10339000CC71002C01EB0451BDE81040A8BF704770
:1033A00001F1C0414FF0000001F000417047B0FA58
:1033B00080F310FA03F100D110BDE41A173C480560
:1033C000C90AE4E701EB045110BD491001EB0451B7
:1033D000BDE810404FEA300002E04FF000017047B6
:1033E0004A0008BF0042F8D0B2F5001F28BF70475E
:1033F00001F000414FF0000070479EEA445F07D0A3
:1034000011EA5E0FBDE8104004BF002100207047A4
:10341000BDE8104070B5FFF7A3FD00BF40DFF63EEA
:1034200083F00041104670470000E0FF0CF00F03EE
:10343000092B08BF082000F059800A2B0BD0082B5D
:1034400018BF704708BF1CF0400F0AD04FF00000B3
:103450004FF0000170471CF0400F18BF4FF00040C4
:1034600070471CF0100F08D020F0704300F07F422E
:1034700042EAD3014FEA4370704700F0604021F008
:103480007F4242EA000201F07F4040EA72707047DA
:103490004FF0FF0C4CF4E06C1CEA11531CBF9CEA8B
:1034A000030C9445C2BFDA4201EB02517047002B76
:1034B0000DD0BCF1000F0FD0002A01F00041A4BFD5
:1034C00041F0E04141F07F614FF00000704701F0B2
:1034D00000414FF00000704750EA01334FF09B0C61
:1034E00018BF4CF0806C7FF4A3AA70471CF4801FB7
:1034F00011D01CF4E02F03D06FEACC3149007047A3
:103500004FF04050EFF3008222F0704242EA000296
:1035100082F3008870474FF00000704700030306F5
:1035200001040602050003051F1C1F1E1F1E1F1F8E
:103530001E1F1E1F0000C0E0F0F8FC000202020285
:1035400002020202020202020202020220550020CE
:103550000C00000080000000000200002057002046
:103560000A00000040010000605800200C0000002C
:103570008000000000020000605A0020800000006F
:10358000000200006400000040060000605C0020B3
:103590003E0000000A000000A06200200C000000B5
:1035A000800000000002000040000000C800000091
:1035B00001000000A06400200C000000800000005A
:1035C000000200001100000088000000020000005E
:1035D00064000000286700200C000000800000004C
:1035E000000200001100000088000000901400009C
:1035F00001000101785634120101000000000000B2
:1036000000000000000000000000000000000000BA
:1036100000000000000000000000000000000000AA
:10362000000000000101010028000400200001004A
:10363000000000000000000000000000000000008A
:10364000000000000000000000000000000000007A
:1036500001002000010010000C001000000000001C
:10366000000000000000000000000000000000005A
:10367000000000000000000000000000000000004A
:103680000000000000000000010101002C0001000A
:1036900020000C0020004000080004000000000092
:1036A000000000000000000000000000000000001A
:1036B000000000000000000000000000000000000A
:1036C00000000000000000000000000001010101F6
:1036D00030000100000000000000000000000000B9
:1036E00000000000000000000000000000000000DA
:1036F00000000000000000000000000001010101C6
:1037000028000C0000030000040101010101010177
:1037100001000101C40008000101000000000000D8
:103720000000000000000000000000000000000099
:103730000000000000000000000000000000000089
:103740000000000000000000000000000000000079
:103750000101340008005C76960700004D51544387
:103760000000000004000000000000000000000055
:10377000000000003C0001004D51545700000000C3
:103780000000000000000000000000000000000039
:103790000000000000000000000000000000000029
:1037A0000000000000000000000000000000000019
:1037B0000000000030313233343536373839414279
:1037C0004344454640305800303132333435363783
:1037D000383961626364656640307800040000082F
:1037E00000000000000000020001000010000000C6
:1037F000000000000000F03F000000000000F83F63
:1038000000000000000000000000004003B8E23F9C
:10381000000000000000000006D0CF43EBFD4C3E4E
:10382000033333333333E33FFFAB6FDBB66DDB3F43
:103830004D268F515555D53F01411DA96074D13F8B
:1038400065DBC9934A86CD3FEF4E454A287ECA3F85
:103850003E5555555555C53F93BDBE166CC166BF07
:103860002CDE25AF6A56113FF16BD2C541BDBBBE00
:10387000D0A4BE726937663E000000000000000060
:1038800054696D6553657276696365007B2269646E
:10389000223A2230222C226D657373616765547958
:1038A0007065223A22666565646261636B222C2230
:1038B0006D6F64756C6554797065223A227377690F
:1038C000746368222C2264617461223A5B7B2276E5
:1038D000616C7565223A25647D2C7B2276616C755E
:1038E00065223A25647D2C7B2276616C7565223ACF
:1038F00025647D2C7B2276616C7565223A25647D7A
:103900002C7B2276616C7565223A25647D2C7B22A6
:1039100076616C7565223A25647D2C7B2276616C1C
:103920007565223A25647D2C7B2276616C75652253
:103930003A25647D5D7D00007B226964223A222560
:1039400073222C226D6573736167655479706522EB
:103950003A22666565646261636B222C226D6F6436
:10396000756C6554797065223A227377697463685F
:10397000222C2264617461223A5B7B2276616C7531
:1039800065223A25647D2C7B2276616C7565223A2E
:1039900025647D2C7B2276616C7565223A25647DD9
:1039A0002C7B2276616C7565223A25647D2C7B2206
:1039B00076616C7565223A25647D2C7B2276616C7C
:1039C0007565223A25647D2C7B2276616C756522B3
:1039D0003A25647D2C7B2276616C7565223A2564DC
:1039E0007D5D7D00143B010800000020D80100002F
:1039F0006C6100088C3B0108D801002058B700001A
:103A0000C86100081001000043000000F8FFFFFF3C
:103A100000404040404040404040414141414140E1
:103A20004040404040404040404040404040404096
:103A30004005020202020202020202020202020225
:103A4000022020202020202020202002020202022A
:103A50000202909090909090101010101010101082
:103A6000101010101010101010101010020202028E
:103A700002028888888888880808080808080808D2
:103A800008080808080808080808080802020202CE
:103A900040000000000000000000000000000000E6
:103AA0000000000000000000000000000000000016
:103AB0000000000000000000000000000000000006
:103AC00000000000000000000000000000000000F6
:103AD00000000000000000000000000000000000E6
:103AE00000000000000000000000000000000000D6
:103AF00000000000000000000000000000000000C6
:103B000000000000000000000000000000000000B5
:103B10000000000081558038010884A24A04000991
:103B20001401020304060708091311F71408F5F637
:103B3000100908010257353530301EC1230108C372
:103B4000041AC7041AC5041A97041A9D047102289E
:103B5000C01AFF0141B20AA757495A6E657413692A
:103B6000EA1B08C1041A9D045A010179B412F51B1D
:103B700008A50413102B1420104BAA20CC69D06C7C
:0C3B80000204069801D1452F6696EB0068
:04000005080061315D
:00000001FF
