Component: ARM Compiler 5.06 update 6 (build 750) Tool: armlink [4d35ed]

==============================================================================

Section Cross References

    main.o(i.Control_task) refers to _printf_percent.o(.ARM.Collect$$_printf_percent$$00000000) for _printf_percent
    main.o(i.Control_task) refers to _printf_d.o(.ARM.Collect$$_printf_percent$$00000009) for _printf_d
    main.o(i.Control_task) refers to _printf_dec.o(.text) for _printf_int_dec
    main.o(i.Control_task) refers to function.o(i.INPUT_active) for INPUT_active
    main.o(i.Control_task) refers to function.o(i.Get_RelayState) for Get_RelayState
    main.o(i.Control_task) refers to __2sprintf.o(.text) for __2sprintf
    main.o(i.Control_task) refers to mqtt.o(i.mqtt_publishMSG) for mqtt_publishMSG
    main.o(i.Control_task) refers to rt_memclr.o(.text) for __aeabi_memclr
    main.o(i.Control_task) refers to function.o(i.Find_active) for Find_active
    main.o(i.Control_task) refers to function.o(i.delay) for delay
    main.o(i.Control_task) refers to main.o(.conststring) for .conststring
    main.o(i.Control_task) refers to main.o(.bss) for meassage
    main.o(i.MQTT_task) refers to _printf_percent.o(.ARM.Collect$$_printf_percent$$00000000) for _printf_percent
    main.o(i.MQTT_task) refers to _printf_x.o(.ARM.Collect$$_printf_percent$$0000000C) for _printf_x
    main.o(i.MQTT_task) refers to _printf_hex_int.o(.text) for _printf_longlong_hex
    main.o(i.MQTT_task) refers to _printf_s.o(.ARM.Collect$$_printf_percent$$00000014) for _printf_s
    main.o(i.MQTT_task) refers to _printf_str.o(.text) for _printf_str
    main.o(i.MQTT_task) refers to _printf_d.o(.ARM.Collect$$_printf_percent$$00000009) for _printf_d
==============================================================================

Removing Unused input sections from the image.

    Removing system_stm32f10x.o(i.SystemCoreClockUpdate), (164 bytes).
    Removing spi.o(i.SPI1_ReadWriteByte), (84 bytes).
    Removing spi.o(i.SPI1_SetSpeed), (36 bytes).
    Removing sys.o(.emb_text), (6 bytes).
    Removing sys.o(i.INTX_ENABLE), (4 bytes).
    Removing sys.o(i.WFI_SET), (4 bytes).
    Removing cjson.o(i.cJSON_AddItemReferenceToArray), (24 bytes).
    Removing cjson.o(i.cJSON_AddItemReferenceToObject), (32 bytes).
    Removing cjson.o(i.cJSON_AddItemToArray), (42 bytes).
    Removing cjson.o(i.cJSON_AddItemToObject), (48 bytes).
    Removing cjson.o(i.cJSON_AddItemToObjectCS), (60 bytes).
    Removing cjson.o(i.cJSON_CreateArray), (18 bytes).
    Removing cjson.o(i.cJSON_CreateBool), (26 bytes).
    Removing cjson.o(i.cJSON_CreateDoubleArray), (68 bytes).
    Removing cjson.o(i.cJSON_CreateFalse), (18 bytes).
    Removing cjson.o(i.cJSON_CreateFloatArray), (68 bytes).
    Removing cjson.o(i.cJSON_CreateIntArray), (68 bytes).
    Removing cjson.o(i.cJSON_CreateNull), (18 bytes).
==============================================================================

Image Symbol Table

    Local Symbols

    Symbol Name                              Value     Ov Type        Size  Object(Section)

    ../clib/angel/boardlib.s                 0x00000000   Number         0  boardshut.o ABSOLUTE
    ../clib/angel/boardlib.s                 0x00000000   Number         0  boardinit1.o ABSOLUTE
    ../clib/angel/boardlib.s                 0x00000000   Number         0  boardinit2.o ABSOLUTE
    ../clib/angel/boardlib.s                 0x00000000   Number         0  boardinit3.o ABSOLUTE
    ../clib/angel/dczerorl2.s                0x00000000   Number         0  __dczerorl2.o ABSOLUTE
    ../clib/angel/handlers.s                 0x00000000   Number         0  __scatter_zi.o ABSOLUTE
    ../clib/angel/kernel.s                   0x00000000   Number         0  __rtentry.o ABSOLUTE
    ../clib/angel/kernel.s                   0x00000000   Number         0  rtexit.o ABSOLUTE
    ../clib/angel/kernel.s                   0x00000000   Number         0  rtexit2.o ABSOLUTE
    ../clib/angel/kernel.s                   0x00000000   Number         0  __rtentry4.o ABSOLUTE
    ../clib/angel/kernel.s                   0x00000000   Number         0  __rtentry2.o ABSOLUTE
    ../clib/angel/rt.s                       0x00000000   Number         0  rt_heap_descriptor_intlibspace.o ABSOLUTE
    ../clib/angel/rt.s                       0x00000000   Number         0  rt_ctype_table.o ABSOLUTE
    ../clib/angel/rt.s                       0x00000000   Number         0  aeabi_ldiv0.o ABSOLUTE
    ../clib/angel/rt.s                       0x00000000   Number         0  aeabi_ldiv0_sigfpe.o ABSOLUTE
    ../clib/angel/rt.s                       0x00000000   Number         0  rt_errno_addr_intlibspace.o ABSOLUTE
    ../clib/angel/rt.s                       0x00000000   Number         0  rt_heap_descriptor.o ABSOLUTE
    ../clib/angel/rt.s                       0x00000000   Number         0  rt_raise.o ABSOLUTE
    ../clib/angel/rt.s                       0x00000000   Number         0  rt_errno_addr.o ABSOLUTE
    ../clib/angel/rt.s                       0x00000000   Number         0  rt_locale_intlibspace.o ABSOLUTE
    ../clib/angel/rt.s                       0x00000000   Number         0  rt_locale.o ABSOLUTE
    ../clib/angel/rt.s                       0x00000000   Number         0  rt_div0.o ABSOLUTE
    ../clib/angel/scatter.s                  0x00000000   Number         0  __scatter.o ABSOLUTE
    ../clib/angel/startup.s                  0x00000000   Number         0  __main.o ABSOLUTE
    ../clib/angel/sys.s                      0x00000000   Number         0  use_no_semi.o ABSOLUTE
    ../clib/angel/sys.s                      0x00000000   Number         0  sys_stackheap_outer.o ABSOLUTE
    ../clib/angel/sys.s                      0x00000000   Number         0  libspace.o ABSOLUTE
    ../clib/angel/sys.s                      0x00000000   Number         0  indicate_semi.o ABSOLUTE
    ../clib/angel/sys.s                      0x00000000   Number         0  mutex_dummy.o ABSOLUTE
    ../clib/angel/sys.s                      0x00000000   Number         0  use_no_semi_2.o ABSOLUTE
    ../clib/angel/sysapp.c                   0x00000000   Number         0  sys_wrch.o ABSOLUTE
    ../clib/angel/sysapp.c                   0x00000000   Number         0  sys_command.o ABSOLUTE
    ../clib/armsys.c                         0x00000000   Number         0  _get_argv_nomalloc.o ABSOLUTE
    ../clib/armsys.c                         0x00000000   Number         0  no_argv.o ABSOLUTE
    ../clib/armsys.c                         0x00000000   Number         0  argv_veneer.o ABSOLUTE
    ../clib/armsys.c                         0x00000000   Number         0  _get_argv.o ABSOLUTE
    ../clib/armsys.c                         0x00000000   Number         0  argv_veneer.o ABSOLUTE
    ../clib/bigflt.c                         0x00000000   Number         0  bigflt0.o ABSOLUTE
    ../clib/btod.s                           0x00000000   Number         0  btod.o ABSOLUTE
    ../clib/ctype.c                          0x00000000   Number         0  tolower.o ABSOLUTE
    ../clib/fenv.c                           0x00000000   Number         0  _rserrno.o ABSOLUTE
    ../clib/heap1.c                          0x00000000   Number         0  h1_extend_mt.o ABSOLUTE
    ../clib/heap1.c                          0x00000000   Number         0  h1_extend.o ABSOLUTE
    ../clib/heap1.c                          0x00000000   Number         0  h1_free.o ABSOLUTE
    ../clib/heap1.c                          0x00000000   Number         0  h1_final_mt.o ABSOLUTE
    ../clib/heap1.c                          0x00000000   Number         0  h1_init_mt.o ABSOLUTE
    ../clib/heap1.c                          0x00000000   Number         0  h1_init.o ABSOLUTE
    ../clib/heap1.c                          0x00000000   Number         0  h1_free_mt.o ABSOLUTE
    ../clib/heap1.c                          0x00000000   Number         0  h1_alloc_mt.o ABSOLUTE
    ../clib/heap1.c                          0x00000000   Number         0  h1_alloc.o ABSOLUTE
    ../clib/heap1.c                          0x00000000   Number         0  h1_final.o ABSOLUTE
    ../clib/heap2.c                          0x00000000   Number         0  heap2.o ABSOLUTE
    ../clib/heap2.c                          0x00000000   Number         0  heap2mt.o ABSOLUTE
    ../clib/heap2.c                          0x00000000   Number         0  fdtree.o ABSOLUTE
    ../clib/heapalloc.c                      0x00000000   Number         0  term_alloc.o ABSOLUTE
    ../clib/heapalloc.c                      0x00000000   Number         0  init_alloc.o ABSOLUTE
    ../clib/heapalloc.c                      0x00000000   Number         0  free.o ABSOLUTE
    ../clib/heapalloc.c                      0x00000000   Number         0  hguard.o ABSOLUTE
    ../clib/heapalloc.c                      0x00000000   Number         0  heapstubs.o ABSOLUTE
    ../clib/heapalloc.c                      0x00000000   Number         0  maybetermalloc1.o ABSOLUTE
    ../clib/heapalloc.c                      0x00000000   Number         0  maybetermalloc2.o ABSOLUTE
    ../clib/heapalloc.c                      0x00000000   Number         0  maybetermalloc2.o ABSOLUTE
    ../clib/heapalloc.c                      0x00000000   Number         0  hrguard.o ABSOLUTE
    ../clib/heapalloc.c                      0x00000000   Number         0  malloc.o ABSOLUTE
    ../clib/heapalloc.c                      0x00000000   Number         0  maybetermalloc1.o ABSOLUTE
    ../clib/heapaux.c                        0x00000000   Number         0  heapauxa.o ABSOLUTE
    ../clib/heapaux.c                        0x00000000   Number         0  heapauxi.o ABSOLUTE
    ../clib/libinit.s                        0x00000000   Number         0  libinit2.o ABSOLUTE
    ../clib/libinit.s                        0x00000000   Number         0  libinit.o ABSOLUTE
    ../clib/libinit.s                        0x00000000   Number         0  libshutdown2.o ABSOLUTE
    ../clib/libinit.s                        0x00000000   Number         0  libshutdown.o ABSOLUTE
    ../clib/locale.s                         0x00000000   Number         0  lc_numeric_c.o ABSOLUTE
    ../clib/locale.s                         0x00000000   Number         0  lc_ctype_c.o ABSOLUTE
    ../clib/longlong.s                       0x00000000   Number         0  lludiv10.o ABSOLUTE
    ../clib/longlong.s                       0x00000000   Number         0  lludivv7m.o ABSOLUTE
    ../clib/memcpset.s                       0x00000000   Number         0  strcmpv7m.o ABSOLUTE
    ../clib/memcpset.s                       0x00000000   Number         0  rt_memcpy_v6.o ABSOLUTE
    ../clib/memcpset.s                       0x00000000   Number         0  rt_memcpy_w.o ABSOLUTE
    ../clib/memcpset.s                       0x00000000   Number         0  rt_memclr.o ABSOLUTE
    ../clib/memcpset.s                       0x00000000   Number         0  rt_memclr_w.o ABSOLUTE
    ../clib/misc.s                           0x00000000   Number         0  printf_stubs.o ABSOLUTE
    ../clib/printf.c                         0x00000000   Number         0  __printf_flags.o ABSOLUTE
    ../clib/printf.c                         0x00000000   Number         0  __printf_ss.o ABSOLUTE
    ../clib/printf.c                         0x00000000   Number         0  __printf_flags_ss.o ABSOLUTE
    ../clib/printf.c                         0x00000000   Number         0  __printf_flags_wp.o ABSOLUTE
    ../clib/printf.c                         0x00000000   Number         0  __printf_ss_wp.o ABSOLUTE
    ../clib/printf.c                         0x00000000   Number         0  __printf_flags_ss_wp.o ABSOLUTE
    ../clib/printf.c                         0x00000000   Number         0  _printf_str.o ABSOLUTE
    ../clib/printf.c                         0x00000000   Number         0  __printf_wp.o ABSOLUTE
    ../clib/printf.c                         0x00000000   Number         0  _printf_intcommon.o ABSOLUTE
    ../clib/printf.c                         0x00000000   Number         0  _printf_fp_dec.o ABSOLUTE
    ../clib/printf.c                         0x00000000   Number         0  _printf_char_common.o ABSOLUTE
    ../clib/printf.c                         0x00000000   Number         0  _sputc.o ABSOLUTE
    ../clib/printf.c                         0x00000000   Number         0  _snputc.o ABSOLUTE
    ../clib/printf.c                         0x00000000   Number         0  _printf_char.o ABSOLUTE
    ../clib/printf.c                         0x00000000   Number         0  _printf_char_file.o ABSOLUTE
    ../clib/printf.c                         0x00000000   Number         0  __printf_nopercent.o ABSOLUTE
    ../clib/printf.c                         0x00000000   Number         0  _printf_fp_infnan.o ABSOLUTE
    ../clib/printf.c                         0x00000000   Number         0  _printf_hex_ll.o ABSOLUTE
    ../clib/printf.c                         0x00000000   Number         0  _printf_hex_int.o ABSOLUTE
    ../clib/printf.c                         0x00000000   Number         0  _printf_pad.o ABSOLUTE
    ../clib/printf.c                         0x00000000   Number         0  __printf.o ABSOLUTE
    ../clib/printf.c                         0x00000000   Number         0  noretval__2snprintf.o ABSOLUTE
    ../clib/printf.c                         0x00000000   Number         0  noretval__2sprintf.o ABSOLUTE
    ../clib/printf.c                         0x00000000   Number         0  noretval__2printf.o ABSOLUTE
    ../clib/printf.c                         0x00000000   Number         0  __2snprintf.o ABSOLUTE
    ../clib/printf.c                         0x00000000   Number         0  _printf_hex_int_ll.o ABSOLUTE
    ../clib/printf.c                         0x00000000   Number         0  _printf_hex_ptr.o ABSOLUTE
    ../clib/printf.c                         0x00000000   Number         0  __2sprintf.o ABSOLUTE
    ../clib/printf.c                         0x00000000   Number         0  _printf_hex_int_ptr.o ABSOLUTE
    ../clib/printf.c                         0x00000000   Number         0  _printf_hex_ll_ptr.o ABSOLUTE
    ../clib/printf.c                         0x00000000   Number         0  __2printf.o ABSOLUTE
    ../clib/printf.c                         0x00000000   Number         0  _printf_hex_int_ll_ptr.o ABSOLUTE
    ../clib/printf.c                         0x00000000   Number         0  _printf_dec.o ABSOLUTE
    ../clib/printf_percent.s                 0x00000000   Number         0  _printf_percent_end.o ABSOLUTE
    ../clib/printf_percent.s                 0x00000000   Number         0  _printf_d.o ABSOLUTE
    ../clib/printf_percent.s                 0x00000000   Number         0  _printf_e.o ABSOLUTE
    ../clib/printf_percent.s                 0x00000000   Number         0  _printf_s.o ABSOLUTE
    ../clib/printf_percent.s                 0x00000000   Number         0  _printf_percent.o ABSOLUTE
    ../clib/printf_percent.s                 0x00000000   Number         0  _printf_f.o ABSOLUTE
    ../clib/printf_percent.s                 0x00000000   Number         0  _printf_x.o ABSOLUTE
    ../clib/signal.c                         0x00000000   Number         0  defsig_general.o ABSOLUTE
    ../clib/signal.c                         0x00000000   Number         0  __raise.o ABSOLUTE
    ../clib/signal.c                         0x00000000   Number         0  defsig_rtmem_inner.o ABSOLUTE
    ../clib/signal.c                         0x00000000   Number         0  defsig_fpe_formal.o ABSOLUTE
    ../clib/signal.c                         0x00000000   Number         0  defsig_fpe_outer.o ABSOLUTE
    ../clib/signal.c                         0x00000000   Number         0  defsig_exit.o ABSOLUTE
    ../clib/signal.c                         0x00000000   Number         0  defsig_segv_inner.o ABSOLUTE
    ../clib/signal.c                         0x00000000   Number         0  defsig_abrt_inner.o ABSOLUTE
    ../clib/signal.c                         0x00000000   Number         0  defsig_other.o ABSOLUTE
    ../clib/signal.c                         0x00000000   Number         0  defsig_rtred_inner.o ABSOLUTE
    ../clib/signal.c                         0x00000000   Number         0  defsig_stak_inner.o ABSOLUTE
    ../clib/signal.c                         0x00000000   Number         0  defsig_fpe_inner.o ABSOLUTE
    ../clib/signal.c                         0x00000000   Number         0  defsig_cppl_inner.o ABSOLUTE
    ../clib/signal.c                         0x00000000   Number         0  defsig_pvfn_inner.o ABSOLUTE
    ../clib/signal.c                         0x00000000   Number         0  defsig_rtmem_formal.o ABSOLUTE
    ../clib/signal.c                         0x00000000   Number         0  defsig_rtmem_outer.o ABSOLUTE
    ../clib/signal.s                         0x00000000   Number         0  defsig.o ABSOLUTE
    ../clib/stdio.c                          0x00000000   Number         0  ferror.o ABSOLUTE
    ../clib/stdio.c                          0x00000000   Number         0  ferror_locked.o ABSOLUTE
    ../clib/stdlib.c                         0x00000000   Number         0  exit.o ABSOLUTE
    ../clib/string.c                         0x00000000   Number         0  memcmp.o ABSOLUTE
    ../clib/string.c                         0x00000000   Number         0  strncmp.o ABSOLUTE
    ../clib/string.c                         0x00000000   Number         0  strstr.o ABSOLUTE
    ../clib/string.c                         0x00000000   Number         0  strcpy.o ABSOLUTE
    ../clib/string.c                         0x00000000   Number         0  strlen.o ABSOLUTE
    ../clib/string.c                         0x00000000   Number         0  strchr.o ABSOLUTE
    ../fplib/daddsub.s                       0x00000000   Number         0  daddsub_clz.o ABSOLUTE
    ../fplib/dcheck1.s                       0x00000000   Number         0  dcheck1.o ABSOLUTE
    ../fplib/dcmpi.s                         0x00000000   Number         0  dcmpi.o ABSOLUTE
    ../fplib/ddiv.s                          0x00000000   Number         0  ddiv.o ABSOLUTE
    ../fplib/deqf.s                          0x00000000   Number         0  deqf.o ABSOLUTE
    ../fplib/dfix.s                          0x00000000   Number         0  dfix.o ABSOLUTE
    ../fplib/dflt.s                          0x00000000   Number         0  dflt_clz.o ABSOLUTE
    ../fplib/dleqf.s                         0x00000000   Number         0  dleqf.o ABSOLUTE
    ../fplib/dmul.s                          0x00000000   Number         0  dmul.o ABSOLUTE
    ../fplib/dnaninf.s                       0x00000000   Number         0  dnaninf.o ABSOLUTE
    ../fplib/dretinf.s                       0x00000000   Number         0  dretinf.o ABSOLUTE
    ../fplib/drleqf.s                        0x00000000   Number         0  drleqf.o ABSOLUTE
    ../fplib/dsqrt.s                         0x00000000   Number         0  dsqrt_noumaal.o ABSOLUTE
    ../fplib/f2d.s                           0x00000000   Number         0  f2d.o ABSOLUTE
    ../fplib/fnaninf.s                       0x00000000   Number         0  fnaninf.o ABSOLUTE
    ../fplib/fpinit.s                        0x00000000   Number         0  fpinit.o ABSOLUTE
    ../fplib/istatus.s                       0x00000000   Number         0  istatus.o ABSOLUTE
    ../fplib/printf1.s                       0x00000000   Number         0  printf1.o ABSOLUTE
    ../fplib/retnan.s                        0x00000000   Number         0  retnan.o ABSOLUTE
    ../fplib/scalbn.s                        0x00000000   Number         0  scalbn.o ABSOLUTE
    ../fplib/trapv.s                         0x00000000   Number         0  trapv.o ABSOLUTE
    ../fplib/usenofp.s                       0x00000000   Number         0  usenofp.o ABSOLUTE
    ../mathlib/dunder.c                      0x00000000   Number         0  dunder.o ABSOLUTE
    ../mathlib/floor.c                       0x00000000   Number         0  floor.o ABSOLUTE
    ../mathlib/fpclassify.c                  0x00000000   Number         0  fpclassify.o ABSOLUTE
    ../mathlib/poly.c                        0x00000000   Number         0  poly.o ABSOLUTE
    ../mathlib/pow.c                         0x00000000   Number         0  pow_x.o ABSOLUTE
    ../mathlib/pow.c                         0x00000000   Number         0  pow.o ABSOLUTE
    ../mathlib/qnan.c                        0x00000000   Number         0  qnan.o ABSOLUTE
    ../mathlib/sqrt.c                        0x00000000   Number         0  sqrt_x.o ABSOLUTE
    ../mathlib/sqrt.c                        0x00000000   Number         0  sqrt.o ABSOLUTE
    ..\CORE\core_cm3.c                       0x00000000   Number         0  core_cm3.o ABSOLUTE
    ..\CORE\startup_stm32f10x_hd.s           0x00000000   Number         0  startup_stm32f10x_hd.o ABSOLUTE
    ..\FWLIB\STM32F10x_FWLib\src\misc.c      0x00000000   Number         0  misc.o ABSOLUTE
    ..\FWLIB\STM32F10x_FWLib\src\stm32f10x_bkp.c 0x00000000   Number         0  stm32f10x_bkp.o ABSOLUTE
    ..\FWLIB\STM32F10x_FWLib\src\stm32f10x_can.c 0x00000000   Number         0  stm32f10x_can.o ABSOLUTE
    ..\FWLIB\STM32F10x_FWLib\src\stm32f10x_dma.c 0x00000000   Number         0  stm32f10x_dma.o ABSOLUTE
    ..\FWLIB\STM32F10x_FWLib\src\stm32f10x_flash.c 0x00000000   Number         0  stm32f10x_flash.o ABSOLUTE
    ..\FWLIB\STM32F10x_FWLib\src\stm32f10x_gpio.c 0x00000000   Number         0  stm32f10x_gpio.o ABSOLUTE
    ..\FWLIB\STM32F10x_FWLib\src\stm32f10x_iwdg.c 0x00000000   Number         0  stm32f10x_iwdg.o ABSOLUTE
    ..\FWLIB\STM32F10x_FWLib\src\stm32f10x_pwr.c 0x00000000   Number         0  stm32f10x_pwr.o ABSOLUTE
    ..\FWLIB\STM32F10x_FWLib\src\stm32f10x_rcc.c 0x00000000   Number         0  stm32f10x_rcc.o ABSOLUTE
    ..\FWLIB\STM32F10x_FWLib\src\stm32f10x_rtc.c 0x00000000   Number         0  stm32f10x_rtc.o ABSOLUTE
    ..\FWLIB\STM32F10x_FWLib\src\stm32f10x_spi.c 0x00000000   Number         0  stm32f10x_spi.o ABSOLUTE
    ..\FWLIB\STM32F10x_FWLib\src\stm32f10x_tim.c 0x00000000   Number         0  stm32f10x_tim.o ABSOLUTE
    ..\FWLIB\STM32F10x_FWLib\src\stm32f10x_usart.c 0x00000000   Number         0  stm32f10x_usart.o ABSOLUTE
    ..\HARDWARE\Ethernet\DHCP\dhcp.c         0x00000000   Number         0  dhcp.o ABSOLUTE
    ..\HARDWARE\Ethernet\W5500\w5500.c       0x00000000   Number         0  w5500.o ABSOLUTE
    ..\HARDWARE\Ethernet\socket.c            0x00000000   Number         0  socket.o ABSOLUTE
    ..\HARDWARE\Ethernet\wizchip_conf.c      0x00000000   Number         0  wizchip_conf.o ABSOLUTE
    ..\HARDWARE\Function\function.c          0x00000000   Number         0  function.o ABSOLUTE
    ..\HARDWARE\LED\led.c                    0x00000000   Number         0  led.o ABSOLUTE
    ..\HARDWARE\MALLOC\malloc.c              0x00000000   Number         0  malloc.o ABSOLUTE
    ..\HARDWARE\MQTTPacket\mqtt.c            0x00000000   Number         0  mqtt.o ABSOLUTE
    ..\HARDWARE\MQTTPacket\src\MQTTConnectClient.c 0x00000000   Number         0  mqttconnectclient.o ABSOLUTE
    ..\HARDWARE\MQTTPacket\src\MQTTConnectServer.c 0x00000000   Number         0  mqttconnectserver.o ABSOLUTE
    ..\HARDWARE\MQTTPacket\src\MQTTDeserializePublish.c 0x00000000   Number         0  mqttdeserializepublish.o ABSOLUTE
    ..\HARDWARE\MQTTPacket\src\MQTTFormat.c  0x00000000   Number         0  mqttformat.o ABSOLUTE
    ..\HARDWARE\MQTTPacket\src\MQTTPacket.c  0x00000000   Number         0  mqttpacket.o ABSOLUTE
    ..\HARDWARE\MQTTPacket\src\MQTTSerializePublish.c 0x00000000   Number         0  mqttserializepublish.o ABSOLUTE
    ..\HARDWARE\MQTTPacket\src\MQTTSubscribeClient.c 0x00000000   Number         0  mqttsubscribeclient.o ABSOLUTE
    ..\HARDWARE\MQTTPacket\src\MQTTSubscribeServer.c 0x00000000   Number         0  mqttsubscribeserver.o ABSOLUTE
    ..\HARDWARE\MQTTPacket\src\MQTTUnsubscribeClient.c 0x00000000   Number         0  mqttunsubscribeclient.o ABSOLUTE
    ..\HARDWARE\MQTTPacket\src\MQTTUnsubscribeServer.c 0x00000000   Number         0  mqttunsubscribeserver.o ABSOLUTE
    ..\HARDWARE\MQTTPacket\transport.c       0x00000000   Number         0  transport.o ABSOLUTE
    ..\HARDWARE\RTC\rtc.c                    0x00000000   Number         0  rtc.o ABSOLUTE
    ..\HARDWARE\SPI\spi.c                    0x00000000   Number         0  spi.o ABSOLUTE
    ..\HARDWARE\STMFLASH\stmflash.c          0x00000000   Number         0  stmflash.o ABSOLUTE
    ..\HARDWARE\cjson\cJSON.c                0x00000000   Number         0  cjson.o ABSOLUTE
    ..\SYSTEM\delay\delay.c                  0x00000000   Number         0  delay.o ABSOLUTE
    ..\SYSTEM\sys\sys.c                      0x00000000   Number         0  sys.o ABSOLUTE
    ..\SYSTEM\usart\usart.c                  0x00000000   Number         0  usart.o ABSOLUTE
    ..\UCOSIII\UCOS_BSP\bsp.c                0x00000000   Number         0  bsp.o ABSOLUTE
    ..\UCOSIII\uC-CPU\ARM-Cortex-M3\RealView\cpu_a.asm 0x00000000   Number         0  cpu_a.o ABSOLUTE
    ..\UCOSIII\uC-CPU\ARM-Cortex-M3\RealView\cpu_c.c 0x00000000   Number         0  cpu_c.o ABSOLUTE
    ..\UCOSIII\uC-CPU\cpu_core.c             0x00000000   Number         0  cpu_core.o ABSOLUTE
    ..\UCOSIII\uC-LIB\Ports\ARM-Cortex-M3\RealView\lib_mem_a.asm 0x00000000   Number         0  lib_mem_a.o ABSOLUTE
    ..\UCOSIII\uC-LIB\lib_ascii.c            0x00000000   Number         0  lib_ascii.o ABSOLUTE
    ..\UCOSIII\uC-LIB\lib_math.c             0x00000000   Number         0  lib_math.o ABSOLUTE
    ..\UCOSIII\uC-LIB\lib_mem.c              0x00000000   Number         0  lib_mem.o ABSOLUTE
    ..\UCOSIII\uC-LIB\lib_str.c              0x00000000   Number         0  lib_str.o ABSOLUTE
    ..\UCOSIII\uCOS-III\Ports\ARM-Cortex-M3\Generic\RealView\os_cpu_a.s 0x00000000   Number         0  os_cpu_a.o ABSOLUTE
    ..\UCOSIII\uCOS-III\Ports\ARM-Cortex-M3\Generic\RealView\os_cpu_c.c 0x00000000   Number         0  os_cpu_c.o ABSOLUTE
    ..\UCOSIII\uCOS-III\Source\os_cfg_app.c  0x00000000   Number         0  os_cfg_app.o ABSOLUTE
    ..\UCOSIII\uCOS-III\Source\os_core.c     0x00000000   Number         0  os_core.o ABSOLUTE
    ..\UCOSIII\uCOS-III\Source\os_dbg.c      0x00000000   Number         0  os_dbg.o ABSOLUTE
    ..\UCOSIII\uCOS-III\Source\os_flag.c     0x00000000   Number         0  os_flag.o ABSOLUTE
    ..\UCOSIII\uCOS-III\Source\os_int.c      0x00000000   Number         0  os_int.o ABSOLUTE
    ..\UCOSIII\uCOS-III\Source\os_mem.c      0x00000000   Number         0  os_mem.o ABSOLUTE
    ..\UCOSIII\uCOS-III\Source\os_msg.c      0x00000000   Number         0  os_msg.o ABSOLUTE
    ..\UCOSIII\uCOS-III\Source\os_mutex.c    0x00000000   Number         0  os_mutex.o ABSOLUTE
    ..\UCOSIII\uCOS-III\Source\os_pend_multi.c 0x00000000   Number         0  os_pend_multi.o ABSOLUTE
    ..\UCOSIII\uCOS-III\Source\os_prio.c     0x00000000   Number         0  os_prio.o ABSOLUTE
    ..\UCOSIII\uCOS-III\Source\os_q.c        0x00000000   Number         0  os_q.o ABSOLUTE
    ..\UCOSIII\uCOS-III\Source\os_sem.c      0x00000000   Number         0  os_sem.o ABSOLUTE
    ..\UCOSIII\uCOS-III\Source\os_stat.c     0x00000000   Number         0  os_stat.o ABSOLUTE
    ..\UCOSIII\uCOS-III\Source\os_task.c     0x00000000   Number         0  os_task.o ABSOLUTE
    ..\UCOSIII\uCOS-III\Source\os_tick.c     0x00000000   Number         0  os_tick.o ABSOLUTE
    ..\UCOSIII\uCOS-III\Source\os_time.c     0x00000000   Number         0  os_time.o ABSOLUTE
    ..\UCOSIII\uCOS-III\Source\os_tmr.c      0x00000000   Number         0  os_tmr.o ABSOLUTE
    ..\UCOSIII\uCOS-III\Source\os_var.c      0x00000000   Number         0  os_var.o ABSOLUTE
    ..\UCOSIII\uCOS_CONFIG\os_app_hooks.c    0x00000000   Number         0  os_app_hooks.o ABSOLUTE
    ..\\CORE\\core_cm3.c                     0x00000000   Number         0  core_cm3.o ABSOLUTE
    ..\\SYSTEM\\sys\\sys.c                   0x00000000   Number         0  sys.o ABSOLUTE
    dc.s                                     0x00000000   Number         0  dc.o ABSOLUTE
    main.c                                   0x00000000   Number         0  main.o ABSOLUTE
    stm32f10x_it.c                           0x00000000   Number         0  stm32f10x_it.o ABSOLUTE
    system_stm32f10x.c                       0x00000000   Number         0  system_stm32f10x.o ABSOLUTE
    RESET                                    0x08006000   Section      304  startup_stm32f10x_hd.o(RESET)
    !!!main                                  0x08006130   Section        8  __main.o(!!!main)
    !!!scatter                               0x08006138   Section       52  __scatter.o(!!!scatter)
    !!dczerorl2                              0x0800616c   Section       90  __dczerorl2.o(!!dczerorl2)
    !!handler_zi                             0x080061c8   Section       28  __scatter_zi.o(!!handler_zi)
    .ARM.Collect$$_printf_percent$$00000000  0x080061e4   Section        0  _printf_percent.o(.ARM.Collect$$_printf_percent$$00000000)
    .ARM.Collect$$_printf_percent$$00000009  0x080061e4   Section        6  _printf_d.o(.ARM.Collect$$_printf_percent$$00000009)
    .ARM.Collect$$_printf_percent$$0000000C  0x080061ea   Section        6  _printf_x.o(.ARM.Collect$$_printf_percent$$0000000C)
    .ARM.Collect$$_printf_percent$$00000014  0x080061f0   Section        6  _printf_s.o(.ARM.Collect$$_printf_percent$$00000014)
    .ARM.Collect$$_printf_percent$$00000017  0x080061f6   Section        4  _printf_percent_end.o(.ARM.Collect$$_printf_percent$$00000017)
    .ARM.Collect$$libinit$$00000000          0x080061fa   Section        2  libinit.o(.ARM.Collect$$libinit$$00000000)
    .ARM.Collect$$libinit$$00000002          0x080061fc   Section        0  libinit2.o(.ARM.Collect$$libinit$$00000002)
    .ARM.Collect$$libinit$$00000004          0x080061fc   Section        0  libinit2.o(.ARM.Collect$$libinit$$00000004)
    .ARM.Collect$$libinit$$0000000A          0x080061fc   Section        0  libinit2.o(.ARM.Collect$$libinit$$0000000A)
    .ARM.Collect$$libinit$$0000000C          0x080061fc   Section        0  libinit2.o(.ARM.Collect$$libinit$$0000000C)
    .ARM.Collect$$libinit$$0000000E          0x080061fc   Section        0  libinit2.o(.ARM.Collect$$libinit$$0000000E)
    .ARM.Collect$$libinit$$0000000F          0x080061fc   Section        6  libinit2.o(.ARM.Collect$$libinit$$0000000F)
    .ARM.Collect$$libinit$$00000011          0x08006202   Section        0  libinit2.o(.ARM.Collect$$libinit$$00000011)
    .ARM.Collect$$libinit$$00000012          0x08006202   Section       12  libinit2.o(.ARM.Collect$$libinit$$00000012)
    .ARM.Collect$$libinit$$00000013          0x0800620e   Section        0  libinit2.o(.ARM.Collect$$libinit$$00000013)
    .ARM.Collect$$libinit$$00000015          0x0800620e   Section        0  libinit2.o(.ARM.Collect$$libinit$$00000015)
    .ARM.Collect$$libinit$$00000017          0x0800620e   Section        0  libinit2.o(.ARM.Collect$$libinit$$00000017)
    .ARM.Collect$$libinit$$00000019          0x0800620e   Section        0  libinit2.o(.ARM.Collect$$libinit$$00000019)
    .ARM.Collect$$libinit$$0000001B          0x0800620e   Section        0  libinit2.o(.ARM.Collect$$libinit$$0000001B)
    .ARM.Collect$$libinit$$0000001D          0x0800620e   Section        0  libinit2.o(.ARM.Collect$$libinit$$0000001D)
    .ARM.Collect$$libinit$$0000001F          0x0800620e   Section        0  libinit2.o(.ARM.Collect$$libinit$$0000001F)
    .ARM.Collect$$libinit$$00000021          0x0800620e   Section        0  libinit2.o(.ARM.Collect$$libinit$$00000021)
    .ARM.Collect$$libinit$$00000023          0x0800620e   Section        0  libinit2.o(.ARM.Collect$$libinit$$00000023)
    .ARM.Collect$$libinit$$00000025          0x0800620e   Section        0  libinit2.o(.ARM.Collect$$libinit$$00000025)
    .ARM.Collect$$libinit$$0000002C          0x0800620e   Section        0  libinit2.o(.ARM.Collect$$libinit$$0000002C)
    .ARM.Collect$$libinit$$0000002E          0x0800620e   Section        0  libinit2.o(.ARM.Collect$$libinit$$0000002E)
    .ARM.Collect$$libinit$$00000030          0x0800620e   Section        0  libinit2.o(.ARM.Collect$$libinit$$00000030)
    .ARM.Collect$$libinit$$00000032          0x0800620e   Section        0  libinit2.o(.ARM.Collect$$libinit$$00000032)
    .ARM.Collect$$libinit$$00000033          0x0800620e   Section        2  libinit2.o(.ARM.Collect$$libinit$$00000033)
    .ARM.Collect$$libshutdown$$00000000      0x08006210   Section        2  libshutdown.o(.ARM.Collect$$libshutdown$$00000000)
    .ARM.Collect$$libshutdown$$00000002      0x08006212   Section        0  libshutdown2.o(.ARM.Collect$$libshutdown$$00000002)
    .ARM.Collect$$libshutdown$$00000004      0x08006212   Section        0  libshutdown2.o(.ARM.Collect$$libshutdown$$00000004)
    .ARM.Collect$$libshutdown$$00000007      0x08006212   Section        0  libshutdown2.o(.ARM.Collect$$libshutdown$$00000007)
    .ARM.Collect$$libshutdown$$0000000A      0x08006212   Section        0  libshutdown2.o(.ARM.Collect$$libshutdown$$0000000A)
    .ARM.Collect$$libshutdown$$0000000C      0x08006212   Section        0  libshutdown2.o(.ARM.Collect$$libshutdown$$0000000C)
    .ARM.Collect$$libshutdown$$0000000F      0x08006212   Section        0  libshutdown2.o(.ARM.Collect$$libshutdown$$0000000F)
    .ARM.Collect$$libshutdown$$00000010      0x08006212   Section        2  libshutdown2.o(.ARM.Collect$$libshutdown$$00000010)
    .ARM.Collect$$rtentry$$00000000          0x08006214   Section        0  __rtentry.o(.ARM.Collect$$rtentry$$00000000)
    .ARM.Collect$$rtentry$$00000002          0x08006214   Section        0  __rtentry2.o(.ARM.Collect$$rtentry$$00000002)
    .ARM.Collect$$rtentry$$00000004          0x08006214   Section        6  __rtentry4.o(.ARM.Collect$$rtentry$$00000004)
    .ARM.Collect$$rtentry$$00000009          0x0800621a   Section        0  __rtentry2.o(.ARM.Collect$$rtentry$$00000009)
    .ARM.Collect$$rtentry$$0000000A          0x0800621a   Section        4  __rtentry2.o(.ARM.Collect$$rtentry$$0000000A)
    .ARM.Collect$$rtentry$$0000000C          0x0800621e   Section        0  __rtentry2.o(.ARM.Collect$$rtentry$$0000000C)
    .ARM.Collect$$rtentry$$0000000D          0x0800621e   Section        8  __rtentry2.o(.ARM.Collect$$rtentry$$0000000D)
    .ARM.Collect$$rtexit$$00000000           0x08006226   Section        2  rtexit.o(.ARM.Collect$$rtexit$$00000000)
    .ARM.Collect$$rtexit$$00000002           0x08006228   Section        0  rtexit2.o(.ARM.Collect$$rtexit$$00000002)
    .ARM.Collect$$rtexit$$00000003           0x08006228   Section        4  rtexit2.o(.ARM.Collect$$rtexit$$00000003)
    .ARM.Collect$$rtexit$$00000004           0x0800622c   Section        6  rtexit2.o(.ARM.Collect$$rtexit$$00000004)
    .text                                    0x08006234   Section       64  startup_stm32f10x_hd.o(.text)
    .text                                    0x08006274   Section       52  cpu_a.o(.text)
    .text                                    0x080062a8   Section        2  use_no_semi_2.o(.text)
    .text                                    0x080062aa   Section        0  tolower.o(.text)
    .text                                    0x080062c4   Section        0  __2printf.o(.text)
    .text                                    0x080062dc   Section        0  __2sprintf.o(.text)
    .text                                    0x08006308   Section        0  _printf_pad.o(.text)
    .text                                    0x08006356   Section        0  _printf_str.o(.text)
    .text                                    0x080063a8   Section        0  _printf_dec.o(.text)
    .text                                    0x08006420   Section        0  _printf_hex_int.o(.text)
    .text                                    0x08006478   Section        0  __printf_flags_wp.o(.text)
    .text                                    0x080065b0   Section        0  strstr.o(.text)
    .text                                    0x080065d4   Section        0  strlen.o(.text)
    .text                                    0x08006612   Section        0  strncmp.o(.text)
    .text                                    0x080066a8   Section      138  rt_memcpy_v6.o(.text)
    .text                                    0x08006732   Section      100  rt_memcpy_w.o(.text)
    .text                                    0x08006796   Section       68  rt_memclr.o(.text)
    .text                                    0x080067da   Section       78  rt_memclr_w.o(.text)
    .text                                    0x08006828   Section        0  heapauxi.o(.text)
    .text                                    0x0800682e   Section        2  use_no_semi.o(.text)
    .text                                    0x08006830   Section       16  rt_ctype_table.o(.text)
    .text                                    0x08006840   Section        0  _rserrno.o(.text)
    .text                                    0x08006856   Section        0  _printf_intcommon.o(.text)
    .text                                    0x08006908   Section        0  _printf_char_common.o(.text)
    _printf_input_char                       0x08006909   Thumb Code    10  _printf_char_common.o(.text)
    .text                                    0x08006938   Section        0  _sputc.o(.text)
    .text                                    0x08006942   Section        0  _printf_char.o(.text)
    .text                                    0x08006970   Section        0  _printf_char_file.o(.text)
    .text                                    0x08006994   Section        8  libspace.o(.text)
    .text                                    0x0800699c   Section        8  rt_locale_intlibspace.o(.text)
    .text                                    0x080069a4   Section        8  rt_errno_addr_intlibspace.o(.text)
    .text                                    0x080069ac   Section        0  ferror.o(.text)
    .text                                    0x080069b4   Section       74  sys_stackheap_outer.o(.text)
    .text                                    0x080069fe   Section        0  exit.o(.text)
    .text                                    0x08006a10   Section      128  strcmpv7m.o(.text)
    CODE                                     0x08006a90   Section      152  os_cpu_a.o(CODE)
    i.BKP_DeInit                             0x08006b28   Section        0  stm32f10x_bkp.o(i.BKP_DeInit)
    i.BKP_ReadBackupRegister                 0x08006b38   Section        0  stm32f10x_bkp.o(i.BKP_ReadBackupRegister)
    i.BKP_WriteBackupRegister                0x08006b54   Section        0  stm32f10x_bkp.o(i.BKP_WriteBackupRegister)
    i.BSP_CPU_ClkFreq                        0x08006b70   Section        0  bsp.o(i.BSP_CPU_ClkFreq)
    i.BusFault_Handler                       0x08006b80   Section        0  stm32f10x_it.o(i.BusFault_Handler)
    i.CPU_Init                               0x08006b84   Section        0  cpu_core.o(i.CPU_Init)
    i.CPU_NameClr                            0x08006b90   Section        0  cpu_core.o(i.CPU_NameClr)
    i.CPU_NameInit                           0x08006bc0   Section        0  cpu_core.o(i.CPU_NameInit)
    CPU_NameInit                             0x08006bc1   Thumb Code     8  cpu_core.o(i.CPU_NameInit)
    i.CPU_TS_Init                            0x08006bc8   Section        0  cpu_core.o(i.CPU_TS_Init)
    CPU_TS_Init                              0x08006bc9   Thumb Code    14  cpu_core.o(i.CPU_TS_Init)
    i.CPU_TS_TmrFreqSet                      0x08006bdc   Section        0  cpu_core.o(i.CPU_TS_TmrFreqSet)
    i.CPU_TS_TmrInit                         0x08006be8   Section        0  bsp.o(i.CPU_TS_TmrInit)
    i.CPU_TS_TmrRd                           0x08006c1c   Section        0  bsp.o(i.CPU_TS_TmrRd)
    i.Control_Beep                           0x08006c28   Section        0  function.o(i.Control_Beep)
    i.Control_Relay                          0x08006c6c   Section        0  function.o(i.Control_Relay)
    i.Control_task                           0x08006cc8   Section        0  main.o(i.Control_task)
    i.DHCP_SET                               0x08006d5c   Section        0  function.o(i.DHCP_SET)
    i.DHCP_init                              0x08006f2c   Section        0  dhcp.o(i.DHCP_init)
    i.DHCP_run                               0x08006fd0   Section        0  dhcp.o(i.DHCP_run)
    i.DebugMon_Handler                       0x080071a8   Section        0  stm32f10x_it.o(i.DebugMon_Handler)
    i.FLASH_ClearFlag                        0x080071ac   Section        0  stm32f10x_flash.o(i.FLASH_ClearFlag)
    i.FLASH_ErasePage                        0x080071b8   Section        0  stm32f10x_flash.o(i.FLASH_ErasePage)
    i.FLASH_GetBank1Status                   0x08007204   Section        0  stm32f10x_flash.o(i.FLASH_GetBank1Status)
    i.FLASH_Lock                             0x08007238   Section        0  stm32f10x_flash.o(i.FLASH_Lock)
    i.FLASH_ProgramHalfWord                  0x0800724c   Section        0  stm32f10x_flash.o(i.FLASH_ProgramHalfWord)
    i.FLASH_Unlock                           0x0800728c   Section        0  stm32f10x_flash.o(i.FLASH_Unlock)
    i.FLASH_WaitForLastOperation             0x080072a4   Section        0  stm32f10x_flash.o(i.FLASH_WaitForLastOperation)
    i.Find_active                            0x080072cc   Section        0  function.o(i.Find_active)
    i.GPIO_Init                              0x08007484   Section        0  stm32f10x_gpio.o(i.GPIO_Init)
    i.GPIO_PinRemapConfig                    0x0800759c   Section        0  stm32f10x_gpio.o(i.GPIO_PinRemapConfig)
    i.GPIO_ReadOutputDataBit                 0x0800762c   Section        0  stm32f10x_gpio.o(i.GPIO_ReadOutputDataBit)
    i.GPIO_ResetBits                         0x0800763e   Section        0  stm32f10x_gpio.o(i.GPIO_ResetBits)
    i.GPIO_SetBits                           0x08007642   Section        0  stm32f10x_gpio.o(i.GPIO_SetBits)
    i.Get_RelayState                         0x08007648   Section        0  function.o(i.Get_RelayState)
    i.HardFault_Handler                      0x080076c4   Section        0  stm32f10x_it.o(i.HardFault_Handler)
    i.IAP_IRQ_Remap_Init                     0x080076c8   Section        0  function.o(i.IAP_IRQ_Remap_Init)
    i.INPUT_active                           0x080076d8   Section        0  function.o(i.INPUT_active)
    i.INTX_DISABLE                           0x0800781c   Section        0  sys.o(i.INTX_DISABLE)
    i.Is_Leap_Year                           0x08007820   Section        0  rtc.o(i.Is_Leap_Year)
    i.LED_Init                               0x0800785c   Section        0  led.o(i.LED_Init)
    i.MQTTDeserialize_connack                0x08007948   Section        0  mqttconnectclient.o(i.MQTTDeserialize_connack)
    i.MQTTDeserialize_publish                0x080079be   Section        0  mqttdeserializepublish.o(i.MQTTDeserialize_publish)
    i.MQTTDeserialize_suback                 0x08007a66   Section        0  mqttsubscribeclient.o(i.MQTTDeserialize_suback)
    i.MQTTPacket_decode                      0x08007af8   Section        0  mqttpacket.o(i.MQTTPacket_decode)
    i.MQTTPacket_decodeBuf                   0x08007b50   Section        0  mqttpacket.o(i.MQTTPacket_decodeBuf)
    i.MQTTPacket_encode                      0x08007b6c   Section        0  mqttpacket.o(i.MQTTPacket_encode)
    i.MQTTPacket_len                         0x08007ba4   Section        0  mqttpacket.o(i.MQTTPacket_len)
    i.MQTTPacket_read                        0x08007bcc   Section        0  mqttpacket.o(i.MQTTPacket_read)
    i.MQTTSerialize_connect                  0x08007c34   Section        0  mqttconnectclient.o(i.MQTTSerialize_connect)
    i.MQTTSerialize_connectLength            0x08007d9c   Section        0  mqttconnectclient.o(i.MQTTSerialize_connectLength)
    i.MQTTSerialize_pingreq                  0x08007e12   Section        0  mqttconnectclient.o(i.MQTTSerialize_pingreq)
    i.MQTTSerialize_publish                  0x08007e24   Section        0  mqttserializepublish.o(i.MQTTSerialize_publish)
    i.MQTTSerialize_publishLength            0x08007ed4   Section        0  mqttserializepublish.o(i.MQTTSerialize_publishLength)
    i.MQTTSerialize_subscribe                0x08007ef6   Section        0  mqttsubscribeclient.o(i.MQTTSerialize_subscribe)
    i.MQTTSerialize_subscribeLength          0x08007fa6   Section        0  mqttsubscribeclient.o(i.MQTTSerialize_subscribeLength)
    i.MQTTSerialize_zero                     0x08007fd4   Section        0  mqttconnectclient.o(i.MQTTSerialize_zero)
    i.MQTT_task                              0x08008020   Section        0  main.o(i.MQTT_task)
    i.MQTTstrlen                             0x08008448   Section        0  mqttpacket.o(i.MQTTstrlen)
    i.MemManage_Handler                      0x08008460   Section        0  stm32f10x_it.o(i.MemManage_Handler)
    i.Mem_Clr                                0x08008464   Section        0  lib_mem.o(i.Mem_Clr)
    i.Mem_Set                                0x08008476   Section        0  lib_mem.o(i.Mem_Set)
    i.NMI_Handler                            0x080084ca   Section        0  stm32f10x_it.o(i.NMI_Handler)
    i.NVIC_Init                              0x080084cc   Section        0  misc.o(i.NVIC_Init)
    i.NVIC_PriorityGroupConfig               0x0800853c   Section        0  misc.o(i.NVIC_PriorityGroupConfig)
    i.NibbleToHex                            0x08008550   Section        0  dhcp.o(i.NibbleToHex)
    i.OSCfg_Init                             0x0800856c   Section        0  os_cfg_app.o(i.OSCfg_Init)
    i.OSIdleTaskHook                         0x08008668   Section        0  os_cpu_c.o(i.OSIdleTaskHook)
    i.OSInit                                 0x0800867c   Section        0  os_core.o(i.OSInit)
    i.OSInitHook                             0x08008808   Section        0  os_cpu_c.o(i.OSInitHook)
    i.OSIntEnter                             0x08008840   Section        0  os_core.o(i.OSIntEnter)
    i.OSIntExit                              0x0800886c   Section        0  os_core.o(i.OSIntExit)
    i.OSSched                                0x08008950   Section        0  os_core.o(i.OSSched)
    i.OSSchedLock                            0x080089f8   Section        0  os_core.o(i.OSSchedLock)
    i.OSSchedRoundRobinCfg                   0x08008a6c   Section        0  os_core.o(i.OSSchedRoundRobinCfg)
    i.OSSchedUnlock                          0x08008ad0   Section        0  os_core.o(i.OSSchedUnlock)
    i.OSStart                                0x08008b64   Section        0  os_core.o(i.OSStart)
    i.OSStatReset                            0x08008bcc   Section        0  os_stat.o(i.OSStatReset)
    i.OSStatTaskCPUUsageInit                 0x08008d04   Section        0  os_stat.o(i.OSStatTaskCPUUsageInit)
    i.OSStatTaskHook                         0x08008df4   Section        0  os_cpu_c.o(i.OSStatTaskHook)
    i.OSTaskCreate                           0x08008e08   Section        0  os_task.o(i.OSTaskCreate)
    i.OSTaskCreateHook                       0x08009064   Section        0  os_cpu_c.o(i.OSTaskCreateHook)
    i.OSTaskDel                              0x0800907c   Section        0  os_task.o(i.OSTaskDel)
    i.OSTaskDelHook                          0x08009240   Section        0  os_cpu_c.o(i.OSTaskDelHook)
    i.OSTaskResume                           0x08009258   Section        0  os_task.o(i.OSTaskResume)
    i.OSTaskReturnHook                       0x080092d4   Section        0  os_cpu_c.o(i.OSTaskReturnHook)
    i.OSTaskSemPend                          0x080092ec   Section        0  os_task.o(i.OSTaskSemPend)
    i.OSTaskStkChk                           0x08009500   Section        0  os_task.o(i.OSTaskStkChk)
    i.OSTaskStkInit                          0x080095d4   Section        0  os_cpu_c.o(i.OSTaskStkInit)
    i.OSTaskSuspend                          0x08009694   Section        0  os_task.o(i.OSTaskSuspend)
    i.OSTaskSwHook                           0x080096f4   Section        0  os_cpu_c.o(i.OSTaskSwHook)
    i.OSTimeDly                              0x0800977c   Section        0  os_time.o(i.OSTimeDly)
    i.OSTimeDlyHMSM                          0x08009894   Section        0  os_time.o(i.OSTimeDlyHMSM)
    i.OSTimeTick                             0x08009a84   Section        0  os_time.o(i.OSTimeTick)
    i.OSTimeTickHook                         0x08009ac8   Section        0  os_cpu_c.o(i.OSTimeTickHook)
    i.OS_Dbg_Init                            0x08009adc   Section        0  os_dbg.o(i.OS_Dbg_Init)
    i.OS_FlagInit                            0x08009c8c   Section        0  os_flag.o(i.OS_FlagInit)
    i.OS_FlagPost                            0x08009ca4   Section        0  os_flag.o(i.OS_FlagPost)
    i.OS_FlagTaskRdy                         0x08009ed4   Section        0  os_flag.o(i.OS_FlagTaskRdy)
    i.OS_IdleTask                            0x08009f2c   Section        0  os_core.o(i.OS_IdleTask)
    i.OS_IdleTaskInit                        0x08009f70   Section        0  os_core.o(i.OS_IdleTaskInit)
    i.OS_IntQPost                            0x08009fe0   Section        0  os_int.o(i.OS_IntQPost)
    i.OS_IntQRePost                          0x0800a0dc   Section        0  os_int.o(i.OS_IntQRePost)
    i.OS_IntQTask                            0x0800a280   Section        0  os_int.o(i.OS_IntQTask)
    i.OS_IntQTaskInit                        0x0800a334   Section        0  os_int.o(i.OS_IntQTaskInit)
    i.OS_MemInit                             0x0800a45c   Section        0  os_mem.o(i.OS_MemInit)
    i.OS_MsgPoolCreate                       0x0800a474   Section        0  os_msg.o(i.OS_MsgPoolCreate)
    i.OS_MsgPoolInit                         0x0800a4ac   Section        0  os_msg.o(i.OS_MsgPoolInit)
    i.OS_MsgQFreeAll                         0x0800a500   Section        0  os_msg.o(i.OS_MsgQFreeAll)
    i.OS_MsgQInit                            0x0800a544   Section        0  os_msg.o(i.OS_MsgQInit)
    i.OS_MsgQPut                             0x0800a554   Section        0  os_msg.o(i.OS_MsgQPut)
    i.OS_MutexInit                           0x0800a650   Section        0  os_mutex.o(i.OS_MutexInit)
    i.OS_Pend                                0x0800a668   Section        0  os_core.o(i.OS_Pend)
    i.OS_PendDataInit                        0x0800a6d0   Section        0  os_core.o(i.OS_PendDataInit)
    i.OS_PendDbgNameAdd                      0x0800a6f8   Section        0  os_core.o(i.OS_PendDbgNameAdd)
    i.OS_PendDbgNameRemove                   0x0800a754   Section        0  os_core.o(i.OS_PendDbgNameRemove)
    i.OS_PendListInsertPrio                  0x0800a778   Section        0  os_core.o(i.OS_PendListInsertPrio)
    i.OS_PendListRemove                      0x0800a7de   Section        0  os_core.o(i.OS_PendListRemove)
    i.OS_PendListRemove1                     0x0800a80e   Section        0  os_core.o(i.OS_PendListRemove1)
    i.OS_Post                                0x0800a850   Section        0  os_core.o(i.OS_Post)
    i.OS_Post1                               0x0800a910   Section        0  os_core.o(i.OS_Post1)
    i.OS_PrioGetHighest                      0x0800a93c   Section        0  os_prio.o(i.OS_PrioGetHighest)
    i.OS_PrioInit                            0x0800a964   Section        0  os_prio.o(i.OS_PrioInit)
    i.OS_PrioInsert                          0x0800a97c   Section        0  os_prio.o(i.OS_PrioInsert)
    i.OS_PrioRemove                          0x0800a9a0   Section        0  os_prio.o(i.OS_PrioRemove)
    i.OS_QInit                               0x0800a9c4   Section        0  os_q.o(i.OS_QInit)
    i.OS_QPost                               0x0800a9dc   Section        0  os_q.o(i.OS_QPost)
    i.OS_RdyListInit                         0x0800ab28   Section        0  os_core.o(i.OS_RdyListInit)
    i.OS_RdyListInsert                       0x0800ab4c   Section        0  os_core.o(i.OS_RdyListInsert)
    i.OS_RdyListInsertHead                   0x0800ab78   Section        0  os_core.o(i.OS_RdyListInsertHead)
    i.OS_RdyListInsertTail                   0x0800abb8   Section        0  os_core.o(i.OS_RdyListInsertTail)
    i.OS_RdyListMoveHeadToTail               0x0800abf4   Section        0  os_core.o(i.OS_RdyListMoveHeadToTail)
    i.OS_RdyListRemove                       0x0800ac38   Section        0  os_core.o(i.OS_RdyListRemove)
    i.OS_Sched0                              0x0800ac94   Section        0  os_core.o(i.OS_Sched0)
    i.OS_SchedLockTimeMeasStart              0x0800acf0   Section        0  os_core.o(i.OS_SchedLockTimeMeasStart)
    i.OS_SchedLockTimeMeasStop               0x0800ad0c   Section        0  os_core.o(i.OS_SchedLockTimeMeasStop)
    i.OS_SchedRoundRobin                     0x0800ad48   Section        0  os_core.o(i.OS_SchedRoundRobin)
    i.OS_SemInit                             0x0800ae18   Section        0  os_sem.o(i.OS_SemInit)
    i.OS_SemPost                             0x0800ae30   Section        0  os_sem.o(i.OS_SemPost)
    i.OS_StatTask                            0x0800af94   Section        0  os_stat.o(i.OS_StatTask)
    i.OS_StatTaskInit                        0x0800b2f0   Section        0  os_stat.o(i.OS_StatTaskInit)
    i.OS_TaskBlock                           0x0800b3bc   Section        0  os_core.o(i.OS_TaskBlock)
    i.OS_TaskDbgListAdd                      0x0800b3f4   Section        0  os_task.o(i.OS_TaskDbgListAdd)
    i.OS_TaskDbgListRemove                   0x0800b424   Section        0  os_task.o(i.OS_TaskDbgListRemove)
    i.OS_TaskInit                            0x0800b468   Section        0  os_task.o(i.OS_TaskInit)
    i.OS_TaskInitTCB                         0x0800b488   Section        0  os_task.o(i.OS_TaskInitTCB)
    i.OS_TaskQPost                           0x0800b550   Section        0  os_task.o(i.OS_TaskQPost)
    i.OS_TaskRdy                             0x0800b75c   Section        0  os_core.o(i.OS_TaskRdy)
    i.OS_TaskResume                          0x0800b778   Section        0  os_task.o(i.OS_TaskResume)
    i.OS_TaskReturn                          0x0800b8b8   Section        0  os_task.o(i.OS_TaskReturn)
    i.OS_TaskSemPost                         0x0800b8d0   Section        0  os_task.o(i.OS_TaskSemPost)
    i.OS_TaskSuspend                         0x0800bd94   Section        0  os_task.o(i.OS_TaskSuspend)
    i.OS_TickListInit                        0x0800bee4   Section        0  os_tick.o(i.OS_TickListInit)
    i.OS_TickListInsert                      0x0800bf0c   Section        0  os_tick.o(i.OS_TickListInsert)
    i.OS_TickListRemove                      0x0800c0c8   Section        0  os_tick.o(i.OS_TickListRemove)
    i.OS_TickListResetPeak                   0x0800c100   Section        0  os_tick.o(i.OS_TickListResetPeak)
    i.OS_TickListUpdate                      0x0800c124   Section        0  os_tick.o(i.OS_TickListUpdate)
    i.OS_TickTask                            0x0800c31c   Section        0  os_tick.o(i.OS_TickTask)
    i.OS_TickTaskInit                        0x0800c348   Section        0  os_tick.o(i.OS_TickTaskInit)
    i.OS_TmrInit                             0x0800c400   Section        0  os_tmr.o(i.OS_TmrInit)
    i.OS_TmrLink                             0x0800c528   Section        0  os_tmr.o(i.OS_TmrLink)
    i.OS_TmrResetPeak                        0x0800c5f8   Section        0  os_tmr.o(i.OS_TmrResetPeak)
    i.OS_TmrTask                             0x0800c61c   Section        0  os_tmr.o(i.OS_TmrTask)
    i.OS_TmrUnlink                           0x0800c6dc   Section        0  os_tmr.o(i.OS_TmrUnlink)
    i.PWR_BackupAccessCmd                    0x0800c72c   Section        0  stm32f10x_pwr.o(i.PWR_BackupAccessCmd)
    i.RCC_APB1PeriphClockCmd                 0x0800c738   Section        0  stm32f10x_rcc.o(i.RCC_APB1PeriphClockCmd)
    i.RCC_APB1PeriphResetCmd                 0x0800c758   Section        0  stm32f10x_rcc.o(i.RCC_APB1PeriphResetCmd)
    i.RCC_APB2PeriphClockCmd                 0x0800c778   Section        0  stm32f10x_rcc.o(i.RCC_APB2PeriphClockCmd)
    i.RCC_APB2PeriphResetCmd                 0x0800c798   Section        0  stm32f10x_rcc.o(i.RCC_APB2PeriphResetCmd)
    i.RCC_BackupResetCmd                     0x0800c7b8   Section        0  stm32f10x_rcc.o(i.RCC_BackupResetCmd)
    i.RCC_GetClocksFreq                      0x0800c7c4   Section        0  stm32f10x_rcc.o(i.RCC_GetClocksFreq)
    i.RCC_GetFlagStatus                      0x0800c898   Section        0  stm32f10x_rcc.o(i.RCC_GetFlagStatus)
    i.RCC_LSEConfig                          0x0800c8d4   Section        0  stm32f10x_rcc.o(i.RCC_LSEConfig)
    i.RCC_RTCCLKCmd                          0x0800c908   Section        0  stm32f10x_rcc.o(i.RCC_RTCCLKCmd)
    i.RCC_RTCCLKConfig                       0x0800c914   Section        0  stm32f10x_rcc.o(i.RCC_RTCCLKConfig)
    i.RTC_ClearITPendingBit                  0x0800c924   Section        0  stm32f10x_rtc.o(i.RTC_ClearITPendingBit)
    i.RTC_EnterConfigMode                    0x0800c934   Section        0  stm32f10x_rtc.o(i.RTC_EnterConfigMode)
    i.RTC_ExitConfigMode                     0x0800c948   Section        0  stm32f10x_rtc.o(i.RTC_ExitConfigMode)
    i.RTC_Get                                0x0800c95c   Section        0  rtc.o(i.RTC_Get)
    i.RTC_GetCounter                         0x0800ca5c   Section        0  stm32f10x_rtc.o(i.RTC_GetCounter)
    i.RTC_GetITStatus                        0x0800ca70   Section        0  stm32f10x_rtc.o(i.RTC_GetITStatus)
    i.RTC_Get_Week                           0x0800ca94   Section        0  rtc.o(i.RTC_Get_Week)
    i.RTC_IRQHandler                         0x0800cb0c   Section        0  rtc.o(i.RTC_IRQHandler)
    i.RTC_ITConfig                           0x0800cb48   Section        0  stm32f10x_rtc.o(i.RTC_ITConfig)
    i.RTC_Init                               0x0800cb68   Section        0  rtc.o(i.RTC_Init)
    i.RTC_NVIC_Config                        0x0800cc34   Section        0  rtc.o(i.RTC_NVIC_Config)
    RTC_NVIC_Config                          0x0800cc35   Thumb Code    32  rtc.o(i.RTC_NVIC_Config)
    i.RTC_Set                                0x0800cc54   Section        0  rtc.o(i.RTC_Set)
    i.RTC_SetAlarm                           0x0800cd20   Section        0  stm32f10x_rtc.o(i.RTC_SetAlarm)
    i.RTC_SetCounter                         0x0800cd3c   Section        0  stm32f10x_rtc.o(i.RTC_SetCounter)
    i.RTC_SetPrescaler                       0x0800cd58   Section        0  stm32f10x_rtc.o(i.RTC_SetPrescaler)
    i.RTC_Set_alarm                          0x0800cd78   Section        0  rtc.o(i.RTC_Set_alarm)
    i.RTC_WaitForLastTask                    0x0800cda0   Section        0  stm32f10x_rtc.o(i.RTC_WaitForLastTask)
    i.RTC_WaitForSynchro                     0x0800cdb4   Section        0  stm32f10x_rtc.o(i.RTC_WaitForSynchro)
    i.SPI1_CS_Deselect                       0x0800cdd8   Section        0  spi.o(i.SPI1_CS_Deselect)
    i.SPI1_CS_Select                         0x0800cde4   Section        0  spi.o(i.SPI1_CS_Select)
    i.SPI1_Init                              0x0800cdf0   Section        0  spi.o(i.SPI1_Init)
    i.SPI1_ReadByte                          0x0800ce78   Section        0  spi.o(i.SPI1_ReadByte)
    i.SPI1_WriteByte                         0x0800cea8   Section        0  spi.o(i.SPI1_WriteByte)
    i.SPI_Cmd                                0x0800ced4   Section        0  stm32f10x_spi.o(i.SPI_Cmd)
    i.SPI_CrisEnter                          0x0800ceec   Section        0  spi.o(i.SPI_CrisEnter)
    i.SPI_CrisExit                           0x0800cef6   Section        0  spi.o(i.SPI_CrisExit)
    i.SPI_Init                               0x0800cf00   Section        0  stm32f10x_spi.o(i.SPI_Init)
    i.STMFLASH_Read                          0x0800cf3c   Section        0  stmflash.o(i.STMFLASH_Read)
    i.STMFLASH_ReadHalfWord                  0x0800cf5e   Section        0  stmflash.o(i.STMFLASH_ReadHalfWord)
    i.STMFLASH_Write                         0x0800cf64   Section        0  stmflash.o(i.STMFLASH_Write)
    i.STMFLASH_Write_NoCheck                 0x0800d058   Section        0  stmflash.o(i.STMFLASH_Write_NoCheck)
    i.SVC_Handler                            0x0800d07e   Section        0  stm32f10x_it.o(i.SVC_Handler)
    i.SetSysClock                            0x0800d080   Section        0  system_stm32f10x.o(i.SetSysClock)
    SetSysClock                              0x0800d081   Thumb Code     8  system_stm32f10x.o(i.SetSysClock)
    i.SetSysClockTo72                        0x0800d088   Section        0  system_stm32f10x.o(i.SetSysClockTo72)
    SetSysClockTo72                          0x0800d089   Thumb Code   214  system_stm32f10x.o(i.SetSysClockTo72)
    i.SysTick_CLKSourceConfig                0x0800d168   Section        0  misc.o(i.SysTick_CLKSourceConfig)
    i.SysTick_Handler                        0x0800d190   Section        0  delay.o(i.SysTick_Handler)
    i.SystemInit                             0x0800d1ac   Section        0  system_stm32f10x.o(i.SystemInit)
    i.USART1_IRQHandler                      0x0800d20c   Section        0  usart.o(i.USART1_IRQHandler)
    i.USART_Cmd                              0x0800d29c   Section        0  stm32f10x_usart.o(i.USART_Cmd)
    i.USART_DeInit                           0x0800d2b4   Section        0  stm32f10x_usart.o(i.USART_DeInit)
    i.USART_GetITStatus                      0x0800d350   Section        0  stm32f10x_usart.o(i.USART_GetITStatus)
    i.USART_ITConfig                         0x0800d3a4   Section        0  stm32f10x_usart.o(i.USART_ITConfig)
    i.USART_Init                             0x0800d3f0   Section        0  stm32f10x_usart.o(i.USART_Init)
    i.USART_ReceiveData                      0x0800d4c8   Section        0  stm32f10x_usart.o(i.USART_ReceiveData)
    i.UpGrade_task                           0x0800d4d4   Section        0  main.o(i.UpGrade_task)
    i.UsageFault_Handler                     0x0800dd60   Section        0  stm32f10x_it.o(i.UsageFault_Handler)
    i.W5500_init                             0x0800dd64   Section        0  function.o(i.W5500_init)
    i.WIZCHIP_READ                           0x0800de48   Section        0  w5500.o(i.WIZCHIP_READ)
    i.WIZCHIP_READ_BUF                       0x0800de94   Section        0  w5500.o(i.WIZCHIP_READ_BUF)
    i.WIZCHIP_WRITE                          0x0800def8   Section        0  w5500.o(i.WIZCHIP_WRITE)
    i.WIZCHIP_WRITE_BUF                      0x0800df44   Section        0  w5500.o(i.WIZCHIP_WRITE_BUF)
    i.WaitData_task                          0x0800dfa8   Section        0  main.o(i.WaitData_task)
    i.__ARM_fpclassify                       0x0800e32c   Section        0  fpclassify.o(i.__ARM_fpclassify)
    i.__kernel_poly                          0x0800e354   Section        0  poly.o(i.__kernel_poly)
    i.__mathlib_dbl_divzero                  0x0800e400   Section        0  dunder.o(i.__mathlib_dbl_divzero)
    i.__mathlib_dbl_infnan2                  0x0800e410   Section        0  dunder.o(i.__mathlib_dbl_infnan2)
    i.__mathlib_dbl_invalid                  0x0800e414   Section        0  dunder.o(i.__mathlib_dbl_invalid)
    i.__mathlib_dbl_overflow                 0x0800e420   Section        0  dunder.o(i.__mathlib_dbl_overflow)
    i.__mathlib_dbl_underflow                0x0800e430   Section        0  dunder.o(i.__mathlib_dbl_underflow)
    i._is_digit                              0x0800e440   Section        0  __printf_wp.o(i._is_digit)
    i._sys_exit                              0x0800e44e   Section        0  usart.o(i._sys_exit)
    i.bufchar                                0x0800e454   Section        0  mqttpacket.o(i.bufchar)
    i.cJSON_Delete                           0x0800e47c   Section        0  cjson.o(i.cJSON_Delete)
    i.cJSON_GetArrayItem                     0x0800e4d4   Section        0  cjson.o(i.cJSON_GetArrayItem)
    i.cJSON_GetErrorPtr                      0x0800e4e8   Section        0  cjson.o(i.cJSON_GetErrorPtr)
    i.cJSON_GetObjectItem                    0x0800e4f4   Section        0  cjson.o(i.cJSON_GetObjectItem)
    i.cJSON_New_Item                         0x0800e514   Section        0  cjson.o(i.cJSON_New_Item)
    cJSON_New_Item                           0x0800e515   Thumb Code    26  cjson.o(i.cJSON_New_Item)
    i.cJSON_Parse                            0x0800e534   Section        0  cjson.o(i.cJSON_Parse)
    i.cJSON_ParseWithOpts                    0x0800e544   Section        0  cjson.o(i.cJSON_ParseWithOpts)
    i.cJSON_strcasecmp                       0x0800e5a8   Section        0  cjson.o(i.cJSON_strcasecmp)
    cJSON_strcasecmp                         0x0800e5a9   Thumb Code    76  cjson.o(i.cJSON_strcasecmp)
    i.check_DHCP_leasedIP                    0x0800e5f4   Section        0  dhcp.o(i.check_DHCP_leasedIP)
    i.check_DHCP_timeout                     0x0800e66c   Section        0  dhcp.o(i.check_DHCP_timeout)
    i.close                                  0x0800e718   Section        0  socket.o(i.close)
    i.connect                                0x0800e7a4   Section        0  socket.o(i.connect)
    i.cpy                                    0x0800e8e8   Section        0  function.o(i.cpy)
    i.ctlnetwork                             0x0800e900   Section        0  wizchip_conf.o(i.ctlnetwork)
    i.ctlwizchip                             0x0800e950   Section        0  wizchip_conf.o(i.ctlwizchip)
    i.default_ip_assign                      0x0800ea68   Section        0  dhcp.o(i.default_ip_assign)
    i.default_ip_conflict                    0x0800ea9c   Section        0  dhcp.o(i.default_ip_conflict)
    i.default_ip_update                      0x0800eac0   Section        0  dhcp.o(i.default_ip_update)
    i.delay                                  0x0800eae8   Section        0  function.o(i.delay)
    i.delay_init                             0x0800eb08   Section        0  delay.o(i.delay_init)
    i.delay_ms                               0x0800eb78   Section        0  delay.o(i.delay_ms)
    i.delay_osschedlock                      0x0800ebc8   Section        0  delay.o(i.delay_osschedlock)
    i.delay_osschedunlock                    0x0800ebd2   Section        0  delay.o(i.delay_osschedunlock)
    i.delay_ostimedly                        0x0800ebdc   Section        0  delay.o(i.delay_ostimedly)
    i.delay_us                               0x0800ebec   Section        0  delay.o(i.delay_us)
    i.disconnect                             0x0800ec48   Section        0  socket.o(i.disconnect)
    i.do_mqtt_publish                        0x0800ed04   Section        0  mqtt.o(i.do_mqtt_publish)
    i.do_mqtt_subscrib                       0x0800ee28   Section        0  mqtt.o(i.do_mqtt_subscrib)
    i.do_mqtt_subscrib_wait                  0x0800ef04   Section        0  mqtt.o(i.do_mqtt_subscrib_wait)
    i.fputc                                  0x0800efd8   Section        0  usart.o(i.fputc)
    i.getDHCPLeasetime                       0x0800eff4   Section        0  dhcp.o(i.getDHCPLeasetime)
    i.getDNSfromDHCP                         0x0800f000   Section        0  dhcp.o(i.getDNSfromDHCP)
    i.getGWfromDHCP                          0x0800f020   Section        0  dhcp.o(i.getGWfromDHCP)
    i.getIPfromDHCP                          0x0800f040   Section        0  dhcp.o(i.getIPfromDHCP)
    i.getSNfromDHCP                          0x0800f060   Section        0  dhcp.o(i.getSNfromDHCP)
    i.getSn_RX_RSR                           0x0800f080   Section        0  w5500.o(i.getSn_RX_RSR)
    i.getSn_TX_FSR                           0x0800f0ec   Section        0  w5500.o(i.getSn_TX_FSR)
    i.getdata_1                              0x0800f158   Section        0  transport.o(i.getdata_1)
    i.led0_task                              0x0800f16c   Section        0  main.o(i.led0_task)
    i.main                                   0x0800f204   Section        0  main.o(i.main)
    i.makeDHCPMSG                            0x0800f328   Section        0  dhcp.o(i.makeDHCPMSG)
    i.mem_free                               0x0800f4b8   Section        0  malloc.o(i.mem_free)
    i.mem_init                               0x0800f500   Section        0  malloc.o(i.mem_init)
    i.mem_malloc                             0x0800f52c   Section        0  malloc.o(i.mem_malloc)
    i.mem_perused                            0x0800f5a4   Section        0  malloc.o(i.mem_perused)
    i.mqtt_publishMSG                        0x0800f5cc   Section        0  mqtt.o(i.mqtt_publishMSG)
    i.my_ip_assign                           0x0800f668   Section        0  function.o(i.my_ip_assign)
    i.my_ip_conflict                         0x0800f6cc   Section        0  function.o(i.my_ip_conflict)
    i.myfree                                 0x0800f6f4   Section        0  malloc.o(i.myfree)
    i.mymalloc                               0x0800f710   Section        0  malloc.o(i.mymalloc)
    i.mymemset                               0x0800f730   Section        0  malloc.o(i.mymemset)
    i.parseDHCPMSG                           0x0800f744   Section        0  dhcp.o(i.parseDHCPMSG)
    i.parse_array                            0x0800f92c   Section        0  cjson.o(i.parse_array)
    parse_array                              0x0800f92d   Thumb Code   166  cjson.o(i.parse_array)
    i.parse_hex4                             0x0800f9d8   Section        0  cjson.o(i.parse_hex4)
    parse_hex4                               0x0800f9d9   Thumb Code   276  cjson.o(i.parse_hex4)
    i.parse_number                           0x0800faec   Section        0  cjson.o(i.parse_number)
    parse_number                             0x0800faed   Thumb Code   432  cjson.o(i.parse_number)
    i.parse_number                           0x0800fca8   Section        0  function.o(i.parse_number)
    i.parse_object                           0x0800fe58   Section        0  cjson.o(i.parse_object)
    parse_object                             0x0800fe59   Thumb Code   270  cjson.o(i.parse_object)
    i.parse_string                           0x0800ff6c   Section        0  cjson.o(i.parse_string)
    parse_string                             0x0800ff6d   Thumb Code   448  cjson.o(i.parse_string)
    i.parse_value                            0x08010138   Section        0  cjson.o(i.parse_value)
    parse_value                              0x08010139   Thumb Code   158  cjson.o(i.parse_value)
    i.pow                                    0x080101f4   Section        0  pow.o(i.pow)
    i.readChar                               0x08010bcc   Section        0  mqttpacket.o(i.readChar)
    i.readInt                                0x08010bda   Section        0  mqttpacket.o(i.readInt)
    i.readMQTTLenString                      0x08010bf4   Section        0  mqttpacket.o(i.readMQTTLenString)
    i.recv                                   0x08010c30   Section        0  socket.o(i.recv)
    i.recvfrom                               0x08010d64   Section        0  socket.o(i.recvfrom)
    i.reg_dhcp_cbfunc                        0x08010fcc   Section        0  dhcp.o(i.reg_dhcp_cbfunc)
    i.reg_wizchip_cris_cbfunc                0x0801100c   Section        0  wizchip_conf.o(i.reg_wizchip_cris_cbfunc)
    i.reg_wizchip_cs_cbfunc                  0x08011034   Section        0  wizchip_conf.o(i.reg_wizchip_cs_cbfunc)
    i.reg_wizchip_spi_cbfunc                 0x0801105c   Section        0  wizchip_conf.o(i.reg_wizchip_spi_cbfunc)
    i.reset_DHCP_timeout                     0x08011090   Section        0  dhcp.o(i.reset_DHCP_timeout)
    i.send                                   0x080110b0   Section        0  socket.o(i.send)
    i.send_DHCP_DECLINE                      0x08011230   Section        0  dhcp.o(i.send_DHCP_DECLINE)
    i.send_DHCP_DISCOVER                     0x08011430   Section        0  dhcp.o(i.send_DHCP_DISCOVER)
    i.send_DHCP_REQUEST                      0x080116a8   Section        0  dhcp.o(i.send_DHCP_REQUEST)
    i.sendto                                 0x08011a90   Section        0  socket.o(i.sendto)
    i.skip                                   0x08011c60   Section        0  cjson.o(i.skip)
    skip                                     0x08011c61   Thumb Code    18  cjson.o(i.skip)
    i.socket                                 0x08011c74   Section        0  socket.o(i.socket)
    i.sqrt                                   0x08011de4   Section        0  sqrt.o(i.sqrt)
    i.start_task                             0x08011e30   Section        0  main.o(i.start_task)
    i.systeam_ReStart                        0x08012060   Section        0  function.o(i.systeam_ReStart)
    i.transport_close                        0x0801209c   Section        0  transport.o(i.transport_close)
    i.transport_open                         0x080120c4   Section        0  transport.o(i.transport_open)
    i.transport_sendPacketBuffer             0x08012148   Section        0  transport.o(i.transport_sendPacketBuffer)
    i.uart_init                              0x0801215c   Section        0  usart.o(i.uart_init)
    i.wiz_recv_data                          0x08012228   Section        0  w5500.o(i.wiz_recv_data)
    i.wiz_recv_ignore                        0x080122ac   Section        0  w5500.o(i.wiz_recv_ignore)
    i.wiz_send_data                          0x08012312   Section        0  w5500.o(i.wiz_send_data)
    i.wizchip_bus_readbyte                   0x08012396   Section        0  wizchip_conf.o(i.wizchip_bus_readbyte)
    i.wizchip_bus_writebyte                  0x0801239c   Section        0  wizchip_conf.o(i.wizchip_bus_writebyte)
    i.wizchip_clrinterrupt                   0x080123a0   Section        0  wizchip_conf.o(i.wizchip_clrinterrupt)
    i.wizchip_cris_enter                     0x080123c0   Section        0  wizchip_conf.o(i.wizchip_cris_enter)
    i.wizchip_cris_exit                      0x080123c2   Section        0  wizchip_conf.o(i.wizchip_cris_exit)
    i.wizchip_cs_deselect                    0x080123c4   Section        0  wizchip_conf.o(i.wizchip_cs_deselect)
    i.wizchip_cs_select                      0x080123c6   Section        0  wizchip_conf.o(i.wizchip_cs_select)
    i.wizchip_getinterrupt                   0x080123c8   Section        0  wizchip_conf.o(i.wizchip_getinterrupt)
    i.wizchip_getinterruptmask               0x080123f2   Section        0  wizchip_conf.o(i.wizchip_getinterruptmask)
    i.wizchip_getnetinfo                     0x0801241c   Section        0  wizchip_conf.o(i.wizchip_getnetinfo)
    i.wizchip_getnetmode                     0x08012478   Section        0  wizchip_conf.o(i.wizchip_getnetmode)
    i.wizchip_gettimeout                     0x08012482   Section        0  wizchip_conf.o(i.wizchip_gettimeout)
    i.wizchip_init                           0x080124aa   Section        0  wizchip_conf.o(i.wizchip_init)
    i.wizchip_setinterruptmask               0x0801253a   Section        0  wizchip_conf.o(i.wizchip_setinterruptmask)
    i.wizchip_setnetinfo                     0x08012558   Section        0  wizchip_conf.o(i.wizchip_setnetinfo)
    i.wizchip_setnetmode                     0x080125b0   Section        0  wizchip_conf.o(i.wizchip_setnetmode)
    i.wizchip_settimeout                     0x080125d6   Section        0  wizchip_conf.o(i.wizchip_settimeout)
    i.wizchip_spi_readbyte                   0x080125fc   Section        0  wizchip_conf.o(i.wizchip_spi_readbyte)
    i.wizchip_spi_writebyte                  0x08012600   Section        0  wizchip_conf.o(i.wizchip_spi_writebyte)
    i.wizchip_sw_reset                       0x08012602   Section        0  wizchip_conf.o(i.wizchip_sw_reset)
    i.wizphy_getphyconf                      0x08012674   Section        0  wizchip_conf.o(i.wizphy_getphyconf)
    i.wizphy_getphylink                      0x080126ec   Section        0  wizchip_conf.o(i.wizphy_getphylink)
    i.wizphy_getphypmode                     0x08012706   Section        0  wizchip_conf.o(i.wizphy_getphypmode)
    i.wizphy_reset                           0x08012722   Section        0  wizchip_conf.o(i.wizphy_reset)
    i.wizphy_setphyconf                      0x08012756   Section        0  wizchip_conf.o(i.wizphy_setphyconf)
    i.wizphy_setphypmode                     0x080127ae   Section        0  wizchip_conf.o(i.wizphy_setphypmode)
    i.writeCString                           0x08012812   Section        0  mqttpacket.o(i.writeCString)
    i.writeChar                              0x0801283a   Section        0  mqttpacket.o(i.writeChar)
    i.writeInt                               0x08012846   Section        0  mqttpacket.o(i.writeInt)
    i.writeMQTTString                        0x08012876   Section        0  mqttpacket.o(i.writeMQTTString)
    locale$$code                             0x080128b4   Section       44  lc_ctype_c.o(locale$$code)
    x$fpl$dadd                               0x080128e0   Section      336  daddsub_clz.o(x$fpl$dadd)
    _dadd1                                   0x080128f1   Thumb Code     0  daddsub_clz.o(x$fpl$dadd)
    x$fpl$dcheck1                            0x08012a30   Section       16  dcheck1.o(x$fpl$dcheck1)
    x$fpl$dcmpinf                            0x08012a40   Section       24  dcmpi.o(x$fpl$dcmpinf)
    x$fpl$ddiv                               0x08012a58   Section      688  ddiv.o(x$fpl$ddiv)
    ddiv_entry                               0x08012a5f   Thumb Code     0  ddiv.o(x$fpl$ddiv)
    x$fpl$dfix                               0x08012d08   Section       94  dfix.o(x$fpl$dfix)
    x$fpl$dflt                               0x08012d66   Section       46  dflt_clz.o(x$fpl$dflt)
    x$fpl$dleqf                              0x08012d94   Section      120  dleqf.o(x$fpl$dleqf)
    x$fpl$dmul                               0x08012e0c   Section      340  dmul.o(x$fpl$dmul)
    x$fpl$dnaninf                            0x08012f60   Section      156  dnaninf.o(x$fpl$dnaninf)
    x$fpl$dretinf                            0x08012ffc   Section       12  dretinf.o(x$fpl$dretinf)
    x$fpl$drleqf                             0x08013008   Section      108  drleqf.o(x$fpl$drleqf)
    x$fpl$drsb                               0x08013074   Section       22  daddsub_clz.o(x$fpl$drsb)
    x$fpl$dsqrt                              0x0801308c   Section      460  dsqrt_noumaal.o(x$fpl$dsqrt)
    x$fpl$dsub                               0x08013258   Section      468  daddsub_clz.o(x$fpl$dsub)
    _dsub1                                   0x08013269   Thumb Code     0  daddsub_clz.o(x$fpl$dsub)
    x$fpl$retnan                             0x0801342c   Section      100  retnan.o(x$fpl$retnan)
    x$fpl$scalbn                             0x08013490   Section       92  scalbn.o(x$fpl$scalbn)
    x$fpl$trapveneer                         0x080134ec   Section       48  trapv.o(x$fpl$trapveneer)
    .constdata                               0x0801351c   Section       24  rtc.o(.constdata)
    x$fpl$usenofp                            0x0801351c   Section        0  usenofp.o(x$fpl$usenofp)
    .constdata                               0x08013534   Section        7  cjson.o(.constdata)
    firstByteMark                            0x08013534   Data           7  cjson.o(.constdata)
    .constdata                               0x0801353c   Section       16  function.o(.constdata)
    .constdata                               0x0801354c   Section      164  os_cfg_app.o(.constdata)
    .constdata                               0x080135f0   Section      364  os_dbg.o(.constdata)
    .constdata                               0x0801375c   Section       88  mqtt.o(.constdata)
    .constdata                               0x080137b4   Section       40  _printf_hex_int.o(.constdata)
    uc_hextab                                0x080137b4   Data          20  _printf_hex_int.o(.constdata)
    lc_hextab                                0x080137c8   Data          20  _printf_hex_int.o(.constdata)
    .constdata                               0x080137dc   Section       17  __printf_flags_wp.o(.constdata)
    maptable                                 0x080137dc   Data          17  __printf_flags_wp.o(.constdata)
    .constdata                               0x080137f0   Section      136  pow.o(.constdata)
    bp                                       0x080137f0   Data          16  pow.o(.constdata)
    dp_h                                     0x08013800   Data          16  pow.o(.constdata)
    dp_l                                     0x08013810   Data          16  pow.o(.constdata)
    L                                        0x08013820   Data          48  pow.o(.constdata)
    P                                        0x08013850   Data          40  pow.o(.constdata)
    .constdata                               0x08013878   Section        8  qnan.o(.constdata)
    .conststring                             0x08013880   Section      356  main.o(.conststring)
    locale$$data                             0x08013a04   Section      272  lc_ctype_c.o(locale$$data)
    __lcctype_c_name                         0x08013a08   Data           2  lc_ctype_c.o(locale$$data)
    __lcctype_c_start                        0x08013a10   Data           0  lc_ctype_c.o(locale$$data)
    __lcctype_c_end                          0x08013b14   Data           0  lc_ctype_c.o(locale$$data)
    .data                                    0x20000000   Section       16  main.o(.data)
    timePUB                                  0x2000000c   Data           4  main.o(.data)
    .data                                    0x20000010   Section       20  system_stm32f10x.o(.data)
    .data                                    0x20000024   Section        2  rtc.o(.data)
    daycnt                                   0x20000024   Data           2  rtc.o(.data)
    .data                                    0x20000026   Section        4  delay.o(.data)
    fac_us                                   0x20000026   Data           1  delay.o(.data)
    fac_ms                                   0x20000028   Data           2  delay.o(.data)
    .data                                    0x2000002c   Section        6  usart.o(.data)
    .data                                    0x20000034   Section       12  cjson.o(.data)
    ep                                       0x20000034   Data           4  cjson.o(.data)
    cJSON_malloc                             0x20000038   Data           4  cjson.o(.data)
    cJSON_free                               0x2000003c   Data           4  cjson.o(.data)
    .data                                    0x20000040   Section       37  wizchip_conf.o(.data)
    _DNS_                                    0x20000060   Data           4  wizchip_conf.o(.data)
    _DHCP_                                   0x20000064   Data           1  wizchip_conf.o(.data)
    .data                                    0x20000066   Section       14  socket.o(.data)
    sock_any_port                            0x20000066   Data           2  socket.o(.data)
    sock_io_mode                             0x20000068   Data           2  socket.o(.data)
    sock_is_sending                          0x2000006a   Data           2  socket.o(.data)
    sock_pack_info                           0x2000006c   Data           8  socket.o(.data)
    .data                                    0x20000074   Section       76  dhcp.o(.data)
    .data                                    0x200000c0   Section       16  function.o(.data)
    input_state                              0x200000c0   Data           8  function.o(.data)
    input_flag                               0x200000c8   Data           8  function.o(.data)
    .data                                    0x200000d0   Section       20  malloc.o(.data)
    .data                                    0x200000e4   Section       20  stm32f10x_rcc.o(.data)
    APBAHBPrescTable                         0x200000e4   Data          16  stm32f10x_rcc.o(.data)
    ADCPrescTable                            0x200000f4   Data           4  stm32f10x_rcc.o(.data)
    .data                                    0x200000f8   Section        4  cpu_core.o(.data)
    .data                                    0x200000fc   Section        8  os_prio.o(.data)
    .data                                    0x20000104   Section      200  os_var.o(.data)
    .data                                    0x200001cc   Section        4  os_cpu_c.o(.data)
    .data                                    0x200001d0   Section        4  transport.o(.data)
    .data                                    0x200001d4   Section        4  mqttpacket.o(.data)
    bufptr                                   0x200001d4   Data           4  mqttpacket.o(.data)
    .bss                                     0x200001d8   Section     8142  main.o(.bss)
    meassage                                 0x200020de   Data         100  main.o(.bss)
    meassagebuf                              0x20002142   Data         100  main.o(.bss)
    .bss                                     0x200021a6   Section       18  spi.o(.bss)
    .bss                                     0x200021b8   Section       20  rtc.o(.bss)
    .bss                                     0x200021cc   Section      200  usart.o(.bss)
    .bss                                     0x20002294   Section       16  socket.o(.bss)
    sock_remained_size                       0x20002294   Data          16  socket.o(.bss)
    .bss                                     0x200022a4   Section     2156  function.o(.bss)
    .bss                                     0x20002b10   Section     8704  malloc.o(.bss)
    .bss                                     0x20004d10   Section     2048  stmflash.o(.bss)
    .bss                                     0x20005510   Section       16  cpu_core.o(.bss)
    .bss                                     0x20005520   Section     5264  os_cfg_app.o(.bss)
    .bss                                     0x200069b0   Section     1760  os_var.o(.bss)
    .bss                                     0x20007090   Section     1600  mqtt.o(.bss)
    buf                                      0x20007090   Data         400  mqtt.o(.bss)
    rev_buf                                  0x20007220   Data        1200  mqtt.o(.bss)
    .bss                                     0x200076d0   Section       96  libspace.o(.bss)
    HEAP                                     0x20007730   Section      512  startup_stm32f10x_hd.o(HEAP)
    Heap_Mem                                 0x20007730   Data         512  startup_stm32f10x_hd.o(HEAP)
    STACK                                    0x20007930   Section    16384  startup_stm32f10x_hd.o(STACK)
    Stack_Mem                                0x20007930   Data       16384  startup_stm32f10x_hd.o(STACK)
    __initial_sp                             0x2000b930   Data           0  startup_stm32f10x_hd.o(STACK)

    Global Symbols

    Symbol Name                              Value     Ov Type        Size  Object(Section)

    BuildAttributes$$THM_ISAv4$P$D$K$B$S$PE$A:L22UL41UL21$X:L11$S22US41US21$IEEE1$IW$USESV6$~STKCKD$USESV7$~SHL$OTIME$ROPI$IEEEX$EBA8$UX$STANDARDLIB$REQ8$PRES8$EABIv2 0x00000000   Number         0  anon$$obj.o ABSOLUTE
    __ARM_use_no_argv                        0x00000000   Number         0  main.o ABSOLUTE
    _printf_flags                            0x00000000   Number         0  printf_stubs.o ABSOLUTE
    _printf_return_value                     0x00000000   Number         0  printf_stubs.o ABSOLUTE
    _printf_sizespec                         0x00000000   Number         0  printf_stubs.o ABSOLUTE
    _printf_widthprec                        0x00000000   Number         0  printf_stubs.o ABSOLUTE
    __ARM_exceptions_init                     - Undefined Weak Reference
    __alloca_initialize                       - Undefined Weak Reference
    __arm_preinit_                            - Undefined Weak Reference
    __cpp_initialize__aeabi_                  - Undefined Weak Reference
    __cxa_finalize                            - Undefined Weak Reference
    __sigvec_lookup                           - Undefined Weak Reference
    __user_heap_extent                        - Undefined Weak Reference
    _atexit_init                              - Undefined Weak Reference
    _call_atexit_fns                          - Undefined Weak Reference
    _clock_init                               - Undefined Weak Reference
    _fp_trap_init                             - Undefined Weak Reference
    _fp_trap_shutdown                         - Undefined Weak Reference
    _get_lc_collate                           - Undefined Weak Reference
    _get_lc_monetary                          - Undefined Weak Reference
    _get_lc_time                              - Undefined Weak Reference
    _getenv_init                              - Undefined Weak Reference
    _handle_redirection                       - Undefined Weak Reference
    _initio                                   - Undefined Weak Reference
    _mutex_acquire                            - Undefined Weak Reference
    _mutex_free                               - Undefined Weak Reference
    _mutex_release                            - Undefined Weak Reference
    _printf_mbtowc                            - Undefined Weak Reference
    _printf_truncate_signed                   - Undefined Weak Reference
    _printf_truncate_unsigned                 - Undefined Weak Reference
    _rand_init                                - Undefined Weak Reference
    _signal_finish                            - Undefined Weak Reference
    _signal_init                              - Undefined Weak Reference
    _terminateio                              - Undefined Weak Reference
    __Vectors_Size                           0x00000130   Number         0  startup_stm32f10x_hd.o ABSOLUTE
    __Vectors                                0x08006000   Data           4  startup_stm32f10x_hd.o(RESET)
    __Vectors_End                            0x08006130   Data           0  startup_stm32f10x_hd.o(RESET)
    __main                                   0x08006131   Thumb Code     8  __main.o(!!!main)
    __scatterload                            0x08006139   Thumb Code     0  __scatter.o(!!!scatter)
    __scatterload_rt2                        0x08006139   Thumb Code    44  __scatter.o(!!!scatter)
    __scatterload_rt2_thumb_only             0x08006139   Thumb Code     0  __scatter.o(!!!scatter)
    __scatterload_null                       0x08006147   Thumb Code     0  __scatter.o(!!!scatter)
    __decompress                             0x0800616d   Thumb Code    90  __dczerorl2.o(!!dczerorl2)
    __decompress1                            0x0800616d   Thumb Code     0  __dczerorl2.o(!!dczerorl2)
    __scatterload_zeroinit                   0x080061c9   Thumb Code    28  __scatter_zi.o(!!handler_zi)
    _printf_d                                0x080061e5   Thumb Code     0  _printf_d.o(.ARM.Collect$$_printf_percent$$00000009)
    _printf_percent                          0x080061e5   Thumb Code     0  _printf_percent.o(.ARM.Collect$$_printf_percent$$00000000)
    _printf_x                                0x080061eb   Thumb Code     0  _printf_x.o(.ARM.Collect$$_printf_percent$$0000000C)
    _printf_s                                0x080061f1   Thumb Code     0  _printf_s.o(.ARM.Collect$$_printf_percent$$00000014)
    _printf_percent_end                      0x080061f7   Thumb Code     0  _printf_percent_end.o(.ARM.Collect$$_printf_percent$$00000017)
    __rt_lib_init                            0x080061fb   Thumb Code     0  libinit.o(.ARM.Collect$$libinit$$00000000)
    __rt_lib_init_fp_1                       0x080061fd   Thumb Code     0  libinit2.o(.ARM.Collect$$libinit$$00000002)
    __rt_lib_init_heap_1                     0x080061fd   Thumb Code     0  libinit2.o(.ARM.Collect$$libinit$$0000000A)
    __rt_lib_init_lc_common                  0x080061fd   Thumb Code     0  libinit2.o(.ARM.Collect$$libinit$$0000000F)
    __rt_lib_init_preinit_1                  0x080061fd   Thumb Code     0  libinit2.o(.ARM.Collect$$libinit$$00000004)
    __rt_lib_init_rand_1                     0x080061fd   Thumb Code     0  libinit2.o(.ARM.Collect$$libinit$$0000000E)
    __rt_lib_init_user_alloc_1               0x080061fd   Thumb Code     0  libinit2.o(.ARM.Collect$$libinit$$0000000C)
    __rt_lib_init_lc_collate_1               0x08006203   Thumb Code     0  libinit2.o(.ARM.Collect$$libinit$$00000011)
    __rt_lib_init_lc_ctype_2                 0x08006203   Thumb Code     0  libinit2.o(.ARM.Collect$$libinit$$00000012)
    __rt_lib_init_alloca_1                   0x0800620f   Thumb Code     0  libinit2.o(.ARM.Collect$$libinit$$0000002E)
    __rt_lib_init_argv_1                     0x0800620f   Thumb Code     0  libinit2.o(.ARM.Collect$$libinit$$0000002C)
    __rt_lib_init_atexit_1                   0x0800620f   Thumb Code     0  libinit2.o(.ARM.Collect$$libinit$$0000001B)
    __rt_lib_init_clock_1                    0x0800620f   Thumb Code     0  libinit2.o(.ARM.Collect$$libinit$$00000021)
    __rt_lib_init_cpp_1                      0x0800620f   Thumb Code     0  libinit2.o(.ARM.Collect$$libinit$$00000032)
    __rt_lib_init_exceptions_1               0x0800620f   Thumb Code     0  libinit2.o(.ARM.Collect$$libinit$$00000030)
    __rt_lib_init_fp_trap_1                  0x0800620f   Thumb Code     0  libinit2.o(.ARM.Collect$$libinit$$0000001F)
    __rt_lib_init_getenv_1                   0x0800620f   Thumb Code     0  libinit2.o(.ARM.Collect$$libinit$$00000023)
    __rt_lib_init_lc_ctype_1                 0x0800620f   Thumb Code     0  libinit2.o(.ARM.Collect$$libinit$$00000013)
    __rt_lib_init_lc_monetary_1              0x0800620f   Thumb Code     0  libinit2.o(.ARM.Collect$$libinit$$00000015)
    __rt_lib_init_lc_numeric_1               0x0800620f   Thumb Code     0  libinit2.o(.ARM.Collect$$libinit$$00000017)
    __rt_lib_init_lc_time_1                  0x0800620f   Thumb Code     0  libinit2.o(.ARM.Collect$$libinit$$00000019)
    __rt_lib_init_return                     0x0800620f   Thumb Code     0  libinit2.o(.ARM.Collect$$libinit$$00000033)
    __rt_lib_init_signal_1                   0x0800620f   Thumb Code     0  libinit2.o(.ARM.Collect$$libinit$$0000001D)
    __rt_lib_init_stdio_1                    0x0800620f   Thumb Code     0  libinit2.o(.ARM.Collect$$libinit$$00000025)
    __rt_lib_shutdown                        0x08006211   Thumb Code     0  libshutdown.o(.ARM.Collect$$libshutdown$$00000000)
    __rt_lib_shutdown_cpp_1                  0x08006213   Thumb Code     0  libshutdown2.o(.ARM.Collect$$libshutdown$$00000002)
    __rt_lib_shutdown_fp_trap_1              0x08006213   Thumb Code     0  libshutdown2.o(.ARM.Collect$$libshutdown$$00000007)
    __rt_lib_shutdown_heap_1                 0x08006213   Thumb Code     0  libshutdown2.o(.ARM.Collect$$libshutdown$$0000000F)
    __rt_lib_shutdown_return                 0x08006213   Thumb Code     0  libshutdown2.o(.ARM.Collect$$libshutdown$$00000010)
    __rt_lib_shutdown_signal_1               0x08006213   Thumb Code     0  libshutdown2.o(.ARM.Collect$$libshutdown$$0000000A)
    __rt_lib_shutdown_stdio_1                0x08006213   Thumb Code     0  libshutdown2.o(.ARM.Collect$$libshutdown$$00000004)
    __rt_lib_shutdown_user_alloc_1           0x08006213   Thumb Code     0  libshutdown2.o(.ARM.Collect$$libshutdown$$0000000C)
    __rt_entry                               0x08006215   Thumb Code     0  __rtentry.o(.ARM.Collect$$rtentry$$00000000)
    __rt_entry_presh_1                       0x08006215   Thumb Code     0  __rtentry2.o(.ARM.Collect$$rtentry$$00000002)
    __rt_entry_sh                            0x08006215   Thumb Code     0  __rtentry4.o(.ARM.Collect$$rtentry$$00000004)
    __rt_entry_li                            0x0800621b   Thumb Code     0  __rtentry2.o(.ARM.Collect$$rtentry$$0000000A)
    __rt_entry_postsh_1                      0x0800621b   Thumb Code     0  __rtentry2.o(.ARM.Collect$$rtentry$$00000009)
    __rt_entry_main                          0x0800621f   Thumb Code     0  __rtentry2.o(.ARM.Collect$$rtentry$$0000000D)
    __rt_entry_postli_1                      0x0800621f   Thumb Code     0  __rtentry2.o(.ARM.Collect$$rtentry$$0000000C)
    __rt_exit                                0x08006227   Thumb Code     0  rtexit.o(.ARM.Collect$$rtexit$$00000000)
    __rt_exit_ls                             0x08006229   Thumb Code     0  rtexit2.o(.ARM.Collect$$rtexit$$00000003)
    __rt_exit_prels_1                        0x08006229   Thumb Code     0  rtexit2.o(.ARM.Collect$$rtexit$$00000002)
    __rt_exit_exit                           0x0800622d   Thumb Code     0  rtexit2.o(.ARM.Collect$$rtexit$$00000004)
    Reset_Handler                            0x08006235   Thumb Code     8  startup_stm32f10x_hd.o(.text)
    ADC1_2_IRQHandler                        0x0800624f   Thumb Code     0  startup_stm32f10x_hd.o(.text)
    ADC3_IRQHandler                          0x0800624f   Thumb Code     0  startup_stm32f10x_hd.o(.text)
    CAN1_RX1_IRQHandler                      0x0800624f   Thumb Code     0  startup_stm32f10x_hd.o(.text)
    CAN1_SCE_IRQHandler                      0x0800624f   Thumb Code     0  startup_stm32f10x_hd.o(.text)
    DMA1_Channel1_IRQHandler                 0x0800624f   Thumb Code     0  startup_stm32f10x_hd.o(.text)
    DMA1_Channel2_IRQHandler                 0x0800624f   Thumb Code     0  startup_stm32f10x_hd.o(.text)
    DMA1_Channel3_IRQHandler                 0x0800624f   Thumb Code     0  startup_stm32f10x_hd.o(.text)
    DMA1_Channel4_IRQHandler                 0x0800624f   Thumb Code     0  startup_stm32f10x_hd.o(.text)
    DMA1_Channel5_IRQHandler                 0x0800624f   Thumb Code     0  startup_stm32f10x_hd.o(.text)
    DMA1_Channel6_IRQHandler                 0x0800624f   Thumb Code     0  startup_stm32f10x_hd.o(.text)
    DMA1_Channel7_IRQHandler                 0x0800624f   Thumb Code     0  startup_stm32f10x_hd.o(.text)
    DMA2_Channel1_IRQHandler                 0x0800624f   Thumb Code     0  startup_stm32f10x_hd.o(.text)
    DMA2_Channel2_IRQHandler                 0x0800624f   Thumb Code     0  startup_stm32f10x_hd.o(.text)
    DMA2_Channel3_IRQHandler                 0x0800624f   Thumb Code     0  startup_stm32f10x_hd.o(.text)
    DMA2_Channel4_5_IRQHandler               0x0800624f   Thumb Code     0  startup_stm32f10x_hd.o(.text)
    EXTI0_IRQHandler                         0x0800624f   Thumb Code     0  startup_stm32f10x_hd.o(.text)
    EXTI15_10_IRQHandler                     0x0800624f   Thumb Code     0  startup_stm32f10x_hd.o(.text)
    EXTI1_IRQHandler                         0x0800624f   Thumb Code     0  startup_stm32f10x_hd.o(.text)
    EXTI2_IRQHandler                         0x0800624f   Thumb Code     0  startup_stm32f10x_hd.o(.text)
    EXTI3_IRQHandler                         0x0800624f   Thumb Code     0  startup_stm32f10x_hd.o(.text)
    EXTI4_IRQHandler                         0x0800624f   Thumb Code     0  startup_stm32f10x_hd.o(.text)
    EXTI9_5_IRQHandler                       0x0800624f   Thumb Code     0  startup_stm32f10x_hd.o(.text)
    FLASH_IRQHandler                         0x0800624f   Thumb Code     0  startup_stm32f10x_hd.o(.text)
    FSMC_IRQHandler                          0x0800624f   Thumb Code     0  startup_stm32f10x_hd.o(.text)
    I2C1_ER_IRQHandler                       0x0800624f   Thumb Code     0  startup_stm32f10x_hd.o(.text)
    I2C1_EV_IRQHandler                       0x0800624f   Thumb Code     0  startup_stm32f10x_hd.o(.text)
    I2C2_ER_IRQHandler                       0x0800624f   Thumb Code     0  startup_stm32f10x_hd.o(.text)
    I2C2_EV_IRQHandler                       0x0800624f   Thumb Code     0  startup_stm32f10x_hd.o(.text)
    PVD_IRQHandler                           0x0800624f   Thumb Code     0  startup_stm32f10x_hd.o(.text)
    RCC_IRQHandler                           0x0800624f   Thumb Code     0  startup_stm32f10x_hd.o(.text)
    RTCAlarm_IRQHandler                      0x0800624f   Thumb Code     0  startup_stm32f10x_hd.o(.text)
    SDIO_IRQHandler                          0x0800624f   Thumb Code     0  startup_stm32f10x_hd.o(.text)
    SPI1_IRQHandler                          0x0800624f   Thumb Code     0  startup_stm32f10x_hd.o(.text)
    SPI2_IRQHandler                          0x0800624f   Thumb Code     0  startup_stm32f10x_hd.o(.text)
    SPI3_IRQHandler                          0x0800624f   Thumb Code     0  startup_stm32f10x_hd.o(.text)
    TAMPER_IRQHandler                        0x0800624f   Thumb Code     0  startup_stm32f10x_hd.o(.text)
    TIM1_BRK_IRQHandler                      0x0800624f   Thumb Code     0  startup_stm32f10x_hd.o(.text)
    TIM1_CC_IRQHandler                       0x0800624f   Thumb Code     0  startup_stm32f10x_hd.o(.text)
    TIM1_TRG_COM_IRQHandler                  0x0800624f   Thumb Code     0  startup_stm32f10x_hd.o(.text)
    TIM1_UP_IRQHandler                       0x0800624f   Thumb Code     0  startup_stm32f10x_hd.o(.text)
    TIM2_IRQHandler                          0x0800624f   Thumb Code     0  startup_stm32f10x_hd.o(.text)
    TIM3_IRQHandler                          0x0800624f   Thumb Code     0  startup_stm32f10x_hd.o(.text)
    TIM4_IRQHandler                          0x0800624f   Thumb Code     0  startup_stm32f10x_hd.o(.text)
    TIM5_IRQHandler                          0x0800624f   Thumb Code     0  startup_stm32f10x_hd.o(.text)
    TIM6_IRQHandler                          0x0800624f   Thumb Code     0  startup_stm32f10x_hd.o(.text)
    TIM7_IRQHandler                          0x0800624f   Thumb Code     0  startup_stm32f10x_hd.o(.text)
    TIM8_BRK_IRQHandler                      0x0800624f   Thumb Code     0  startup_stm32f10x_hd.o(.text)
    TIM8_CC_IRQHandler                       0x0800624f   Thumb Code     0  startup_stm32f10x_hd.o(.text)
    TIM8_TRG_COM_IRQHandler                  0x0800624f   Thumb Code     0  startup_stm32f10x_hd.o(.text)
    TIM8_UP_IRQHandler                       0x0800624f   Thumb Code     0  startup_stm32f10x_hd.o(.text)
    UART4_IRQHandler                         0x0800624f   Thumb Code     0  startup_stm32f10x_hd.o(.text)
    UART5_IRQHandler                         0x0800624f   Thumb Code     0  startup_stm32f10x_hd.o(.text)
    USART2_IRQHandler                        0x0800624f   Thumb Code     0  startup_stm32f10x_hd.o(.text)
    USART3_IRQHandler                        0x0800624f   Thumb Code     0  startup_stm32f10x_hd.o(.text)
    USBWakeUp_IRQHandler                     0x0800624f   Thumb Code     0  startup_stm32f10x_hd.o(.text)
    USB_HP_CAN1_TX_IRQHandler                0x0800624f   Thumb Code     0  startup_stm32f10x_hd.o(.text)
    USB_LP_CAN1_RX0_IRQHandler               0x0800624f   Thumb Code     0  startup_stm32f10x_hd.o(.text)
    WWDG_IRQHandler                          0x0800624f   Thumb Code     0  startup_stm32f10x_hd.o(.text)
    __user_initial_stackheap                 0x08006251   Thumb Code     0  startup_stm32f10x_hd.o(.text)
    CPU_IntDis                               0x08006275   Thumb Code     0  cpu_a.o(.text)
    CPU_IntEn                                0x08006279   Thumb Code     0  cpu_a.o(.text)
    CPU_SR_Save                              0x0800627d   Thumb Code     0  cpu_a.o(.text)
    CPU_SR_Restore                           0x08006285   Thumb Code     0  cpu_a.o(.text)
    CPU_WaitForInt                           0x0800628b   Thumb Code     0  cpu_a.o(.text)
    CPU_WaitForExcept                        0x0800628f   Thumb Code     0  cpu_a.o(.text)
    CPU_CntLeadZeros                         0x08006293   Thumb Code     0  cpu_a.o(.text)
    CPU_CntTrailZeros                        0x08006299   Thumb Code     0  cpu_a.o(.text)
    CPU_RevBits                              0x080062a3   Thumb Code     0  cpu_a.o(.text)
    __use_no_semihosting                     0x080062a9   Thumb Code     2  use_no_semi_2.o(.text)
    tolower                                  0x080062ab   Thumb Code    26  tolower.o(.text)
    __2printf                                0x080062c5   Thumb Code    20  __2printf.o(.text)
    __2sprintf                               0x080062dd   Thumb Code    38  __2sprintf.o(.text)
    _printf_pre_padding                      0x08006309   Thumb Code    44  _printf_pad.o(.text)
    _printf_post_padding                     0x08006335   Thumb Code    34  _printf_pad.o(.text)
    _printf_str                              0x08006357   Thumb Code    82  _printf_str.o(.text)
    _printf_int_dec                          0x080063a9   Thumb Code   104  _printf_dec.o(.text)
    _printf_int_hex                          0x08006421   Thumb Code    84  _printf_hex_int.o(.text)
    _printf_longlong_hex                     0x08006421   Thumb Code     0  _printf_hex_int.o(.text)
    __printf                                 0x08006479   Thumb Code   308  __printf_flags_wp.o(.text)
    strstr                                   0x080065b1   Thumb Code    36  strstr.o(.text)
    strlen                                   0x080065d5   Thumb Code    62  strlen.o(.text)
    strncmp                                  0x08006613   Thumb Code   150  strncmp.o(.text)
    __aeabi_memcpy                           0x080066a9   Thumb Code     0  rt_memcpy_v6.o(.text)
    __rt_memcpy                              0x080066a9   Thumb Code   138  rt_memcpy_v6.o(.text)
    _memcpy_lastbytes                        0x0800670f   Thumb Code     0  rt_memcpy_v6.o(.text)
    __aeabi_memcpy4                          0x08006733   Thumb Code     0  rt_memcpy_w.o(.text)
    __aeabi_memcpy8                          0x08006733   Thumb Code     0  rt_memcpy_w.o(.text)
    __rt_memcpy_w                            0x08006733   Thumb Code   100  rt_memcpy_w.o(.text)
    _memcpy_lastbytes_aligned                0x0800677b   Thumb Code     0  rt_memcpy_w.o(.text)
    __aeabi_memclr                           0x08006797   Thumb Code     0  rt_memclr.o(.text)
    __rt_memclr                              0x08006797   Thumb Code    68  rt_memclr.o(.text)
    _memset                                  0x0800679b   Thumb Code     0  rt_memclr.o(.text)
    __aeabi_memclr4                          0x080067db   Thumb Code     0  rt_memclr_w.o(.text)
    __aeabi_memclr8                          0x080067db   Thumb Code     0  rt_memclr_w.o(.text)
    __rt_memclr_w                            0x080067db   Thumb Code    78  rt_memclr_w.o(.text)
    _memset_w                                0x080067df   Thumb Code     0  rt_memclr_w.o(.text)
    __use_two_region_memory                  0x08006829   Thumb Code     2  heapauxi.o(.text)
    __rt_heap_escrow                         0x0800682b   Thumb Code     2  heapauxi.o(.text)
    __rt_heap_expand                         0x0800682d   Thumb Code     2  heapauxi.o(.text)
    __I$use$semihosting                      0x0800682f   Thumb Code     0  use_no_semi.o(.text)
    __use_no_semihosting_swi                 0x0800682f   Thumb Code     2  use_no_semi.o(.text)
    __rt_ctype_table                         0x08006831   Thumb Code    16  rt_ctype_table.o(.text)
    __read_errno                             0x08006841   Thumb Code    10  _rserrno.o(.text)
    __set_errno                              0x0800684b   Thumb Code    12  _rserrno.o(.text)
    _printf_int_common                       0x08006857   Thumb Code   178  _printf_intcommon.o(.text)
    _printf_char_common                      0x08006913   Thumb Code    32  _printf_char_common.o(.text)
    _sputc                                   0x08006939   Thumb Code    10  _sputc.o(.text)
    _printf_cs_common                        0x08006943   Thumb Code    20  _printf_char.o(.text)
    _printf_char                             0x08006957   Thumb Code    16  _printf_char.o(.text)
    _printf_string                           0x08006967   Thumb Code     8  _printf_char.o(.text)
    _printf_char_file                        0x08006971   Thumb Code    32  _printf_char_file.o(.text)
    __user_libspace                          0x08006995   Thumb Code     8  libspace.o(.text)
    __user_perproc_libspace                  0x08006995   Thumb Code     0  libspace.o(.text)
    __user_perthread_libspace                0x08006995   Thumb Code     0  libspace.o(.text)
    __rt_locale                              0x0800699d   Thumb Code     8  rt_locale_intlibspace.o(.text)
    __aeabi_errno_addr                       0x080069a5   Thumb Code     8  rt_errno_addr_intlibspace.o(.text)
    __errno$intlibspace                      0x080069a5   Thumb Code     0  rt_errno_addr_intlibspace.o(.text)
    __rt_errno_addr$intlibspace              0x080069a5   Thumb Code     0  rt_errno_addr_intlibspace.o(.text)
    ferror                                   0x080069ad   Thumb Code     8  ferror.o(.text)
    __user_setup_stackheap                   0x080069b5   Thumb Code    74  sys_stackheap_outer.o(.text)
    exit                                     0x080069ff   Thumb Code    18  exit.o(.text)
    strcmp                                   0x08006a11   Thumb Code   128  strcmpv7m.o(.text)
    OSStartHighRdy                           0x08006a91   Thumb Code     0  os_cpu_a.o(CODE)
    PendSV_Handler                           0x08006ac7   Thumb Code     0  os_cpu_a.o(CODE)
    BKP_DeInit                               0x08006b29   Thumb Code    16  stm32f10x_bkp.o(i.BKP_DeInit)
    BKP_ReadBackupRegister                   0x08006b39   Thumb Code    24  stm32f10x_bkp.o(i.BKP_ReadBackupRegister)
    BKP_WriteBackupRegister                  0x08006b55   Thumb Code    22  stm32f10x_bkp.o(i.BKP_WriteBackupRegister)
    BSP_CPU_ClkFreq                          0x08006b71   Thumb Code    16  bsp.o(i.BSP_CPU_ClkFreq)
    BusFault_Handler                         0x08006b81   Thumb Code     4  stm32f10x_it.o(i.BusFault_Handler)
    CPU_Init                                 0x08006b85   Thumb Code    12  cpu_core.o(i.CPU_Init)
    CPU_NameClr                              0x08006b91   Thumb Code    42  cpu_core.o(i.CPU_NameClr)
    CPU_TS_TmrFreqSet                        0x08006bdd   Thumb Code     6  cpu_core.o(i.CPU_TS_TmrFreqSet)
    CPU_TS_TmrInit                           0x08006be9   Thumb Code    44  bsp.o(i.CPU_TS_TmrInit)
    CPU_TS_TmrRd                             0x08006c1d   Thumb Code     6  bsp.o(i.CPU_TS_TmrRd)
    Control_Beep                             0x08006c29   Thumb Code    60  function.o(i.Control_Beep)
    Control_Relay                            0x08006c6d   Thumb Code    82  function.o(i.Control_Relay)
    Control_task                             0x08006cc9   Thumb Code   136  main.o(i.Control_task)
    DHCP_SET                                 0x08006d5d   Thumb Code   266  function.o(i.DHCP_SET)
    DHCP_init                                0x08006f2d   Thumb Code   138  dhcp.o(i.DHCP_init)
    DHCP_run                                 0x08006fd1   Thumb Code   424  dhcp.o(i.DHCP_run)
    DebugMon_Handler                         0x080071a9   Thumb Code     2  stm32f10x_it.o(i.DebugMon_Handler)
    FLASH_ClearFlag                          0x080071ad   Thumb Code     6  stm32f10x_flash.o(i.FLASH_ClearFlag)
    FLASH_ErasePage                          0x080071b9   Thumb Code    72  stm32f10x_flash.o(i.FLASH_ErasePage)
    FLASH_GetBank1Status                     0x08007205   Thumb Code    48  stm32f10x_flash.o(i.FLASH_GetBank1Status)
    FLASH_Lock                               0x08007239   Thumb Code    14  stm32f10x_flash.o(i.FLASH_Lock)
    FLASH_ProgramHalfWord                    0x0800724d   Thumb Code    60  stm32f10x_flash.o(i.FLASH_ProgramHalfWord)
    FLASH_Unlock                             0x0800728d   Thumb Code    12  stm32f10x_flash.o(i.FLASH_Unlock)
    FLASH_WaitForLastOperation               0x080072a5   Thumb Code    38  stm32f10x_flash.o(i.FLASH_WaitForLastOperation)
    Find_active                              0x080072cd   Thumb Code   428  function.o(i.Find_active)
    GPIO_Init                                0x08007485   Thumb Code   278  stm32f10x_gpio.o(i.GPIO_Init)
    GPIO_PinRemapConfig                      0x0800759d   Thumb Code   138  stm32f10x_gpio.o(i.GPIO_PinRemapConfig)
    GPIO_ReadOutputDataBit                   0x0800762d   Thumb Code    18  stm32f10x_gpio.o(i.GPIO_ReadOutputDataBit)
    GPIO_ResetBits                           0x0800763f   Thumb Code     4  stm32f10x_gpio.o(i.GPIO_ResetBits)
    GPIO_SetBits                             0x08007643   Thumb Code     4  stm32f10x_gpio.o(i.GPIO_SetBits)
    Get_RelayState                           0x08007649   Thumb Code   116  function.o(i.Get_RelayState)
    HardFault_Handler                        0x080076c5   Thumb Code     4  stm32f10x_it.o(i.HardFault_Handler)
    IAP_IRQ_Remap_Init                       0x080076c9   Thumb Code    10  function.o(i.IAP_IRQ_Remap_Init)
    INPUT_active                             0x080076d9   Thumb Code   294  function.o(i.INPUT_active)
    INTX_DISABLE                             0x0800781d   Thumb Code     4  sys.o(i.INTX_DISABLE)
    Is_Leap_Year                             0x08007821   Thumb Code    58  rtc.o(i.Is_Leap_Year)
    LED_Init                                 0x0800785d   Thumb Code   214  led.o(i.LED_Init)
    MQTTDeserialize_connack                  0x08007949   Thumb Code   118  mqttconnectclient.o(i.MQTTDeserialize_connack)
    MQTTDeserialize_publish                  0x080079bf   Thumb Code   168  mqttdeserializepublish.o(i.MQTTDeserialize_publish)
    MQTTDeserialize_suback                   0x08007a67   Thumb Code   146  mqttsubscribeclient.o(i.MQTTDeserialize_suback)
    MQTTPacket_decode                        0x08007af9   Thumb Code    88  mqttpacket.o(i.MQTTPacket_decode)
    MQTTPacket_decodeBuf                     0x08007b51   Thumb Code    20  mqttpacket.o(i.MQTTPacket_decodeBuf)
    MQTTPacket_encode                        0x08007b6d   Thumb Code    54  mqttpacket.o(i.MQTTPacket_encode)
    MQTTPacket_len                           0x08007ba5   Thumb Code    34  mqttpacket.o(i.MQTTPacket_len)
    MQTTPacket_read                          0x08007bcd   Thumb Code   102  mqttpacket.o(i.MQTTPacket_read)
    MQTTSerialize_connect                    0x08007c35   Thumb Code   342  mqttconnectclient.o(i.MQTTSerialize_connect)
    MQTTSerialize_connectLength              0x08007d9d   Thumb Code   118  mqttconnectclient.o(i.MQTTSerialize_connectLength)
    MQTTSerialize_pingreq                    0x08007e13   Thumb Code    18  mqttconnectclient.o(i.MQTTSerialize_pingreq)
    MQTTSerialize_publish                    0x08007e25   Thumb Code   176  mqttserializepublish.o(i.MQTTSerialize_publish)
    MQTTSerialize_publishLength              0x08007ed5   Thumb Code    34  mqttserializepublish.o(i.MQTTSerialize_publishLength)
    MQTTSerialize_subscribe                  0x08007ef7   Thumb Code   176  mqttsubscribeclient.o(i.MQTTSerialize_subscribe)
    MQTTSerialize_subscribeLength            0x08007fa7   Thumb Code    46  mqttsubscribeclient.o(i.MQTTSerialize_subscribeLength)
    MQTTSerialize_zero                       0x08007fd5   Thumb Code    76  mqttconnectclient.o(i.MQTTSerialize_zero)
    MQTT_task                                0x08008021   Thumb Code   596  main.o(i.MQTT_task)
    MQTTstrlen                               0x08008449   Thumb Code    24  mqttpacket.o(i.MQTTstrlen)
    MemManage_Handler                        0x08008461   Thumb Code     4  stm32f10x_it.o(i.MemManage_Handler)
    Mem_Clr                                  0x08008465   Thumb Code    18  lib_mem.o(i.Mem_Clr)
    Mem_Set                                  0x08008477   Thumb Code    84  lib_mem.o(i.Mem_Set)
    NMI_Handler                              0x080084cb   Thumb Code     2  stm32f10x_it.o(i.NMI_Handler)
    NVIC_Init                                0x080084cd   Thumb Code   100  misc.o(i.NVIC_Init)
    NVIC_PriorityGroupConfig                 0x0800853d   Thumb Code    10  misc.o(i.NVIC_PriorityGroupConfig)
    NibbleToHex                              0x08008551   Thumb Code    26  dhcp.o(i.NibbleToHex)
    OSCfg_Init                               0x0800856d   Thumb Code    86  os_cfg_app.o(i.OSCfg_Init)
    OSIdleTaskHook                           0x08008669   Thumb Code    16  os_cpu_c.o(i.OSIdleTaskHook)
    OSInit                                   0x0800867d   Thumb Code   300  os_core.o(i.OSInit)
    OSInitHook                               0x08008809   Thumb Code    42  os_cpu_c.o(i.OSInitHook)
    OSIntEnter                               0x08008841   Thumb Code    34  os_core.o(i.OSIntEnter)
    OSIntExit                                0x0800886d   Thumb Code   192  os_core.o(i.OSIntExit)
    OSSched                                  0x08008951   Thumb Code   134  os_core.o(i.OSSched)
    OSSchedLock                              0x080089f9   Thumb Code   104  os_core.o(i.OSSchedLock)
    OSSchedRoundRobinCfg                     0x08008a6d   Thumb Code    88  os_core.o(i.OSSchedRoundRobinCfg)
    OSSchedUnlock                            0x08008ad1   Thumb Code   136  os_core.o(i.OSSchedUnlock)
    OSStart                                  0x08008b65   Thumb Code    78  os_core.o(i.OSStart)
    OSStatReset                              0x08008bcd   Thumb Code   270  os_stat.o(i.OSStatReset)
    OSStatTaskCPUUsageInit                   0x08008d05   Thumb Code   212  os_stat.o(i.OSStatTaskCPUUsageInit)
    OSStatTaskHook                           0x08008df5   Thumb Code    16  os_cpu_c.o(i.OSStatTaskHook)
    OSTaskCreate                             0x08008e09   Thumb Code   566  os_task.o(i.OSTaskCreate)
    OSTaskCreateHook                         0x08009065   Thumb Code    20  os_cpu_c.o(i.OSTaskCreateHook)
    OSTaskDel                                0x0800907d   Thumb Code   424  os_task.o(i.OSTaskDel)
    OSTaskDelHook                            0x08009241   Thumb Code    20  os_cpu_c.o(i.OSTaskDelHook)
    OSTaskResume                             0x08009259   Thumb Code   112  os_task.o(i.OSTaskResume)
    OSTaskReturnHook                         0x080092d5   Thumb Code    20  os_cpu_c.o(i.OSTaskReturnHook)
    OSTaskSemPend                            0x080092ed   Thumb Code   520  os_task.o(i.OSTaskSemPend)
    OSTaskStkChk                             0x08009501   Thumb Code   204  os_task.o(i.OSTaskStkChk)
    OSTaskStkInit                            0x080095d5   Thumb Code   188  os_cpu_c.o(i.OSTaskStkInit)
    OSTaskSuspend                            0x08009695   Thumb Code    78  os_task.o(i.OSTaskSuspend)
    OSTaskSwHook                             0x080096f5   Thumb Code   120  os_cpu_c.o(i.OSTaskSwHook)
    OSTimeDly                                0x0800977d   Thumb Code   266  os_time.o(i.OSTimeDly)
    OSTimeDlyHMSM                            0x08009895   Thumb Code   480  os_time.o(i.OSTimeDlyHMSM)
    OSTimeTick                               0x08009a85   Thumb Code    54  os_time.o(i.OSTimeTick)
    OSTimeTickHook                           0x08009ac9   Thumb Code    16  os_cpu_c.o(i.OSTimeTickHook)
    OS_Dbg_Init                              0x08009add   Thumb Code   146  os_dbg.o(i.OS_Dbg_Init)
    OS_FlagInit                              0x08009c8d   Thumb Code    14  os_flag.o(i.OS_FlagInit)
    OS_FlagPost                              0x08009ca5   Thumb Code   552  os_flag.o(i.OS_FlagPost)
    OS_FlagTaskRdy                           0x08009ed5   Thumb Code    86  os_flag.o(i.OS_FlagTaskRdy)
    OS_IdleTask                              0x08009f2d   Thumb Code    60  os_core.o(i.OS_IdleTask)
    OS_IdleTaskInit                          0x08009f71   Thumb Code    66  os_core.o(i.OS_IdleTaskInit)
    OS_IntQPost                              0x08009fe1   Thumb Code   216  os_int.o(i.OS_IntQPost)
    OS_IntQRePost                            0x0800a0dd   Thumb Code   360  os_int.o(i.OS_IntQRePost)
    OS_IntQTask                              0x0800a281   Thumb Code   162  os_int.o(i.OS_IntQTask)
    OS_IntQTaskInit                          0x0800a335   Thumb Code   206  os_int.o(i.OS_IntQTaskInit)
    OS_MemInit                               0x0800a45d   Thumb Code    14  os_mem.o(i.OS_MemInit)
    OS_MsgPoolCreate                         0x0800a475   Thumb Code    54  os_msg.o(i.OS_MsgPoolCreate)
    OS_MsgPoolInit                           0x0800a4ad   Thumb Code    70  os_msg.o(i.OS_MsgPoolInit)
    OS_MsgQFreeAll                           0x0800a501   Thumb Code    62  os_msg.o(i.OS_MsgQFreeAll)
    OS_MsgQInit                              0x0800a545   Thumb Code    14  os_msg.o(i.OS_MsgQInit)
    OS_MsgQPut                               0x0800a555   Thumb Code   246  os_msg.o(i.OS_MsgQPut)
    OS_MutexInit                             0x0800a651   Thumb Code    14  os_mutex.o(i.OS_MutexInit)
    OS_Pend                                  0x0800a669   Thumb Code    98  os_core.o(i.OS_Pend)
    OS_PendDataInit                          0x0800a6d1   Thumb Code    38  os_core.o(i.OS_PendDataInit)
    OS_PendDbgNameAdd                        0x0800a6f9   Thumb Code    66  os_core.o(i.OS_PendDbgNameAdd)
    OS_PendDbgNameRemove                     0x0800a755   Thumb Code    30  os_core.o(i.OS_PendDbgNameRemove)
    OS_PendListInsertPrio                    0x0800a779   Thumb Code   102  os_core.o(i.OS_PendListInsertPrio)
    OS_PendListRemove                        0x0800a7df   Thumb Code    48  os_core.o(i.OS_PendListRemove)
    OS_PendListRemove1                       0x0800a80f   Thumb Code    66  os_core.o(i.OS_PendListRemove1)
    OS_Post                                  0x0800a851   Thumb Code   192  os_core.o(i.OS_Post)
    OS_Post1                                 0x0800a911   Thumb Code    42  os_core.o(i.OS_Post1)
    OS_PrioGetHighest                        0x0800a93d   Thumb Code    36  os_prio.o(i.OS_PrioGetHighest)
    OS_PrioInit                              0x0800a965   Thumb Code    20  os_prio.o(i.OS_PrioInit)
    OS_PrioInsert                            0x0800a97d   Thumb Code    32  os_prio.o(i.OS_PrioInsert)
    OS_PrioRemove                            0x0800a9a1   Thumb Code    32  os_prio.o(i.OS_PrioRemove)
    OS_QInit                                 0x0800a9c5   Thumb Code    14  os_q.o(i.OS_QInit)
    OS_QPost                                 0x0800a9dd   Thumb Code   324  os_q.o(i.OS_QPost)
    OS_RdyListInit                           0x0800ab29   Thumb Code    32  os_core.o(i.OS_RdyListInit)
    OS_RdyListInsert                         0x0800ab4d   Thumb Code    40  os_core.o(i.OS_RdyListInsert)
    OS_RdyListInsertHead                     0x0800ab79   Thumb Code    58  os_core.o(i.OS_RdyListInsertHead)
    OS_RdyListInsertTail                     0x0800abb9   Thumb Code    56  os_core.o(i.OS_RdyListInsertTail)
    OS_RdyListMoveHeadToTail                 0x0800abf5   Thumb Code    68  os_core.o(i.OS_RdyListMoveHeadToTail)
    OS_RdyListRemove                         0x0800ac39   Thumb Code    86  os_core.o(i.OS_RdyListRemove)
    OS_Sched0                                0x0800ac95   Thumb Code    72  os_core.o(i.OS_Sched0)
    OS_SchedLockTimeMeasStart                0x0800acf1   Thumb Code    20  os_core.o(i.OS_SchedLockTimeMeasStart)
    OS_SchedLockTimeMeasStop                 0x0800ad0d   Thumb Code    44  os_core.o(i.OS_SchedLockTimeMeasStop)
    OS_SchedRoundRobin                       0x0800ad49   Thumb Code   190  os_core.o(i.OS_SchedRoundRobin)
    OS_SemInit                               0x0800ae19   Thumb Code    14  os_sem.o(i.OS_SemInit)
    OS_SemPost                               0x0800ae31   Thumb Code   350  os_sem.o(i.OS_SemPost)
    OS_StatTask                              0x0800af95   Thumb Code   790  os_stat.o(i.OS_StatTask)
    OS_StatTaskInit                          0x0800b2f1   Thumb Code   136  os_stat.o(i.OS_StatTaskInit)
    OS_TaskBlock                             0x0800b3bd   Thumb Code    56  os_core.o(i.OS_TaskBlock)
    OS_TaskDbgListAdd                        0x0800b3f5   Thumb Code    42  os_task.o(i.OS_TaskDbgListAdd)
    OS_TaskDbgListRemove                     0x0800b425   Thumb Code    64  os_task.o(i.OS_TaskDbgListRemove)
    OS_TaskInit                              0x0800b469   Thumb Code    18  os_task.o(i.OS_TaskInit)
    OS_TaskInitTCB                           0x0800b489   Thumb Code   186  os_task.o(i.OS_TaskInitTCB)
    OS_TaskQPost                             0x0800b551   Thumb Code   510  os_task.o(i.OS_TaskQPost)
    OS_TaskRdy                               0x0800b75d   Thumb Code    28  os_core.o(i.OS_TaskRdy)
    OS_TaskResume                            0x0800b779   Thumb Code   314  os_task.o(i.OS_TaskResume)
    OS_TaskReturn                            0x0800b8b9   Thumb Code    20  os_task.o(i.OS_TaskReturn)
    OS_TaskSemPost                           0x0800b8d1   Thumb Code  1210  os_task.o(i.OS_TaskSemPost)
    OS_TaskSuspend                           0x0800bd95   Thumb Code   328  os_task.o(i.OS_TaskSuspend)
    OS_TickListInit                          0x0800bee5   Thumb Code    32  os_tick.o(i.OS_TickListInit)
    OS_TickListInsert                        0x0800bf0d   Thumb Code   430  os_tick.o(i.OS_TickListInsert)
    OS_TickListRemove                        0x0800c0c9   Thumb Code    56  os_tick.o(i.OS_TickListRemove)
    OS_TickListResetPeak                     0x0800c101   Thumb Code    28  os_tick.o(i.OS_TickListResetPeak)
    OS_TickListUpdate                        0x0800c125   Thumb Code   480  os_tick.o(i.OS_TickListUpdate)
    OS_TickTask                              0x0800c31d   Thumb Code    38  os_tick.o(i.OS_TickTask)
    OS_TickTaskInit                          0x0800c349   Thumb Code   128  os_tick.o(i.OS_TickTaskInit)
    OS_TmrInit                               0x0800c401   Thumb Code   206  os_tmr.o(i.OS_TmrInit)
    OS_TmrLink                               0x0800c529   Thumb Code   196  os_tmr.o(i.OS_TmrLink)
    OS_TmrResetPeak                          0x0800c5f9   Thumb Code    28  os_tmr.o(i.OS_TmrResetPeak)
    OS_TmrTask                               0x0800c61d   Thumb Code   176  os_tmr.o(i.OS_TmrTask)
    OS_TmrUnlink                             0x0800c6dd   Thumb Code    72  os_tmr.o(i.OS_TmrUnlink)
    PWR_BackupAccessCmd                      0x0800c72d   Thumb Code     6  stm32f10x_pwr.o(i.PWR_BackupAccessCmd)
    RCC_APB1PeriphClockCmd                   0x0800c739   Thumb Code    26  stm32f10x_rcc.o(i.RCC_APB1PeriphClockCmd)
    RCC_APB1PeriphResetCmd                   0x0800c759   Thumb Code    26  stm32f10x_rcc.o(i.RCC_APB1PeriphResetCmd)
    RCC_APB2PeriphClockCmd                   0x0800c779   Thumb Code    26  stm32f10x_rcc.o(i.RCC_APB2PeriphClockCmd)
    RCC_APB2PeriphResetCmd                   0x0800c799   Thumb Code    26  stm32f10x_rcc.o(i.RCC_APB2PeriphResetCmd)
    RCC_BackupResetCmd                       0x0800c7b9   Thumb Code     6  stm32f10x_rcc.o(i.RCC_BackupResetCmd)
    RCC_GetClocksFreq                        0x0800c7c5   Thumb Code   192  stm32f10x_rcc.o(i.RCC_GetClocksFreq)
    RCC_GetFlagStatus                        0x0800c899   Thumb Code    56  stm32f10x_rcc.o(i.RCC_GetFlagStatus)
    RCC_LSEConfig                            0x0800c8d5   Thumb Code    46  stm32f10x_rcc.o(i.RCC_LSEConfig)
    RCC_RTCCLKCmd                            0x0800c909   Thumb Code     6  stm32f10x_rcc.o(i.RCC_RTCCLKCmd)
    RCC_RTCCLKConfig                         0x0800c915   Thumb Code    12  stm32f10x_rcc.o(i.RCC_RTCCLKConfig)
    RTC_ClearITPendingBit                    0x0800c925   Thumb Code    12  stm32f10x_rtc.o(i.RTC_ClearITPendingBit)
    RTC_EnterConfigMode                      0x0800c935   Thumb Code    14  stm32f10x_rtc.o(i.RTC_EnterConfigMode)
    RTC_ExitConfigMode                       0x0800c949   Thumb Code    16  stm32f10x_rtc.o(i.RTC_ExitConfigMode)
    RTC_Get                                  0x0800c95d   Thumb Code   240  rtc.o(i.RTC_Get)
    RTC_GetCounter                           0x0800ca5d   Thumb Code    16  stm32f10x_rtc.o(i.RTC_GetCounter)
    RTC_GetITStatus                          0x0800ca71   Thumb Code    32  stm32f10x_rtc.o(i.RTC_GetITStatus)
    RTC_Get_Week                             0x0800ca95   Thumb Code   116  rtc.o(i.RTC_Get_Week)
    RTC_IRQHandler                           0x0800cb0d   Thumb Code    46  rtc.o(i.RTC_IRQHandler)
    RTC_ITConfig                             0x0800cb49   Thumb Code    26  stm32f10x_rtc.o(i.RTC_ITConfig)
    RTC_Init                                 0x0800cb69   Thumb Code   204  rtc.o(i.RTC_Init)
    RTC_Set                                  0x0800cc55   Thumb Code   188  rtc.o(i.RTC_Set)
    RTC_SetAlarm                             0x0800cd21   Thumb Code    24  stm32f10x_rtc.o(i.RTC_SetAlarm)
    RTC_SetCounter                           0x0800cd3d   Thumb Code    24  stm32f10x_rtc.o(i.RTC_SetCounter)
    RTC_SetPrescaler                         0x0800cd59   Thumb Code    26  stm32f10x_rtc.o(i.RTC_SetPrescaler)
    RTC_Set_alarm                            0x0800cd79   Thumb Code    38  rtc.o(i.RTC_Set_alarm)
    RTC_WaitForLastTask                      0x0800cda1   Thumb Code    16  stm32f10x_rtc.o(i.RTC_WaitForLastTask)
    RTC_WaitForSynchro                       0x0800cdb5   Thumb Code    30  stm32f10x_rtc.o(i.RTC_WaitForSynchro)
    SPI1_CS_Deselect                         0x0800cdd9   Thumb Code     8  spi.o(i.SPI1_CS_Deselect)
    SPI1_CS_Select                           0x0800cde5   Thumb Code     8  spi.o(i.SPI1_CS_Select)
    SPI1_Init                                0x0800cdf1   Thumb Code   122  spi.o(i.SPI1_Init)
    SPI1_ReadByte                            0x0800ce79   Thumb Code    42  spi.o(i.SPI1_ReadByte)
    SPI1_WriteByte                           0x0800cea9   Thumb Code    38  spi.o(i.SPI1_WriteByte)
    SPI_Cmd                                  0x0800ced5   Thumb Code    24  stm32f10x_spi.o(i.SPI_Cmd)
    SPI_CrisEnter                            0x0800ceed   Thumb Code    10  spi.o(i.SPI_CrisEnter)
    SPI_CrisExit                             0x0800cef7   Thumb Code    10  spi.o(i.SPI_CrisExit)
    SPI_Init                                 0x0800cf01   Thumb Code    60  stm32f10x_spi.o(i.SPI_Init)
    STMFLASH_Read                            0x0800cf3d   Thumb Code    34  stmflash.o(i.STMFLASH_Read)
    STMFLASH_ReadHalfWord                    0x0800cf5f   Thumb Code     6  stmflash.o(i.STMFLASH_ReadHalfWord)
    STMFLASH_Write                           0x0800cf65   Thumb Code   234  stmflash.o(i.STMFLASH_Write)
    STMFLASH_Write_NoCheck                   0x0800d059   Thumb Code    38  stmflash.o(i.STMFLASH_Write_NoCheck)
    SVC_Handler                              0x0800d07f   Thumb Code     2  stm32f10x_it.o(i.SVC_Handler)
    SysTick_CLKSourceConfig                  0x0800d169   Thumb Code    40  misc.o(i.SysTick_CLKSourceConfig)
    SysTick_Handler                          0x0800d191   Thumb Code    24  delay.o(i.SysTick_Handler)
    SystemInit                               0x0800d1ad   Thumb Code    78  system_stm32f10x.o(i.SystemInit)
    USART1_IRQHandler                        0x0800d20d   Thumb Code   130  usart.o(i.USART1_IRQHandler)
    USART_Cmd                                0x0800d29d   Thumb Code    24  stm32f10x_usart.o(i.USART_Cmd)
    USART_DeInit                             0x0800d2b5   Thumb Code   134  stm32f10x_usart.o(i.USART_DeInit)
    USART_GetITStatus                        0x0800d351   Thumb Code    84  stm32f10x_usart.o(i.USART_GetITStatus)
    USART_ITConfig                           0x0800d3a5   Thumb Code    74  stm32f10x_usart.o(i.USART_ITConfig)
    USART_Init                               0x0800d3f1   Thumb Code   210  stm32f10x_usart.o(i.USART_Init)
    USART_ReceiveData                        0x0800d4c9   Thumb Code    10  stm32f10x_usart.o(i.USART_ReceiveData)
    UpGrade_task                             0x0800d4d5   Thumb Code  2082  main.o(i.UpGrade_task)
    UsageFault_Handler                       0x0800dd61   Thumb Code     4  stm32f10x_it.o(i.UsageFault_Handler)
    W5500_init                               0x0800dd65   Thumb Code   128  function.o(i.W5500_init)
    WIZCHIP_READ                             0x0800de49   Thumb Code    70  w5500.o(i.WIZCHIP_READ)
    WIZCHIP_READ_BUF                         0x0800de95   Thumb Code    94  w5500.o(i.WIZCHIP_READ_BUF)
    WIZCHIP_WRITE                            0x0800def9   Thumb Code    72  w5500.o(i.WIZCHIP_WRITE)
    WIZCHIP_WRITE_BUF                        0x0800df45   Thumb Code    96  w5500.o(i.WIZCHIP_WRITE_BUF)
    WaitData_task                            0x0800dfa9   Thumb Code   616  main.o(i.WaitData_task)
    __ARM_fpclassify                         0x0800e32d   Thumb Code    40  fpclassify.o(i.__ARM_fpclassify)
    __kernel_poly                            0x0800e355   Thumb Code   170  poly.o(i.__kernel_poly)
    __mathlib_dbl_divzero                    0x0800e401   Thumb Code    12  dunder.o(i.__mathlib_dbl_divzero)
    __mathlib_dbl_infnan2                    0x0800e411   Thumb Code     4  dunder.o(i.__mathlib_dbl_infnan2)
    __mathlib_dbl_invalid                    0x0800e415   Thumb Code    12  dunder.o(i.__mathlib_dbl_invalid)
    __mathlib_dbl_overflow                   0x0800e421   Thumb Code    14  dunder.o(i.__mathlib_dbl_overflow)
    __mathlib_dbl_underflow                  0x0800e431   Thumb Code    10  dunder.o(i.__mathlib_dbl_underflow)
    _is_digit                                0x0800e441   Thumb Code    14  __printf_wp.o(i._is_digit)
    _sys_exit                                0x0800e44f   Thumb Code     4  usart.o(i._sys_exit)
    bufchar                                  0x0800e455   Thumb Code    36  mqttpacket.o(i.bufchar)
    cJSON_Delete                             0x0800e47d   Thumb Code    82  cjson.o(i.cJSON_Delete)
    cJSON_GetArrayItem                       0x0800e4d5   Thumb Code    18  cjson.o(i.cJSON_GetArrayItem)
    cJSON_GetErrorPtr                        0x0800e4e9   Thumb Code     6  cjson.o(i.cJSON_GetErrorPtr)
    cJSON_GetObjectItem                      0x0800e4f5   Thumb Code    30  cjson.o(i.cJSON_GetObjectItem)
    cJSON_Parse                              0x0800e535   Thumb Code    16  cjson.o(i.cJSON_Parse)
    cJSON_ParseWithOpts                      0x0800e545   Thumb Code    96  cjson.o(i.cJSON_ParseWithOpts)
    check_DHCP_leasedIP                      0x0800e5f5   Thumb Code    88  dhcp.o(i.check_DHCP_leasedIP)
    check_DHCP_timeout                       0x0800e66d   Thumb Code   154  dhcp.o(i.check_DHCP_timeout)
    close                                    0x0800e719   Thumb Code   128  socket.o(i.close)
    connect                                  0x0800e7a5   Thumb Code   318  socket.o(i.connect)
    cpy                                      0x0800e8e9   Thumb Code    24  function.o(i.cpy)
    ctlnetwork                               0x0800e901   Thumb Code    80  wizchip_conf.o(i.ctlnetwork)
    ctlwizchip                               0x0800e951   Thumb Code   276  wizchip_conf.o(i.ctlwizchip)
    default_ip_assign                        0x0800ea69   Thumb Code    38  dhcp.o(i.default_ip_assign)
    default_ip_conflict                      0x0800ea9d   Thumb Code    30  dhcp.o(i.default_ip_conflict)
    default_ip_update                        0x0800eac1   Thumb Code    34  dhcp.o(i.default_ip_update)
    delay                                    0x0800eae9   Thumb Code    32  function.o(i.delay)
    delay_init                               0x0800eb09   Thumb Code    92  delay.o(i.delay_init)
    delay_ms                                 0x0800eb79   Thumb Code    66  delay.o(i.delay_ms)
    delay_osschedlock                        0x0800ebc9   Thumb Code    10  delay.o(i.delay_osschedlock)
    delay_osschedunlock                      0x0800ebd3   Thumb Code    10  delay.o(i.delay_osschedunlock)
    delay_ostimedly                          0x0800ebdd   Thumb Code    16  delay.o(i.delay_ostimedly)
    delay_us                                 0x0800ebed   Thumb Code    86  delay.o(i.delay_us)
    disconnect                               0x0800ec49   Thumb Code   180  socket.o(i.disconnect)
    do_mqtt_publish                          0x0800ed05   Thumb Code   174  mqtt.o(i.do_mqtt_publish)
    do_mqtt_subscrib                         0x0800ee29   Thumb Code   152  mqtt.o(i.do_mqtt_subscrib)
    do_mqtt_subscrib_wait                    0x0800ef05   Thumb Code   152  mqtt.o(i.do_mqtt_subscrib_wait)
    fputc                                    0x0800efd9   Thumb Code    24  usart.o(i.fputc)
    getDHCPLeasetime                         0x0800eff5   Thumb Code     6  dhcp.o(i.getDHCPLeasetime)
    getDNSfromDHCP                           0x0800f001   Thumb Code    26  dhcp.o(i.getDNSfromDHCP)
    getGWfromDHCP                            0x0800f021   Thumb Code    26  dhcp.o(i.getGWfromDHCP)
    getIPfromDHCP                            0x0800f041   Thumb Code    26  dhcp.o(i.getIPfromDHCP)
    getSNfromDHCP                            0x0800f061   Thumb Code    26  dhcp.o(i.getSNfromDHCP)
    getSn_RX_RSR                             0x0800f081   Thumb Code   108  w5500.o(i.getSn_RX_RSR)
    getSn_TX_FSR                             0x0800f0ed   Thumb Code   108  w5500.o(i.getSn_TX_FSR)
    getdata_1                                0x0800f159   Thumb Code    18  transport.o(i.getdata_1)
    led0_task                                0x0800f16d   Thumb Code    96  main.o(i.led0_task)
    main                                     0x0800f205   Thumb Code   260  main.o(i.main)
    makeDHCPMSG                              0x0800f329   Thumb Code   386  dhcp.o(i.makeDHCPMSG)
    mem_free                                 0x0800f4b9   Thumb Code    66  malloc.o(i.mem_free)
    mem_init                                 0x0800f501   Thumb Code    38  malloc.o(i.mem_init)
    mem_malloc                               0x0800f52d   Thumb Code   114  malloc.o(i.mem_malloc)
    mem_perused                              0x0800f5a5   Thumb Code    34  malloc.o(i.mem_perused)
    mqtt_publishMSG                          0x0800f5cd   Thumb Code   106  mqtt.o(i.mqtt_publishMSG)
    my_ip_assign                             0x0800f669   Thumb Code    62  function.o(i.my_ip_assign)
    my_ip_conflict                           0x0800f6cd   Thumb Code    14  function.o(i.my_ip_conflict)
    myfree                                   0x0800f6f5   Thumb Code    24  malloc.o(i.myfree)
    mymalloc                                 0x0800f711   Thumb Code    28  malloc.o(i.mymalloc)
    mymemset                                 0x0800f731   Thumb Code    20  malloc.o(i.mymemset)
    parseDHCPMSG                             0x0800f745   Thumb Code   454  dhcp.o(i.parseDHCPMSG)
    parse_number                             0x0800fca9   Thumb Code   418  function.o(i.parse_number)
    pow                                      0x080101f5   Thumb Code  2512  pow.o(i.pow)
    readChar                                 0x08010bcd   Thumb Code    14  mqttpacket.o(i.readChar)
    readInt                                  0x08010bdb   Thumb Code    26  mqttpacket.o(i.readInt)
    readMQTTLenString                        0x08010bf5   Thumb Code    58  mqttpacket.o(i.readMQTTLenString)
    recv                                     0x08010c31   Thumb Code   302  socket.o(i.recv)
    recvfrom                                 0x08010d65   Thumb Code   602  socket.o(i.recvfrom)
    reg_dhcp_cbfunc                          0x08010fcd   Thumb Code    40  dhcp.o(i.reg_dhcp_cbfunc)
    reg_wizchip_cris_cbfunc                  0x0801100d   Thumb Code    26  wizchip_conf.o(i.reg_wizchip_cris_cbfunc)
    reg_wizchip_cs_cbfunc                    0x08011035   Thumb Code    26  wizchip_conf.o(i.reg_wizchip_cs_cbfunc)
    reg_wizchip_spi_cbfunc                   0x0801105d   Thumb Code    40  wizchip_conf.o(i.reg_wizchip_spi_cbfunc)
    reset_DHCP_timeout                       0x08011091   Thumb Code    20  dhcp.o(i.reset_DHCP_timeout)
    send                                     0x080110b1   Thumb Code   374  socket.o(i.send)
    send_DHCP_DECLINE                        0x08011231   Thumb Code   492  dhcp.o(i.send_DHCP_DECLINE)
    send_DHCP_DISCOVER                       0x08011431   Thumb Code   616  dhcp.o(i.send_DHCP_DISCOVER)
    send_DHCP_REQUEST                        0x080116a9   Thumb Code   970  dhcp.o(i.send_DHCP_REQUEST)
    sendto                                   0x08011a91   Thumb Code   460  socket.o(i.sendto)
    socket                                   0x08011c75   Thumb Code   346  socket.o(i.socket)
    sqrt                                     0x08011de5   Thumb Code    76  sqrt.o(i.sqrt)
    start_task                               0x08011e31   Thumb Code   404  main.o(i.start_task)
    systeam_ReStart                          0x08012061   Thumb Code    50  function.o(i.systeam_ReStart)
    transport_close                          0x0801209d   Thumb Code    40  transport.o(i.transport_close)
    transport_open                           0x080120c5   Thumb Code    62  transport.o(i.transport_open)
    transport_sendPacketBuffer               0x08012149   Thumb Code    20  transport.o(i.transport_sendPacketBuffer)
    uart_init                                0x0801215d   Thumb Code   196  usart.o(i.uart_init)
    wiz_recv_data                            0x08012229   Thumb Code   132  w5500.o(i.wiz_recv_data)
    wiz_recv_ignore                          0x080122ad   Thumb Code   102  w5500.o(i.wiz_recv_ignore)
    wiz_send_data                            0x08012313   Thumb Code   132  w5500.o(i.wiz_send_data)
    wizchip_bus_readbyte                     0x08012397   Thumb Code     6  wizchip_conf.o(i.wizchip_bus_readbyte)
    wizchip_bus_writebyte                    0x0801239d   Thumb Code     4  wizchip_conf.o(i.wizchip_bus_writebyte)
    wizchip_clrinterrupt                     0x080123a1   Thumb Code    32  wizchip_conf.o(i.wizchip_clrinterrupt)
    wizchip_cris_enter                       0x080123c1   Thumb Code     2  wizchip_conf.o(i.wizchip_cris_enter)
    wizchip_cris_exit                        0x080123c3   Thumb Code     2  wizchip_conf.o(i.wizchip_cris_exit)
    wizchip_cs_deselect                      0x080123c5   Thumb Code     2  wizchip_conf.o(i.wizchip_cs_deselect)
    wizchip_cs_select                        0x080123c7   Thumb Code     2  wizchip_conf.o(i.wizchip_cs_select)
    wizchip_getinterrupt                     0x080123c9   Thumb Code    42  wizchip_conf.o(i.wizchip_getinterrupt)
    wizchip_getinterruptmask                 0x080123f3   Thumb Code    40  wizchip_conf.o(i.wizchip_getinterruptmask)
    wizchip_getnetinfo                       0x0801241d   Thumb Code    82  wizchip_conf.o(i.wizchip_getnetinfo)
    wizchip_getnetmode                       0x08012479   Thumb Code    10  wizchip_conf.o(i.wizchip_getnetmode)
    wizchip_gettimeout                       0x08012483   Thumb Code    40  wizchip_conf.o(i.wizchip_gettimeout)
    wizchip_init                             0x080124ab   Thumb Code   144  wizchip_conf.o(i.wizchip_init)
    wizchip_setinterruptmask                 0x0801253b   Thumb Code    30  wizchip_conf.o(i.wizchip_setinterruptmask)
    wizchip_setnetinfo                       0x08012559   Thumb Code    80  wizchip_conf.o(i.wizchip_setnetinfo)
    wizchip_setnetmode                       0x080125b1   Thumb Code    38  wizchip_conf.o(i.wizchip_setnetmode)
    wizchip_settimeout                       0x080125d7   Thumb Code    38  wizchip_conf.o(i.wizchip_settimeout)
    wizchip_spi_readbyte                     0x080125fd   Thumb Code     4  wizchip_conf.o(i.wizchip_spi_readbyte)
    wizchip_spi_writebyte                    0x08012601   Thumb Code     2  wizchip_conf.o(i.wizchip_spi_writebyte)
    wizchip_sw_reset                         0x08012603   Thumb Code   114  wizchip_conf.o(i.wizchip_sw_reset)
    wizphy_getphyconf                        0x08012675   Thumb Code   120  wizchip_conf.o(i.wizphy_getphyconf)
    wizphy_getphylink                        0x080126ed   Thumb Code    26  wizchip_conf.o(i.wizphy_getphylink)
    wizphy_getphypmode                       0x08012707   Thumb Code    28  wizchip_conf.o(i.wizphy_getphypmode)
    wizphy_reset                             0x08012723   Thumb Code    52  wizchip_conf.o(i.wizphy_reset)
    wizphy_setphyconf                        0x08012757   Thumb Code    88  wizchip_conf.o(i.wizphy_setphyconf)
    wizphy_setphypmode                       0x080127af   Thumb Code   100  wizchip_conf.o(i.wizphy_setphypmode)
    writeCString                             0x08012813   Thumb Code    40  mqttpacket.o(i.writeCString)
    writeChar                                0x0801283b   Thumb Code    12  mqttpacket.o(i.writeChar)
    writeInt                                 0x08012847   Thumb Code    48  mqttpacket.o(i.writeInt)
    writeMQTTString                          0x08012877   Thumb Code    62  mqttpacket.o(i.writeMQTTString)
    _get_lc_ctype                            0x080128b5   Thumb Code    44  lc_ctype_c.o(locale$$code)
    __aeabi_dadd                             0x080128e1   Thumb Code     0  daddsub_clz.o(x$fpl$dadd)
    _dadd                                    0x080128e1   Thumb Code   332  daddsub_clz.o(x$fpl$dadd)
    __fpl_dcheck_NaN1                        0x08012a31   Thumb Code    10  dcheck1.o(x$fpl$dcheck1)
    __fpl_dcmp_Inf                           0x08012a41   Thumb Code    24  dcmpi.o(x$fpl$dcmpinf)
    __aeabi_ddiv                             0x08012a59   Thumb Code     0  ddiv.o(x$fpl$ddiv)
    _ddiv                                    0x08012a59   Thumb Code   552  ddiv.o(x$fpl$ddiv)
    __aeabi_d2iz                             0x08012d09   Thumb Code     0  dfix.o(x$fpl$dfix)
    _dfix                                    0x08012d09   Thumb Code    94  dfix.o(x$fpl$dfix)
    __aeabi_i2d                              0x08012d67   Thumb Code     0  dflt_clz.o(x$fpl$dflt)
    _dflt                                    0x08012d67   Thumb Code    46  dflt_clz.o(x$fpl$dflt)
    __aeabi_cdcmple                          0x08012d95   Thumb Code     0  dleqf.o(x$fpl$dleqf)
    _dcmple                                  0x08012d95   Thumb Code   120  dleqf.o(x$fpl$dleqf)
    __fpl_dcmple_InfNaN                      0x08012df7   Thumb Code     0  dleqf.o(x$fpl$dleqf)
    __aeabi_dmul                             0x08012e0d   Thumb Code     0  dmul.o(x$fpl$dmul)
    _dmul                                    0x08012e0d   Thumb Code   332  dmul.o(x$fpl$dmul)
    __fpl_dnaninf                            0x08012f61   Thumb Code   156  dnaninf.o(x$fpl$dnaninf)
    __fpl_dretinf                            0x08012ffd   Thumb Code    12  dretinf.o(x$fpl$dretinf)
    __aeabi_cdrcmple                         0x08013009   Thumb Code     0  drleqf.o(x$fpl$drleqf)
    _drcmple                                 0x08013009   Thumb Code   108  drleqf.o(x$fpl$drleqf)
    __aeabi_drsub                            0x08013075   Thumb Code     0  daddsub_clz.o(x$fpl$drsb)
    _drsb                                    0x08013075   Thumb Code    22  daddsub_clz.o(x$fpl$drsb)
    _dsqrt                                   0x0801308d   Thumb Code   456  dsqrt_noumaal.o(x$fpl$dsqrt)
    __aeabi_dsub                             0x08013259   Thumb Code     0  daddsub_clz.o(x$fpl$dsub)
    _dsub                                    0x08013259   Thumb Code   464  daddsub_clz.o(x$fpl$dsub)
    __fpl_return_NaN                         0x0801342d   Thumb Code   100  retnan.o(x$fpl$retnan)
    __ARM_scalbn                             0x08013491   Thumb Code    92  scalbn.o(x$fpl$scalbn)
    __fpl_cmpreturn                          0x080134ed   Thumb Code    48  trapv.o(x$fpl$trapveneer)
    __I$use$fp                               0x0801351c   Number         0  usenofp.o(x$fpl$usenofp)
    table_week                               0x0801351c   Data          12  rtc.o(.constdata)
    mon_table                                0x08013528   Data          12  rtc.o(.constdata)
    OSCfg_IdleTaskStkBasePtr                 0x0801354c   Data           4  os_cfg_app.o(.constdata)
    OSCfg_IdleTaskStkLimit                   0x08013550   Data           4  os_cfg_app.o(.constdata)
    OSCfg_IdleTaskStkSize                    0x08013554   Data           4  os_cfg_app.o(.constdata)
    OSCfg_IdleTaskStkSizeRAM                 0x08013558   Data           4  os_cfg_app.o(.constdata)
    OSCfg_IntQBasePtr                        0x0801355c   Data           4  os_cfg_app.o(.constdata)
    OSCfg_IntQSize                           0x08013560   Data           2  os_cfg_app.o(.constdata)
    OSCfg_IntQSizeRAM                        0x08013564   Data           4  os_cfg_app.o(.constdata)
    OSCfg_IntQTaskStkBasePtr                 0x08013568   Data           4  os_cfg_app.o(.constdata)
    OSCfg_IntQTaskStkLimit                   0x0801356c   Data           4  os_cfg_app.o(.constdata)
    OSCfg_IntQTaskStkSize                    0x08013570   Data           4  os_cfg_app.o(.constdata)
    OSCfg_IntQTaskStkSizeRAM                 0x08013574   Data           4  os_cfg_app.o(.constdata)
    OSCfg_ISRStkBasePtr                      0x08013578   Data           4  os_cfg_app.o(.constdata)
    OSCfg_ISRStkSize                         0x0801357c   Data           4  os_cfg_app.o(.constdata)
    OSCfg_ISRStkSizeRAM                      0x08013580   Data           4  os_cfg_app.o(.constdata)
    OSCfg_MsgPoolSize                        0x08013584   Data           2  os_cfg_app.o(.constdata)
    OSCfg_MsgPoolSizeRAM                     0x08013588   Data           4  os_cfg_app.o(.constdata)
    OSCfg_MsgPoolBasePtr                     0x0801358c   Data           4  os_cfg_app.o(.constdata)
    OSCfg_StatTaskPrio                       0x08013590   Data           1  os_cfg_app.o(.constdata)
    OSCfg_StatTaskRate_Hz                    0x08013594   Data           4  os_cfg_app.o(.constdata)
    OSCfg_StatTaskStkBasePtr                 0x08013598   Data           4  os_cfg_app.o(.constdata)
    OSCfg_StatTaskStkLimit                   0x0801359c   Data           4  os_cfg_app.o(.constdata)
    OSCfg_StatTaskStkSize                    0x080135a0   Data           4  os_cfg_app.o(.constdata)
    OSCfg_StatTaskStkSizeRAM                 0x080135a4   Data           4  os_cfg_app.o(.constdata)
    OSCfg_StkSizeMin                         0x080135a8   Data           4  os_cfg_app.o(.constdata)
    OSCfg_TickRate_Hz                        0x080135ac   Data           4  os_cfg_app.o(.constdata)
    OSCfg_TickTaskPrio                       0x080135b0   Data           1  os_cfg_app.o(.constdata)
    OSCfg_TickTaskStkBasePtr                 0x080135b4   Data           4  os_cfg_app.o(.constdata)
    OSCfg_TickTaskStkLimit                   0x080135b8   Data           4  os_cfg_app.o(.constdata)
    OSCfg_TickTaskStkSize                    0x080135bc   Data           4  os_cfg_app.o(.constdata)
    OSCfg_TickTaskStkSizeRAM                 0x080135c0   Data           4  os_cfg_app.o(.constdata)
    OSCfg_TickWheelSize                      0x080135c4   Data           2  os_cfg_app.o(.constdata)
    OSCfg_TickWheelSizeRAM                   0x080135c8   Data           4  os_cfg_app.o(.constdata)
    OSCfg_TmrTaskPrio                        0x080135cc   Data           1  os_cfg_app.o(.constdata)
    OSCfg_TmrTaskRate_Hz                     0x080135d0   Data           4  os_cfg_app.o(.constdata)
    OSCfg_TmrTaskStkBasePtr                  0x080135d4   Data           4  os_cfg_app.o(.constdata)
    OSCfg_TmrTaskStkLimit                    0x080135d8   Data           4  os_cfg_app.o(.constdata)
    OSCfg_TmrTaskStkSize                     0x080135dc   Data           4  os_cfg_app.o(.constdata)
    OSCfg_TmrTaskStkSizeRAM                  0x080135e0   Data           4  os_cfg_app.o(.constdata)
    OSCfg_TmrWheelSize                       0x080135e4   Data           2  os_cfg_app.o(.constdata)
    OSCfg_TmrWheelSizeRAM                    0x080135e8   Data           4  os_cfg_app.o(.constdata)
    OSCfg_DataSizeRAM                        0x080135ec   Data           4  os_cfg_app.o(.constdata)
    OSDbg_DbgEn                              0x080135f0   Data           2  os_dbg.o(.constdata)
    OSDbg_ArgChkEn                           0x080135f2   Data           1  os_dbg.o(.constdata)
    OSDbg_AppHooksEn                         0x080135f3   Data           1  os_dbg.o(.constdata)
    OSDbg_EndiannessTest                     0x080135f4   Data           4  os_dbg.o(.constdata)
    OSDbg_CalledFromISRChkEn                 0x080135f8   Data           1  os_dbg.o(.constdata)
    OSDbg_FlagEn                             0x080135f9   Data           1  os_dbg.o(.constdata)
    OSDbg_FlagGrp                            0x080135fc   Data          40  os_dbg.o(.constdata)
    OSDbg_FlagDelEn                          0x08013624   Data           1  os_dbg.o(.constdata)
    OSDbg_FlagModeClrEn                      0x08013625   Data           1  os_dbg.o(.constdata)
    OSDbg_FlagPendAbortEn                    0x08013626   Data           1  os_dbg.o(.constdata)
    OSDbg_FlagGrpSize                        0x08013628   Data           2  os_dbg.o(.constdata)
    OSDbg_FlagWidth                          0x0801362a   Data           2  os_dbg.o(.constdata)
    OSDbg_IntQ                               0x0801362c   Data           2  os_dbg.o(.constdata)
    OSDbg_ISRPostDeferredEn                  0x0801362e   Data           1  os_dbg.o(.constdata)
    OSDbg_Mem                                0x08013630   Data          32  os_dbg.o(.constdata)
    OSDbg_MemEn                              0x08013650   Data           1  os_dbg.o(.constdata)
    OSDbg_MemSize                            0x08013652   Data           2  os_dbg.o(.constdata)
    OSDbg_MsgEn                              0x08013654   Data           1  os_dbg.o(.constdata)
    OSDbg_MsgSize                            0x08013656   Data           2  os_dbg.o(.constdata)
    OSDbg_MsgPoolSize                        0x08013658   Data           2  os_dbg.o(.constdata)
    OSDbg_MsgQSize                           0x0801365a   Data           2  os_dbg.o(.constdata)
    OSDbg_Mutex                              0x0801365c   Data          44  os_dbg.o(.constdata)
    OSDbg_MutexEn                            0x08013688   Data           1  os_dbg.o(.constdata)
    OSDbg_MutexDelEn                         0x08013689   Data           1  os_dbg.o(.constdata)
    OSDbg_MutexPendAbortEn                   0x0801368a   Data           1  os_dbg.o(.constdata)
    OSDbg_MutexSize                          0x0801368c   Data           2  os_dbg.o(.constdata)
    OSDbg_ObjTypeChkEn                       0x0801368e   Data           1  os_dbg.o(.constdata)
    OSDbg_PendMultiEn                        0x0801368f   Data           1  os_dbg.o(.constdata)
    OSDbg_PendDataSize                       0x08013690   Data           2  os_dbg.o(.constdata)
    OSDbg_PendListSize                       0x08013692   Data           2  os_dbg.o(.constdata)
    OSDbg_PendObjSize                        0x08013694   Data           2  os_dbg.o(.constdata)
    OSDbg_PrioMax                            0x08013696   Data           2  os_dbg.o(.constdata)
    OSDbg_PrioTblSize                        0x08013698   Data           2  os_dbg.o(.constdata)
    OSDbg_PtrSize                            0x0801369a   Data           2  os_dbg.o(.constdata)
    OSDbg_Q                                  0x0801369c   Data          48  os_dbg.o(.constdata)
    OSDbg_QEn                                0x080136cc   Data           1  os_dbg.o(.constdata)
    OSDbg_QDelEn                             0x080136cd   Data           1  os_dbg.o(.constdata)
    OSDbg_QFlushEn                           0x080136ce   Data           1  os_dbg.o(.constdata)
    OSDbg_QPendAbortEn                       0x080136cf   Data           1  os_dbg.o(.constdata)
    OSDbg_QSize                              0x080136d0   Data           2  os_dbg.o(.constdata)
    OSDbg_SchedRoundRobinEn                  0x080136d2   Data           1  os_dbg.o(.constdata)
    OSDbg_Sem                                0x080136d4   Data          40  os_dbg.o(.constdata)
    OSDbg_SemEn                              0x080136fc   Data           1  os_dbg.o(.constdata)
    OSDbg_SemDelEn                           0x080136fd   Data           1  os_dbg.o(.constdata)
    OSDbg_SemPendAbortEn                     0x080136fe   Data           1  os_dbg.o(.constdata)
    OSDbg_SemSetEn                           0x080136ff   Data           1  os_dbg.o(.constdata)
    OSDbg_SemSize                            0x08013700   Data           2  os_dbg.o(.constdata)
    OSDbg_RdyList                            0x08013702   Data           2  os_dbg.o(.constdata)
    OSDbg_RdyListSize                        0x08013704   Data           4  os_dbg.o(.constdata)
    OSDbg_StkWidth                           0x08013708   Data           1  os_dbg.o(.constdata)
    OSDbg_StatTaskEn                         0x08013709   Data           1  os_dbg.o(.constdata)
    OSDbg_StatTaskStkChkEn                   0x0801370a   Data           1  os_dbg.o(.constdata)
    OSDbg_TaskChangePrioEn                   0x0801370b   Data           1  os_dbg.o(.constdata)
    OSDbg_TaskDelEn                          0x0801370c   Data           1  os_dbg.o(.constdata)
    OSDbg_TaskQEn                            0x0801370d   Data           1  os_dbg.o(.constdata)
    OSDbg_TaskQPendAbortEn                   0x0801370e   Data           1  os_dbg.o(.constdata)
    OSDbg_TaskProfileEn                      0x0801370f   Data           1  os_dbg.o(.constdata)
    OSDbg_TaskRegTblSize                     0x08013710   Data           2  os_dbg.o(.constdata)
    OSDbg_TaskSemPendAbortEn                 0x08013712   Data           1  os_dbg.o(.constdata)
    OSDbg_TaskSuspendEn                      0x08013713   Data           1  os_dbg.o(.constdata)
    OSDbg_TCBSize                            0x08013714   Data           2  os_dbg.o(.constdata)
    OSDbg_TickSpokeSize                      0x08013716   Data           2  os_dbg.o(.constdata)
    OSDbg_TimeDlyHMSMEn                      0x08013718   Data           1  os_dbg.o(.constdata)
    OSDbg_TimeDlyResumeEn                    0x08013719   Data           1  os_dbg.o(.constdata)
    OSDbg_TLS_TblSize                        0x0801371a   Data           2  os_dbg.o(.constdata)
    OSDbg_Tmr                                0x0801371c   Data          52  os_dbg.o(.constdata)
    OSDbg_TmrEn                              0x08013750   Data           1  os_dbg.o(.constdata)
    OSDbg_TmrDelEn                           0x08013751   Data           1  os_dbg.o(.constdata)
    OSDbg_TmrSize                            0x08013752   Data           2  os_dbg.o(.constdata)
    OSDbg_TmrSpokeSize                       0x08013754   Data           2  os_dbg.o(.constdata)
    OSDbg_VersionNbr                         0x08013756   Data           2  os_dbg.o(.constdata)
    OSDbg_DataSize                           0x08013758   Data           4  os_dbg.o(.constdata)
    __mathlib_zero                           0x08013878   Data           8  qnan.o(.constdata)
    Region$$Table$$Base                      0x080139e4   Number         0  anon$$obj.o(Region$$Table)
    Region$$Table$$Limit                     0x08013a04   Number         0  anon$$obj.o(Region$$Table)
    __ctype                                  0x08013a11   Data           0  lc_ctype_c.o(locale$$data)
    upload_flag                              0x20000000   Data           1  main.o(.data)
    topic_now                                0x20000004   Data           4  main.o(.data)
    Topic_TimeService                        0x20000008   Data           4  main.o(.data)
    SystemCoreClock                          0x20000010   Data           4  system_stm32f10x.o(.data)
    AHBPrescTable                            0x20000014   Data          16  system_stm32f10x.o(.data)
    __stdout                                 0x2000002c   Data           4  usart.o(.data)
    USART_RX_STA                             0x20000030   Data           2  usart.o(.data)
    WIZCHIP                                  0x20000040   Data          32  wizchip_conf.o(.data)
    DHCP_SOCKET                              0x20000074   Data           1  dhcp.o(.data)
    DHCP_SIP                                 0x20000075   Data           4  dhcp.o(.data)
    OLD_allocated_ip                         0x20000079   Data           4  dhcp.o(.data)
    DHCP_allocated_ip                        0x2000007d   Data           4  dhcp.o(.data)
    DHCP_allocated_gw                        0x20000081   Data           4  dhcp.o(.data)
    DHCP_allocated_sn                        0x20000085   Data           4  dhcp.o(.data)
    DHCP_allocated_dns                       0x20000089   Data           4  dhcp.o(.data)
    dhcp_state                               0x2000008d   Data           1  dhcp.o(.data)
    dhcp_retry_count                         0x2000008e   Data           1  dhcp.o(.data)
    dhcp_lease_time                          0x20000090   Data           4  dhcp.o(.data)
    dhcp_tick_1s                             0x20000094   Data           4  dhcp.o(.data)
    dhcp_tick_next                           0x20000098   Data           4  dhcp.o(.data)
    DHCP_XID                                 0x2000009c   Data           4  dhcp.o(.data)
    pDHCPMSG                                 0x200000a0   Data           4  dhcp.o(.data)
    HOST_NAME                                0x200000a4   Data           8  dhcp.o(.data)
    DHCP_CHADDR                              0x200000ac   Data           6  dhcp.o(.data)
    dhcp_ip_assign                           0x200000b4   Data           4  dhcp.o(.data)
    dhcp_ip_update                           0x200000b8   Data           4  dhcp.o(.data)
    dhcp_ip_conflict                         0x200000bc   Data           4  dhcp.o(.data)
    mallco_dev                               0x200000d0   Data          20  malloc.o(.data)
    CPU_TS_TmrFreq_Hz                        0x200000f8   Data           4  cpu_core.o(.data)
    OSPrioTbl                                0x200000fc   Data           8  os_prio.o(.data)
    OS_AppTaskCreateHookPtr                  0x20000104   Data           4  os_var.o(.data)
    OS_AppTaskDelHookPtr                     0x20000108   Data           4  os_var.o(.data)
    OS_AppTaskReturnHookPtr                  0x2000010c   Data           4  os_var.o(.data)
    OS_AppIdleTaskHookPtr                    0x20000110   Data           4  os_var.o(.data)
    OS_AppStatTaskHookPtr                    0x20000114   Data           4  os_var.o(.data)
    OS_AppTaskSwHookPtr                      0x20000118   Data           4  os_var.o(.data)
    OS_AppTimeTickHookPtr                    0x2000011c   Data           4  os_var.o(.data)
    OSIdleTaskCtr                            0x20000120   Data           4  os_var.o(.data)
    OSIntNestingCtr                          0x20000124   Data           1  os_var.o(.data)
    OSRunning                                0x20000125   Data           1  os_var.o(.data)
    OSIntQInPtr                              0x20000128   Data           4  os_var.o(.data)
    OSIntQOutPtr                             0x2000012c   Data           4  os_var.o(.data)
    OSIntQNbrEntries                         0x20000130   Data           2  os_var.o(.data)
    OSIntQNbrEntriesMax                      0x20000132   Data           2  os_var.o(.data)
    OSIntQOvfCtr                             0x20000134   Data           2  os_var.o(.data)
    OSIntQTaskTimeMax                        0x20000138   Data           4  os_var.o(.data)
    OSFlagDbgListPtr                         0x2000013c   Data           4  os_var.o(.data)
    OSFlagQty                                0x20000140   Data           2  os_var.o(.data)
    OSMemDbgListPtr                          0x20000144   Data           4  os_var.o(.data)
    OSMemQty                                 0x20000148   Data           2  os_var.o(.data)
    OSMutexDbgListPtr                        0x2000014c   Data           4  os_var.o(.data)
    OSMutexQty                               0x20000150   Data           2  os_var.o(.data)
    OSPrioCur                                0x20000152   Data           1  os_var.o(.data)
    OSPrioHighRdy                            0x20000153   Data           1  os_var.o(.data)
    OSPrioSaved                              0x20000154   Data           1  os_var.o(.data)
    OSQDbgListPtr                            0x20000158   Data           4  os_var.o(.data)
    OSQQty                                   0x2000015c   Data           2  os_var.o(.data)
    OSSchedLockTimeBegin                     0x20000160   Data           4  os_var.o(.data)
    OSSchedLockTimeMax                       0x20000164   Data           4  os_var.o(.data)
    OSSchedLockTimeMaxCur                    0x20000168   Data           4  os_var.o(.data)
    OSSchedLockNestingCtr                    0x2000016c   Data           1  os_var.o(.data)
    OSSchedRoundRobinDfltTimeQuanta          0x20000170   Data           4  os_var.o(.data)
    OSSchedRoundRobinEn                      0x20000174   Data           1  os_var.o(.data)
    OSSemDbgListPtr                          0x20000178   Data           4  os_var.o(.data)
    OSSemQty                                 0x2000017c   Data           2  os_var.o(.data)
    OSStatResetFlag                          0x2000017e   Data           1  os_var.o(.data)
    OSStatTaskCPUUsage                       0x20000180   Data           2  os_var.o(.data)
    OSStatTaskCPUUsageMax                    0x20000182   Data           2  os_var.o(.data)
    OSStatTaskCtr                            0x20000184   Data           4  os_var.o(.data)
    OSStatTaskCtrMax                         0x20000188   Data           4  os_var.o(.data)
    OSStatTaskCtrRun                         0x2000018c   Data           4  os_var.o(.data)
    OSStatTaskRdy                            0x20000190   Data           1  os_var.o(.data)
    OSStatTaskTimeMax                        0x20000194   Data           4  os_var.o(.data)
    OSTaskCtxSwCtr                           0x20000198   Data           4  os_var.o(.data)
    OSTaskDbgListPtr                         0x2000019c   Data           4  os_var.o(.data)
    OSTaskQty                                0x200001a0   Data           2  os_var.o(.data)
    OSTaskRegNextAvailID                     0x200001a2   Data           1  os_var.o(.data)
    OSTickCtr                                0x200001a4   Data           4  os_var.o(.data)
    OSTickTaskTimeMax                        0x200001a8   Data           4  os_var.o(.data)
    OSTmrDbgListPtr                          0x200001ac   Data           4  os_var.o(.data)
    OSTmrQty                                 0x200001b0   Data           2  os_var.o(.data)
    OSTmrTaskTimeMax                         0x200001b4   Data           4  os_var.o(.data)
    OSTmrTickCtr                             0x200001b8   Data           4  os_var.o(.data)
    OSTmrUpdateCnt                           0x200001bc   Data           4  os_var.o(.data)
    OSTmrUpdateCtr                           0x200001c0   Data           4  os_var.o(.data)
    OSTCBCurPtr                              0x200001c4   Data           4  os_var.o(.data)
    OSTCBHighRdyPtr                          0x200001c8   Data           4  os_var.o(.data)
    OS_CPU_ExceptStkBase                     0x200001cc   Data           4  os_cpu_c.o(.data)
    domain_ip                                0x200001d0   Data           4  transport.o(.data)
    StartTaskTCB                             0x200001d8   Data         196  main.o(.bss)
    START_TASK_STK                           0x2000029c   Data        2048  main.o(.bss)
    Led0TaskTCB                              0x20000a9c   Data         196  main.o(.bss)
    LED0_TASK_STK                            0x20000b60   Data         512  main.o(.bss)
    UpGradeTaskTCB                           0x20000d60   Data         196  main.o(.bss)
    UpGrade_TASK_STK                         0x20000e28   Data         512  main.o(.bss)
    MQTTTaskTCB                              0x20001028   Data         196  main.o(.bss)
    MQTT_TASK_STK                            0x200010f0   Data         512  main.o(.bss)
    ControlTaskTCB                           0x200012f0   Data         196  main.o(.bss)
    Control_TASK_STK                         0x200013b4   Data         512  main.o(.bss)
    WaitDataTaskTCB                          0x200015b4   Data         196  main.o(.bss)
    WaitData_TASK_STK                        0x20001678   Data         512  main.o(.bss)
    data                                     0x20001878   Data        1200  main.o(.bss)
    CPUID_str                                0x20001d28   Data          50  main.o(.bss)
    topic_feedback                           0x20001d5a   Data         100  main.o(.bss)
    meassage                                 0x20001dbe   Data         200  main.o(.bss)
    Topic_updataFirmware_cmd                 0x20001e86   Data         100  main.o(.bss)
    Topic_updataFirmware_data                0x20001eea   Data         100  main.o(.bss)
    Topic_setTime                            0x20001f4e   Data         100  main.o(.bss)
    Topic_control                            0x20001fb2   Data         100  main.o(.bss)
    Topic_get                                0x20002016   Data         100  main.o(.bss)
    Topic_client                             0x2000207a   Data         100  main.o(.bss)
    SPI_InitStructure                        0x200021a6   Data          18  spi.o(.bss)
    calendar                                 0x200021b8   Data          10  rtc.o(.bss)
    rev_time                                 0x200021c2   Data          10  rtc.o(.bss)
    USART_RX_BUF                             0x200021cc   Data         200  usart.o(.bss)
    gWIZNETINFO                              0x200022a4   Data          23  function.o(.bss)
    gDATABUF                                 0x200022bb   Data        2048  function.o(.bss)
    CPU_ID                                   0x20002abc   Data          12  function.o(.bss)
    YUN_upload                               0x20002ac8   Data          16  function.o(.bss)
    control_mode_Relay                       0x20002ad8   Data          56  function.o(.bss)
    membase                                  0x20002b10   Data        8192  malloc.o(.bss)
    memmapbase                               0x20004b10   Data         512  malloc.o(.bss)
    STMFLASH_BUF                             0x20004d10   Data        2048  stmflash.o(.bss)
    CPU_Name                                 0x20005510   Data          16  cpu_core.o(.bss)
    OSCfg_IdleTaskStk                        0x20005520   Data         512  os_cfg_app.o(.bss)
    OSCfg_IntQ                               0x20005720   Data         320  os_cfg_app.o(.bss)
    OSCfg_IntQTaskStk                        0x20005860   Data         512  os_cfg_app.o(.bss)
    OSCfg_ISRStk                             0x20005a60   Data         512  os_cfg_app.o(.bss)
    OSCfg_MsgPool                            0x20005c60   Data        1600  os_cfg_app.o(.bss)
    OSCfg_StatTaskStk                        0x200062a0   Data         512  os_cfg_app.o(.bss)
    OSCfg_TickTaskStk                        0x200064a0   Data         512  os_cfg_app.o(.bss)
    OSCfg_TickWheel                          0x200066a0   Data         136  os_cfg_app.o(.bss)
    OSCfg_TmrTaskStk                         0x20006728   Data         512  os_cfg_app.o(.bss)
    OSCfg_TmrWheel                           0x20006928   Data         136  os_cfg_app.o(.bss)
    OSIdleTaskTCB                            0x200069b0   Data         196  os_var.o(.bss)
    OSIntQTaskTCB                            0x20006a74   Data         196  os_var.o(.bss)
    OSMsgPool                                0x20006b38   Data          12  os_var.o(.bss)
    OSRdyList                                0x20006b44   Data         768  os_var.o(.bss)
    OSStatTaskTCB                            0x20006e44   Data         196  os_var.o(.bss)
    OSTickTaskTCB                            0x20006f08   Data         196  os_var.o(.bss)
    OSTmrTaskTCB                             0x20006fcc   Data         196  os_var.o(.bss)
    __libspace_start                         0x200076d0   Data          96  libspace.o(.bss)
    __temporary_stack_top$libspace           0x20007730   Data           0  libspace.o(.bss)



==============================================================================

Memory Map of the image

  Image Entry point : 0x08006131

  Load Region LR_IROM1 (Base: 0x08006000, Size: 0x0000dcec, Max: 0x0003a000, ABSOLUTE, COMPRESSED[0x0000db8c])

    Execution Region ER_IROM1 (Exec base: 0x08006000, Load base: 0x08006000, Size: 0x0000db14, Max: 0x0003a000, ABSOLUTE)

    Exec Addr    Load Addr    Size         Type   Attr      Idx    E Section Name        Object

    0x08006000   0x08006000   0x00000130   Data   RO         1838    RESET               startup_stm32f10x_hd.o
    0x08006130   0x08006130   0x00000008   Code   RO         6312  * !!!main             c_w.l(__main.o)
    0x08006138   0x08006138   0x00000034   Code   RO         6689    !!!scatter          c_w.l(__scatter.o)
    0x0800616c   0x0800616c   0x0000005a   Code   RO         6687    !!dczerorl2         c_w.l(__dczerorl2.o)
    0x080061c6   0x080061c6   0x00000002   PAD
    0x080061c8   0x080061c8   0x0000001c   Code   RO         6691    !!handler_zi        c_w.l(__scatter_zi.o)
    0x080061e4   0x080061e4   0x00000000   Code   RO         6289    .ARM.Collect$$_printf_percent$$00000000  c_w.l(_printf_percent.o)
    0x080061e4   0x080061e4   0x00000006   Code   RO         6286    .ARM.Collect$$_printf_percent$$00000009  c_w.l(_printf_d.o)
    0x080061ea   0x080061ea   0x00000006   Code   RO         6285    .ARM.Collect$$_printf_percent$$0000000C  c_w.l(_printf_x.o)
    0x080061f0   0x080061f0   0x00000006   Code   RO         6284    .ARM.Collect$$_printf_percent$$00000014  c_w.l(_printf_s.o)
    0x080061f6   0x080061f6   0x00000004   Code   RO         6408    .ARM.Collect$$_printf_percent$$00000017  c_w.l(_printf_percent_end.o)
    0x080061fa   0x080061fa   0x00000002   Code   RO         6624    .ARM.Collect$$libinit$$00000000  c_w.l(libinit.o)
    0x080061fc   0x080061fc   0x00000000   Code   RO         6412    .ARM.Collect$$libinit$$00000002  c_w.l(libinit2.o)
    0x080061fc   0x080061fc   0x00000000   Code   RO         6414    .ARM.Collect$$libinit$$00000004  c_w.l(libinit2.o)
    0x080061fc   0x080061fc   0x00000000   Code   RO         6417    .ARM.Collect$$libinit$$0000000A  c_w.l(libinit2.o)
    0x080061fc   0x080061fc   0x00000000   Code   RO         6419    .ARM.Collect$$libinit$$0000000C  c_w.l(libinit2.o)
    0x080061fc   0x080061fc   0x00000000   Code   RO         6421    .ARM.Collect$$libinit$$0000000E  c_w.l(libinit2.o)
    0x080061fc   0x080061fc   0x00000006   Code   RO         6422    .ARM.Collect$$libinit$$0000000F  c_w.l(libinit2.o)
    0x08006202   0x08006202   0x00000000   Code   RO         6424    .ARM.Collect$$libinit$$00000011  c_w.l(libinit2.o)
    0x08006202   0x08006202   0x0000000c   Code   RO         6425    .ARM.Collect$$libinit$$00000012  c_w.l(libinit2.o)
    0x0800620e   0x0800620e   0x00000000   Code   RO         6426    .ARM.Collect$$libinit$$00000013  c_w.l(libinit2.o)
    0x0800620e   0x0800620e   0x00000000   Code   RO         6428    .ARM.Collect$$libinit$$00000015  c_w.l(libinit2.o)
    0x0800620e   0x0800620e   0x00000000   Code   RO         6430    .ARM.Collect$$libinit$$00000017  c_w.l(libinit2.o)
    0x0800620e   0x0800620e   0x00000000   Code   RO         6432    .ARM.Collect$$libinit$$00000019  c_w.l(libinit2.o)
    0x0800620e   0x0800620e   0x00000000   Code   RO         6434    .ARM.Collect$$libinit$$0000001B  c_w.l(libinit2.o)
    0x0800620e   0x0800620e   0x00000000   Code   RO         6436    .ARM.Collect$$libinit$$0000001D  c_w.l(libinit2.o)
    0x0800620e   0x0800620e   0x00000000   Code   RO         6438    .ARM.Collect$$libinit$$0000001F  c_w.l(libinit2.o)
    0x0800620e   0x0800620e   0x00000000   Code   RO         6440    .ARM.Collect$$libinit$$00000021  c_w.l(libinit2.o)
    0x0800620e   0x0800620e   0x00000000   Code   RO         6442    .ARM.Collect$$libinit$$00000023  c_w.l(libinit2.o)
    0x0800620e   0x0800620e   0x00000000   Code   RO         6444    .ARM.Collect$$libinit$$00000025  c_w.l(libinit2.o)
    0x0800620e   0x0800620e   0x00000000   Code   RO         6448    .ARM.Collect$$libinit$$0000002C  c_w.l(libinit2.o)
    0x0800620e   0x0800620e   0x00000000   Code   RO         6450    .ARM.Collect$$libinit$$0000002E  c_w.l(libinit2.o)
    0x0800620e   0x0800620e   0x00000000   Code   RO         6452    .ARM.Collect$$libinit$$00000030  c_w.l(libinit2.o)
    0x0800620e   0x0800620e   0x00000000   Code   RO         6454    .ARM.Collect$$libinit$$00000032  c_w.l(libinit2.o)
    0x0800620e   0x0800620e   0x00000002   Code   RO         6455    .ARM.Collect$$libinit$$00000033  c_w.l(libinit2.o)
    0x08006210   0x08006210   0x00000002   Code   RO         6684    .ARM.Collect$$libshutdown$$00000000  c_w.l(libshutdown.o)
    0x08006212   0x08006212   0x00000000   Code   RO         6640    .ARM.Collect$$libshutdown$$00000002  c_w.l(libshutdown2.o)
    0x08006212   0x08006212   0x00000000   Code   RO         6642    .ARM.Collect$$libshutdown$$00000004  c_w.l(libshutdown2.o)
    0x08006212   0x08006212   0x00000000   Code   RO         6645    .ARM.Collect$$libshutdown$$00000007  c_w.l(libshutdown2.o)
    0x08006212   0x08006212   0x00000000   Code   RO         6648    .ARM.Collect$$libshutdown$$0000000A  c_w.l(libshutdown2.o)
    0x08006212   0x08006212   0x00000000   Code   RO         6650    .ARM.Collect$$libshutdown$$0000000C  c_w.l(libshutdown2.o)
    0x08006212   0x08006212   0x00000000   Code   RO         6653    .ARM.Collect$$libshutdown$$0000000F  c_w.l(libshutdown2.o)
    0x08006212   0x08006212   0x00000002   Code   RO         6654    .ARM.Collect$$libshutdown$$00000010  c_w.l(libshutdown2.o)
    0x08006214   0x08006214   0x00000000   Code   RO         6360    .ARM.Collect$$rtentry$$00000000  c_w.l(__rtentry.o)
    0x08006214   0x08006214   0x00000000   Code   RO         6504    .ARM.Collect$$rtentry$$00000002  c_w.l(__rtentry2.o)
    0x08006214   0x08006214   0x00000006   Code   RO         6516    .ARM.Collect$$rtentry$$00000004  c_w.l(__rtentry4.o)
    0x0800621a   0x0800621a   0x00000000   Code   RO         6506    .ARM.Collect$$rtentry$$00000009  c_w.l(__rtentry2.o)
    0x0800621a   0x0800621a   0x00000004   Code   RO         6507    .ARM.Collect$$rtentry$$0000000A  c_w.l(__rtentry2.o)
    0x0800621e   0x0800621e   0x00000000   Code   RO         6509    .ARM.Collect$$rtentry$$0000000C  c_w.l(__rtentry2.o)
    0x0800621e   0x0800621e   0x00000008   Code   RO         6510    .ARM.Collect$$rtentry$$0000000D  c_w.l(__rtentry2.o)
    0x08006226   0x08006226   0x00000002   Code   RO         6627    .ARM.Collect$$rtexit$$00000000  c_w.l(rtexit.o)
    0x08006228   0x08006228   0x00000000   Code   RO         6660    .ARM.Collect$$rtexit$$00000002  c_w.l(rtexit2.o)
    0x08006228   0x08006228   0x00000004   Code   RO         6661    .ARM.Collect$$rtexit$$00000003  c_w.l(rtexit2.o)
    0x0800622c   0x0800622c   0x00000006   Code   RO         6662    .ARM.Collect$$rtexit$$00000004  c_w.l(rtexit2.o)
    0x08006232   0x08006232   0x00000002   PAD
    0x08006234   0x08006234   0x00000040   Code   RO         1839    .text               startup_stm32f10x_hd.o
    0x08006274   0x08006274   0x00000034   Code   RO         3958    .text               cpu_a.o
    0x080062a8   0x080062a8   0x00000002   Code   RO         6155    .text               c_w.l(use_no_semi_2.o)
    0x080062aa   0x080062aa   0x0000001a   Code   RO         6221    .text               c_w.l(tolower.o)
    0x080062c4   0x080062c4   0x00000018   Code   RO         6223    .text               c_w.l(__2printf.o)
    0x080062dc   0x080062dc   0x0000002c   Code   RO         6225    .text               c_w.l(__2sprintf.o)
    0x08006308   0x08006308   0x0000004e   Code   RO         6237    .text               c_w.l(_printf_pad.o)
    0x08006356   0x08006356   0x00000052   Code   RO         6239    .text               c_w.l(_printf_str.o)
    0x080063a8   0x080063a8   0x00000078   Code   RO         6241    .text               c_w.l(_printf_dec.o)
    0x08006420   0x08006420   0x00000058   Code   RO         6246    .text               c_w.l(_printf_hex_int.o)
    0x08006478   0x08006478   0x00000138   Code   RO         6276    .text               c_w.l(__printf_flags_wp.o)
    0x080065b0   0x080065b0   0x00000024   Code   RO         6292    .text               c_w.l(strstr.o)
    0x080065d4   0x080065d4   0x0000003e   Code   RO         6298    .text               c_w.l(strlen.o)
    0x08006612   0x08006612   0x00000096   Code   RO         6300    .text               c_w.l(strncmp.o)
    0x080066a8   0x080066a8   0x0000008a   Code   RO         6302    .text               c_w.l(rt_memcpy_v6.o)
    0x08006732   0x08006732   0x00000064   Code   RO         6304    .text               c_w.l(rt_memcpy_w.o)
    0x08006796   0x08006796   0x00000044   Code   RO         6306    .text               c_w.l(rt_memclr.o)
    0x080067da   0x080067da   0x0000004e   Code   RO         6308    .text               c_w.l(rt_memclr_w.o)
    0x08006828   0x08006828   0x00000006   Code   RO         6310    .text               c_w.l(heapauxi.o)
    0x0800682e   0x0800682e   0x00000002   Code   RO         6356    .text               c_w.l(use_no_semi.o)
    0x08006830   0x08006830   0x00000010   Code   RO         6361    .text               c_w.l(rt_ctype_table.o)
    0x08006840   0x08006840   0x00000016   Code   RO         6392    .text               c_w.l(_rserrno.o)
    0x08006856   0x08006856   0x000000b2   Code   RO         6394    .text               c_w.l(_printf_intcommon.o)
    0x08006908   0x08006908   0x00000030   Code   RO         6398    .text               c_w.l(_printf_char_common.o)
    0x08006938   0x08006938   0x0000000a   Code   RO         6400    .text               c_w.l(_sputc.o)
    0x08006942   0x08006942   0x0000002c   Code   RO         6404    .text               c_w.l(_printf_char.o)
    0x0800696e   0x0800696e   0x00000002   PAD
    0x08006970   0x08006970   0x00000024   Code   RO         6406    .text               c_w.l(_printf_char_file.o)
    0x08006994   0x08006994   0x00000008   Code   RO         6500    .text               c_w.l(libspace.o)
    0x0800699c   0x0800699c   0x00000008   Code   RO         6523    .text               c_w.l(rt_locale_intlibspace.o)
    0x080069a4   0x080069a4   0x00000008   Code   RO         6528    .text               c_w.l(rt_errno_addr_intlibspace.o)
    0x080069ac   0x080069ac   0x00000008   Code   RO         6569    .text               c_w.l(ferror.o)
    0x080069b4   0x080069b4   0x0000004a   Code   RO         6597    .text               c_w.l(sys_stackheap_outer.o)
    0x080069fe   0x080069fe   0x00000012   Code   RO         6603    .text               c_w.l(exit.o)
    0x08006a10   0x08006a10   0x00000080   Code   RO         6613    .text               c_w.l(strcmpv7m.o)
    0x08006a90   0x08006a90   0x00000098   Code   RO         5486    CODE                os_cpu_a.o
    0x08006b28   0x08006b28   0x00000010   Code   RO         3609    i.BKP_DeInit        stm32f10x_bkp.o
    0x08006b38   0x08006b38   0x0000001c   Code   RO         3614    i.BKP_ReadBackupRegister  stm32f10x_bkp.o
    0x08006b54   0x08006b54   0x0000001c   Code   RO         3618    i.BKP_WriteBackupRegister  stm32f10x_bkp.o
    0x08006b70   0x08006b70   0x00000010   Code   RO         3745    i.BSP_CPU_ClkFreq   bsp.o
    0x08006b80   0x08006b80   0x00000004   Code   RO          240    i.BusFault_Handler  stm32f10x_it.o
    0x08006b84   0x08006b84   0x0000000c   Code   RO         3786    i.CPU_Init          cpu_core.o
    0x08006b90   0x08006b90   0x00000030   Code   RO         3787    i.CPU_NameClr       cpu_core.o
    0x08006bc0   0x08006bc0   0x00000008   Code   RO         3789    i.CPU_NameInit      cpu_core.o
    0x08006bc8   0x08006bc8   0x00000014   Code   RO         3793    i.CPU_TS_Init       cpu_core.o
    0x08006bdc   0x08006bdc   0x0000000c   Code   RO         3795    i.CPU_TS_TmrFreqSet  cpu_core.o
    0x08006be8   0x08006be8   0x00000034   Code   RO         3747    i.CPU_TS_TmrInit    bsp.o
    0x08006c1c   0x08006c1c   0x0000000c   Code   RO         3748    i.CPU_TS_TmrRd      bsp.o
    0x08006c28   0x08006c28   0x00000044   Code   RO         1587    i.Control_Beep      function.o
    0x08006c6c   0x08006c6c   0x0000005c   Code   RO         1588    i.Control_Relay     function.o
    0x08006cc8   0x08006cc8   0x00000094   Code   RO            1    i.Control_task      main.o
    0x08006d5c   0x08006d5c   0x000001d0   Code   RO         1589    i.DHCP_SET          function.o
    0x08006f2c   0x08006f2c   0x000000a4   Code   RO         1443    i.DHCP_init         dhcp.o
    0x08006fd0   0x08006fd0   0x000001d8   Code   RO         1444    i.DHCP_run          dhcp.o
    0x080071a8   0x080071a8   0x00000002   Code   RO          241    i.DebugMon_Handler  stm32f10x_it.o
    0x080071aa   0x080071aa   0x00000002   PAD
    0x080071ac   0x080071ac   0x0000000c   Code   RO         2606    i.FLASH_ClearFlag   stm32f10x_flash.o
    0x080071b8   0x080071b8   0x0000004c   Code   RO         2611    i.FLASH_ErasePage   stm32f10x_flash.o
    0x08007204   0x08007204   0x00000034   Code   RO         2612    i.FLASH_GetBank1Status  stm32f10x_flash.o
    0x08007238   0x08007238   0x00000014   Code   RO         2621    i.FLASH_Lock        stm32f10x_flash.o
    0x0800724c   0x0800724c   0x00000040   Code   RO         2624    i.FLASH_ProgramHalfWord  stm32f10x_flash.o
    0x0800728c   0x0800728c   0x00000018   Code   RO         2629    i.FLASH_Unlock      stm32f10x_flash.o
    0x080072a4   0x080072a4   0x00000026   Code   RO         2633    i.FLASH_WaitForLastOperation  stm32f10x_flash.o
    0x080072ca   0x080072ca   0x00000002   PAD
    0x080072cc   0x080072cc   0x000001b8   Code   RO         1590    i.Find_active       function.o
    0x08007484   0x08007484   0x00000116   Code   RO         1885    i.GPIO_Init         stm32f10x_gpio.o
    0x0800759a   0x0800759a   0x00000002   PAD
    0x0800759c   0x0800759c   0x00000090   Code   RO         1887    i.GPIO_PinRemapConfig  stm32f10x_gpio.o
    0x0800762c   0x0800762c   0x00000012   Code   RO         1891    i.GPIO_ReadOutputDataBit  stm32f10x_gpio.o
    0x0800763e   0x0800763e   0x00000004   Code   RO         1892    i.GPIO_ResetBits    stm32f10x_gpio.o
    0x08007642   0x08007642   0x00000004   Code   RO         1893    i.GPIO_SetBits      stm32f10x_gpio.o
    0x08007646   0x08007646   0x00000002   PAD
    0x08007648   0x08007648   0x0000007c   Code   RO         1591    i.Get_RelayState    function.o
    0x080076c4   0x080076c4   0x00000004   Code   RO          242    i.HardFault_Handler  stm32f10x_it.o
    0x080076c8   0x080076c8   0x00000010   Code   RO         1593    i.IAP_IRQ_Remap_Init  function.o
    0x080076d8   0x080076d8   0x00000144   Code   RO         1594    i.INPUT_active      function.o
    0x0800781c   0x0800781c   0x00000004   Code   RO          648    i.INTX_DISABLE      sys.o
    0x08007820   0x08007820   0x0000003a   Code   RO          458    i.Is_Leap_Year      rtc.o
    0x0800785a   0x0800785a   0x00000002   PAD
    0x0800785c   0x0800785c   0x000000ec   Code   RO          446    i.LED_Init          led.o
    0x08007948   0x08007948   0x00000076   Code   RO         5749    i.MQTTDeserialize_connack  mqttconnectclient.o
    0x080079be   0x080079be   0x000000a8   Code   RO         5837    i.MQTTDeserialize_publish  mqttdeserializepublish.o
    0x08007a66   0x08007a66   0x00000092   Code   RO         6069    i.MQTTDeserialize_suback  mqttsubscribeclient.o
    0x08007af8   0x08007af8   0x00000058   Code   RO         5912    i.MQTTPacket_decode  mqttpacket.o
    0x08007b50   0x08007b50   0x0000001c   Code   RO         5913    i.MQTTPacket_decodeBuf  mqttpacket.o
    0x08007b6c   0x08007b6c   0x00000036   Code   RO         5915    i.MQTTPacket_encode  mqttpacket.o
    0x08007ba2   0x08007ba2   0x00000002   PAD
    0x08007ba4   0x08007ba4   0x00000028   Code   RO         5917    i.MQTTPacket_len    mqttpacket.o
    0x08007bcc   0x08007bcc   0x00000066   Code   RO         5918    i.MQTTPacket_read   mqttpacket.o
    0x08007c32   0x08007c32   0x00000002   PAD
    0x08007c34   0x08007c34   0x00000168   Code   RO         5750    i.MQTTSerialize_connect  mqttconnectclient.o
    0x08007d9c   0x08007d9c   0x00000076   Code   RO         5751    i.MQTTSerialize_connectLength  mqttconnectclient.o
    0x08007e12   0x08007e12   0x00000012   Code   RO         5753    i.MQTTSerialize_pingreq  mqttconnectclient.o
    0x08007e24   0x08007e24   0x000000b0   Code   RO         6030    i.MQTTSerialize_publish  mqttserializepublish.o
    0x08007ed4   0x08007ed4   0x00000022   Code   RO         6031    i.MQTTSerialize_publishLength  mqttserializepublish.o
    0x08007ef6   0x08007ef6   0x000000b0   Code   RO         6070    i.MQTTSerialize_subscribe  mqttsubscribeclient.o
    0x08007fa6   0x08007fa6   0x0000002e   Code   RO         6071    i.MQTTSerialize_subscribeLength  mqttsubscribeclient.o
    0x08007fd4   0x08007fd4   0x0000004c   Code   RO         5754    i.MQTTSerialize_zero  mqttconnectclient.o
    0x08008020   0x08008020   0x00000428   Code   RO            2    i.MQTT_task         main.o
    0x08008448   0x08008448   0x00000018   Code   RO         5920    i.MQTTstrlen        mqttpacket.o
    0x08008460   0x08008460   0x00000004   Code   RO          243    i.MemManage_Handler  stm32f10x_it.o
    0x08008464   0x08008464   0x00000012   Code   RO         4102    i.Mem_Clr           lib_mem.o
    0x08008476   0x08008476   0x00000054   Code   RO         4118    i.Mem_Set           lib_mem.o
    0x080084ca   0x080084ca   0x00000002   Code   RO          244    i.NMI_Handler       stm32f10x_it.o
    0x080084cc   0x080084cc   0x00000070   Code   RO         1843    i.NVIC_Init         misc.o
    0x0800853c   0x0800853c   0x00000014   Code   RO         1844    i.NVIC_PriorityGroupConfig  misc.o
    0x08008550   0x08008550   0x0000001a   Code   RO         1447    i.NibbleToHex       dhcp.o
    0x0800856a   0x0800856a   0x00000002   PAD
    0x0800856c   0x0800856c   0x000000fc   Code   RO         4371    i.OSCfg_Init        os_cfg_app.o
    0x08008668   0x08008668   0x00000014   Code   RO         5489    i.OSIdleTaskHook    os_cpu_c.o
    0x0800867c   0x0800867c   0x0000018c   Code   RO         4394    i.OSInit            os_core.o
    0x08008808   0x08008808   0x00000038   Code   RO         5490    i.OSInitHook        os_cpu_c.o
    0x08008840   0x08008840   0x0000002c   Code   RO         4395    i.OSIntEnter        os_core.o
    0x0800886c   0x0800886c   0x000000e4   Code   RO         4396    i.OSIntExit         os_core.o
    0x08008950   0x08008950   0x000000a8   Code   RO         4397    i.OSSched           os_core.o
    0x080089f8   0x080089f8   0x00000074   Code   RO         4398    i.OSSchedLock       os_core.o
    0x08008a6c   0x08008a6c   0x00000064   Code   RO         4399    i.OSSchedRoundRobinCfg  os_core.o
    0x08008ad0   0x08008ad0   0x00000094   Code   RO         4401    i.OSSchedUnlock     os_core.o
    0x08008b64   0x08008b64   0x00000068   Code   RO         4402    i.OSStart           os_core.o
    0x08008bcc   0x08008bcc   0x00000138   Code   RO         5094    i.OSStatReset       os_stat.o
    0x08008d04   0x08008d04   0x000000f0   Code   RO         5095    i.OSStatTaskCPUUsageInit  os_stat.o
    0x08008df4   0x08008df4   0x00000014   Code   RO         5491    i.OSStatTaskHook    os_cpu_c.o
    0x08008e08   0x08008e08   0x0000025c   Code   RO         5125    i.OSTaskCreate      os_task.o
    0x08009064   0x08009064   0x00000018   Code   RO         5492    i.OSTaskCreateHook  os_cpu_c.o
    0x0800907c   0x0800907c   0x000001c4   Code   RO         5126    i.OSTaskDel         os_task.o
    0x08009240   0x08009240   0x00000018   Code   RO         5493    i.OSTaskDelHook     os_cpu_c.o
    0x08009258   0x08009258   0x0000007c   Code   RO         5134    i.OSTaskResume      os_task.o
    0x080092d4   0x080092d4   0x00000018   Code   RO         5494    i.OSTaskReturnHook  os_cpu_c.o
    0x080092ec   0x080092ec   0x00000214   Code   RO         5135    i.OSTaskSemPend     os_task.o
    0x08009500   0x08009500   0x000000d4   Code   RO         5139    i.OSTaskStkChk      os_task.o
    0x080095d4   0x080095d4   0x000000c0   Code   RO         5495    i.OSTaskStkInit     os_cpu_c.o
    0x08009694   0x08009694   0x00000060   Code   RO         5140    i.OSTaskSuspend     os_task.o
    0x080096f4   0x080096f4   0x00000088   Code   RO         5496    i.OSTaskSwHook      os_cpu_c.o
    0x0800977c   0x0800977c   0x00000118   Code   RO         5340    i.OSTimeDly         os_time.o
    0x08009894   0x08009894   0x000001f0   Code   RO         5341    i.OSTimeDlyHMSM     os_time.o
    0x08009a84   0x08009a84   0x00000044   Code   RO         5345    i.OSTimeTick        os_time.o
    0x08009ac8   0x08009ac8   0x00000014   Code   RO         5497    i.OSTimeTickHook    os_cpu_c.o
    0x08009adc   0x08009adc   0x000001b0   Code   RO         4640    i.OS_Dbg_Init       os_dbg.o
    0x08009c8c   0x08009c8c   0x00000018   Code   RO         4665    i.OS_FlagInit       os_flag.o
    0x08009ca4   0x08009ca4   0x00000230   Code   RO         4666    i.OS_FlagPost       os_flag.o
    0x08009ed4   0x08009ed4   0x00000056   Code   RO         4667    i.OS_FlagTaskRdy    os_flag.o
    0x08009f2a   0x08009f2a   0x00000002   PAD
    0x08009f2c   0x08009f2c   0x00000044   Code   RO         4404    i.OS_IdleTask       os_core.o
    0x08009f70   0x08009f70   0x00000070   Code   RO         4405    i.OS_IdleTaskInit   os_core.o
    0x08009fe0   0x08009fe0   0x000000fc   Code   RO         4739    i.OS_IntQPost       os_int.o
    0x0800a0dc   0x0800a0dc   0x000001a4   Code   RO         4740    i.OS_IntQRePost     os_int.o
    0x0800a280   0x0800a280   0x000000b4   Code   RO         4741    i.OS_IntQTask       os_int.o
    0x0800a334   0x0800a334   0x00000128   Code   RO         4742    i.OS_IntQTaskInit   os_int.o
    0x0800a45c   0x0800a45c   0x00000018   Code   RO         4773    i.OS_MemInit        os_mem.o
    0x0800a474   0x0800a474   0x00000036   Code   RO         4805    i.OS_MsgPoolCreate  os_msg.o
    0x0800a4aa   0x0800a4aa   0x00000002   PAD
    0x0800a4ac   0x0800a4ac   0x00000054   Code   RO         4806    i.OS_MsgPoolInit    os_msg.o
    0x0800a500   0x0800a500   0x00000044   Code   RO         4807    i.OS_MsgQFreeAll    os_msg.o
    0x0800a544   0x0800a544   0x0000000e   Code   RO         4809    i.OS_MsgQInit       os_msg.o
    0x0800a552   0x0800a552   0x00000002   PAD
    0x0800a554   0x0800a554   0x000000fc   Code   RO         4810    i.OS_MsgQPut        os_msg.o
    0x0800a650   0x0800a650   0x00000018   Code   RO         4855    i.OS_MutexInit      os_mutex.o
    0x0800a668   0x0800a668   0x00000068   Code   RO         4406    i.OS_Pend           os_core.o
    0x0800a6d0   0x0800a6d0   0x00000026   Code   RO         4409    i.OS_PendDataInit   os_core.o
    0x0800a6f6   0x0800a6f6   0x00000002   PAD
    0x0800a6f8   0x0800a6f8   0x0000005c   Code   RO         4410    i.OS_PendDbgNameAdd  os_core.o
    0x0800a754   0x0800a754   0x00000024   Code   RO         4411    i.OS_PendDbgNameRemove  os_core.o
    0x0800a778   0x0800a778   0x00000066   Code   RO         4415    i.OS_PendListInsertPrio  os_core.o
    0x0800a7de   0x0800a7de   0x00000030   Code   RO         4416    i.OS_PendListRemove  os_core.o
    0x0800a80e   0x0800a80e   0x00000042   Code   RO         4417    i.OS_PendListRemove1  os_core.o
    0x0800a850   0x0800a850   0x000000c0   Code   RO         4420    i.OS_Post           os_core.o
    0x0800a910   0x0800a910   0x0000002a   Code   RO         4421    i.OS_Post1          os_core.o
    0x0800a93a   0x0800a93a   0x00000002   PAD
    0x0800a93c   0x0800a93c   0x00000028   Code   RO         4913    i.OS_PrioGetHighest  os_prio.o
    0x0800a964   0x0800a964   0x00000018   Code   RO         4914    i.OS_PrioInit       os_prio.o
    0x0800a97c   0x0800a97c   0x00000024   Code   RO         4915    i.OS_PrioInsert     os_prio.o
    0x0800a9a0   0x0800a9a0   0x00000024   Code   RO         4916    i.OS_PrioRemove     os_prio.o
    0x0800a9c4   0x0800a9c4   0x00000018   Code   RO         4959    i.OS_QInit          os_q.o
    0x0800a9dc   0x0800a9dc   0x0000014c   Code   RO         4960    i.OS_QPost          os_q.o
    0x0800ab28   0x0800ab28   0x00000024   Code   RO         4422    i.OS_RdyListInit    os_core.o
    0x0800ab4c   0x0800ab4c   0x0000002c   Code   RO         4423    i.OS_RdyListInsert  os_core.o
    0x0800ab78   0x0800ab78   0x00000040   Code   RO         4424    i.OS_RdyListInsertHead  os_core.o
    0x0800abb8   0x0800abb8   0x0000003c   Code   RO         4425    i.OS_RdyListInsertTail  os_core.o
    0x0800abf4   0x0800abf4   0x00000044   Code   RO         4426    i.OS_RdyListMoveHeadToTail  os_core.o
    0x0800ac38   0x0800ac38   0x0000005c   Code   RO         4427    i.OS_RdyListRemove  os_core.o
    0x0800ac94   0x0800ac94   0x0000005c   Code   RO         4428    i.OS_Sched0         os_core.o
    0x0800acf0   0x0800acf0   0x0000001c   Code   RO         4429    i.OS_SchedLockTimeMeasStart  os_core.o
    0x0800ad0c   0x0800ad0c   0x0000003c   Code   RO         4430    i.OS_SchedLockTimeMeasStop  os_core.o
    0x0800ad48   0x0800ad48   0x000000d0   Code   RO         4431    i.OS_SchedRoundRobin  os_core.o
    0x0800ae18   0x0800ae18   0x00000018   Code   RO         5031    i.OS_SemInit        os_sem.o
    0x0800ae30   0x0800ae30   0x00000164   Code   RO         5032    i.OS_SemPost        os_sem.o
    0x0800af94   0x0800af94   0x0000035c   Code   RO         5096    i.OS_StatTask       os_stat.o
    0x0800b2f0   0x0800b2f0   0x000000cc   Code   RO         5097    i.OS_StatTaskInit   os_stat.o
    0x0800b3bc   0x0800b3bc   0x00000038   Code   RO         4432    i.OS_TaskBlock      os_core.o
    0x0800b3f4   0x0800b3f4   0x00000030   Code   RO         5142    i.OS_TaskDbgListAdd  os_task.o
    0x0800b424   0x0800b424   0x00000044   Code   RO         5143    i.OS_TaskDbgListRemove  os_task.o
    0x0800b468   0x0800b468   0x00000020   Code   RO         5144    i.OS_TaskInit       os_task.o
    0x0800b488   0x0800b488   0x000000c8   Code   RO         5145    i.OS_TaskInitTCB    os_task.o
    0x0800b550   0x0800b550   0x0000020c   Code   RO         5146    i.OS_TaskQPost      os_task.o
    0x0800b75c   0x0800b75c   0x0000001c   Code   RO         4433    i.OS_TaskRdy        os_core.o
    0x0800b778   0x0800b778   0x00000140   Code   RO         5147    i.OS_TaskResume     os_task.o
    0x0800b8b8   0x0800b8b8   0x00000018   Code   RO         5148    i.OS_TaskReturn     os_task.o
    0x0800b8d0   0x0800b8d0   0x000004c4   Code   RO         5149    i.OS_TaskSemPost    os_task.o
    0x0800bd94   0x0800bd94   0x00000150   Code   RO         5150    i.OS_TaskSuspend    os_task.o
    0x0800bee4   0x0800bee4   0x00000028   Code   RO         5292    i.OS_TickListInit   os_tick.o
    0x0800bf0c   0x0800bf0c   0x000001bc   Code   RO         5293    i.OS_TickListInsert  os_tick.o
    0x0800c0c8   0x0800c0c8   0x00000038   Code   RO         5294    i.OS_TickListRemove  os_tick.o
    0x0800c100   0x0800c100   0x00000024   Code   RO         5295    i.OS_TickListResetPeak  os_tick.o
